:0400000057EF00F0C6
:0C000800FACF18F0FBCF19F0FFEF03F067
:10001800D8CF04F0E8CF05F0E0CF06F0FACF07F02C
:10002800FBCF08F0E9CF09F0EACF0AF0E1CF0BF0F7
:10003800E2CF0CF0D9CF0DF0DACF0EF0F3CF0FF0FE
:10004800F4CF10F0F6CF11F0F7CF12F0F8CF13F08D
:10005800F5CF14F0036E000E026E03503AEC04F074
:1000680014C0F5FF13C0F8FF12C0F7FF11C0F6FF68
:1000780010C0F4FF0FC0F3FF0EC0DAFF0DC0D9FFA8
:100088000CC0E2FF0BC0E1FF0AC0EAFF09C0E9FFAC
:1000980008C0FBFF07C0FAFF06C0E0FF05C0E8FF85
:1000A80004C0D8FF1000C3EF04F000010001696725
:1000B80005D09EA8FED76AC0ADFF00D23604D8B4DA
:1000C800FDD700016B6F000E376E00016B51000108
:1000D8006B6F010E356E00016B5100016B6F010EE5
:1000E800346E00016B51000100016AC060F000012C
:1000F8000001616B000E00010001636F800E0001BA
:10010800626F63EC02F0000100016051336E3350FE
:10011800800DF31EF41EF34AF42A000100016A510F
:10012800F32400010001606F0001000EF420616FEC
:10013800000E00010001636F400E0001626F63EC66
:1001480002F0000100016051326E3350800DF31E41
:10015800F41EF34AF42A000100016A51F324000155
:100168006B6F0001000EF4206C6F3250400DF31ECF
:10017800F41EF34AF42AF35000016B250001000134
:10018800606FF45000016C210001616F000E0001E6
:100198000001636F200E0001626F63EC02F0000142
:1001A80000016051316E3350800DF31EF41EF34A86
:1001B800F42A000100016A51F32400016B6F000169
:1001C800000EF4206C6F3250400DF31EF41EF34AFB
:1001D800F42AF35000016B2500016D6FF450000103
:1001E8006C2100016E6F3150200DF31EF41EF34A8E
:1001F800F42AF35000016D2500010001606FF450EE
:1002080000016E210001616F000E00010001636FA3
:10021800100E0001626F63EC02F0000100016051F2
:10022800306E3350800DF31EF41EF34AF42A000199
:1002380000016A51F32400016B6F0001000EF420E5
:100248006C6F3250400DF31EF41EF34AF42AF3503B
:1002580000016B2500016D6FF45000016C21000155
:100268006E6F3150200DF31EF41EF34AF42AF3503A
:1002780000016D2500016F6FF45000016E2100012F
:10028800706F3050100DF31EF41EF34AF42AF35029
:1002980000016F2500010001606FF450000170211A
:1002A8000001616F000E00010001636F080E00017C
:1002B800626F63EC02F00001000160512F6E335051
:1002C800800DF31EF41EF34AF42A000100016A515E
:1002D800F32400016B6F0001000EF4206C6F3250A4
:1002E800400DF31EF41EF34AF42AF35000016B2567
:1002F80000016D6FF45000016C2100016E6F3150E8
:10030800200DF31EF41EF34AF42AF35000016D2564
:1003180000016F6FF45000016E210001706F3050C2
:10032800100DF31EF41EF34AF42AF35000016F2552
:100338000001716FF450000170210001726F2F509D
:10034800080DF31EF41EF34AF42AF3500001712538
:1003580000010001606FF450000172210001616F1B
:10036800000E00010001636F040E0001626F63EC70
:1003780002F00001000160512E6E2E5000016B6FDB
:100388006C6B00016B1F6C1F6B4B6C2B3350800D1B
:10039800F31EF41EF34AF42A000100016A51F32403
:1003A80000016D6F0001000EF4206E6F3250400D99
:1003B800F31EF41EF34AF42AF35000016D250001E0
:1003C8006F6FF45000016E210001706F3150200DE5
:1003D800F31EF41EF34AF42AF35000016F250001BE
:1003E800716FF450000170210001726F3050100DD0
:1003F800F31EF41EF34AF42AF3500001712500019C
:10040800736FF450000172210001746F2F50080DB2
:10041800F31EF41EF34AF42AF35000017325000179
:10042800756FF450000174210001766F00016B5163
:100438000001752500010001606F00016C51000189
:1004480076210001616F000E00010001636F020E4A
:100458000001626F63EC02F00001000160512D6E33
:100468002F50080DF3CF6BF03050100DF3CF6CF018
:100478003150200DF3CF6DF03250400DF3CF6EF0B8
:100488003350800DF35000016E2500016D250001E9
:100498006C2500016B252E242D2400080001000185
:1004A8006A252C6E00016B6F000E2B6E00016B51DC
:1004B80000016B6F010E366E00016B5112000001D6
:1004C800646F000E00010001666F000164510001B5
:1004D800000163AF0FD000010001626D0001631FCE
:1004E800D8B0632B0001646F010E00010001666F34
:1004F800000164510001000161AF0BD0000100014F
:10050800606D0001611FD8B0612B010E0001000170
:10051800661B000E00010001686F000E0001676F86
:100528000001000163516211D8B443D00001646F27
:10053800010E00010001656F0001645109D000013E
:1005480000010001D8906237633700010001652B74
:100558000001000163AFF3D7000100010001D8904A
:100568006737683700010001625100010001605DD2
:10057800000100016351000100016159D8A00FD0AA
:1005880000010001625100010001605F00010001EB
:10059800635100010001615B0001000167810001F6
:1005A80000010001D8906333623300010001652F18
:1005B800D3D7000100016651D8B407D0000100016B
:1005C800676D0001681FD8B0682B67C060F068C00D
:1005D80061F0120092909292929492869288929AE6
:1005E800928C928E93909392939493969398939AD5
:1005F800939C939E94909492949494869498949AAD
:10060800948C948E95909592958495969598959AB4
:10061800959C959E969096929694899089928994A5
:1006280089968998899A899C899E8A908A928A94BF
:100638008A968A988A9A8A9C8A9E8B908B928B94A7
:100648008B968B988B9A8B9C8B9E8C908C928C948F
:100658008C968C988C9A8C9C8C9E8D908D928D9477
:100668001200F28EF28CF28AF288F296F294F292EA
:10067800F290F19CF19AF198F184F09EF09CF09838
:10068800F09EF092F0909E9C9E9A9E989E969E94C4
:100698009E929E90A19EA198A194A190A498A496A0
:1006A800A494A492A490D08E9F9C9F9A9F989F9662
:1006B8009F949F929F80A29EA288A294A290A598A0
:1006C800A586A584A592A5909D9C9D8A9D989D969A
:1006D8009D949D929D80A09EA088A094A090A39890
:1006E800A386A384A392A39012009E90FC0ECF6EC3
:1006F800D50ECE6E010E2626000E2722000E2822C9
:10070800000E29222A04D8A403D0016E000E02D0BC
:10071800016E010E2A6E01502AB002D0819001D0DC
:100728008180000E266E000E276E000E286E000EC9
:10073800296E3604D8A41BD03750010D2B0EF32494
:10074800D96E000EF420DA6EDF50016E013A0146D0
:1007580082500118DF0B0118826E372A20EE37F01D
:100768000A0EDF6404D0016E000E366E01501200CE
:100778009E90FC0ECF6ED50ECE6E010E2626000E74
:100788002722000E2822000E29222A04D8A403D0EA
:10079800156E000E02D0156E010E2A6E15502AB085
:1007A80002D0819001D08180000E266E000E276E47
:1007B800000E286E000E296E3604D8A41BD03750C0
:1007C800010D2B0EF324D96E000EF420DA6EDF50E3
:1007D800156E153A154682501518DF0B1518826EDE
:1007E800372A20EE37F00A0EDF6404D0156E000EAB
:1007F800366E15501200E9CF1AF0EACF1BF0E1CFA0
:100808001CF0E2CF1DF0D9CF1EF0DACF1FF0F3CFE6
:1008180020F0F4CF21F0F6CF22F0F7CF23F0F8CF75
:1008280024F0F5CF25F0176E010E166E17506BECFD
:1008380004F025C0F5FF24C0F8FF23C0F7FF22C04D
:10084800F6FF21C0F4FF20C0F3FF1FC0DAFF1EC06F
:10085800D9FF1DC0E2FF1CC0E1FF1BC0EAFF1AC0A0
:10086800E9FF19C0FBFF18C0FAFF1100A4A406D0C5
:100878000204D8A403D029EC05F028D0A4A606D0F9
:100888000204D8A403D027EC05F020D0F2A406D0A7
:100898000204D8A403D015EC05F018D09EA006D009
:1008A8000204D8A403D079EC03F010D09E50F2A231
:1008B80005D0026603D023EC05F008D09EAA05D027
:1008C800026603D011EC05F001D09E501200A4A4DA
:1008D80006D01604D8A403D02FEC05F028D0A4A67F
:1008E80006D01604D8A403D02DEC05F020D0F2A42D
:1008F80006D01604D8A403D01DEC05F018D09EA08D
:1009080006D01604D8A403D0BCEC03F010D09E5037
:10091800F2A205D0166603D031EC05F008D09EAAE5
:1009280005D0166603D019EC05F001D09E501200D0
:1009380008EC05F0000E000100017F6F000E0001B9
:100948007E6FC20E00010001616F000E0001606F32
:10095800E3EC04F0828000017C6F010E00010001CD
:10096800696F00017C5100017D6F310E00010001AB
:100978006A6F00017D5159EC00F0EDD7FFD700EE0A
:1009880080F00F0EEE6AE806FDE100EE26F01A0E82
:10099800EE6AE806FDE1000EF86E00019CEF04F037
:1009A8000001606F000E366E000160510001606F3B
:1009B800000E376E00016051F1EC04F01200AC8AB1
:1009C800AC9CAC98AC96AC84AC9CAA86AA90230E3E
:1009D800AF6EAB8EAB9CAB881200CD8ECD9CCD920A
:1009E800CD86CD98CD9AFF0ECF6EEF0ECE6ECD8010
:1009F8001200D58CD550F80B0409D56ED59AD5962A
:100A0800830ED66ED58E1200EEEC02F035EC03F0B4
:100A1800FDEC04F0D4EC04F012009E9AAECF01F085
:100A28001200F294830ED66E12009E9AAECF15F085
:100A38001200F294830ED66E12009E981200F29263
:100A480012009E921200A4961200A49412009E987E
:100A58001200A4961200A4941200F29212009E9220
:020A680012007A
:020000040020DA
:08000000FFFFFFFFFFFFFFFF00
:020000040030CA
:0E000000FF060D3E1C9D80FF0FC00FE00F405D
:00000001FF
