:0400000057EF00F0C6
:0C000800FACF61F0FBCF62F055EF12F070
:10001800D8CF29F0E8CF2AF0E0CF2BF0FACF2CF098
:10002800FBCF2DF0E9CF2EF0EACF2FF0E1CF30F063
:10003800E2CF31F0D9CF32F0DACF33F0F3CF34F06A
:10004800F4CF35F0F6CF36F0F7CF37F0F8CF38F0F9
:10005800F5CF39F0286E000E276E2850C2EC13F049
:1000680039C0F5FF38C0F8FF37C0F7FF36C0F6FFD4
:1000780035C0F4FF34C0F3FF33C0DAFF32C0D9FF14
:1000880031C0E2FF30C0E1FF2FC0EAFF2EC0E9FF18
:100098002DC0FBFF2CC0FAFF2BC0E0FF2AC0E8FFF1
:0A00A80029C0D8FF100061EF14F02A
:100300002064616E73206C6520627566666572207C
:100310000A0A0D000A0A0A0A0D2054455354203ACD
:10032000200A0A0A0A0D00494C20792061200000A9
:10033000000E00010001D26F000E0001D16F00011C
:10034000000184AF2AD081C03DF082C03EF083C05E
:100350003FF084C040F0FF0E416EFF0E426EFF0E74
:10036000436EFF0E446E92EC12F040C084F03FC02A
:1003700083F03EC082F03DC081F0010E000100011B
:10038000D125D96E000E00010001D221DA6E2D0EAA
:10039000DF6E00010001D14BD22B81C073F082C00F
:1003A00074F083C075F084C076F0000E0001000187
:1003B000776FCA0E0001786F9A0E0001796F3B0EBD
:1003C00000017A6FB3EC0EF076C0ACF075C0ABF004
:1003D00074C0AAF073C0A9F0000E416ECA0E426E3E
:1003E0009A0E436E3B0E446EA9C03DF0AAC03EF08B
:1003F000ABC03FF0ACC040F092EC12F03D1E3E1E90
:100400003F1E401E3D2A000E3E223F224022000198
:100410000001815100013D2500010001736F0001C1
:100420000001825100013E210001746F00010001B2
:10043000835100013F210001756F000100018451CB
:10044000000140210001766F000E00010001776F6E
:10045000E10E0001786FF50E0001796F050E0001C5
:100460007A6FB3EC0EF076C0B0F075C0AFF074C028
:10047000AEF073C0ADF0000E416ECA0E426E9A0E21
:10048000436E3B0E446EA9C03DF0AAC03EF0ABC027
:100490003FF0ACC040F092EC12F03DC085F03EC0A1
:1004A00086F03FC087F040C088F0000E416EE10E3C
:1004B000426EF50E436E050E446EADC03DF0AEC00B
:1004C0003EF0AFC03FF0B0C040F092EC12F03D50B3
:1004D000000185250001896F3E5000018621000141
:1004E0008A6F3F500001872100018B6F405000014F
:1004F000882100018C6F0001891F8A1F8B1F8C1FB0
:10050000892B000E8A238B238C230001000181514B
:100510000001892500010001736F00010001825173
:1005200000018A210001746F000100018351000164
:100530008B210001756F00010001845100018C21A5
:100540000001766F800E00010001776F960E0001AA
:10055000786F980E0001796F000E00017A6FB3EC8E
:100560000EF076C0B4F075C0B3F074C0B2F073C0D2
:10057000B1F0000E416ECA0E426E9A0E436E3B0EF3
:10058000446EA9C03DF0AAC03EF0ABC03FF0ACC085
:1005900040F092EC12F03DC085F03EC086F03FC0C6
:1005A00087F040C088F0000E416EE10E426EF50EFD
:1005B000436E050E446EADC03DF0AEC03EF0AFC020
:1005C0003FF0B0C040F092EC12F03D5000018525A4
:1005D0000001896F3E500001862100018A6F3F5063
:1005E0000001872100018B6F40500001882100012C
:1005F0008C6F800E416E960E426E980E436E000E0A
:10060000446EB1C03DF0B2C03EF0B3C03FF0B4C0E4
:1006100040F092EC12F03D500001892500018D6FF1
:100620003E5000018A2100018E6F3F5000018B2156
:1006300000018F6F405000018C210001906F00017C
:100640008D1F8E1F8F1F901F8D2B000E8E238F23CB
:10065000902300010001815100018D25000100015E
:10066000736F00010001825100018E210001746F3F
:1006700000010001835100018F210001756F00010D
:1006800000018451000190210001766F400E0001AD
:100690000001776F420E0001786F0F0E0001796F35
:1006A000000E00017A6FB3EC0EF076C0B8F075C0A2
:1006B000B7F074C0B6F073C0B5F0000E416ECA0E4C
:1006C000426E9A0E436E3B0E446EA9C03DF0AAC026
:1006D0003EF0ABC03FF0ACC040F092EC12F03DC039
:1006E00085F03EC086F03FC087F040C088F0000E25
:1006F000416EE10E426EF50E436E050E446EADC0C6
:100700003DF0AEC03EF0AFC03FF0B0C040F092EC64
:1007100012F03D50000185250001896F3E50000117
:10072000862100018A6F3F500001872100018B6FF5
:1007300040500001882100018C6F800E416E960EA2
:10074000426E980E436E000E446EB1C03DF0B2C0D2
:100750003EF0B3C03FF0B4C040F092EC12F03D5018
:100760000001892500018D6F3E5000018A210001A2
:100770008E6F3F5000018B2100018F6F40500001B0
:100780008C210001906F400E416E420E426E0F0EA2
:10079000436E000E446EB5C03DF0B6C03EF0B7C02B
:1007A0003FF0B8C040F092EC12F03D5000018D25B2
:1007B0000001916F3E5000018E210001926F3F5069
:1007C00000018F210001936F405000019021000132
:1007D000946F0001911F921F931F941F912B000E85
:1007E000922393239423000100018151000191255C
:1007F00000010001736F000100018251000192218C
:100800000001746F00010001835100019321000178
:10081000756F000100018451000194210001766F81
:10082000A00E00010001776F860E0001786F010EA7
:100830000001796F000E00017A6FB3EC0EF076C004
:10084000BCF075C0BBF074C0BAF073C0B9F0000E54
:10085000416ECA0E426E9A0E436E3B0E446EA9C0A4
:100860003DF0AAC03EF0ABC03FF0ACC040F092EC0F
:1008700012F03DC085F03EC086F03FC087F040C01A
:1008800088F0000E416EE10E426EF50E436E050ECD
:10089000446EADC03DF0AEC03EF0AFC03FF0B0C062
:1008A00040F092EC12F03D50000185250001896F67
:1008B0003E500001862100018A6F3F5000018721D0
:1008C00000018B6F40500001882100018C6F800E69
:1008D000416E960E426E980E436E000E446EB1C08D
:1008E0003DF0B2C03EF0B3C03FF0B4C040F092EC77
:1008F00012F03D500001892500018D6F3E5000012E
:100900008A2100018E6F3F5000018B2100018F6F03
:10091000405000018C210001906F400E416E420E4C
:10092000426E0F0E436E000E446EB5C03DF0B6C071
:100930003EF0B7C03FF0B8C040F092EC12F03D502E
:1009400000018D250001916F3E5000018E210001B4
:10095000926F3F5000018F210001936F40500001C2
:1009600090210001946FA00E416E860E426E010E22
:10097000436E000E446EB9C03DF0BAC03EF0BBC03D
:100980003FF0BCC040F092EC12F03D5000019125C8
:100990000001956F3E50000192210001966F3F507B
:1009A000000193210001976F405000019421000144
:1009B000986F0001951F961F971F981F952B000E8B
:1009C000962397239823000100018151000195256A
:1009D00000010001736F00010001825100019621A6
:1009E0000001746F00010001835100019721000193
:1009F000756F000100018451000198210001766F9C
:100A0000100E00010001776F270E0001786F000EB5
:100A10000001796F000E00017A6FB3EC0EF076C022
:100A2000C0F075C0BFF074C0BEF073C0BDF0000E62
:100A3000416ECA0E426E9A0E436E3B0E446EA9C0C2
:100A40003DF0AAC03EF0ABC03FF0ACC040F092EC2D
:100A500012F03DC085F03EC086F03FC087F040C038
:100A600088F0000E416EE10E426EF50E436E050EEB
:100A7000446EADC03DF0AEC03EF0AFC03FF0B0C080
:100A800040F092EC12F03D50000185250001896F85
:100A90003E500001862100018A6F3F5000018721EE
:100AA00000018B6F40500001882100018C6F800E87
:100AB000416E960E426E980E436E000E446EB1C0AB
:100AC0003DF0B2C03EF0B3C03FF0B4C040F092EC95
:100AD00012F03D500001892500018D6F3E5000014C
:100AE0008A2100018E6F3F5000018B2100018F6F22
:100AF000405000018C210001906F400E416E420E6B
:100B0000426E0F0E436E000E446EB5C03DF0B6C08F
:100B10003EF0B7C03FF0B8C040F092EC12F03D504C
:100B200000018D250001916F3E5000018E210001D2
:100B3000926F3F5000018F210001936F40500001E0
:100B400090210001946FA00E416E860E426E010E40
:100B5000436E000E446EB9C03DF0BAC03EF0BBC05B
:100B60003FF0BCC040F092EC12F03D5000019125E6
:100B70000001956F3E50000192210001966F3F5099
:100B8000000193210001976F405000019421000162
:100B9000986F100E416E270E426E000E436E000ECF
:100BA000446EBDC03DF0BEC03EF0BFC03FF0C0C00F
:100BB00040F092EC12F03D50000195250001996F34
:100BC0003E500001962100019A6F3F50000197218D
:100BD00000019B6F40500001982100019C6F0001B3
:100BE000991F9A1F9B1F9C1F992B000E9A239B23D2
:100BF0009C230001000181510001992500010001A1
:100C0000736F00010001825100019A210001746F8D
:100C100000010001835100019B210001756F00015B
:100C20000001845100019C210001766FE80E000153
:100C30000001776F030E0001786F000E0001796FDD
:100C4000000E00017A6FB3EC0EF076C0C4F075C0F0
:100C5000C3F074C0C2F073C0C1F0000E416ECA0E82
:100C6000426E9A0E436E3B0E446EA9C03DF0AAC080
:100C70003EF0ABC03FF0ACC040F092EC12F03DC093
:100C800085F03EC086F03FC087F040C088F0000E7F
:100C9000416EE10E426EF50E436E050E446EADC020
:100CA0003DF0AEC03EF0AFC03FF0B0C040F092ECBF
:100CB00012F03D50000185250001896F3E50000172
:100CC000862100018A6F3F500001872100018B6F50
:100CD00040500001882100018C6F800E416E960EFD
:100CE000426E980E436E000E446EB1C03DF0B2C02D
:100CF0003EF0B3C03FF0B4C040F092EC12F03D5073
:100D00000001892500018D6F3E5000018A210001FC
:100D10008E6F3F5000018B2100018F6F405000010A
:100D20008C210001906F400E416E420E426E0F0EFC
:100D3000436E000E446EB5C03DF0B6C03EF0B7C085
:100D40003FF0B8C040F092EC12F03D5000018D250C
:100D50000001916F3E5000018E210001926F3F50C3
:100D600000018F210001936F40500001902100018C
:100D7000946FA00E416E860E426E010E436E000E01
:100D8000446EB9C03DF0BAC03EF0BBC03FF0BCC03D
:100D900040F092EC12F03D50000191250001956F5A
:100DA0003E50000192210001966F3F5000019321B7
:100DB0000001976F4050000194210001986F100EC0
:100DC000416E270E426E000E436E000E446EBDC093
:100DD0003DF0BEC03EF0BFC03FF0C0C040F092EC5E
:100DE00012F03D50000195250001996F3E50000121
:100DF000962100019A6F3F500001972100019B6FDF
:100E000040500001982100019C6FE80E416E030ED6
:100E1000426E000E436E000E446EC1C03DF0C2C073
:100E20003EF0C3C03FF0C4C040F092EC12F03D5021
:100E30000001992500019D6F3E5000019A2100019B
:100E40009E6F3F5000019B2100019F6F40500001A9
:100E50009C210001A06F00019D1F9E1F9F1FA01FCE
:100E60009D2B000E9E239F23A02300010001815192
:100E700000019D2500010001736F000100018251F6
:100E800000019E210001746F0001000183510001E7
:100E90009F210001756F0001000184510001A02114
:100EA0000001766F640E00010001776F000E0001F3
:100EB000786F000E0001796F000E00017A6FB3ECBD
:100EC0000EF076C0C8F075C0C7F074C0C6F073C02D
:100ED000C5F0000E416ECA0E426E9A0E436E3B0E76
:100EE000446EA9C03DF0AAC03EF0ABC03FF0ACC01C
:100EF00040F092EC12F03DC085F03EC086F03FC05D
:100F000087F040C088F0000E416EE10E426EF50E93
:100F1000436E050E446EADC03DF0AEC03EF0AFC0B6
:100F20003FF0B0C040F092EC12F03D50000185253A
:100F30000001896F3E500001862100018A6F3F50F9
:100F40000001872100018B6F4050000188210001C2
:100F50008C6F800E416E960E426E980E436E000EA0
:100F6000446EB1C03DF0B2C03EF0B3C03FF0B4C07B
:100F700040F092EC12F03D500001892500018D6F88
:100F80003E5000018A2100018E6F3F5000018B21ED
:100F900000018F6F405000018C210001906F400EC6
:100FA000416E420E426E0F0E436E000E446EB5C08F
:100FB0003DF0B6C03EF0B7C03FF0B8C040F092EC94
:100FC00012F03D5000018D250001916F3E5000014F
:100FD0008E210001926F3F5000018F210001936F1D
:100FE0004050000190210001946FA00E416E860ECA
:100FF000426E010E436E000E446EB9C03DF0BAC0A1
:101000003EF0BBC03FF0BCC040F092EC12F03D504F
:10101000000191250001956F3E50000192210001D1
:10102000966F3F50000193210001976F40500001DF
:1010300094210001986F100E416E270E426E000E33
:10104000436E000E446EBDC03DF0BEC03EF0BFC05A
:101050003FF0C0C040F092EC12F03D5000019525E9
:101060000001996F3E500001962100019A6F3F5098
:101070000001972100019B6F405000019821000161
:101080009C6FE80E416E030E426E000E436E000E22
:10109000446EC1C03DF0C2C03EF0C3C03FF0C4C00A
:1010A00040F092EC12F03D500001992500019D6F37
:1010B0003E5000019A2100019E6F3F5000019B218C
:1010C00000019F6F405000019C210001A06F640E41
:1010D000416E000E426E000E436E000E446EC5C09F
:1010E0003DF0C6C03EF0C7C03FF0C8C040F092EC33
:1010F00012F03D5000019D250001A16F3E500001FE
:101100009E210001A26F3F5000019F210001A36FAB
:1011100040500001A0210001A46F0001A11FA21FE7
:10112000A31FA41FA12B000EA223A323A42300010D
:10113000000181510001A12500010001736F000130
:10114000000182510001A2210001746F0001000121
:1011500083510001A3210001756F0001000184513A
:101160000001A4210001766F0A0E00010001776FD3
:10117000000E0001786F000E0001796F000E000173
:101180007A6FB3EC0EF076C0CCF075C0CBF074C0C3
:10119000CAF073C0C9F0A9C03DF0AAC03EF0ABC010
:1011A0003FF0ACC040F0000E416ECA0E426E9A0E87
:1011B000436E3B0E446E92EC12F03DC085F03EC093
:1011C00086F03FC087F040C088F0ADC03DF0AEC0B3
:1011D0003EF0AFC03FF0B0C040F0000E416EE10EF7
:1011E000426EF50E436E050E446E92EC12F03D50C9
:1011F000000185250001896F3E5000018621000114
:101200008A6F3F500001872100018B6F4050000121
:10121000882100018C6FB1C03DF0B2C03EF0B3C078
:101220003FF0B4C040F0800E416E960E426E980EB4
:10123000436E000E446E92EC12F03D500001892581
:1012400000018D6F3E5000018A2100018E6F3F50DA
:1012500000018B2100018F6F405000018C210001A3
:10126000906FB5C03DF0B6C03EF0B7C03FF0B8C01B
:1012700040F0400E416E420E426E0F0E436E000E65
:10128000446E92EC12F03D5000018D250001916FEB
:101290003E5000018E210001926F3F5000018F21CE
:1012A0000001936F4050000190210001946FB9C07C
:1012B0003DF0BAC03EF0BBC03FF0BCC040F0A00E55
:1012C000416E860E426E010E436E000E446E92EC2D
:1012D00012F03D50000191250001956F3E50000134
:1012E00092210001966F3F50000193210001976FFA
:1012F0004050000194210001986FBDC03DF0BEC078
:101300003EF0BFC03FF0C0C040F0100E416E270E4F
:10131000426E000E436E000E446E92EC12F03D5091
:10132000000195250001996F3E50000196210001B2
:101330009A6F3F500001972100019B6F40500001C0
:10134000982100019C6FC1C03DF0C2C03EF0C3C0F7
:101350003FF0C4C040F0E80E416E030E426E000E36
:10136000436E000E446E92EC12F03D500001992540
:1013700000019D6F3E5000019A2100019E6F3F5079
:1013800000019B2100019F6F405000019C21000142
:10139000A06FC5C03DF0C6C03EF0C7C03FF0C8C09A
:1013A00040F0640E416E000E426E000E436E000E61
:1013B000446E92EC12F03D5000019D250001A16F9A
:1013C0003E5000019E210001A26F3F5000019F216D
:1013D0000001A36F40500001A0210001A46FC9C00B
:1013E0003DF0CAC03EF0CBC03FF0CCC040F00A0E8A
:1013F000416E000E426E000E436E000E446E92EC83
:1014000012F03D500001A1250001A56F3E500001E2
:10141000A2210001A66F3F500001A3210001A76F88
:1014200040500001A4210001A86F0001A51FA61FC4
:10143000A71FA81FA52B000EA623A723A8230001E2
:10144000000181510001A52500010001CD6F0001BF
:10145000000182510001A6210001CE6F00010001B0
:1014600083510001A7210001CF6F000100018451C9
:101470000001A8210001D06F010E00010001D1255B
:10148000D96E000E00010001D221DA6E00010001C8
:10149000A951300FDF6E00010001D14BD22B010E9C
:1014A00000010001D125D96E000E00010001D221FA
:1014B000DA6E00010001AD51300FDF6E0001000156
:1014C000D14BD22B010E00010001D125D96E000EA7
:1014D00000010001D221DA6E00010001B151300F8C
:1014E000DF6E00010001D14BD22B010E0001000183
:1014F000D125D96E000E00010001D221DA6E000163
:101500000001B551300FDF6E00010001D14BD22B2D
:10151000010E00010001D125D96E000E000100016D
:10152000D221DA6E00010001B951300FDF6E0001E7
:101530000001D14BD22B010E00010001D125D96E43
:10154000000E00010001D221DA6E00010001BD5140
:10155000300FDF6E00010001D14BD22B010E0001D4
:101560000001D125D96E000E00010001D221DA6EF2
:1015700000010001C151300FDF6E00010001D14BAD
:10158000D22B010E00010001D125D96E000E000101
:101590000001D221DA6E00010001C551300FDF6E6B
:1015A00000010001D14BD22B010E00010001D12519
:1015B000D96E000E00010001D221DA6E0001000197
:1015C000C951300FDF6E00010001D14BD22B010E4B
:1015D00000010001D125D96E000E00010001D221C9
:1015E000DA6E00010001CD51300FDF6E0001000105
:1015F000D14BD22B010E00010001D125D96E000E76
:1016000000010001D221DA6E000EDF6E0001000140
:10161000D14BD22B000E00010001826F010E0001A0
:10162000816F1200466605D09EA8FED747C0ADFF69
:10163000BED11B04D8B4FDD700016F6F000E1C6E25
:1016400000016F5100016F6F010E1A6E00016F51A2
:1016500000016F6F010E196E00016F5147C03DF020
:101660003E6A000E406E800E3F6E44EC11F03D501D
:10167000186E1850800DF31EF41EF34AF42A4750DA
:10168000F3243D6E000EF4203E6E000E406E400EC0
:101690003F6E44EC11F03D50176E1850800DF31E54
:1016A000F41EF34AF42A4750F32400016F6F00013F
:1016B000000EF420706F1750400DF31EF41EF34A15
:1016C000F42AF35000016F253D6EF45000017021A3
:1016D0003E6E000E406E200E3F6E44EC11F03D5009
:1016E000166E1850800DF31EF41EF34AF42A47506C
:1016F000F32400016F6F0001000EF420706F17508B
:10170000400DF31EF41EF34AF42AF35000016F2536
:101710000001716FF450000170210001726F1650CA
:10172000200DF31EF41EF34AF42AF3500001712534
:101730003D6EF450000172213E6E000E406E100EA0
:101740003F6E44EC11F03D50156E1850800DF31EA5
:10175000F41EF34AF42A4750F32400016F6F00018E
:10176000000EF420706F1750400DF31EF41EF34A64
:10177000F42AF35000016F250001716FF45000014D
:1017800070210001726F1650200DF31EF41EF34AF3
:10179000F42AF350000171250001736FF450000129
:1017A00072210001746F1550100DF31EF41EF34AE0
:1017B000F42AF350000173253D6EF45000017421AA
:1017C0003E6E000E406E080E3F6E44EC11F03D5030
:1017D000146E1850800DF31EF41EF34AF42A47507D
:1017E000F32400016F6F0001000EF420706F17509A
:1017F000400DF31EF41EF34AF42AF35000016F2546
:101800000001716FF450000170210001726F1650D9
:10181000200DF31EF41EF34AF42AF3500001712543
:101820000001736FF450000172210001746F1550B4
:10183000100DF31EF41EF34AF42AF3500001732531
:101840000001756FF450000174210001766F14508F
:10185000080DF31EF41EF34AF42AF3500001752517
:101860003D6EF450000176213E6E000E406E040E77
:101870003F6E44EC11F03D50136E1850800DF31E76
:10188000F41EF34AF42A4750F32400016F6F00015D
:10189000000EF420706F1750400DF31EF41EF34A33
:1018A000F42AF35000016F250001716FF45000011C
:1018B00070210001726F1650200DF31EF41EF34AC2
:1018C000F42AF350000171250001736FF4500001F8
:1018D00072210001746F1550100DF31EF41EF34AAF
:1018E000F42AF350000173250001756FF4500001D4
:1018F00074210001766F1450080DF31EF41EF34A94
:10190000F42AF350000175250001776FF4500001AF
:1019100076210001786F1350040DF31EF41EF34A74
:10192000F42AF350000177253D6EF4500001782130
:101930003E6E000E406E020E3F6E44EC11F03D50C4
:10194000126E1250020DF3CF6FF01350040DF3CF4F
:1019500070F01450080DF3CF71F01550100DF3CF47
:1019600072F01650200DF3CF73F01750400DF3CFE7
:1019700074F01850800DF350000174250001732598
:1019800000017225000171250001702500016F25FD
:1019900000084724116E00016F6F000E106E0001E9
:1019A0006F5100016F6F010E1B6E00016F5112002D
:1019B0000F0E0001756F00016FC076F0000170C05E
:1019C00077F0000171C078F0000175290001796F8E
:1019D00005D00001D8907833773376330001792F22
:1019E000F8D700017651000100017A6F00017A6793
:1019F00001D021D00F0E0001756F000172C076F08A
:101A0000000173C077F0000174C078F000017529FF
:101A10000001796F05D00001D890783377337633A1
:101A20000001792FF8D700017651000100017F6F86
:101A300000017F670DD0000E000100016F6F000EE6
:101A400000010001706F000E00010001716FA6D04F
:101A5000000100017F517B0F000100017A2771C056
:101A60007FF000017451000100017F1B800E000116
:101A700000017F1700010001708F00010001738FCA
:101A8000FF0E000100017217FF0E00010001731725
:101A9000000E000100017417000E000100017B6FB1
:101AA000000E000100017C6F000E000100017D6F3F
:101AB0000001756F070E000100017E6F0001755176
:101AC000000100016FA112D000010001725100015C
:101AD00000017B27000100017351000100017C23FC
:101AE000000100017451000100017D230001D89024
:101AF000000171330001703300016F330001D89091
:101B000000017237000173370001743700010001D2
:101B10007E2FD6D70001756F090E000100017E6F80
:101B200000017551000100016FA112D000010001F8
:101B30007251000100017B27000100017351000177
:101B400000017C23000100017451000100017D238C
:101B50000001D890000171330001703300016F3330
:101B60000001D89000017D3300017C3300017B33FC
:101B7000000100017E2FD6D77BC03DF07CC03EF037
:101B80007DC03FF07AC040F07FC041F0E8EC10F03B
:101B90003FC071F03EC070F03DC06FF012000F0EFC
:101BA0000001776F000171C078F0000172C079F018
:101BB000000173C07AF00001772900017B6F05D026
:101BC0000001D8907A337933783300017B2FF8D72E
:101BD0000001785100010001806F0001806701D091
:101BE00021D00F0E0001776F000174C078F0000162
:101BF00075C079F0000176C07AF000017729000104
:101C00007B6F05D00001D8907A33793378330001A7
:101C10007B2FF8D70001785100010001816F00018E
:101C200081670DD0000E00010001716F000E0001F0
:101C30000001726F000E00010001736F93D0000E5F
:101C4000000100017D6F000E000100017E6F000E9B
:101C5000000100017F6F000100018151890F000127
:101C60000001805F73C081F0000176510001000126
:101C7000811B800E00010001811700010001728F9D
:101C8000FF0E000100017117FF0E00010001721725
:101C9000000E00010001731700010001758FFF0E97
:101CA000000100017417FF0E000100017517000EFE
:101CB0000001000176170001776F180E0001000186
:101CC0007C6F000177510001D89000017D37000141
:101CD0007E3700017F3700010001745100010001CF
:101CE000715D000100017551000100017259000190
:101CF00000017651000100017359D8A015D00001F0
:101D00000001745100010001715F00010001755173
:101D100000010001725B0001000176510001000129
:101D2000735B000100017D810001D89000017137D3
:101D30000001723700017337000100017C2FC3D707
:101D40007DC03DF07EC03EF07FC03FF080C040F0DF
:101D500081C041F0E8EC10F03FC073F03EC072F07B
:101D60003DC071F01200456E000E000100017C6F55
:101D70004550000100017AAF16D0000100017A1F22
:101D80000001791F0001781F0001776D000E00012E
:101D900078230001792300017A23456E010E0001AA
:101DA00000017C6F45500001000176AF14D00001A6
:101DB0000001761F0001751F0001741F0001736D83
:101DC000000E000174230001752300017623010E2B
:101DD000000100017C1B000E000100017D6F000E60
:101DE00000017E6F000E00017F6F000E0001806F0A
:101DF000000100017A51771178117911D8B465D0BA
:101E0000456E010E000100017B6F45500DD00001B1
:101E1000D890000177370001783700017937000149
:101E20007A37000100017B2B000100017AAFEFD768
:101E30000001D89000017D3700017E3700017F3717
:101E40000001803700010001775100010001735D3E
:101E500000010001785100010001745900010001E6
:101E60007951000100017559000100017A5100010A
:101E700000017659D8A01BD0000100017751000164
:101E80000001735F00010001785100010001745BE3
:101E900000010001795100010001755B00010001A2
:101EA0007A5100010001765B000100017D81000193
:101EB000D89000017A3300017933000178330001B2
:101EC0007733000100017B2FB3D7000100017C5163
:101ED000D8B410D000010001801F00017F1F000155
:101EE0007E1F00017D6D000E00017E2300017F2317
:101EF000000180237DC073F07EC074F07FC075F058
:101F000080C076F012008DEC14F0000E000100018C
:101F1000E56F000E0001E46F838281800001E26FB3
:101F2000010E00010001D36F0001E251030E000118
:101F30000001D56F140E0001D46FCAEC12F0340EFC
:101F40000001E26FF10EE82EFED7E22FFCD700D0A1
:101F5000340E0001E26FF10EE82EFED7E22FFCD71F
:101F600000D0340E0001E26FF10EE82EFED7E22F12
:101F7000FCD700D0340E0001E26FF10EE82EFED740
:101F8000E22FFCD700D0340E0001E26FF10EE82EF4
:101F9000FED7E22FFCD700D0340E0001E26FF10E25
:101FA000E82EFED7E22FFCD700D0340E0001E26FFE
:101FB000F10EE82EFED7E22FFCD700D0340E000140
:101FC000E26FF10EE82EFED7E22FFCD700D0340EE0
:101FD0000001E26FF10EE82EFED7E22FFCD700D011
:101FE000340E0001E26FF10EE82EFED7E22FFCD78F
:101FF00000D0C3EC14F017EC12F00001E26F010EF8
:1020000000010001D86F0001E25100010001E8C0A9
:10201000D9F000010001E9C0DAF000010001DB6B3A
:102020000001DC6B78EC14F00001E26F010E466EEB
:102030000001E2510001E36F090E476E0001E35118
:1020400012EC0BF00001E26F010E00010001D86FED
:102050000001E251EEC03DF0EFC03EF0F0C03FF0B5
:102060004CEC10F040C0DCF03FC0DBF03EC0DAF0DA
:102070003DC0D9F078EC14F00001E26F010E466E1D
:102080000001E2510001E36F0D0E476E0001E351C4
:1020900012EC0BF054D7FFD70F0E416E3DC042F04B
:1020A0003EC043F03FC044F04128456E04D0D89074
:1020B000443243324232452EFAD7425000010001E9
:1020C000746F0001746701D04BD0170E416E3DC094
:1020D00042F03EC043F03FC044F04128456E04D07A
:1020E000D890443243324232452EFAD74250000152
:1020F00000016F6F3E8EFF0E3D16FF0E3E16000E66
:102100003F163D5000010001706F3E500001716F9D
:102110003F500001726F0001736B8E0E00010001D1
:10212000745F0001000174AF16D00001000174510A
:10213000800A8F0FD8A014D00001D890000173330B
:10214000000172330001713300017033000100019E
:10215000743FF2D71FD0170E00010001746516D02E
:10216000000E3D6E000E3E6E000E3F6E000E406E85
:102170002ED00001D89000017037000171370001A6
:10218000723700017337000100017407000100017C
:102190007467EFD7000100016F51D8B410D000016F
:1021A0000001731F0001721F0001711F0001706D9B
:1021B000000E00017123000172230001732370C01F
:1021C0003DF071C03EF072C03FF073C040F01200AD
:1021D0004050D8B405D03D503E103F10D8A40CD08C
:1021E000000E3D6E000E3E6E000E3F6E4CD0402A3B
:1021F000D8903F323E323D32000E3D14426E000E0A
:102200003E14436EFE0E3F14446E42504310441081
:10221000D8B40CD0ECD7402A010E3D26000E3E2249
:10222000000E3F22D8903F323E323D32000E3D1428
:10223000426E000E3E14436EFF0E3F14446E425039
:1022400043104410D8B406D0E6D74006D8903D36A7
:102250003E363F363EAEF9D740A03E9ED890403243
:102260004050446E436A426A42503D1243503E120F
:1022700044503F124150D8A43F8E3DC03DF03EC077
:102280003EF03FC03FF01200416E000E436E4150E1
:1022900040AE08D03F6C401ED8B0402A416E010EBF
:1022A000436E41503EAE06D03D6C3E1ED8B03E2A35
:1022B000010E431A000E456E000E446E40503F1052
:1022C000D8B41ED0416E010E426E415004D0D89059
:1022D0003F364036422A40AEFAD7D890443645368B
:1022E0003F503D5C40503E58D8A005D03F503D5E29
:1022F00040503E5A4480D89040323F32422EEDD773
:102300004350D8B404D0446C451ED8B0452A44C0CC
:102310003DF045C03EF012009290929292949286C7
:102320009288929A928C928E939093929394939691
:102330009398939A939C939E949094929494948659
:102340009498949A948C948E959095929584959661
:102350009598959A959C959E96909692969489902C
:102360008992899489968998899A899C899E8A906C
:102370008A928A948A968A988A9A8A9C8A9E8B9054
:102380008B928B948B968B988B9A8B9C8B9E8C903C
:102390008C928C948C968C988C9A8C9C8C9E8D9024
:1023A0008D928D941200F28EF28CF28AF288F2965F
:1023B000F294F292F290F19CF19AF198F184F09EED
:1023C000F09CF098F09EF092F0909E9C9E9A9E98C1
:1023D0009E969E949E929E90A19EA198A194A1905B
:1023E000A498A496A494A492A490D08E9F9C9F8A13
:1023F0009F989F969F949F929F80A29EA288A2944E
:10240000A290A598A586A584A592A5909D9C9D8A3D
:102410009D989D969D949D929D80A09EA088A0943D
:10242000A090A398A396A394A392A3901200E8C0AF
:1024300045F0E9C046F047EC14F047C073F046C0E1
:1024400072F045C071F0000E00010001746FFA0EC9
:1024500000010001756F450E00010001766FCFECA1
:102460000DF073C087F072C086F071C085F0000176
:10247000000E00010001816F0001850E0001806FD8
:10248000000E00010001826FB40E00010001836F95
:10249000430E00010001846F0AEC14F085C0EEF0D9
:1024A00086C0EFF087C0F0F01200E9CF63F0EACF0A
:1024B00064F0E1CF65F0E2CF66F0D9CF67F0DACF14
:1024C00068F0F3CF69F0F4CF6AF0F6CF6BF0F7CF96
:1024D0006CF0F8CF6DF0F5CF6EF00001606F010E7B
:1024E0003C6E00016051E6EC13F06EC0F5FF6DC06C
:1024F000F8FF6CC0F7FF6BC0F6FF6AC0F4FF69C05D
:10250000F3FF68C0DAFF67C0D9FF66C0E2FF65C0AD
:10251000E1FF64C0EAFF63C0E9FF62C0FBFF61C086
:10252000FAFF1100000E000100016F6F000E0001A4
:10253000706F000E0001716F000E0001726F3DA000
:1025400010D04150000100016F27425000010001EE
:102550007023435000010001712344500001000129
:102560007223D8904136423643364436D8904032B2
:102570003F323E323D3240503D103E103F10D8A415
:10258000DED76FC03DF070C03EF071C03FF072C04A
:1025900040F01200D3C046F000010001D451F66EA5
:1025A000E96E020EEA6E00010001D551EA6403D023
:1025B000EA6EEF5003D0F76E0800F550476E12EC4C
:1025C0000BF000010001D4510001D66F00010001A1
:1025D000D5510001D76F0001D44BD52B0001D65146
:1025E000F66EE96E020EEA6E0001D751EA6403D07E
:1025F000EA6EEF5003D0F76E0800F5500009D8B42A
:102600001200C8D79E9A8180640E010101016461A5
:1026100018D0010101016451010D0101000EF324E4
:10262000D96E0101010EF420DA6EAECFDFFF256E08
:10263000000E01010101666F255001010101642BAB
:1026400008D0256E010E01010101656F2550AECF46
:1026500026F012009E9A8180640E010101016461DE
:1026600018D0010101016451010D0101000EF32494
:10267000D96E0101010EF420DA6EAECFDFFF3A6EA3
:10268000000E01010101666F3A5001010101642B46
:1026900008D03A6E010E01010101656F3A50AECFCC
:1026A0003BF012009E90FC0ECF6ED50ECE6E1B043A
:1026B000D8A41CD01C50010D100EF324D96E000EAE
:1026C000F420DA6EDF50256E253A25468250251813
:1026D000DF0B2518826E1C2A20EE1CF00A0EDF6428
:1026E00006D0256E000E1B6E255001D0828A120086
:1026F0009E90FC0ECF6ED50ECE6E1B04D8A41CD0BF
:102700001C50010D100EF324D96E000EF420DA6E69
:10271000DF503A6E3A3A3A4682503A18DF0B3A188E
:10272000826E1C2A20EE1CF00A0EDF6406D03A6E80
:10273000000E1B6E3A5001D0828A12007F987F9A59
:102740007F9C7F9EF30E7F16FC0E7F167E8E6F8021
:102750006F508F0B10096F6E6E92A60E7B6E000E7F
:102760007A6E000E796E000E786E000E776E000E97
:10277000766E000E756E000E746E000E736E000E97
:10278000726E1200A450A450F2A406D02704D8A45C
:1027900003D0F2EC14F019D09EA006D02704D8A4E0
:1027A00003D052EC13F011D09E50F2A205D0276650
:1027B00003D0FCEC14F009D09EAA06D02704D8A4BC
:1027C00003D002EC13F001D09E501200A450A4508C
:1027D000F2A406D03C04D8A403D0F6EC14F019D02F
:1027E0009EA006D03C04D8A403D078EC13F011D0FE
:1027F0009E50F2A205D03C6603D00AEC15F009D039
:102800009EAA06D03C04D8A403D02AEC13F001D031
:102810009E50120080C0D9FF81C0DAFF0001DECFD8
:102820006FF00001DECF70F00001DDCF71F082C0EB
:1028300072F083C073F084C074F0D8EC0CF080C0E8
:10284000D9FF81C0DAFF6FC0DEFF70C0DEFF71C04C
:10285000DDFFDD521200638C000EB86EB68EB69CA2
:10286000B650E30B1809B66EB650FC0B0109B66EF4
:10287000608A60886050F80B0209606E000E676E17
:10288000000E666E1F0E656E400E646E120045C02F
:102890003DF046C03EF03F6A00016F6F8E0E406E05
:1028A00000016F510001706F000E416E0001705108
:1028B000E8EC10F03FC047F03EC046F03DC045F0A8
:1028C000120001EE00F0670EEE6AE806FDE100EE90
:1028D000E6F00B0EEE6AE806FDE100EE01F0240ED4
:1028E000EE6AE806FDE1000EF86E000183EF0FF0DE
:1028F000D8C0D3F0D9C081F0DAC082F0DBC083F059
:10290000DCC084F098EC01F0000181C0D4F000013B
:1029100082C0D5F0CAEC12F012008CEC11F0D3ECAE
:1029200011F0E7EC14F0DCEC14F0A2EC14F0C20EA1
:102930003E6E000E3D6EB5EC14F09EEC13F02BECE9
:1029400014F012003D6E000E01010101656F3D5053
:102950003D6E010E01010101666F3D503D6E000E9E
:1029600001010101646F3D501200AC8AAC9CAC982F
:10297000AC96AC84AC9CAA86AA90230EAF6EAB8EAC
:10298000AB9CAB88120067503E6E3D6A66503D249A
:1029900000010001E86F000E3E200001E96F120007
:1029A000CD8ECD9CCD92CD86CD98CD9AFF0ECF6E9B
:1029B000EF0ECE6ECD8012003D6E000E1B6E3D50B0
:1029C0003D6E000E1C6E3D50D0EC14F01200D58C04
:1029D000D550F80B0409D56ED59AD596830ED66ED0
:1029E000D58E1200F294830ED66E1200F294830EEE
:1029F000D66E12009E981200F29212009E92120061
:102A0000A4961200A49412009E981200A49612009C
:0C2A1000A4941200F29212009E92120098
:020000040020DA
:08000000FFFFFFFFFFFFFFFF00
:020000040030CA
:0E000000FF060D3E1C9D80FF0FC00FE00F405D
:00000001FF
