:0400000054EF00F0C9
:10000800FACF18F0FBCF19F0E9CF1AF0EBEF18F0A0
:10001800D8CF04F0E8CF05F0E0CF06F0FACF07F02C
:10002800FBCF08F0E9CF09F0EACF0AF0E1CF0BF0F7
:10003800E2CF0CF0D9CF0DF0DACF0EF0F3CF0FF0FE
:10004800F4CF10F0F6CF11F0F7CF12F0F8CF13F08D
:10005800F5CF14F0000EBAEC17F014C0F5FF13C07A
:10006800F8FF12C0F7FF11C0F6FF10C0F4FF0FC071
:10007800F3FF0EC0DAFF0DC0D9FF0CC0E2FF0BC0C2
:10008800E1FF0AC0EAFF09C0E9FF08C0FBFF07C09B
:10009800FAFF06C0E0FF05C0E8FF04C0D8FF100063
:0400A800BAEF1AF0A1
:1003000000F44A489595C7C1DC45DC6DC3B3334062
:100310003401489DB04500DA4200803F0A0A50721D
:100320006F626C656D6520646520646574656374D7
:10033000696F6E2064652062616C69736573202E3D
:100340002E2E2E203A20000A0D20524F544154499F
:100350004F4E204120474155434845200A0D000A91
:100360000D20524F544154494F4E20412044524F8A
:10037000495445200A0D002042616C697365732061
:10038000646574656374656573200A0A0A0D00422A
:100390006F6E6A6F7572206C657320616D69732072
:1003A000212121203D29002064616E73206C65208D
:1003B000627566666572200A0A0D00506F73697473
:1003C000696F6E203A2058203A2000494C2079204D
:1003D0006120002059203A200000E00E01019B6FAF
:1003E000000E01019C6F450E01019D6F600E010121
:1003F0009E6F3F0E01019F6F450E0101A06F000E21
:100400000101C86F780E0101C96FC20E0101CA6FE8
:10041000600E0101CB6F3F0E0101CC6F450E010153
:10042000CD6F000E0101A16F7A0E0101A26F440E83
:100430000101A36F000E0101A46F780E0101A56FE9
:10044000C20E0101A66F92C177F093C178F094C1FA
:1004500079F04EEC1BF077C07AF078C07BF079C071
:100460007CF095C17DF096C17EF097C17FF052EC93
:100470000EF07AC0C2F17BC0C3F17CC0C4F1C2C12E
:10048000BDF0C3C1BEF0C4C1BFF021EC19F0BDC0C6
:10049000DDF1BEC0DEF1BFC0DFF195C177F096C1DE
:1004A00078F097C179F04EEC1BF077C07AF078C005
:1004B0007BF079C07CF098C17DF099C17EF09AC143
:1004C0007FF052EC0EF07AC0C2F17BC0C3F17CC069
:1004D000C4F1C2C1BDF0C3C1BEF0C4C1BFF021ECC4
:1004E00019F0BDC0E0F1BEC0E1F1BFC0E2F1DDC175
:1004F00083F0DEC184F0DFC185F0BC0E0001866FA1
:10050000BE0E0001876F4C0E0001886F9FEC16F045
:1005100083C0DDF184C0DEF185C0DFF1E0C183F08E
:10052000E1C184F0E2C185F0BC0E0001866FBE0E11
:100530000001876F4C0E0001886F9FEC16F083C09E
:10054000E0F184C0E1F185C0E2F1000E00017D6FB1
:10055000800E00017E6F3F0E00017F6FE0C16BF0E7
:10056000E1C16CF0E2C16DF0DDC168F0DEC169F09F
:10057000DFC16AF072EC10F068C077F069C078F003
:100580006AC079F04EEC1BF077C07AF078C07BF04F
:1005900079C07CF052EC0EF07AC092F07BC093F000
:1005A0007CC094F0E0C17DF0E1C17EF0E2C17FF05B
:1005B000DDC17AF0DEC17BF0DFC17CF052EC0EF0E1
:1005C0007AC095F07BC096F07CC097F020EC11F0DB
:1005D00092C0D7F193C0D8F194C0D9F1D7C183F0BC
:1005E000D8C184F0D9C185F0BC0E0001866FBE0E63
:1005F0000001876F4C0E0001886F9FEC16F083C0DE
:10060000D7F184C0D8F185C0D9F1C8C177F0C9C18C
:1006100078F0CAC179F04EEC1BF077C07AF078C060
:100620007BF079C07CF09BC17DF09CC17EF09DC1C8
:100630007FF052EC0EF07AC0E3F17BC0E4F17CC0B5
:10064000E5F1CBC177F0CCC178F0CDC179F04EECBB
:100650001BF077C07AF078C07BF079C07CF09EC147
:100660007DF09FC17EF0A0C17FF052EC0EF07AC009
:10067000E6F17BC0E7F17CC0E8F1C8C177F0C9C101
:1006800078F0CAC179F04EEC1BF077C07AF078C0F0
:100690007BF079C07CF0A1C17DF0A2C17EF0A3C146
:1006A0007FF052EC0EF07AC0E9F17BC0EAF17CC039
:1006B000EBF1CBC177F0CCC178F0CDC179F04EEC45
:1006C0001BF077C07AF078C07BF079C07CF0A4C1D1
:1006D0007DF0A5C17EF0A6C17FF052EC0EF07AC08D
:1006E000ECF17BC0EDF17CC0EEF1E6C16BF0E7C14F
:1006F0006CF0E8C16DF0DDC168F0DEC169F0DFC10A
:100700006AF072EC10F068C07AF069C07BF06AC0E1
:100710007CF0E3C17DF0E4C17EF0E5C17FF052ECF6
:100720000EF07AC0B9F17BC0BAF17CC0BBF1E3C175
:100730006BF0E4C16CF0E5C16DF0DDC168F0DEC1C5
:1007400069F0DFC16AF072EC10F068C077F069C040
:1007500078F06AC079F04EEC1BF077C07AF078C080
:100760007BF079C07CF0E6C17DF0E7C17EF0E8C1A6
:100770007FF052EC0EF07AC0BCF17BC0BDF17CC0C2
:10078000BEF1ECC16BF0EDC16CF0EEC16DF0E0C1FB
:1007900068F0E1C169F0E2C16AF072EC10F068C083
:1007A00077F069C078F06AC079F04EEC1BF077C042
:1007B0007AF078C07BF079C07CF0E9C17DF0EAC1C5
:1007C0007EF0EBC17FF052EC0EF07AC0CEF17BC030
:1007D000CFF17CC0D0F1E9C16BF0EAC16CF0EBC1A4
:1007E0006DF0E0C168F0E1C169F0E2C16AF072EC5D
:1007F00010F068C07AF069C07BF06AC07CF0ECC190
:100800007DF0EDC17EF0EEC17FF052EC0EF07AC0CB
:10081000D1F17BC0D2F17CC0D3F1D7C16BF0D8C18C
:100820006CF0D9C16DF0ECC17DF0EDC17EF0EEC190
:100830007FF0E6C177F0E7C178F0E8C179F04EECDF
:100840001BF077C07AF078C07BF079C07CF052EC76
:100850000EF07AC068F07BC069F07CC06AF072EC80
:1008600010F068C0D4F169C0D5F16AC0D6F1E9C111
:100870007DF0EAC17EF0EBC17FF0D4C17AF0D5C142
:100880007BF0D6C17CF052EC0EF07AC0DAF17BC07E
:10089000DBF17CC0DCF1DAC17AF0DBC17BF0DCC1DA
:1008A0007CF0E3C17DF0E4C17EF0E5C17FF052EC65
:1008B0000EF07AC0A7F17BC0A8F17CC0A9F1D7C126
:1008C0006BF0D8C16CF0D9C16DF0E9C17DF0EAC11F
:1008D0007EF0EBC17FF0E3C177F0E4C178F0E5C1D1
:1008E00079F04EEC1BF077C07AF078C07BF079C0DD
:1008F0007CF052EC0EF07AC068F07BC069F07CC0EE
:100900006AF072EC10F068C0C5F169C0C6F16AC047
:10091000C7F1ECC17DF0EDC17EF0EEC17FF0C5C145
:1009200077F0C6C178F0C7C179F04EEC1BF077C004
:100930007AF078C07BF079C07CF052EC0EF07AC08F
:10094000DAF17BC0DBF17CC0DCF1DAC17AF0DBC12B
:100950007BF0DCC17CF0E6C17DF0E7C17EF0E8C150
:100960007FF052EC0EF07AC0AAF17BC0ABF17CC0F4
:10097000ACF1E6C16BF0E7C16CF0E8C16DF0E9C124
:1009800068F0EAC169F0EBC16AF072EC10F068C07F
:1009900077F069C078F06AC079F04EEC1BF077C050
:1009A0007DF078C07EF079C07FF0E3C16BF0E4C1E8
:1009B0006CF0E5C16DF0ECC168F0EDC169F0EEC11D
:1009C0006AF072EC10F068C07AF069C07BF06AC01F
:1009D0007CF052EC0EF07AC0B6F17BC0B7F17CC06F
:1009E000B8F1E6C16BF0E7C16CF0E8C16DF0ECC1A5
:1009F00068F0EDC169F0EEC16AF072EC10F068C009
:100A00007DF069C07EF06AC07FF0E3C16BF0E4C1A5
:100A10006CF0E5C16DF0E9C168F0EAC169F0EBC1C5
:100A20006AF072EC10F068C07AF069C07BF06AC0BE
:100A30007CF052EC0EF07AC0DAF17BC0DBF17CC0C6
:100A4000DCF1DAC17AF0DBC17BF0DCC17CF0D7C12C
:100A50006BF0D8C16CF0D9C16DF0B6C168F0B7C108
:100A600069F0B8C16AF072EC10F068C07DF069C03E
:100A70007EF06AC07FF052EC0EF07AC0ADF17BC020
:100A8000AEF17CC0AFF1BCC17DF0BDC17EF0BEC196
:100A90007FF0D1C177F0D2C178F0D3C179F04EECBC
:100AA0001BF077C07AF078C07BF079C07CF052EC14
:100AB0000EF07AC06BF07BC06CF07CC06DF0CEC1E4
:100AC0007DF0CFC17EF0D0C17FF0A7C177F0A8C183
:100AD00078F0A9C179F04EEC1BF077C07AF078C0BD
:100AE0007BF079C07CF052EC0EF07AC068F07BC0ED
:100AF00069F07CC06AF072EC10F068C0C5F169C0A2
:100B0000C6F16AC0C7F1D1C17DF0D2C17EF0D3C1B8
:100B10007FF0AAC177F0ABC178F0ACC179F04EECB0
:100B20001BF077C07AF078C07BF079C07CF052EC93
:100B30000EF07AC06BF07BC06CF07CC06DF0B9C178
:100B40007DF0BAC17EF0BBC17FF0CEC177F0CFC1DE
:100B500078F0D0C179F04EEC1BF077C07AF078C015
:100B60007BF079C07CF052EC0EF07AC068F07BC06C
:100B700069F07CC06AF072EC10F068C0DAF169C00C
:100B8000DBF16AC0DCF1DAC17AF0DBC17BF0DCC1F9
:100B90007CF0C5C177F0C6C178F0C7C179F04EECE2
:100BA0001BF077C07DF078C07EF079C07FF052EC0A
:100BB0000EF07AC0B0F17BC0B1F17CC0B2F1000E92
:100BC0000001926F800E0001936F3F0E0001946F41
:100BD000B0C195F0B1C196F0B2C197F020EC11F020
:100BE00092C0B3F193C0B4F194C0B5F1ADC168F057
:100BF000AEC169F0AFC16AF0B3C16BF0B4C16CF0C3
:100C0000B5C16DF072EC10F068C0BFF169C0C0F101
:100C10006AC0C1F1BFC16BF0C0C16CF0C1C16DF061
:100C2000BCC17DF0BDC17EF0BEC17FF0D1C177F007
:100C3000D2C178F0D3C179F04EEC1BF077C07AF0D6
:100C400078C07BF079C07CF052EC0EF07AC068F08E
:100C50007BC069F07CC06AF072EC10F068C0D4F11F
:100C600069C0D5F16AC0D6F1D4C17AF0D5C17BF0A4
:100C7000D6C17CF0C8C17DF0C9C17EF0CAC17FF089
:100C800052EC0EF08EC1D9FF8FC1DAFF7AC0DEFFC1
:100C90007BC0DEFF7CC0DEFFBFC16BF0C0C16CF06B
:100CA000C1C16DF0CEC17DF0CFC17EF0D0C17FF06B
:100CB000B9C177F0BAC178F0BBC179F04EEC1BF046
:100CC00077C07AF078C07BF079C07CF052EC0EF0FF
:100CD0007AC068F07BC069F07CC06AF072EC10F0FA
:100CE00068C0D4F169C0D5F16AC0D6F1D4C17AF038
:100CF000D5C17BF0D6C17CF0CBC17DF0CCC17EF0FC
:100D0000CDC17FF052EC0EF090C1D9FF91C1DAFF56
:100D10007AC0DEFF7BC0DEFF7CC0DEFF12007CEC11
:100D20001BF0000E0101F56F000EF46F83828B84BF
:100D300081808F0E00017E6F030E00017F6F000E19
:100D4000B4EC18F000D082A8FED781908188000E04
:100D50000001836F700E0001846F420E0001856FE9
:100D60005DEC14F0820E0001C36FDE0EE82EFED79C
:100D7000C32FFCD7820E0001C36FDE0EE82EFED714
:100D8000C32FFCD7820E0001C36FDE0EE82EFED704
:100D9000C32FFCD7820E0001C36FDE0EE82EFED7F4
:100DA000C32FFCD7820E0001C36FDE0EE82EFED7E4
:100DB000C32FFCD7820E0001C36FDE0EE82EFED7D4
:100DC000C32FFCD7820E0001C36FDE0EE82EFED7C4
:100DD000C32FFCD7820E0001C36FDE0EE82EFED7B4
:100DE000C32FFCD7820E0001C36FDE0EE82EFED7A4
:100DF000C32FFCD7820E0001C36FDE0EE82EFED794
:100E0000C32FFCD7820E0001C36FDE0EE82EFED783
:100E1000C32FFCD7820E0001C36FDE0EE82EFED773
:100E2000C32FFCD7820E0001C36FDE0EE82EFED763
:100E3000C32FFCD7820E0001C36FDE0EE82EFED753
:100E4000C32FFCD7820E0001C36FDE0EE82EFED743
:100E5000C32FFCD7820E0001C36FDE0EE82EFED733
:100E6000C32FFCD7820E0001C36FDE0EE82EFED723
:100E7000C32FFCD7820E0001C36FDE0EE82EFED713
:100E8000C32FFCD7820E0001C36FDE0EE82EFED703
:100E9000C32FFCD7820E0001C36FDE0EE82EFED7F3
:100EA000C32FFCD7820E0001C36FDE0EE82EFED7E3
:100EB000C32FFCD7820E0001C36FDE0EE82EFED7D3
:100EC000C32FFCD7820E0001C36FDE0EE82EFED7C3
:100ED000C32FFCD700D0000E0001F46F010E0001FB
:100EE000DA6F00D00001DA05D8A402D0FBD700D019
:100EF0000001D905D8B4FCD7030E0001F419D8B409
:100F00001AD01C0E00017E6F030E00017F6F000ED1
:100F1000B4EC18F0F4C083F00001846B000EB5EC63
:100F20001BF0770E00017E6F030E00017F6F000E35
:100F3000B4EC18F0D0D7000E0101F56F000EF46F7D
:100F40000101F5BF0AD00101F55136E1030E01019F
:100F5000F45DD8B031D001D02FD0F4C160F0F5C12C
:100F600061F0000E0001636F030E626F32EC1BF044
:100F7000DC0E00016025D96E000E00016121DA6EE1
:100F8000D8900101F435E16E0101F535E26EEE0E07
:100F9000E126000EE222E6CFA1F0E5CFA2F03EEC82
:100FA00018F0A1C0DEFFA2C0DEFFA3C0DEFF01017A
:100FB000F44BF52BC5D700D00001FF05D8A430D0E5
:100FC000F60E01018E6F000E01018F6F7D0E010183
:100FD000906F010E0101916FDCC092F1DDC093F1C1
:100FE000DEC094F1DFC095F1E0C096F1E1C097F169
:100FF000E2C098F1E3C099F1E4C09AF1EDEC01F0A0
:10100000F6C0D3F0F7C0D4F0F8C0D5F07DC1D6F06B
:101010007EC1D7F07FC1D8F0000E0001FF6F37D13D
:10102000F60E01018E6F000E01018F6F7D0E010122
:10103000906F010E0101916FDCC092F1DDC093F160
:10104000DEC094F1DFC095F1E0C096F1E1C097F108
:10105000E2C098F1E3C099F1E4C09AF1EDEC01F03F
:10106000F90E01018E6F000E01018F6F800E0101DC
:10107000906F010E0101916FDFC092F1E0C093F11A
:10108000E1C094F1E2C095F1E3C096F1E4C097F1BC
:10109000DCC098F1DDC099F1DEC09AF1EDEC01F011
:1010A000FC0E01018E6F000E01018F6F830E010196
:1010B000906F010E0101916FE2C092F1E3C093F1D4
:1010C000E4C094F1DCC095F1DDC096F1DEC097F18B
:1010D000DFC098F1E0C099F1E1C09AF1EDEC01F0C8
:1010E000000E0101F56F000EF46F0101F5BF0AD08B
:1010F0000101F55165E1030E0101F45DD8B060D046
:1011000001D05ED0F4C160F0F5C161F0000E0001C5
:10111000636F030E626F32EC1BF0090E0001602555
:10112000D96E010E00016121DA6ED3C0A7F0D4C0E0
:10113000A8F0D5C0A9F0D6C0AAF0D7C0ABF0D8C0EF
:10114000ACF0F4C160F0F5C161F0000E0001636F16
:10115000030E626F32EC1BF0F60E00016025E16EAB
:10116000000E00016121E26EE6CFADF0E6CFAEF0F9
:10117000E5CFAFF0F4C160F0F5C161F0000E000101
:10118000636F030E626F32EC1BF07D0E0001602571
:10119000E16E010E00016121E26EE6CFB0F0E6CF14
:1011A000B1F0E5CFB2F068EC13F0A7C0DEFFA8C045
:1011B000DEFFA9C0DEFF0101F44BF52B96D700D06E
:1011C00009C17AF00AC17BF00BC17CF00CC17DF043
:1011D0000DC17EF00EC17FF036EC15F00001D8B0E5
:1011E0002BD009C17AF00AC17BF00BC17CF00FC192
:1011F0007DF010C17EF011C17FF036EC15F00001DA
:10120000D8B00DD0F6C0D3F0F7C0D4F0F8C0D5F008
:101210007DC1D6F07EC1D7F07FC1D8F038D0FCC0F8
:10122000D3F0FDC0D4F0FEC0D5F083C1D6F084C1A8
:10123000D7F085C1D8F02BD00CC17AF00DC17BF06E
:101240000EC17CF00FC17DF010C17EF011C17FF0A6
:1012500036EC15F00001D8B00DD0F9C0D3F0FAC0CB
:10126000D4F0FBC0D5F080C1D6F081C1D7F082C1E7
:10127000D8F00DD0FCC0D3F0FDC0D4F0FEC0D5F046
:1012800083C1D6F084C1D7F085C1D8F000D0D3C0D7
:1012900086F0D4C087F0D5C088F0D6C089F0D7C01A
:1012A0008AF0D8C08BF07AEC18F0000E0101F56FCF
:1012B000000EF46F0101F5BF0AD00101F55106E1FE
:1012C000030E0101F45DD8B006D601D004D6F4C1F6
:1012D00060F0F5C161F0000E0001636F030E626FF4
:1012E00032EC1BF0DC0E00016025D96E000E00010F
:1012F0006121DA6EF4C160F0F5C161F0000E000109
:10130000636F030E626F32EC1BF0E50E0001602587
:10131000E16E000E00016121E26EDECFE6FFDECF5E
:10132000E6FFDECFE6FF0101F44BF52B0101F5BF2F
:10133000CED70101F55101E1C3D7CDD5FFD754EF89
:1013400000F00001756F000175510001D8B402D0A2
:1013500007D000D09EA8FED76EC0ADFFB0D100D0A0
:101360004304D8B4FDD7000E446E010E426E010E48
:10137000416E6EC066F00001676B000E0001696F80
:10138000800E686FCEEC14F000016651406E405044
:10139000800DF31EF41EF34AF42A00016E51F3246B
:1013A0000001666F000EF4200001676F000E00015F
:1013B000696F400E686FCEEC14F0000166513F6E0D
:1013C0004050800DF31EF41EF34AF42A00016E51C2
:1013D00000016F6F706BF35000016F27F450000134
:1013E00070233F50400DF31EF41EF34AF42AF350CD
:1013F00000016F250001666FF450000170210001AB
:10140000676F000E0001696F200E686FCEEC14F05C
:10141000000166513E6E4050800DF31EF41EF34AEB
:10142000F42A00016E5100016F6F706BF3500001E0
:101430006F27F450000170233F50400DF31EF41E3F
:10144000F34AF42AF35000016F27F450000170238F
:101450003E50200DF31EF41EF34AF42AF35000010F
:101460006F250001666FF450000170210001676F65
:10147000000E0001696F100E686FCEEC14F00001D1
:1014800066513D6E4050800DF31EF41EF34AF42A5F
:1014900000016E5100016F6F706BF35000016F27F8
:1014A000F450000170233F50400DF31EF41EF34A28
:1014B000F42AF35000016F27F450000170233E50CE
:1014C000200DF31EF41EF34AF42AF35000016F2797
:1014D000F450000170233D50100DF31EF41EF34A2A
:1014E000F42AF35000016F250001666FF4500001EB
:1014F00070210001676F000E0001696F080E686FB0
:10150000CEEC14F0000166513C6E4050800DF31E8D
:10151000F41EF34AF42A00016E5100016F6F706BE4
:10152000F35000016F27F450000170233F50400D2D
:10153000F31EF41EF34AF42AF35000016F27F4500F
:10154000000170233E50200DF31EF41EF34AF42ACE
:10155000F35000016F27F450000170233D50100D2F
:10156000F31EF41EF34AF42AF35000016F27F450DF
:10157000000170233C50080DF31EF41EF34AF42AB8
:10158000F35000016F250001666FF45000017021D7
:101590000001676F000E0001696F040E686FCEECEA
:1015A00014F0000166513B6E4050800DF31EF41E96
:1015B000F34AF42A00016E5100016F6F706BF35013
:1015C00000016F27F450000170233F50400DF31EBF
:1015D000F41EF34AF42AF35000016F27F45000017F
:1015E00070233E50200DF31EF41EF34AF42AF350EC
:1015F00000016F27F450000170233D50100DF31EC1
:10160000F41EF34AF42AF35000016F27F45000014E
:1016100070233C50080DF31EF41EF34AF42AF350D5
:1016200000016F27F450000170233B50040DF31E9E
:10163000F41EF34AF42AF35000016F250001666F8F
:10164000F450000170210001676F000E0001696F06
:10165000020E686FCEEC14F0000166513A6E3A50FB
:10166000020DF3CF6FF03B50040DF3CF70F03C5000
:10167000080DF3CF71F03D50100DF3CF72F03E50D6
:10168000200DF3CF73F03F50400DF3CF74F0405076
:10169000800DF350000174250001732500017225AF
:1016A000000171250001702500016F25000800016F
:1016B0006E25396E000E386E010E436E00D012009A
:1016C000000E00017D6F000E7C6F00016FAF1CD01B
:1016D0006EC060F06FC061F0FF0E0001636F626961
:1016E00032EC1BF060C06EF061C06FF0860E00013E
:1016F0007C25D96E010E00017D21DA6E2D0EDF6E84
:1017000000017C4B7D2B00D06EC066F06FC067F08F
:10171000270E0001696F100E686FCEEC14F066C0E2
:1017200072F067C073F072C060F073C061F0270E92
:101730000001636F100E626F32EC1BF00001601F3E
:101740000001611F0001604B612B00016E5100011F
:1017500060250001666F00016F51000161210001E9
:10176000676F030E0001696FE80E686FCEEC14F02E
:1017700066C074F067C075F072C060F073C061F04D
:10178000270E0001636F100E626F32EC1BF060C019
:1017900070F061C071F074C060F075C061F0030E4C
:1017A0000001636FE80E626F32EC1BF000016051C4
:1017B0000001702700016151000171230001701FB9
:1017C000711F704B712B00016E51000170250001DB
:1017D000666F00016F51000171210001676F000EFB
:1017E0000001696F640E686FCEEC14F066C076F08D
:1017F00067C077F072C060F073C061F0270E00011F
:10180000636F100E626F32EC1BF060C070F061C04D
:1018100071F074C060F075C061F0030E0001636F79
:10182000E80E626F32EC1BF000016051000170277E
:10183000000161510001712376C060F077C061F052
:10184000000E0001636F640E626F32EC1BF000014A
:1018500060510001702700016151000171230001F6
:10186000701F711F704B712B00016E5100017025AC
:101870000001666F00016F51000171210001676F67
:10188000000E0001696F0A0E686FCEEC14F066C09E
:1018900078F067C079F072C060F073C061F0270E15
:1018A0000001636F100E626F32EC1BF060C070F0CD
:1018B00061C071F074C060F075C061F0030E00018A
:1018C000636FE80E626F32EC1BF0000160510001A3
:1018D0007027000161510001712376C060F077C06C
:1018E00061F0000E0001636F640E626F32EC1BF05A
:1018F0000001605100017027000161510001712356
:1019000078C060F079C061F0000E0001636F0A0ECC
:10191000626F32EC1BF00001605100017027000182
:101920006151000171230001701F711F704B712BF9
:1019300000016E510001702500017A6F00016F51A6
:101940000001712100017B6F860E00017C25D96E9C
:10195000010E00017D21DA6E00017251300FDF6E41
:1019600000017C4B7D2B860E00017C25D96E010E7B
:1019700000017D21DA6E00017451300FDF6E00012D
:101980007C4B7D2B860E00017C25D96E010E00015B
:101990007D21DA6E00017651300FDF6E00017C4B45
:1019A0007D2B860E00017C25D96E010E00017D2164
:1019B000DA6E00017851300FDF6E00017C4B7D2B19
:1019C000860E00017C25D96E010E00017D21DA6EA4
:1019D00000017A51300FDF6E00017C4B7D2B860EAB
:1019E00000017C25D96E010E00017D21DA6E000E0A
:1019F000DF6E00017C4B7D2B860E00016E6F010EA9
:101A000000016F6F00D01200000E0001AD6F0001E9
:101A1000A3AF12D0A1C077F0A2C078F0A3C079F034
:101A20004EEC1BF077C0A1F078C0A2F079C0A3F013
:101A3000010E0001AD6F00D0A1C068F0A2C069F036
:101A4000A3C06AF0FA0E00016B6F220E00016C6FEA
:101A50003E0E00016D6F72EC10F068C0A1F069C01D
:101A6000A2F06AC0A3F0A1C08EF0A2C08FF0A3C004
:101A700090F0A1C086F0A2C087F0A3C088F0EAEC85
:101A800012F086C091F087C092F088C093F0DEEC2F
:101A900019F08EC0A1F08FC0A2F090C0A3F0A1C039
:101AA00068F0A2C069F0A3C06AF0000E00016B6F7D
:101AB000800E00016C6F400E00016D6F72EC10F033
:101AC00068C0A1F069C0A2F06AC0A3F0000E0001D6
:101AD0007A6F000E00017B6F400E00017C6FA1C089
:101AE0007DF0A2C07EF0A3C07FF036EC15F00001BF
:101AF000D8B022D0A1C08EF0A2C08FF0A3C090F0C9
:101B0000000E0001916F000E0001926F400E000167
:101B1000936FDEEC19F08EC0A1F08FC0A2F090C0E0
:101B2000A3F00001AD510001D8A402D0010E01D0F4
:101B3000000E0001AD6F00D0000E00017A6F800E24
:101B400000017B6F3F0E00017C6FA1C07DF0A2C041
:101B50007EF0A3C07FF036EC15F00001D8B01FD0A6
:101B6000A1C077F0A2C078F0A3C079F04EEC1BF0D2
:101B700077C07AF078C07BF079C07CF0000E00016D
:101B80007D6F000E00017E6F400E00017F6F52ECF2
:101B90000EF07AC0A1F07BC0A2F07CC0A3F0A1C07F
:101BA00068F0A2C069F0A3C06AF0A1C06BF0A2C047
:101BB0006CF0A3C06DF072EC10F068C0AAF069C0C0
:101BC000ABF06AC0ACF0AAC086F0ABC087F0ACC086
:101BD00088F0100E0001896F030E00018A6F000E5D
:101BE00000018C6F030E8B6FE6EC13F086C0A4F03F
:101BF00087C0A5F088C0A6F0A4C095F0A5C096F057
:101C0000A6C097F0000E00018C6F040E8B6F010EC2
:101C10000001896F030E00018A6FAAC086F0ABC075
:101C200087F0ACC088F0E6EC13F086C092F087C075
:101C300093F088C094F020EC11F092C0A7F093C00C
:101C4000A8F094C0A9F0A1C068F0A2C069F0A3C038
:101C50006AF0A7C06BF0A8C06CF0A9C06DF072EC80
:101C600010F068C0A1F069C0A2F06AC0A3F0000142
:101C7000AD510001D8B40FD0A1C077F0A2C078F068
:101C8000A3C079F04EEC1BF077C0A1F078C0A2F0B1
:101C900079C0A3F006D0A1C0A1F0A2C0A2F0A3C059
:101CA000A3F012007CC080F00001816B826B000108
:101CB0007B350001803701E3818100018051000103
:101CC000856F7FC080F00001816B826B00017E35E3
:101CD0000001803701E38181000180510001846FA0
:101CE000000185510001D8B411D0000184510001D8
:101CF000855DD8B012D0000185510008000184250F
:101D00000001806F180E0001806507D07DC07AF059
:101D10007EC07BF07FC07CF003D1000184510001C4
:101D2000D8B411D0000185510001845DD8B012D023
:101D3000000184510008000185250001806F180E04
:101D40000001806507D07AC07AF07BC07BF07CC050
:101D50007CF0E6D0060E0001836F00017CAF03D05B
:101D60000001838F00D000017FAF02D00001838D7E
:101D700000017B8FFF0E00017A17FF0E00017B1719
:101D8000000E00017C1700017E8FFF0E00017D1701
:101D9000FF0E00017E17000E00017F170001845125
:101DA0000001855DD8B028D00001D8907D377E37FE
:101DB0007F37000184070001855100018419D8B4E0
:101DC00013D00001830783C080F0070E0001801745
:101DD000D8B40AD0E9D708D00001D8907C337B333F
:101DE0007A330001852B00D0000184510001851950
:101DF000D8B430D0F1D72ED0000185510001845DD8
:101E0000D8B028D00001D8907A377B377C370001D2
:101E100085070001855100018419D8B413D0000151
:101E2000830783C080F0070E00018017D8B40AD062
:101E3000E9D708D00001D8907F337E337D3300018D
:101E4000842B00D00001845100018519D8B402D040
:101E5000F1D700D0000183AF12D0FF0E00017A1B32
:101E6000FF0E00017B1BFF0E00017C1B010E000119
:101E70007A27000E00017B23000E00017C23000165
:101E800083AD13D0FF0E00017D1BFF0E00017E1BF2
:101E9000FF0E00017F1B010E00017D27000E0001D7
:101EA0007E23000E00017F2300D0000E0001836F0F
:101EB00000017A5100017D2700017B5100017E2342
:101EC00000017C5100017F2300017FAF16D0FF0E7F
:101ED00000017D1BFF0E00017E1BFF0E00017F1B1A
:101EE000010E00017D27000E00017E23000E00017F
:101EF0007F23010E0001836F00D07DC060F07EC0A3
:101F000061F07FC062F085C063F083C064F05AEC7A
:101F100012F060C07AF061C07BF062C07CF000D04B
:101F20001200000E00017A6F000E00017B6F000EA0
:101F300000017C6F94C07DF095C07EF096C07FF06C
:101F400036EC15F00001D8A011D0000196AF04D0F6
:101F5000000E356E210E346E000E0001946F000EDF
:101F60000001956F000E0001966FBBD094C09DF0EC
:101F700095C09EF096C09FF094C097F095C098F0E1
:101F800096C099F00001971F981F991F972B000E7C
:101F900098239923C80E000197250001A46F6E0EA7
:101FA000000198210001A56FBE0E000199210001DA
:101FB000A66F0001D890A633A533A433000E00010C
:101FC0009D5F800E00019E5B000E00019F5B040E72
:101FD0000001A06F00D0A4C09AF0A5C09BF0A6C0DD
:101FE0009CF0A4C068F0A5C069F0A6C06AF09DC0CE
:101FF0006BF09EC06CF09FC06DF072EC10F068C08A
:10200000A1F069C0A2F06AC0A3F0A1C068F0A2C0AC
:1020100069F0A3C06AF0A4C06BF0A5C06CF0A6C0C4
:102020006DF072EC10F068C0A1F069C0A2F06AC057
:10203000A3F0A1C068F0A2C069F0A3C06AF0A4C078
:102040006BF0A5C06CF0A6C06DF072EC10F068C02B
:10205000A1F069C0A2F06AC0A3F0A4C068F0A5C056
:1020600069F0A6C06AF0000E00016B6FC00E00019F
:102070006C6F3F0E00016D6F72EC10F068C0A4F041
:1020800069C0A5F06AC0A6F0A4C08EF0A5C08FF00C
:10209000A6C090F0A1C091F0A2C092F0A3C093F0AE
:1020A000DEEC19F08EC0A4F08FC0A5F090C0A6F0B1
:1020B0000001A02F90D700D0A4C068F0A5C069F09F
:1020C000A6C06AF094C06BF095C06CF096C06DF03D
:1020D00072EC10F068C094F069C095F06AC096F098
:1020E00000D012006AC06EF000016F6B706B0001CF
:1020F000693500016E3701E36F8100016E51000107
:10210000716F00017151D8A402D014D098D06DC065
:102110006EF000016F6B706B00016C3500016E3763
:1021200001E36F8100016E510001766F000176516D
:10213000D8A40AD0000E0001686F000E0001696F7C
:10214000000E00016A6F7BD0000176517B0F000109
:1021500071276AC076F000016D510001761B800E78
:10216000000176170001698F00016C8FFF0E0001DE
:102170006B17FF0E00016C17000E00016D17000EAB
:102180000001726F000E0001736F000E0001746F8A
:10219000070E0001756F00D0000168A10DD000018D
:1021A0006B510001722700016C5100017323000183
:1021B0006D510001742300D00001D8906A33693357
:1021C00068330001D8906B376C376D370001752F7D
:1021D000E3D700D0090E0001756F00D0000168A19F
:1021E0000DD000016B510001722700016C510001FC
:1021F000732300016D510001742300D00001D890B9
:102200006A33693368330001D8907433733372339F
:102210000001752FE3D700D072C060F073C061F089
:1022200074C062F071C063F076C064F05AEC12F0D2
:1022300060C068F061C069F062C06AF000D012004E
:1022400094C098F00001996B9A6B000193350001DE
:10225000983701E399810001985100019F6F0001B7
:102260009F51D8A402D014D08BD097C098F0000111
:10227000996B9A6B000196350001983701E39981BB
:10228000000198510001A06F0001A051D8A40AD00C
:10229000000E0001926F000E0001936F000E00010E
:1022A000946F6ED0000E00019C6F000E00019D6FB8
:1022B000000E00019E6F0001A051890F00019F5F79
:1022C00094C0A0F0000197510001A01B800E0001F6
:1022D000A0170001938FFF0E00019217FF0E00015F
:1022E0009317000E000194170001968FFF0E000156
:1022F0009517FF0E00019617000E00019717180E94
:1023000000019B6F00D00001D8909C379D379E370D
:10231000000195510001925D000196510001935911
:102320000001975100019459D8A00ED00001955199
:102330000001925F000196510001935B00019751EB
:102340000001945B00019C810001D8909237933783
:10235000943700019B2FD7D700D09CC060F09DC060
:1023600061F09EC062F09FC063F0A0C064F05AECC0
:1023700012F060C092F061C093F062C094F000D09F
:10238000120062C064F00001656B666B000161358C
:102390000001643701E365810001645100016E6F43
:1023A00000016E51D8A402D051D083D0170E000185
:1023B000646F60C065F061C066F062C067F00001E4
:1023C00064290001686F05D00001D8906733663337
:1023D00065330001682FF8D7000165510001696F6E
:1023E0000001618FFF0E00016017FF0E00016117F1
:1023F000000E000162170001605100016A6F0001C8
:10240000615100016B6F0001625100016C6F0001AE
:102410006D6B8E0E00016E5F00016EAF13D0000178
:102420006E51800A8F0FD8B003D010D042D000D0A8
:102430000001D8906D336C336B336A3300016E3F0B
:10244000F7D71FD0170E00016E6514D0000E0001E3
:10245000606F000E616F000E626F000E636F29D017
:1024600009D00001D8906A376B376C376D3700019F
:102470006E0700D000016E510001D8B402D0F1D730
:1024800000D0000169510001D8B40AD000016D1FCD
:102490006C1F6B1F6A6D000E6B236C236D2300D0C5
:1024A0006AC060F06BC061F06CC062F06DC063F038
:1024B00000D01200000163510001D8B408D000011F
:1024C00060510001611100016211D8A413D0000E07
:1024D0000001606F000E0001616F000E0001626F6D
:1024E00078D008D00001632B0001D89062336133AB
:1024F000603300D0000E000160150001656F000E12
:10250000000161150001666FFE0E000162150001F9
:10251000676F000165510001661100016711D8B4B1
:1025200013D0E0D711D00001632B010E000160270A
:10253000000E00016123000E000162230001D8900B
:1025400062336133603300D0000E0001601500017A
:10255000656F000E000161150001666FFF0E00013E
:1025600062150001676F00016551000166110001ED
:102570006711D8B40AD0D7D708D00001630700018B
:10258000D89060376137623700D0000161BF05D055
:10259000020E00016361F1D700D0000163B103D0E6
:1025A0000001619F00D00001D890633300016351A6
:1025B00000016213000164510001D8B403D000018E
:1025C000628F00D060C060F061C061F062C062F0F4
:1025D00000D0120086C060F087C061F088C062F051
:1025E0008C0E0001636F000E0001646FE7EC16F0C3
:1025F00000018DAF16D0000188AF09D0000E000198
:10260000866F800E0001876FBF0E08D060D0000E6D
:102610000001866F000E0001876F000E0001886FB9
:1026200056D000018D5105E1150E00018C5DD8A03A
:1026300007D086C086F087C087F088C088F047D072
:1026400086C060F087C061F088C062F0C1EC11F014
:1026500060C06FF061C070F062C071F063C072F072
:102660004EEC16F06FC089F070C08AF071C08BF02C
:1026700086C07AF087C07BF088C07CF089C07DF08E
:102680008AC07EF08BC07FF036EC15F00001D8B028
:1026900018D089C07AF08AC07BF08BC07CF0000E25
:1026A00000017D6F800E00017E6FBF0E00017F6F05
:1026B00052EC0EF07AC086F07BC087F07CC088F0C8
:1026C00006D089C086F08AC087F08BC088F01200DF
:1026D000ADC077F0AEC078F0AFC079F04EEC1BF033
:1026E00077C07AF078C07BF079C07CF0A7C07DF02D
:1026F000A8C07EF0A9C07FF052EC0EF07AC0B9F00D
:102700007BC0BAF07CC0BBF0B0C077F0B1C078F04D
:10271000B2C079F04EEC1BF077C07AF078C07BF055
:1027200079C07CF0AAC07DF0ABC07EF0ACC07FF079
:1027300052EC0EF07AC0BCF07BC0BDF07CC0BEF0A5
:10274000B9C06BF0BAC06CF0BBC06DF0B9C068F036
:10275000BAC069F0BBC06AF072EC10F068C07AF0E1
:1027600069C07BF06AC07CF0BCC06BF0BDC06CF08F
:10277000BEC06DF0BCC068F0BDC069F0BEC06AF0FC
:1027800072EC10F068C07DF069C07EF06AC07FF026
:1027900052EC0EF07AC0B6F07BC0B7F07CC0B8F057
:1027A000B6C094F0B7C095F0B8C096F091EC0FF0B9
:1027B00094C0B3F095C0B4F096C0B5F0B3C0A7F024
:1027C000B4C0A8F0B5C0A9F000D012008BC060F072
:1027D0008CC061F0000E0001636F030E626F32EC7B
:1027E0001BF089C08DF08AC08EF00001605100019D
:1027F0008D270001615100018E238DC0F6FF8EC030
:10280000F7FF0900F5CF8FF00900F5CF90F00A002F
:10281000F5CF91F045D08FC06BF090C06CF091C0B7
:102820006DF086C068F087C069F088C06AF072EC0D
:1028300010F068C07AF069C07BF06AC07CF0000ECE
:102840000001636F030E626F00018B07D8A08C0735
:102850008BC060F08CC061F032EC1BF089C08DF051
:102860008AC08EF00001605100018D270001615186
:1028700000018E238DC0F6FF8EC0F7FF0900F5CF53
:102880007DF00900F5CF7EF00A00F5CF7FF052EC25
:102890000EF07AC08FF07BC090F07CC091F000D039
:1028A00000018B5100018C11D8A4B5D78FC086F0E0
:1028B00090C087F091C088F01200000185AF0FD062
:1028C00083C077F084C078F085C079F04EEC1BF0BF
:1028D00077C086F078C087F079C088F007D083C0D1
:1028E00086F084C087F085C088F000D086C068F08C
:1028F00087C069F088C06AF0140E00016B6FD60EB5
:1029000000016C6F400E00016D6F72EC10F068C03A
:1029100086F069C087F06AC088F0400E00017A6FC7
:10292000270E00017B6F440E00017C6F86C07DF096
:1029300087C07EF088C07FF036EC15F00001D8B07B
:102940000AD0400E0001866F270E0001876F440EEB
:102950000001886F00D0000185AF02D0838802D0CB
:10296000839800D086C060F087C061F088C062F0B4
:10297000C1EC11F000016051796E86C060F087C033
:1029800061F088C062F0C1EC11F0000161C060F03C
:102990000001616B00016051786E1200000E0001B1
:1029A0006B6F000169AF09D00001686D691FD8B075
:1029B000692B010E00016B6F00D0000167AF09D0D9
:1029C0000001666D671FD8B0672B010E00016B1BFD
:1029D00000D0000E00016D6F000E6C6F0001685199
:1029E00000016911D8B431D0010E00016A6F07D01F
:1029F0000001D8906837693700016A2B00D00001C8
:102A000069BF02D0F5D700D00001D8906C376D3780
:102A1000000168510001665D0001695100016759BC
:102A2000D8A00BD0000168510001665F0001695118
:102A30000001675B00016C8100D00001D890693310
:102A4000683300016A2FE0D700D000016B5100010C
:102A5000D8B406D000016C6D6D1FD8B06D2B00D0BE
:102A60006CC066F06DC067F000D0120000017CAF52
:102A70001ED07AC080F07BC081F07CC082F0000163
:102A8000801F811F821F802B000E81238223000E56
:102A90000001802500017A6F000E000181210001F4
:102AA0007B6F800E0001822100017C6F00D000014D
:102AB0007FAF1ED07DC080F07EC081F07FC082F0ED
:102AC0000001801F811F821F802B000E8123822323
:102AD000000E0001802500017D6F000E00018121A4
:102AE00000017E6F800E0001822100017F6F00D007
:102AF000000E00017A1B000E00017B1B800E0001FE
:102B00007C1B000E00017D1B000E00017E1B800E51
:102B100000017F1B00017D5100017A5D00017E51A3
:102B200000017B5900017F5100017C59D8B002D0CF
:102B3000D89002D0D88000D01200100E00017A6F19
:102B4000490E00017B6F400E00017C6FAEC07DF02E
:102B5000AFC07EF0B0C07FF036EC15F00001D8B009
:102B600021D0AEC07AF0AFC07BF0B0C07CF0CC0E0C
:102B700000017D6F960E00017E6FC00E00017F6F19
:102B800052EC0EF07AC0B1F07BC0B2F07CC0B3F072
:102B9000B1C0A1F0B2C0A2F0B3C0A3F004EC0DF03C
:102BA00020D026D0AEC07AF0AFC07BF0B0C07CF0B1
:102BB000100E00017D6FC90E00017E6F3F0E0001F7
:102BC0007F6F52EC0EF07AC0B1F07BC0B2F07CC0E7
:102BD000B3F0B1C0A1F0B2C0A2F0B3C0A3F004EC56
:102BE0000DF0A1C0AEF0A2C0AFF0A3C0B0F000D015
:102BF0001200000E0001DC6F000E0001DD6F000E00
:102C00000001DE6F000E0001DF6F000E0001E06FBB
:102C1000000E0001E16F000E0001E26F000E0001E6
:102C2000E36F000E0001E46F000E0001E56F000E7F
:102C30000001E66F000E0001E76F000E0001E86F73
:102C4000000E0001E96F000E0001EA6F000E0001A6
:102C5000EB6F000E0001EC6F000E0001ED6F000E37
:102C60000001DB6F000E0001F46F000E0001EF6F3A
:102C7000000EEE6F000E0001F16F000EF06F000EFF
:102C80000001F36F000EF26F000E0001DA6F000E0C
:102C90000001D96F000E0001F56F1200000E000157
:102CA000786F8E0E0001776F000172AF16D00001B1
:102CB000721F711F701F6F6D000E702371237223BE
:102CC000010E0001786F09D00001D8907233713382
:102CD00070336F330001772B00D0000E00016F15A9
:102CE0000001736F000E000170150001746F000E7B
:102CF000000171150001756FFF0E000172150001D2
:102D0000766F00017351000174110001751100010B
:102D10007611D8A4D9D76FC060F070C061F071C0CF
:102D200062F077C063F078C064F05AEC12F060C0D3
:102D30006FF061C070F062C071F000D0120086C008
:102D40007AF087C07BF088C07CF083C07DF084C0BF
:102D50007EF085C07FF036EC15F00001D8B007D0CA
:102D600086C083F087C084F088C085F028D083C0F7
:102D70007AF084C07BF085C07CF086C077F087C095
:102D800078F088C079F04EEC1BF077C07DF078C009
:102D90007EF079C07FF036EC15F00001D8B00FD08E
:102DA00086C077F087C078F088C079F04EEC1BF0D1
:102DB00077C083F078C084F079C085F000D083C0FC
:102DC00083F084C084F085C085F000D0120000013B
:102DD00060510001611100016211D8A409D063C0E3
:102DE000D9FF64C0DAFF000EDE6E000EDD6E36D055
:102DF000000162517F0B0001656F666BD890000186
:102E00006537663763C0D9FF64C0DAFF65C0DEFF8F
:102E100066C0DDFF000161AF04D00001656B652B6A
:102E200002D00001656B0001655163C0D9FF64C029
:102E3000DAFFDE12000EDD1263C0D9FF64C0DAFFD4
:102E4000820EDE26FF0EDD2262816283628562874A
:102E50006289628B629D0001619F00D01200929096
:102E60009292929492869288929A928C928E939059
:102E70009392939493969398939A939C939E949001
:102E80009492949494869498949A948C948E959019
:102E90009592958495969598959A959C959E9690E1
:102EA0009692969489908992899489968998899A1C
:102EB000899C899E8A908A928A948A968A988A9A0C
:102EC0008A9C8A9E8B908B928B948B968B988B9AF4
:102ED0008B9C8B9E8C908C928C948C968C988C9ADC
:102EE0008C9C8C9E8D908D928D941200F28EF28C23
:102EF000F29AF288F296F294F292F290F18CF18AC0
:102F0000F188F184F09EF09CF098F09EF092F090A1
:102F10009E9C9E9A9E989E969E949E929E90A19E06
:102F2000A198A194A190A498A496A494A492A490EA
:102F3000D08E9F9C9F8A9F989F969F949F929F80E0
:102F4000A29EA288A294A290A598A586A584A592E7
:102F5000A5909D9C9D8A9D989D969D949D929D80F7
:102F6000A09EA088A094A090A398A396A384A392C7
:102F7000A3901200036EA4A406D00304D8A403D027
:102F800091EC1BF038D0A45006D00304D8A403D091
:102F900004EC1CF030D0F25006D00304D8A403D0C7
:102FA000FCEC1BF028D09EA006D00304D8A403D0CC
:102FB00074EC1AF020D09E5006D00350D8A403D051
:102FC00006EC1CF018D0F2A206D00304D8A403D05B
:102FD00006EC1AF010D09EAA06D00304D8A403D0A1
:102FE000DAEC1AF008D09E5006D00350D8A403D0D3
:102FF00008EC1CF000D01200176EA4A406D0170431
:10300000D8A403D0A3EC1BF038D0A45006D01704EA
:10301000D8A403D00AEC1CF030D0F25006D017042C
:10302000D8A403D000EC1CF028D09EA006D0170432
:10303000D8A403D097EC1AF020D09E5006D0175099
:10304000D8A403D00CEC1CF018D0F2A206D01704C0
:10305000D8A403D02BEC1AF010D09EAA06D01704E7
:10306000D8A403D0F8EC1AF008D09E5006D0175020
:10307000D8A403D00EEC1CF000D01200A1C068F060
:10308000A2C069F066EC1BF068C092F069C093F0D2
:103090006AC094F0F80E0001956FF90E0001966F6A
:1030A000450E0001976F20EC11F092C0A4F093C080
:1030B000A5F094C0A6F0A4C068F0A5C069F0A6C0B1
:1030C0006AF0000E00016B6FB40E00016C6F430ECE
:1030D00000016D6F72EC10F068C0A4F069C0A5F03B
:1030E0006AC0A6F0A4C0A1F0A5C0A2F0A6C0A3F03B
:1030F00000D01200BB0E00017E6F030E00017F6F37
:10310000000EB4EC18F086C060F087C061F088C093
:1031100062F0C1EC11F060C083F061C084F0000E79
:10312000B5EC1BF0D30E00017E6F030E00017F6F24
:10313000000EB4EC18F089C060F08AC061F08BC05A
:1031400062F0C1EC11F060C083F061C084F0000E49
:10315000B5EC1BF08D0E00017E6F030E00017F6F3A
:10316000000EB4EC18F012000001826F7EC0F6FF72
:103170007FC0F7FFF86A020EF76403D00800F5502D
:1031800005D0F6CFE9FFF7CFEAFFEF5000016E6FF1
:1031900000018251A1EC09F000017E510001806F15
:1031A00000017F510001816F00017E4B7F2B80C0A9
:1031B000F6FF81C0F7FFF86A020EF76403D008003B
:1031C000F55005D0F6CFE9FFF7CFEAFFEF50000941
:1031D000D8A4CCD71200EACF1BF0E1CF1CF0E2CF8D
:1031E0001DF0D9CF1EF0DACF1FF0F3CF20F0F4CFCF
:1031F00021F0F6CF22F0F7CF23F0F8CF24F0F5CF6F
:1032000025F0010EFCEC17F025C0F5FF24C0F8FFF7
:1032100023C0F7FF22C0F6FF21C0F4FF20C0F3FF58
:103220001FC0DAFF1EC0D9FF1DC0E2FF1CC0E1FFB6
:103230001BC0EAFF1AC0E9FF19C0FBFF18C0FAFF64
:103240001100BDC0A1F0BEC0A2F0BFC0A3F0B4EC9D
:1032500019F0A1C0BDF0A2C0BEF0A3C0BFF0BDC0B8
:10326000B4F0BEC0B5F0BFC0B6F056EC19F0B4C0B3
:10327000C0F0B5C0C1F0B6C0C2F0000E0001926F40
:10328000800E0001936F3F0E0001946FC0C095F057
:10329000C1C096F0C2C097F020EC11F092C0BDF012
:1032A00093C0BEF094C0BFF000D01200B4C0A1F033
:1032B000B5C0A2F0B6C0A3F004EC0DF0A1C0B7F009
:1032C000A2C0B8F0A3C0B9F0B4C0AEF0B5C0AFF0C2
:1032D000B6C0B0F09DEC15F0AEC0BAF0AFC0BBF018
:1032E000B0C0BCF0B7C092F0B8C093F0B9C094F0D1
:1032F000BAC095F0BBC096F0BCC097F020EC11F0BE
:1033000092C0B4F093C0B5F094C0B6F000D01200F3
:10331000638C000EB86EB68EB69CB650E30B1809DF
:10332000B66EB650FC0B0109B66E608A60886050BC
:10333000F80B0209606E000E676E000E666E1F0EBF
:10334000656E3F0E646E000E276E000E266E000E38
:103350002A6E000E2B6E000E2C6E000E2D6E000ECF
:10336000296E000E286E1200000E0001956F340EBB
:103370000001966F430E0001976FA1C092F0A2C0AA
:1033800093F0A3C094F020EC11F092C068F093C0C9
:1033900069F094C06AF0100E00016B6F490E0001D5
:1033A0006C6F400E00016D6F72EC10F068C0A1F000
:1033B00069C0A2F06AC0A3F000D0120000019151D0
:1033C0000001921100019311D8B40AD0000E00013F
:1033D000911B000E0001921B800E0001931B00D078
:1033E0008EC07AF08FC07BF090C07CF091C07DF0F1
:1033F00092C07EF093C07FF052EC0EF07AC08EF057
:103400007BC08FF07CC090F000D012000001D90585
:10341000D8A41FD0030E0001F46118D0665067CF06
:1034200001F0026A01C002F0016A0126000E0222C8
:103430000001F451020DEE0EF324D96E000EF420BB
:10344000DA6E01C0DEFF02C0DDFF00D00001F42B08
:1034500000D0F29212000001D905D8A41FD0030EAB
:103460000001F46118D0665067CF15F0166A15C0D8
:1034700016F0156A1526000E16220001F451020DF1
:10348000EE0EF324D96E000EF420DA6E15C0DEFFC6
:1034900016C0DDFF00D00001F42B00D0F292120024
:1034A0007F987F9A7F9C7F9EF30E7F16FC0E7F167F
:1034B0007E8E6F806F508F0B10096F6E6E92A60E0E
:1034C0007B6E000E7A6E000E796E000E786E000E26
:1034D000776E000E766E000E756E000E746E000E26
:1034E000736E000E726E12009E90FC0ECF6ED50EA3
:1034F000CE6E4304D8A418D04450010D380EF324E6
:10350000D96E000EF420DA6EDF50016E013A0146EA
:1035100082500118DF0B0118826E442A0A0E44649F
:1035200005D0000E436E02D0828A00D012009E9019
:10353000FC0ECF6ED50ECE6E4304D8A418D04450E6
:10354000010D380EF324D96E000EF420DA6EDF5030
:10355000156E153A154682501518DF0B1518826E38
:10356000442A0A0E446405D0000E436E02D0828ABB
:1035700000D0120001EE00F08E0EEE6AE806FDE1CA
:1035800000EEC4F03B0EEE6AE806FDE100EE26F028
:10359000220EEE6AE806FDE1200EF66E380EF76E9A
:1035A000000EF86E0900F5CFFFF0000EF86E000176
:1035B0008FEF06F09E9A8180640E01017A6111D02E
:1035C00001017A51010D160EF324D96E010EF4207B
:1035D000DA6EAECFDFFF000E01017C6F01017A2BA6
:1035E00006D0010E01017B6FAECF01F000D01200BA
:1035F0009E9A8180640E01017A6111D001017A5195
:10360000010D160EF324D96E010EF420DA6EAECF42
:10361000DFFF000E01017C6F01017A2B06D0010E45
:1036200001017B6FAECF15F000D01200000E01013A
:10363000006F000E0101016F000E0101026F000E0C
:103640000101036F200E0101046F410E0101056F9E
:10365000000E0101066F000E0101076F000E01014F
:10366000086F12000001605100016203F3CF64F0A3
:10367000F4CF65F00001605100016303F3500001D5
:1036800065270001615100016203F35000016527C5
:1036900064C060F065C061F000D012000001775195
:1036A0000001781100017911D8B409D0000E000191
:1036B000771B000E0001781B800E0001791B77C07C
:1036C00077F078C078F079C079F0120068C060F0C7
:1036D00069C061F00001626B8E0E0001636F000E25
:1036E0000001646F5AEC12F060C068F061C069F0CC
:1036F00062C06AF000D012002FEC17F076EC17F0E1
:10370000E0EC1BF0F5EC1BF0EBEC1BF0C6EC1BF057
:1037100050EC1AF088EC19F016EC1BF0F9EC15F0EF
:103720001200A494B69C0001DA05D8A407D0010EBB
:103730000001D96F000E0001DA6F04D0000E000105
:10374000D96F00D01200A494B69C0001DA05D8A469
:1037500007D0010E0001D96F000E0001DA6F04D00E
:10376000000E0001D96F00D012000001856F83C0E8
:103770006EF084C06FF060EC0BF06EC07EF06FC036
:103780007FF000018551B4EC18F01200AC8AAC9CBB
:10379000AC98AC96AC84AC9CAA86AA90560EAF6E40
:1037A000AB8EAB9CAB881200CD8ECD9CCD92CD86DE
:1037B000CD98CD9AFF0ECF6EEF0ECE6ECD8012005B
:1037C000D58CD550F80B0409D56ED59AD596830EB5
:1037D000D66ED58E1200000E01017B6F010E010125
:1037E0007C6F000E01017A6F1200000E436E000E16
:1037F000446ED4EC1BF01200F294830ED66E1200CD
:10380000F294830ED66E1200A49612009E921200BD
:103810009E981200A49612009E9212009E9812008A
:023820000100A5
:020000040020DA
:08000000FFFFFFFFFFFFFFFF00
:020000040030CA
:0E000000FF060D3E1C9D80FF0FC00FE00F405D
:00000001FF
