:0400000054EF00F0C9
:10000800FACF18F0FBCF19F0E9CF1AF040EF19F04A
:10001800D8CF04F0E8CF05F0E0CF06F0FACF07F02C
:10002800FBCF08F0E9CF09F0EACF0AF0E1CF0BF0F7
:10003800E2CF0CF0D9CF0DF0DACF0EF0F3CF0FF0FE
:10004800F4CF10F0F6CF11F0F7CF12F0F8CF13F08D
:10005800F5CF14F0000ED1EC17F014C0F5FF13C063
:10006800F8FF12C0F7FF11C0F6FF10C0F4FF0FC071
:10007800F3FF0EC0DAFF0DC0D9FF0CC0E2FF0BC0C2
:10008800E1FF0AC0EAFF09C0E9FF08C0FBFF07C09B
:10009800FAFF06C0E0FF05C0E8FF04C0D8FF100063
:1000A8000FEF1BF0E00E01018B6F000E01018C6F4A
:1000B800450E01018D6F600E01018E6F3F0E01012B
:1000C8008F6F450E0101906F000E0101B86F780E19
:1000D8000101B96FC20E0101BA6F600E0101BB6F59
:1000E8003F0E0101BC6F450E0101BD6F000E0101FD
:1000F800916F7A0E0101926F440E0101936F000E09
:100108000101946F780E0101956FC20E0101966F7F
:1001180082C177F083C178F084C179F0A3EC1BF039
:1001280077C07AF078C07BF079C07CF085C17DF02B
:1001380086C17EF087C17FF025EC0DF07AC0B2F160
:100148007BC0B3F17CC0B4F1B2C1BDF0B3C1BEF0A5
:10015800B4C1BFF076EC19F0BDC0CDF1BEC0CEF190
:10016800BFC0CFF185C177F086C178F087C179F03B
:10017800A3EC1BF077C07AF078C07BF079C07CF0F4
:1001880088C17DF089C17EF08AC17FF025EC0DF031
:100198007AC0B2F17BC0B3F17CC0B4F1B2C1BDF09A
:1001A800B3C1BEF0B4C1BFF076EC19F0BDC0D0F158
:1001B800BEC0D1F1BFC0D2F1CDC183F0CEC184F0B1
:1001C800CFC185F0BC0E0001866FBE0E0001876F9F
:1001D8004C0E0001886FB6EC16F083C0CDF184C0D8
:1001E800CEF185C0CFF1D0C183F0D1C184F0D2C1A6
:1001F80085F0BC0E0001866FBE0E0001876F4C0EA5
:100208000001886FB6EC16F083C0D0F184C0D1F13C
:1002180085C0D2F1000E00017D6F800E00017E6F57
:100228003F0E00017F6FD0C16BF0D1C16CF0D2C11D
:100238006DF0CDC168F0CEC169F0CFC16AF046EC6F
:100248000FF068C077F069C078F06AC079F0A3EC65
:100258001BF077C07AF078C07BF079C07CF025EC91
:100268000DF07AC092F07BC093F07CC094F0D0C1BE
:100278007DF0D1C17EF0D2C17FF0CDC17AF0CEC180
:100288007BF0CFC17CF025EC0DF07AC095F07BC0F7
:1002980096F07CC097F0F4EC0FF092C0C7F193C0D1
:1002A800C8F194C0C9F1C7C183F0C8C184F0C9C1FD
:1002B80085F0BC0E0001866FBE0E0001876F4C0EE4
:1002C8000001886FB6EC16F083C0C7F184C0C8F18E
:1002D80085C0C9F1B8C177F0B9C178F0BAC179F071
:1002E800A3EC1BF077C07AF078C07BF079C07CF083
:1002F8008BC17DF08CC17EF08DC17FF025EC0DF0B7
:100308007AC0D3F17BC0D4F17CC0D5F1BBC177F002
:10031800BCC178F0BDC179F0A3EC1BF077C07AF0CE
:1003280078C07BF079C07CF08EC17DF08FC17EF003
:1003380090C17FF025EC0DF07AC0D6F17BC0D7F1E3
:100348007CC0D8F1B8C177F0B9C178F0BAC179F0FA
:10035800A3EC1BF077C07AF078C07BF079C07CF012
:1003680091C17DF092C17EF093C17FF025EC0DF034
:100378007AC0D9F17BC0DAF17CC0DBF1BBC177F080
:10038800BCC178F0BDC179F0A3EC1BF077C07AF05E
:1003980078C07BF079C07CF094C17DF095C17EF087
:1003A80096C17FF025EC0DF07AC0DCF17BC0DDF161
:1003B8007CC0DEF1D6C16BF0D7C16CF0D8C16DF04E
:1003C800CDC168F0CEC169F0CFC16AF046EC0FF03C
:1003D80068C07AF069C07BF06AC07CF0D3C17DF058
:1003E800D4C17EF0D5C17FF025EC0DF07AC0A9F11B
:1003F8007BC0AAF17CC0ABF1D3C16BF0D4C16CF067
:10040800D5C16DF0CDC168F0CEC169F0CFC16AF039
:1004180046EC0FF068C077F069C078F06AC079F0F0
:10042800A3EC1BF077C07AF078C07BF079C07CF041
:10043800D6C17DF0D7C17EF0D8C17FF025EC0DF094
:100448007AC0ACF17BC0ADF17CC0AEF1DCC16BF021
:10045800DDC16CF0DEC16DF0D0C168F0D1C169F0CA
:10046800D2C16AF046EC0FF068C077F069C078F046
:100478006AC079F0A3EC1BF077C07AF078C07BF003
:1004880079C07CF0D9C17DF0DAC17EF0DBC17FF0A4
:1004980025EC0DF07AC0BEF17BC0BFF17CC0C0F185
:1004A800D9C16BF0DAC16CF0DBC16DF0D0C168F076
:1004B800D1C169F0D2C16AF046EC0FF068C07AF099
:1004C80069C07BF06AC07CF0DCC17DF0DDC17EF0E4
:1004D800DEC17FF025EC0DF07AC0C1F17BC0C2F11E
:1004E8007CC0C3F1C7C16BF0C8C16CF0C9C16DF065
:1004F800DCC17DF0DDC17EF0DEC17FF0D6C177F0D2
:10050800D7C178F0D8C179F0A3EC1BF077C07AF0A6
:1005180078C07BF079C07CF025EC0DF07AC068F0EB
:100528007BC069F07CC06AF046EC0FF068C0C4F18B
:1005380069C0C5F16AC0C6F1D9C17DF0DAC17EF0E3
:10054800DBC17FF0C4C17AF0C5C17BF0C6C17CF0C5
:1005580025EC0DF07AC0CAF17BC0CBF17CC0CCF1A0
:10056800CAC17AF0CBC17BF0CCC17CF0D3C17DF09D
:10057800D4C17EF0D5C17FF025EC0DF07AC097F19B
:100588007BC098F17CC099F1C7C16BF0C8C16CF011
:10059800C9C16DF0D9C17DF0DAC17EF0DBC17FF051
:1005A800D3C177F0D4C178F0D5C179F0A3EC1BF0B2
:1005B80077C07AF078C07BF079C07CF025EC0DF03C
:1005C8007AC068F07BC069F07CC06AF046EC0FF036
:1005D80068C0B5F169C0B6F16AC0B7F1DCC17DF099
:1005E800DDC17EF0DEC17FF0B5C177F0B6C178F02D
:1005F800B7C179F0A3EC1BF077C07AF078C07BF034
:1006080079C07CF025EC0DF07AC0CAF17BC0CBF143
:100618007CC0CCF1CAC17AF0CBC17BF0CCC17CF0F4
:10062800D6C17DF0D7C17EF0D8C17FF025EC0DF0A2
:100638007AC09AF17BC09BF17CC09CF1D6C16BF06B
:10064800D7C16CF0D8C16DF0D9C168F0DAC169F0D2
:10065800DBC16AF046EC0FF068C077F069C078F04B
:100668006AC079F0A3EC1BF077C07DF078C07EF00B
:1006780079C07FF0D3C16BF0D4C16CF0D5C16DF0F7
:10068800DCC168F0DDC169F0DEC16AF046EC0FF04C
:1006980068C07AF069C07BF06AC07CF025EC0DF088
:1006A8007AC0A6F17BC0A7F17CC0A8F1D6C16BF0D7
:1006B800D7C16CF0D8C16DF0DCC168F0DDC169F05C
:1006C800DEC16AF046EC0FF068C07DF069C07EF0CC
:1006D8006AC07FF0D3C16BF0D4C16CF0D5C16DF0A6
:1006E800D9C168F0DAC169F0DBC16AF046EC0FF0F5
:1006F80068C07AF069C07BF06AC07CF025EC0DF028
:100708007AC0CAF17BC0CBF17CC0CCF1CAC17AF007
:10071800CBC17BF0CCC17CF0C7C16BF0C8C16CF019
:10072800C9C16DF0A6C168F0A7C169F0A8C16AF097
:1007380046EC0FF068C07DF069C07EF06AC07FF0BB
:1007480025EC0DF07AC09DF17BC09EF17CC09FF135
:10075800ACC17DF0ADC17EF0AEC17FF0C1C177F014
:10076800C2C178F0C3C179F0A3EC1BF077C07AF06E
:1007780078C07BF079C07CF025EC0DF07AC06BF086
:100788007BC06CF07CC06DF0BEC17DF0BFC17EF057
:10079800C0C17FF097C177F098C178F099C179F01E
:1007A800A3EC1BF077C07AF078C07BF079C07CF0BE
:1007B80025EC0DF07AC068F07BC069F07CC06AF067
:1007C80046EC0FF068C0B5F169C0B6F16AC0B7F180
:1007D800C1C17DF0C2C17EF0C3C17FF09AC177F07C
:1007E8009BC178F09CC179F0A3EC1BF077C07AF03C
:1007F80078C07BF079C07CF025EC0DF07AC06BF006
:100808007BC06CF07CC06DF0A9C17DF0AAC17EF000
:10081800ABC17FF0BEC177F0BFC178F0C0C179F03D
:10082800A3EC1BF077C07AF078C07BF079C07CF03D
:1008380025EC0DF07AC068F07BC069F07CC06AF0E6
:1008480046EC0FF068C0CAF169C0CBF16AC0CCF1C0
:10085800CAC17AF0CBC17BF0CCC17CF0B5C177F0CE
:10086800B6C178F0B7C179F0A3EC1BF077C07DF082
:1008780078C07EF079C07FF025EC0DF07AC0A0F149
:100888007BC0A1F17CC0A2F1000E0001926F800E26
:100898000001936F3F0E0001946FA0C195F0A1C1B4
:1008A80096F0A2C197F0F4EC0FF092C0A3F193C0B8
:1008B800A4F194C0A5F19DC168F09EC169F09FC1E3
:1008C8006AF0A3C16BF0A4C16CF0A5C16DF046EC51
:1008D8000FF068C0AFF169C0B0F16AC0B1F1AFC143
:1008E8006BF0B0C16CF0B1C16DF0ACC17DF0ADC1C1
:1008F8007EF0AEC17FF0C1C177F0C2C178F0C3C14C
:1009080079F0A3EC1BF077C07AF078C07BF079C05F
:100918007CF025EC0DF07AC068F07BC069F07CC0F3
:100928006AF046EC0FF068C0C4F169C0C5F16AC04E
:10093800C6F1C4C17AF0C5C17BF0C6C17CF0B8C1AC
:100948007DF0B9C17EF0BAC17FF025EC0DF07EC113
:10095800D9FF7FC1DAFF7AC0DEFF7BC0DEFF7CC033
:10096800DEFFAFC16BF0B0C16CF0B1C16DF0BEC1BC
:100978007DF0BFC17EF0C0C17FF0A9C177F0AAC1E8
:1009880078F0ABC179F0A3EC1BF077C07AF078C0AF
:100998007BF079C07CF025EC0DF07AC068F07BC064
:1009A80069F07CC06AF046EC0FF068C0C4F169C019
:1009B800C5F16AC0C6F1C4C17AF0C5C17BF0C6C131
:1009C8007CF0BBC17DF0BCC17EF0BDC17FF025ECE1
:1009D8000DF080C1D9FF81C1DAFF7AC0DEFF7BC08C
:1009E800DEFF7CC0DEFF1200D1EC1BF0000E01011F
:1009F800E06F000EDF6F83828B8481808E0E000192
:100A08007E6F3F0E00017F6F000E09EC19F000D0D9
:100A180082A8FED781908188000E0001836F700E36
:100A28000001846F420E0001856F48EC13F0820EBE
:100A38000001C86FDE0EE82EFED7C82FFCD7820E45
:100A48000001C86FDE0EE82EFED7C82FFCD7820E35
:100A58000001C86FDE0EE82EFED7C82FFCD7820E25
:100A68000001C86FDE0EE82EFED7C82FFCD7820E15
:100A78000001C86FDE0EE82EFED7C82FFCD7820E05
:100A88000001C86FDE0EE82EFED7C82FFCD7820EF5
:100A98000001C86FDE0EE82EFED7C82FFCD7820EE5
:100AA8000001C86FDE0EE82EFED7C82FFCD7820ED5
:100AB8000001C86FDE0EE82EFED7C82FFCD7820EC5
:100AC8000001C86FDE0EE82EFED7C82FFCD7820EB5
:100AD8000001C86FDE0EE82EFED7C82FFCD7820EA5
:100AE8000001C86FDE0EE82EFED7C82FFCD7820E95
:100AF8000001C86FDE0EE82EFED7C82FFCD7820E85
:100B08000001C86FDE0EE82EFED7C82FFCD7820E74
:100B18000001C86FDE0EE82EFED7C82FFCD7820E64
:100B28000001C86FDE0EE82EFED7C82FFCD7820E54
:100B38000001C86FDE0EE82EFED7C82FFCD7820E44
:100B48000001C86FDE0EE82EFED7C82FFCD7820E34
:100B58000001C86FDE0EE82EFED7C82FFCD7820E24
:100B68000001C86FDE0EE82EFED7C82FFCD7820E14
:100B78000001C86FDE0EE82EFED7C82FFCD7820E04
:100B88000001C86FDE0EE82EFED7C82FFCD7820EF4
:100B98000001C86FDE0EE82EFED7C82FFCD700D0A4
:100BA800000E0001F36F010E0001D96F00D00001A3
:100BB800D905D8A402D0FBD700D00001D805D8B4F5
:100BC800FCD7030E0001F319D8B41AD04F0E000158
:100BD8007E6F3E0E00017F6F000E09EC19F0F3C026
:100BE80083F00001846B000E0AEC1CF0760E000105
:100BF8007E6F3F0E00017F6F000E09EC19F0D0D711
:100C0800000E0101E06F000EDF6F0101E0BF0AD0A6
:100C18000101E05136E1030E0101DF5DD8B031D0AA
:100C280001D02FD0DFC160F0E0C161F0000E0001FB
:100C3800636F030E626F87EC1BF0DB0E000160250B
:100C4800D96E000E00016121DA6ED8900101DF35FE
:100C5800E16E0101E035E26EED0EE126000EE222C2
:100C6800E6CFA1F0E5CFA2F093EC18F0A1C0DEFF2B
:100C7800A2C0DEFFA3C0DEFF0101DF4BE02BC5D71A
:100C880000D00001F45155EC18F0B4EC15F000094F
:100C9800D8A43BD0F80E01017E6F000E01017F6FD2
:100CA800FB0E0101806F000E0101816FDBC082F134
:100CB800DCC083F1DDC084F1DEC085F1DFC086F1E0
:100CC800E0C087F1E1C088F1E2C089F1E3C08AF1B0
:100CD80056EC00F0F8C086F0F9C087F0FAC088F04A
:100CE800FBC089F0FCC08AF0FDC08BF0CFEC18F097
:100CF800F8C0D2F0F9C0D3F0FAC0D4F0FBC0D5F0F8
:100D0800FCC0D6F0FDC0D7F09FD1000E0101E16F05
:100D1800000E0101E26F000E0101E36F000E0101F8
:100D2800E46F000E0101E56F000E0101E66FED0EA4
:100D380000017E6F3E0E00017F6F000E09EC19F076
:100D48000F0E00017E6F3F0E00017F6F000E09EC51
:100D580019F0D2C086F0D3C087F0D4C088F0D5C0CF
:100D680089F0D6C08AF0D7C08BF0CFEC18F0E10E2E
:100D780001017E6F010E01017F6FE40E0101806F9A
:100D8800010E0101816FDBC082F1DCC083F1DDC09F
:100D980084F1DEC085F1DFC086F1E0C087F1E1C0F3
:100DA80088F1E2C089F1E3C08AF156EC00F02D0E1B
:100DB80000017E6F3F0E00017F6F000E09EC19F0F5
:100DC800E1C186F0E2C187F0E3C188F0E4C189F0AF
:100DD800E5C18AF0E6C18BF0CFEC18F0D2C0A7F0DD
:100DE800D3C0A8F0D4C0A9F0D5C0AAF0D6C0ABF043
:100DF800D7C0ACF0E1C1ADF0E2C1AEF0E3C1AFF0F5
:100E0800E4C1B0F0E5C1B1F0E6C1B2F02EEC11F0EA
:100E18000001A7510001A811D8A41FD0C80E0001D5
:100E28007E6F3E0E00017F6F000E09EC19F0E1C1E4
:100E380086F0E2C187F0E3C188F0E4C189F0E5C13A
:100E48008AF0E6C18BF0CFEC18F0EDD0E4C1D5F014
:100E5800E5C1D6F0E6C1D7F0F7D0E10E01017E6F0B
:100E6800010E01017F6FE40E0101806F010E010187
:100E7800816FDEC082F1DFC083F1E0C084F1E1C0A0
:100E880085F1E2C086F1E3C087F1DBC088F1DCC000
:100E980089F1DDC08AF156EC00F0CE0E00017E6FBC
:100EA8003F0E00017F6F000E09EC19F0E1C186F0DA
:100EB800E2C187F0E3C188F0E4C189F0E5C18AF0B6
:100EC800E6C18BF0CFEC18F0D2C0A7F0D3C0A8F0E1
:100ED800D4C0A9F0D5C0AAF0D6C0ABF0D7C0ACF04A
:100EE800E1C1ADF0E2C1AEF0E3C1AFF0E4C1B0F0F2
:100EF800E5C1B1F0E6C1B2F02EEC11F00001A75146
:100F08000001A811D8A41DD07A0E00017E6F3E0EF4
:100F180000017F6F000E09EC19F0E1C186F0E2C113
:100F280087F0E3C188F0E4C189F0E5C18AF0E6C141
:100F38008BF0CFEC18F00001F42B1BEC1CF073D0F5
:100F480085D7E10E01017E6F010E01017F6FE40E6E
:100F58000101806F010E0101816FE1C082F1E2C0E1
:100F680083F1E3C084F1DBC085F1DCC086F1DDC02C
:100F780087F1DEC088F1DFC089F1E0C08AF156EC64
:100F880000F0BA0E00017E6F3F0E00017F6F000E69
:100F980009EC19F0E1C186F0E2C187F0E3C188F0FD
:100FA800E4C189F0E5C18AF0E6C18BF0CFEC18F016
:100FB800D2C0A7F0D3C0A8F0D4C0A9F0D5C0AAF079
:100FC800D6C0ABF0D7C0ACF0E1C1ADF0E2C1AEF035
:100FD800E3C1AFF0E4C1B0F0E5C1B1F0E6C1B2F0F1
:100FE8002EEC11F00001A7510001A811D8A422D0BD
:100FF800A10E00017E6F3E0E00017F6F000E09EC0E
:1010080019F0E1C186F0E2C187F0E3C188F0E4C1DC
:1010180089F0E5C18AF0E6C18BF0CFEC18F0000149
:10102800F4071BEC1CF0E1C1D2F0E2C1D3F0E3C13C
:10103800D4F00CD71C0E00017E6F3E0E00017F6FAE
:10104800000E09EC19F000D0000E0101E06F000E4F
:10105800DF6F0101E0BF0AD00101E05106E1030E94
:101068000101DF5DD8B09CD501D09AD5DFC160F011
:10107800E0C161F0000E0001636F030E626F87EC40
:101088001BF0DB0E00016025D96E000E0001612106
:10109800DA6EDFC160F0E0C161F0000E0001636F3D
:1010A800030E626F87EC1BF0E40E00016025E16E11
:1010B800000E00016121E26EDECFE6FFDECFE6FF23
:1010C800DECFE6FF0101DF4BE02B0101E0BFCED709
:1010D8000101E05101E1C3D763D5FFD754EF00F018
:1010E8000001756F000175510001D8B402D007D016
:1010F80000D09EA8FED76EC0ADFFB0D100D0470487
:10110800D8B4FDD7000E486E010E466E010E456E2E
:101118006EC066F00001676B000E0001696F800EFB
:10112800686F29EC14F000016651446E4450800D3C
:10113800F31EF41EF34AF42A00016E51F324000151
:10114800666F000EF4200001676F000E0001696FE2
:10115800400E686F29EC14F000016651436E44504C
:10116800800DF31EF41EF34AF42A00016E510001AB
:101178006F6F706BF35000016F27F45000017023FC
:101188004350400DF31EF41EF34AF42AF3500001B5
:101198006F250001666FF450000170210001676F30
:1011A800000E0001696F200E686F29EC14F0000131
:1011B8006651426E4450800DF31EF41EF34AF42A21
:1011C80000016E5100016F6F706BF35000016F27C3
:1011D800F450000170234350400DF31EF41EF34AEF
:1011E800F42AF35000016F27F45000017023425095
:1011F800200DF31EF41EF34AF42AF35000016F2564
:101208000001666FF450000170210001676F000E45
:101218000001696F100E686F29EC14F00001665127
:10122800416E4450800DF31EF41EF34AF42A000167
:101238006E5100016F6F706BF35000016F27F4500F
:10124800000170234350400DF31EF41EF34AF42AA4
:10125800F35000016F27F450000170234250200D15
:10126800F31EF41EF34AF42AF35000016F27F450DA
:10127800000170234150100DF31EF41EF34AF42AA6
:10128800F35000016F250001666FF45000017021D2
:101298000001676F000E0001696F080E686F29EC86
:1012A80014F000016651406E4450800DF31EF41E88
:1012B800F34AF42A00016E5100016F6F706BF3500E
:1012C80000016F27F450000170234350400DF31EB6
:1012D800F41EF34AF42AF35000016F27F45000017A
:1012E80070234250200DF31EF41EF34AF42AF350E3
:1012F80000016F27F450000170234150100DF31EB8
:10130800F41EF34AF42AF35000016F27F450000149
:1013180070234050080DF31EF41EF34AF42AF350CC
:1013280000016F250001666FF45000017021000173
:10133800676F000E0001696F040E686F29EC14F0E6
:10134800000166513F6E4450800DF31EF41EF34AAF
:10135800F42A00016E5100016F6F706BF3500001A9
:101368006F27F450000170234350400DF31EF41E04
:10137800F34AF42AF35000016F27F4500001702358
:101388004250200DF31EF41EF34AF42AF3500001D4
:101398006F27F450000170234150100DF31EF41E06
:1013A800F34AF42AF35000016F27F4500001702328
:1013B8004050080DF31EF41EF34AF42AF3500001BE
:1013C8006F27F450000170233F50040DF31EF41EE4
:1013D800F34AF42AF35000016F250001666FF450B8
:1013E800000170210001676F000E0001696F020E95
:1013F800686F29EC14F0000166513E6E3E50020DF4
:10140800F3CF6FF03F50040DF3CF70F04050080D4C
:10141800F3CF71F04150100DF3CF72F04250200D10
:10142800F3CF73F04350400DF3CF74F04450800D68
:10143800F350000174250001732500017225000195
:1014480071250001702500016F25000800016E2537
:101458003D6E000E3C6E010E476E00D01200000E6D
:1014680000017D6F000E7C6F00016FAF1CD06EC055
:1014780060F06FC061F0FF0E0001636F626987EC76
:101488001BF060C06EF061C06FF0760E00017C2525
:10149800D96E010E00017D21DA6E2D0EDF6E00017E
:1014A8007C4B7D2B00D06EC066F06FC067F0270EB6
:1014B8000001696F100E686F29EC14F066C072F0B5
:1014C80067C073F072C060F073C061F0270E00014E
:1014D800636F100E626F87EC1BF00001601F000144
:1014E800611F0001604B612B00016E5100016025F6
:1014F8000001666F00016F51000161210001676FF3
:10150800030E0001696FE80E686F29EC14F066C0DD
:1015180074F067C075F072C060F073C061F0270E98
:101528000001636F100E626F87EC1BF060C070F0F3
:1015380061C071F074C060F075C061F0030E000105
:10154800636FE80E626F87EC1BF0000160510001C9
:10155800702700016151000171230001701F711F84
:10156800704B712B00016E51000170250001666FF0
:1015780000016F51000171210001676F000E000129
:10158800696F640E686F29EC14F066C076F067C066
:1015980077F072C060F073C061F0270E0001636FCE
:1015A800100E626F87EC1BF060C070F061C071F0C4
:1015B80074C060F075C061F0030E0001636FE80E3F
:1015C800626F87EC1BF00001605100017027000179
:1015D80061510001712376C060F077C061F0000EA0
:1015E8000001636F640E626F87EC1BF000016051AD
:1015F8000001702700016151000171230001701F73
:10160800711F704B712B00016E5100017025000194
:10161800666F00016F51000171210001676F000EB4
:101628000001696F0A0E686F29EC14F066C078F043
:1016380067C079F072C060F073C061F0270E0001D6
:10164800636F100E626F87EC1BF060C070F061C0B2
:1016580071F074C060F075C061F0030E0001636F33
:10166800E80E626F87EC1BF00001605100017027E3
:10167800000161510001712376C060F077C061F00C
:10168800000E0001636F640E626F87EC1BF00001AF
:10169800605100017027000161510001712378C079
:1016A80060F079C061F0000E0001636F0A0E626F8E
:1016B80087EC1BF0000160510001702700016151A7
:1016C800000171230001701F711F704B712B000105
:1016D8006E510001702500017A6F00016F51000101
:1016E800712100017B6F760E00017C25D96E010EF9
:1016F80000017D21DA6E00017251300FDF6E0001AA
:101708007C4B7D2B760E00017C25D96E010E0001E5
:101718007D21DA6E00017451300FDF6E00017C4BC1
:101728007D2B760E00017C25D96E010E00017D21EE
:10173800DA6E00017651300FDF6E00017C4B7D2B95
:10174800760E00017C25D96E010E00017D21DA6E2E
:1017580000017851300FDF6E00017C4B7D2B760E37
:1017680000017C25D96E010E00017D21DA6E000191
:101778007A51300FDF6E00017C4B7D2B760E000115
:101788007C25D96E010E00017D21DA6E000EDF6E18
:1017980000017C4B7D2B760E00016E6F010E00015F
:1017A8006F6F00D01200000E0001AD6F0001A3AFF3
:1017B80012D0A1C077F0A2C078F0A3C079F0A3EC52
:1017C8001BF077C0A1F078C0A2F079C0A3F0010E99
:1017D8000001AD6F00D0A1C068F0A2C069F0A3C03D
:1017E8006AF0FA0E00016B6F220E00016C6F3E0E5C
:1017F80000016D6F46EC0FF068C0A1F069C0A2F05F
:101808006AC0A3F0A1C08EF0A2C08FF0A3C090F070
:10181800A1C086F0A2C087F0A3C088F053EC12F0F4
:1018280086C091F087C092F088C093F033EC1AF02C
:101838008EC0A1F08FC0A2F090C0A3F0A1C068F044
:10184800A2C069F0A3C06AF0000E00016B6F800EA1
:1018580000016C6F400E00016D6F46EC0FF068C020
:10186800A1F069C0A2F06AC0A3F0000E00017A6F6F
:10187800000E00017B6F400E00017C6FA1C07DF05F
:10188800A2C07EF0A3C07FF091EC14F00001D8B0A4
:1018980022D0A1C08EF0A2C08FF0A3C090F0000E9D
:1018A8000001916F000E0001926F400E0001936FCE
:1018B80033EC1AF08EC0A1F08FC0A2F090C0A3F054
:1018C8000001AD510001D8A402D0010E01D0000ED4
:1018D8000001AD6F00D0000E00017A6F800E00018C
:1018E8007B6F3F0E00017C6FA1C07DF0A2C07EF02F
:1018F800A3C07FF091EC14F00001D8B01FD0A1C0B4
:1019080077F0A2C078F0A3C079F0A3EC1BF077C001
:101918007AF078C07BF079C07CF0000E00017D6F12
:10192800000E00017E6F400E00017F6F25EC0DF068
:101938007AC0A1F07BC0A2F07CC0A3F0A1C068F07F
:10194800A2C069F0A3C06AF0A1C06BF0A2C06CF09D
:10195800A3C06DF046EC0FF068C0AAF069C0ABF008
:101968006AC0ACF0AAC086F0ABC087F0ACC088F003
:10197800100E0001896F3E0E00018A6F000E0001F3
:101988008C6F030E8B6FD1EC12F086C0A4F087C069
:10199800A5F088C0A6F0A4C095F0A5C096F0A6C092
:1019A80097F0000E00018C6F040E8B6F010E000182
:1019B800896F3E0E00018A6FAAC086F0ABC087F01F
:1019C800ACC088F0D1EC12F086C092F087C093F0DA
:1019D80088C094F0F4EC0FF092C0A7F093C0A8F080
:1019E80094C0A9F0A1C068F0A2C069F0A3C06AF0D1
:1019F800A7C06BF0A8C06CF0A9C06DF046EC0FF062
:101A080068C0A1F069C0A2F06AC0A3F00001AD519E
:101A18000001D8B40FD0A1C077F0A2C078F0A3C05D
:101A280079F0A3EC1BF077C0A1F078C0A2F079C0E0
:101A3800A3F006D0A1C0A1F0A2C0A2F0A3C0A3F059
:101A480012007CC080F00001816B826B00017B3545
:101A58000001803701E38181000180510001856F19
:101A68007FC080F00001816B826B00017E35000130
:101A7800803701E38181000180510001846F0001FA
:101A880085510001D8B411D0000184510001855D51
:101A9800D8B012D00001855100080001842500014A
:101AA800806F180E0001806507D07DC07AF07EC077
:101AB8007BF07FC07CF003D1000184510001D8B4D1
:101AC80011D0000185510001845DD8B012D0000109
:101AD80084510008000185250001806F180E00015F
:101AE800806507D07AC07AF07BC07BF07CC07CF040
:101AF800E6D0060E0001836F00017CAF03D0000121
:101B0800838F00D000017FAF02D00001838D0001D8
:101B18007B8FFF0E00017A17FF0E00017B17000E66
:101B280000017C1700017E8FFF0E00017D17FF0E5C
:101B380000017E17000E00017F170001845100018B
:101B4800855DD8B028D00001D8907D377E377F37A3
:101B5800000184070001855100018419D8B413D00D
:101B68000001830783C080F0070E00018017D8B4F6
:101B78000AD0E9D708D00001D8907C337B337A3378
:101B88000001852B00D00001845100018519D8B4CB
:101B980030D0F1D72ED0000185510001845DD8B036
:101BA80028D00001D8907A377B377C370001850729
:101BB8000001855100018419D8B413D000018307AE
:101BC80083C080F0070E00018017D8B40AD0E9D787
:101BD80008D00001D8907F337E337D330001842BF9
:101BE80000D00001845100018519D8B402D0F1D782
:101BF80000D0000183AF12D0FF0E00017A1BFF0E48
:101C080000017B1BFF0E00017C1B010E00017A27DF
:101C1800000E00017B23000E00017C23000183AD30
:101C280013D0FF0E00017D1BFF0E00017E1BFF0E6F
:101C380000017F1B010E00017D27000E00017E239D
:101C4800000E00017F2300D0000E0001836F000109
:101C58007A5100017D2700017B5100017E2300019C
:101C68007C5100017F2300017FAF16D0FF0E0001D9
:101C78007D1BFF0E00017E1BFF0E00017F1B010E66
:101C880000017D27000E00017E23000E00017F2346
:101C9800010E0001836F00D07DC060F07EC061F04E
:101CA8007FC062F085C063F083C064F0C3EC11F0BC
:101CB80060C07AF061C07BF062C07CF000D0120096
:101CC800000E00017A6F000E00017B6F000E00010C
:101CD8007C6F94C07DF095C07EF096C07FF091EC4B
:101CE80014F00001D8A012D0000196AF05D0000E64
:101CF80001010E6F210E0D6F000E0001946F000E92
:101D08000001956F000E0001966FBBD094C09DF046
:101D180095C09EF096C09FF094C097F095C098F03B
:101D280096C099F00001971F981F991F972B000ED6
:101D380098239923C80E000197250001A46F6E0E01
:101D4800000198210001A56FBE0E00019921000134
:101D5800A66F0001D890A633A533A433000E000166
:101D68009D5F800E00019E5B000E00019F5B040ECC
:101D78000001A06F00D0A4C09AF0A5C09BF0A6C037
:101D88009CF0A4C068F0A5C069F0A6C06AF09DC028
:101D98006BF09EC06CF09FC06DF046EC0FF068C011
:101DA800A1F069C0A2F06AC0A3F0A1C068F0A2C007
:101DB80069F0A3C06AF0A4C06BF0A5C06CF0A6C01F
:101DC8006DF046EC0FF068C0A1F069C0A2F06AC0DF
:101DD800A3F0A1C068F0A2C069F0A3C06AF0A4C0D3
:101DE8006BF0A5C06CF0A6C06DF046EC0FF068C0B3
:101DF800A1F069C0A2F06AC0A3F0A4C068F0A5C0B1
:101E080069F0A6C06AF0000E00016B6FC00E0001F9
:101E18006C6F3F0E00016D6F46EC0FF068C0A4F0C8
:101E280069C0A5F06AC0A6F0A4C08EF0A5C08FF066
:101E3800A6C090F0A1C091F0A2C092F0A3C093F008
:101E480033EC1AF08EC0A4F08FC0A5F090C0A6F0B5
:101E58000001A02F90D700D0A4C068F0A5C069F0F9
:101E6800A6C06AF094C06BF095C06CF096C06DF097
:101E780046EC0FF068C094F069C095F06AC096F01F
:101E880000D012006AC06EF000016F6B706B000129
:101E9800693500016E3701E36F8100016E51000161
:101EA800716F00017151D8A402D014D098D06DC0C0
:101EB8006EF000016F6B706B00016C3500016E37BE
:101EC80001E36F8100016E510001766F00017651C8
:101ED800D8A40AD0000E0001686F000E0001696FD7
:101EE800000E00016A6F7BD0000176517B0F000164
:101EF80071276AC076F000016D510001761B800ED3
:101F0800000176170001698F00016C8FFF0E000138
:101F18006B17FF0E00016C17000E00016D17000E05
:101F28000001726F000E0001736F000E0001746FE4
:101F3800070E0001756F00D0000168A10DD00001E7
:101F48006B510001722700016C51000173230001DD
:101F58006D510001742300D00001D8906A336933B1
:101F680068330001D8906B376C376D370001752FD7
:101F7800E3D700D0090E0001756F00D0000168A1F9
:101F88000DD000016B510001722700016C51000156
:101F9800732300016D510001742300D00001D89013
:101FA8006A33693368330001D890743373337233FA
:101FB8000001752FE3D700D072C060F073C061F0E4
:101FC80074C062F071C063F076C064F0C3EC11F0C5
:101FD80060C068F061C069F062C06AF000D01200A9
:101FE80094C098F00001996B9A6B00019335000139
:101FF800983701E399810001985100019F6F000112
:102008009F51D8A402D014D08BD097C098F000016B
:10201800996B9A6B000196350001983701E3998115
:10202800000198510001A06F0001A051D8A40AD066
:10203800000E0001926F000E0001936F000E000168
:10204800946F6ED0000E00019C6F000E00019D6F12
:10205800000E00019E6F0001A051890F00019F5FD3
:1020680094C0A0F0000197510001A01B800E000150
:10207800A0170001938FFF0E00019217FF0E0001B9
:102088009317000E000194170001968FFF0E0001B0
:102098009517FF0E00019617000E00019717180EEE
:1020A80000019B6F00D00001D8909C379D379E3768
:1020B800000195510001925D00019651000193596C
:1020C8000001975100019459D8A00ED000019551F4
:1020D8000001925F000196510001935B0001975146
:1020E8000001945B00019C810001D89092379337DE
:1020F800943700019B2FD7D700D09CC060F09DC0BB
:1021080061F09EC062F09FC063F0A0C064F0C3ECB1
:1021180011F060C092F061C093F062C094F000D0FA
:10212800120062C064F00001656B666B00016135E6
:102138000001643701E365810001645100016E6F9D
:1021480000016E51D8A402D051D083D0170E0001DF
:10215800646F60C065F061C066F062C067F000013E
:1021680064290001686F05D00001D8906733663391
:1021780065330001682FF8D7000165510001696FC8
:102188000001618FFF0E00016017FF0E000161174B
:10219800000E000162170001605100016A6F000122
:1021A800615100016B6F0001625100016C6F000109
:1021B8006D6B8E0E00016E5F00016EAF13D00001D3
:1021C8006E51800A8F0FD8B003D010D042D000D003
:1021D8000001D8906D336C336B336A3300016E3F66
:1021E800F7D71FD0170E00016E6514D0000E00013E
:1021F800606F000E616F000E626F000E636F29D072
:1022080009D00001D8906A376B376C376D370001F9
:102218006E0700D000016E510001D8B402D0F1D78A
:1022280000D0000169510001D8B40AD000016D1F27
:102238006C1F6B1F6A6D000E6B236C236D2300D01F
:102248006AC060F06BC061F06CC062F06DC063F092
:1022580000D01200ADC077F0AEC078F0AFC079F012
:10226800A3EC1BF077C07AF078C07BF079C07CF0E3
:10227800A7C07DF0A8C07EF0A9C07FF025EC0DF0C6
:102288007AC0B9F07BC0BAF07CC0BBF0B0C077F0C0
:10229800B1C078F0B2C079F0A3EC1BF077C07AF047
:1022A80078C07BF079C07CF0AAC07DF0ABC07EF02E
:1022B800ACC07FF025EC0DF07AC0BCF07BC0BDF05F
:1022C8007CC0BEF0B9C06BF0BAC06CF0BBC06DF09A
:1022D800B9C068F0BAC069F0BBC06AF046EC0FF04C
:1022E80068C07AF069C07BF06AC07CF0BCC06BF053
:1022F800BDC06CF0BEC06DF0BCC068F0BDC069F078
:10230800BEC06AF046EC0FF068C07DF069C07EF090
:102318006AC07FF025EC0DF07AC0B6F07BC0B7F04C
:102328007CC0B8F0B6C094F0B7C095F0B8C096F0CD
:1023380064EC0EF094C0B3F095C0B4F096C0B5F05C
:10234800B3C07AF0B4C07BF0B5C07CF0000E0001D9
:102358007D6F480E00017E6F430E00017F6F91EC88
:1023680014F00001D8B006D0000E0001A86F000ECE
:10237800A76F04D00001A769A86900D01200000166
:1023880063510001D8B408D0000160510001611107
:1023980000016211D8A413D0000E0001606F000E76
:1023A8000001616F000E0001626F78D008D0000153
:1023B800632B0001D89062336133603300D0000E84
:1023C800000160150001656F000E00016115000134
:1023D800666FFE0E000162150001676F000165510E
:1023E8000001661100016711D8B413D0E0D711D0ED
:1023F8000001632B010E00016027000E000161231C
:10240800000E000162230001D8906233613360330B
:1024180000D0000E000160150001656F000E00017C
:1024280061150001666FFF0E000162150001676FFC
:10243800000165510001661100016711D8B40AD086
:10244800D7D708D0000163070001D89060376137FB
:10245800623700D0000161BF05D0020E0001636140
:10246800F1D700D0000163B103D00001619F00D013
:102478000001D89063330001635100016213000129
:1024880064510001D8B403D00001628F00D060C04D
:1024980060F061C061F062C062F000D0120086C0D6
:1024A80060F087C061F088C062F08C0E0001636F35
:1024B800000E0001646FFEEC16F000018DAF16D01F
:1024C800000188AF09D0000E0001866F800E000160
:1024D800876FBF0E08D060D0000E0001866F000E17
:1024E8000001876F000E0001886F56D000018D51E2
:1024F80005E1150E00018C5DD8A007D086C086F0D6
:1025080087C087F088C088F047D086C060F087C051
:1025180061F088C062F095EC10F060C06FF061C0A7
:1025280070F062C071F063C072F065EC16F06FC0B5
:1025380089F070C08AF071C08BF086C07AF087C0CD
:102548007BF088C07CF089C07DF08AC07EF08BC0AB
:102558007FF091EC14F00001D8B018D089C07AF05F
:102568008AC07BF08BC07CF0000E00017D6F800E6E
:1025780000017E6FBF0E00017F6F25EC0DF07AC061
:1025880086F07BC087F07CC088F006D089C086F0D2
:102598008AC087F08BC088F012008BC060F08CC0B6
:1025A80061F0000E0001636F030E626F87EC1BF091
:1025B80089C08DF08AC08EF00001605100018D271E
:1025C8000001615100018E238DC0F6FF8EC0F7FF18
:1025D8000900F5CF8FF00900F5CF90F00A00F5CF8C
:1025E80091F045D08FC06BF090C06CF091C06DF049
:1025F80086C068F087C069F088C06AF046EC0FF0C2
:1026080068C07AF069C07BF06AC07CF0000E0001F7
:10261800636F030E626F00018B07D8A08C078BC015
:1026280060F08CC061F087EC1BF089C08DF08AC027
:102638008EF00001605100018D27000161510001F9
:102648008E238DC0F6FF8EC0F7FF0900F5CF7DF011
:102658000900F5CF7EF00A00F5CF7FF025EC0DF0EC
:102668007AC08FF07BC090F07CC091F000D0000160
:102678008B5100018C11D8A4B5D78FC086F090C0BB
:1026880087F091C088F01200000185AF0FD083C099
:1026980077F084C078F085C079F0A3EC1BF077C0A0
:1026A80086F078C087F079C088F007D083C086F0BC
:1026B80084C087F085C088F000D086C068F087C0E5
:1026C80069F088C06AF0140E00016B6FD60E000125
:1026D8006C6F400E00016D6F46EC0FF068C086F01D
:1026E80069C087F06AC088F0400E00017A6F270E33
:1026F80000017B6F440E00017C6F86C07DF087C0AF
:102708007EF088C07FF091EC14F00001D8B00AD0B8
:10271800400E0001866F270E0001876F440E0001EE
:10272800886F00D0000185AF02D0838802D08398DB
:1027380000D086C060F087C061F088C062F095EC78
:1027480010F000016051796E86C060F087C061F0BA
:1027580088C062F095EC10F0000161C060F00001E3
:10276800616B00016051786E120097C077F098C0D5
:1027780078F099C079F0A3EC1BF077C07AF078C0B4
:102788007BF079C07CF09AC07DF09BC07EF09CC045
:102798007FF025EC0DF07AC09DF07BC09EF07CC0E8
:1027A8009FF09DC094F09EC095F09FC096F0F8EC05
:1027B80014F094C0A0F095C0A1F096C0A2F0A0C0FB
:1027C8007AF0A1C07BF0A2C07CF0000E00017D6F02
:1027D800A00E00017E6FC10E00017F6F91EC14F016
:1027E8000001D8B005D00001A2AF02D0FF0E2CD056
:1027F800000E00017A6FA00E00017B6F410E0001F0
:102808007C6FA0C07DF0A1C07EF0A2C07FF091ECEB
:1028180014F00001D8B016D0000E00017A6F000E37
:1028280000017B6F000E00017C6FA0C07DF0A1C08D
:102838007EF0A2C07FF091EC14F00001D8B002D075
:10284800010E02D0000E00D01200000E00016B6FC6
:10285800000169AF09D00001686D691FD8B0692B04
:10286800010E00016B6F00D0000167AF09D00001B5
:10287800666D671FD8B0672B010E00016B1B00D077
:10288800000E00016D6F000E6C6F000168510001B1
:102898006911D8B431D0010E00016A6F07D0000168
:1028A800D8906837693700016A2B00D0000169BFEA
:1028B80002D0F5D700D00001D8906C376D370001F1
:1028C80068510001665D0001695100016759D8A08F
:1028D8000BD0000168510001665F000169510001D9
:1028E800675B00016C8100D00001D89069336833C0
:1028F80000016A2FE0D700D000016B510001D8B465
:1029080006D000016C6D6D1FD8B06D2B00D06CC067
:1029180066F06DC067F000D0120000017CAF1ED0D9
:102928007AC080F07BC081F07CC082F00001801FFB
:10293800811F821F802B000E81238223000E00013D
:10294800802500017A6F000E0001812100017B6F54
:10295800800E0001822100017C6F00D000017FAF52
:102968001ED07DC080F07EC081F07FC082F0000163
:10297800801F811F821F802B000E81238223000E5F
:102988000001802500017D6F000E000181210001FA
:102998007E6F800E0001822100017F6F00D0000E43
:1029A80000017A1B000E00017B1B800E00017C1BBE
:1029B800000E00017D1B000E00017E1B800E000131
:1029C8007F1B00017D5100017A5D00017E510001ED
:1029D8007B5900017F5100017C59D8B002D0D890B2
:1029E80002D0D88000D0120094C07AF095C07BF055
:1029F80096C07CF0000E00017D6F340E00017E6FE2
:102A0800C30E00017F6F91EC14F00001D8B018D00C
:102A180094C07AF095C07BF096C07CF0000E00015F
:102A28007D6FB40E00017E6F430E00017F6F25ECB1
:102A38000DF07AC094F07BC095F07CC096F02CD055
:102A4800000E00017A6F340E00017B6F430E000107
:102A58007C6F94C07DF095C07EF096C07FF091ECBD
:102A680014F00001D8B018D094C08EF095C08FF043
:102A780096C090F0000E0001916FB40E0001926FA5
:102A8800430E0001936F33EC1AF08EC094F08FC0A0
:102A980095F090C096F000D094C094F095C095F051
:102AA80096C096F000D01200100E00017A6F490E01
:102AB80000017B6F400E00017C6FAEC07DF0AFC09F
:102AC8007EF0B0C07FF091EC14F00001D8B021D0B6
:102AD800AEC07AF0AFC07BF0B0C07CF0CC0E000185
:102AE8007D6F960E00017E6FC00E00017F6F25EC92
:102AF8000DF07AC0B1F07BC0B2F07CC0B3F0B1C0C9
:102B0800A1F0B2C0A2F0B3C0A3F0D7EC0BF020D074
:102B180026D0AEC07AF0AFC07BF0B0C07CF0100E0B
:102B280000017D6FC90E00017E6F3F0E00017F6FAF
:102B380025EC0DF07AC0B1F07BC0B2F07CC0B3F0E8
:102B4800B1C0A1F0B2C0A2F0B3C0A3F0D7EC0BF0B3
:102B5800A1C0AEF0A2C0AFF0A3C0B0F000D0120088
:102B6800E4C097F0E5C098F0E6C099F0DBC09AF0B1
:102B7800DCC09BF0DDC09CF0B9EC13F00009D8B4C0
:102B880048D0E4C097F0E5C098F0E6C099F0DEC000
:102B98009AF0DFC09BF0E0C09CF0B9EC13F000099C
:102BA800D8A412D00001F42B1BEC1CF0010E55EC3C
:102BB80018F0460E00017E6F3F0E00017F6F000E79
:102BC80009EC19F026D027D0E4C097F0E5C098F0BA
:102BD800E6C099F0E1C09AF0E2C09BF0E3C09CF037
:102BE800B9EC13F00009D8A412D00001F4071BECCB
:102BF8001CF0020E55EC18F05E0E00017E6F3F0EC1
:102C080000017F6F000E09EC19F003D004D0FF0E0D
:102C180002D0000E00D01200000E0001DB6F000E83
:102C28000001DC6F000E0001DD6F000E0001DE6F99
:102C3800000E0001DF6F000E0001E06F000E0001C2
:102C4800E16F000E0001E26F000E0001E36F000E5D
:102C58000001E46F000E0001E56F000E0001E66F51
:102C6800000E0001E76F000E0001E86F000E000182
:102C7800E96F000E0001EA6F000E0001EB6F000E15
:102C88000001EC6F000E0001DA6F000E0001F36F17
:102C9800000E0001EE6F000EED6F000E0001F06FE8
:102CA800000EEF6F000E0001F26F000EF16F000EC4
:102CB8000001D96F000E0001D86F000E0001F46FFB
:102CC8001200000E0001786F8E0E0001776F000170
:102CD80072AF16D00001721F711F701F6F6D000E4A
:102CE800702371237223010E0001786F09D000014F
:102CF800D8907233713370336F330001772B00D063
:102D0800000E00016F150001736F000E00017015B1
:102D18000001746F000E000171150001756FFF0E40
:102D2800000172150001766F0001735100017411E2
:102D38000001751100017611D8A4D9D76FC060F0D1
:102D480070C061F071C062F077C063F078C064F061
:102D5800C3EC11F060C06FF061C070F062C071F038
:102D680000D0120086C07AF087C07BF088C07CF063
:102D780083C07DF084C07EF085C07FF091EC14F0B4
:102D88000001D8B007D086C083F087C084F088C01F
:102D980085F028D083C07AF084C07BF085C07CF0B1
:102DA80086C077F087C078F088C079F0A3EC1BF074
:102DB80077C07DF078C07EF079C07FF091EC14F098
:102DC8000001D8B00FD086C077F087C078F088C0EF
:102DD80079F0A3EC1BF077C083F078C084F079C059
:102DE80085F000D083C083F084C084F085C085F06E
:102DF80000D0120000016051000161110001621150
:102E0800D8A409D063C0D9FF64C0DAFF000EDE6E13
:102E1800000EDD6E36D0000162517F0B0001656F38
:102E2800666BD89000016537663763C0D9FF64C008
:102E3800DAFF65C0DEFF66C0DDFF000161AF04D0C8
:102E48000001656B652B02D00001656B00016551BF
:102E580063C0D9FF64C0DAFFDE12000EDD1263C062
:102E6800D9FF64C0DAFF820EDE26FF0EDD22628102
:102E78006283628562876289628B629D0001619FBD
:102E880000D0120092909292929492869288929A8E
:102E9800928C928E93909392939493969398939AFC
:102EA800939C939E94909492949494869498949AD4
:102EB800948C948E95909592958495969598959ADC
:102EC800959C959E969096929694899089928994CD
:102ED80089968998899A899C899E8A908A928A94E7
:102EE8008A968A988A9A8A9C8A9E8B908B928B94CF
:102EF8008B968B988B9A8B9C8B9E8C908C928C94B7
:102F08008C968C988C9A8C9C8C9E8D908D928D949E
:102F18001200F28EF28CF29AF288F296F294F29201
:102F2800F290F18CF18AF188F184F09EF09CF0988F
:102F3800F09EF092F0909E9C9E9A9E989E969E94EB
:102F48009E929E90A19EA198A194A190A498A496C7
:102F5800A494A492A490D08E9F9C9F8A9F989F9699
:102F68009F949F929F80A29EA288A294A290A598C7
:102F7800A586A584A592A5909D9C9D8A9D989D96C1
:102F88009D949D929D80A09EA088A094A090A398B7
:102F9800A396A384A392A3901200036EA4A406D0C0
:102FA8000304D8A403D0E6EC1BF038D0A45006D014
:102FB8000304D8A403D069EC1CF030D0F25006D03A
:102FC8000304D8A403D061EC1CF028D09EA006D03E
:102FD8000304D8A403D0C9EC1AF020D09E5006D020
:102FE8000350D8A403D06BEC1CF018D0F2A206D082
:102FF8000304D8A403D05BEC1AF010D09EAA06D024
:103008000304D8A403D02FEC1BF008D09E5006D0A0
:103018000350D8A403D06DEC1CF000D01200176E3A
:10302800A4A406D01704D8A403D0F8EC1BF038D019
:10303800A45006D01704D8A403D06FEC1CF030D0ED
:10304800F25006D01704D8A403D065EC1CF028D0A1
:103058009EA006D01704D8A403D0ECEC1AF020D018
:103068009E5006D01750D8A403D071EC1CF018D08D
:10307800F2A206D01704D8A403D080EC1AF010D01E
:103088009EAA06D01704D8A403D04DEC1BF008D094
:103098009E5006D01750D8A403D073EC1CF000D073
:1030A80012000001606F00016005D8A419D0DBC0D0
:1030B80061F0DCC062F0DDC063F0DEC0DBF0DFC0D1
:1030C800DCF0E0C0DDF0E1C0DEF0E2C0DFF0E3C03C
:1030D800E0F061C0E1F062C0E2F063C0E3F01ED04E
:1030E800020E00016019D8A419D0DBC061F0DCC061
:1030F80062F0DDC063F0E1C0DBF0E2C0DCF0E3C009
:10310800DDF0DEC0E1F0DFC0E2F0E0C0E3F061C076
:10311800DEF062C0DFF063C0E0F000D01200A1C0B2
:1031280068F0A2C069F0BBEC1BF068C092F069C0FF
:1031380093F06AC094F0F80E0001956FF90E000143
:10314800966F450E0001976FF4EC0FF092C0A4F053
:1031580093C0A5F094C0A6F0A4C068F0A5C069F01B
:10316800A6C06AF0000E00016B6FB40E00016C6F10
:10317800430E00016D6F46EC0FF068C0A4F069C003
:10318800A5F06AC0A6F0A4C0A1F0A5C0A2F0A6C090
:10319800A3F000D01200E10E00017E6F3F0E000187
:1031A8007F6F000E09EC19F086C060F087C061F0EF
:1031B80088C062F095EC10F060C083F061C084F0C4
:1031C800000E0AEC1CF0F90E00017E6F3F0E0001A4
:1031D8007F6F000E09EC19F089C060F08AC061F0B9
:1031E8008BC062F095EC10F060C083F061C084F091
:1031F800000E0AEC1CF08C0E00017E6F3F0E0001E1
:103208007F6F000E09EC19F012000001826F7EC07A
:10321800F6FF7FC0F7FFF86A020EF76403D00800D4
:10322800F55005D0F6CFE9FFF7CFEAFFEF500001E0
:103238006E6F0001825174EC08F000017E510001AC
:10324800806F00017F510001816F00017E4B7F2B51
:1032580080C0F6FF81C0F7FFF86A020EF76403D05A
:103268000800F55005D0F6CFE9FFF7CFEAFFEF5099
:103278000009D8A4CCD71200EACF1BF0E1CF1CF08C
:10328800E2CF1DF0D9CF1EF0DACF1FF0F3CF20F038
:10329800F4CF21F0F6CF22F0F7CF23F0F8CF24F0C7
:1032A800F5CF25F0010E13EC18F025C0F5FF24C06A
:1032B800F8FF23C0F7FF22C0F6FF21C0F4FF20C0AB
:1032C800F3FF1FC0DAFF1EC0D9FF1DC0E2FF1CC0FC
:1032D800E1FF1BC0EAFF1AC0E9FF19C0FBFF18C0D5
:1032E800FAFF1100BDC0A1F0BEC0A2F0BFC0A3F09C
:1032F80009EC1AF0A1C0BDF0A2C0BEF0A3C0BFF097
:10330800BDC0B4F0BEC0B5F0BFC0B6F0ABEC19F0AC
:10331800B4C0C0F0B5C0C1F0B6C0C2F0000E000124
:10332800926F800E0001936F3F0E0001946FC0C032
:1033380095F0C1C096F0C2C097F0F4EC0FF092C0BF
:10334800BDF093C0BEF094C0BFF000D01200B4C06E
:10335800A1F0B5C0A2F0B6C0A3F0D7EC0BF0A1C0A5
:10336800B7F0A2C0B8F0A3C0B9F0B4C0AEF0B5C011
:10337800AFF0B6C0B0F058EC15F0AEC0BAF0AFC0C0
:10338800BBF0B0C0BCF0B7C092F0B8C093F0B9C001
:1033980094F0BAC095F0BBC096F0BCC097F0F4ECBE
:1033A8000FF092C0B4F093C0B5F094C0B6F000D05E
:1033B8001200638C000EB86EB68EB69CB650E30B46
:1033C8001809B66EB650FC0B0109B66E608A6088A3
:1033D8006050F80B0209606E000E676E000E666E94
:1033E8001F0E656E3F0E646E000E276E000E266E71
:1033F800000E2A6E000E2B6E000E2C6E000E2D6E27
:10340800000E296E000E286E1200000E0001956F46
:10341800340E0001966F430E0001976FA1C092F021
:10342800A2C093F0A3C094F0F4EC0FF092C068F03F
:1034380093C069F094C06AF0100E00016B6F490EDA
:1034480000016C6F400E00016D6F46EC0FF068C014
:10345800A1F069C0A2F06AC0A3F000D01200000178
:1034680091510001921100019311D8B40AD0000EB5
:103478000001911B000E0001921B800E0001931B9E
:1034880000D08EC07AF08FC07BF090C07CF091C0E5
:103498007DF092C07EF093C07FF025EC0DF07AC0ED
:1034A8008EF07BC08FF07CC090F000D0120000013D
:1034B800D805D8A41FD0030E0001F36118D06650B8
:1034C80067CF01F0026A01C002F0016A0126000E0E
:1034D80002220001F351020DED0EF324D96E000E05
:1034E800F420DA6E01C0DEFF02C0DDFF00D000016B
:1034F800F32B00D0F29212000001D805D8A41FD0F7
:10350800030E0001F36118D0665067CF15F0166AF4
:1035180015C016F0156A1526000E16220001F35183
:10352800020DED0EF324D96E000EF420DA6E15C0EC
:10353800DEFF16C0DDFF00D00001F32B00D0F292B1
:1035480012007F987F9A7F9C7F9EF30E7F16FC0E59
:103558007F167E8E6F806F508F0B10096F6E6E9284
:10356800A60E7B6E000E7A6E000E796E000E786ED7
:10357800000E776E000E766E000E756E000E746E7D
:10358800000E736E000E726E12009E90FC0ECF6ECF
:10359800D50ECE6E4704D8A418D04850010D3C0E65
:1035A800F324D96E000EF420DA6EDF50016E013A72
:1035B800014682500118DF0B0118826E482A0A0E54
:1035C800486405D0000E476E02D0828A00D01200EF
:1035D8009E90FC0ECF6ED50ECE6E4704D8A418D0A0
:1035E8004850010D3C0EF324D96E000EF420DA6E1B
:1035F800DF50156E153A154682501518DF0B151851
:10360800826E482A0A0E486405D0000E476E02D022
:10361800828A00D0120001EE00F07E0EEE6AE80603
:10362800FDE100EEC9F0350EEE6AE806FDE100EEB8
:1036380026F0230EEE6AE806FDE1EA0EF66E380E75
:10364800F76E000EF86E0900F5CF49F0000EF86E1F
:103658000001F8EF04F09E9A8180640E0101736105
:1036680011D001017351010D0F0EF324D96E010E13
:10367800F420DA6EAECFDFFF000E0101756F010195
:10368800732B06D0010E0101746FAECF01F000D08C
:1036980012009E9A8180640E0101736111D00101AC
:1036A8007351010D0F0EF324D96E010EF420DA6E5A
:1036B800AECFDFFF000E0101756F0101732B06D03D
:1036C800010E0101746FAECF15F000D01200000E8C
:1036D8000101006F000E0101016F000E0101026F70
:1036E800000E0101036F200E0101046F410E01015C
:1036F800056F000E0101066F000E0101076F000E35
:103708000101086F12000001605100016203F3CF4C
:1037180064F0F4CF65F00001605100016303F350D9
:10372800000165270001615100016203F3500001A7
:10373800652764C060F065C061F000D01200000128
:1037480077510001781100017911D8B409D0000E21
:103758000001771B000E0001781B800E0001791B09
:1037680077C077F078C078F079C079F0120068C037
:1037780060F069C061F00001626B8E0E0001636F3A
:10378800000E0001646FC3EC11F060C068F061C006
:1037980069F062C06AF000D0120046EC17F08DECB8
:1037A80017F045EC1CF05AEC1CF050EC1CF02BEC1C
:1037B8001CF0A5EC1AF0DDEC19F06BEC1BF010EC2A
:1037C80016F01200A494B69C0001D905D8A407D01D
:1037D800010E0001D86F000E0001D96F04D0000E51
:1037E8000001D86F00D01200A494B69C0001D9053E
:1037F800D8A407D0010E0001D86F000E0001D96FC0
:1038080004D0000E0001D86F00D012000001856FAF
:1038180083C06EF084C06FF033EC0AF06EC07EF0A7
:103828006FC07FF00001855109EC19F01200030EFA
:103838000001F419D8A402D0000E05D00001F42923
:10384800D8A404D0020E0001F46F00D01200AC8A94
:10385800AC9CAC98AC96AC84AC9CAA86AA90560E4C
:10386800AF6EAB8EAB9CAB881200CD8ECD9CCD924B
:10387800CD86CD98CD9AFF0ECF6EEF0ECE6ECD8051
:103888001200D58CD550F80B0409D56ED59AD5966B
:10389800830ED66ED58E1200000E0101746F010ED4
:1038A8000101756F000E0101736F1200000E476E63
:1038B800000E486E39EC1CF01200F294830ED66E9E
:1038C8001200F294830ED66E1200A49612009E92F5
:1038D80012009E981200A49612009E9212009E98C2
:0438E80012000100C9
:103E000000F44A489595C7C1DC45DC6DC3B3334027
:103E10003401489DB04500DA4200803F0A0D2F2151
:103E20005C2F215C2042414C495345204D45524571
:103E3000204E4F4E20524554524F5556452020217A
:103E40002121212121202F215C2F215C0A0D000A34
:103E50000A50726F626C656D6520646520646574DC
:103E6000656374696F6E2064652062616C69736557
:103E700073202E2E2E2E203A20000A0A0A0D2042F0
:103E8000414C495345204D45524520524554524FCF
:103E900055564545203120212121212121200A0D7F
:103EA000000A0A0A0D2042414C495345204D455213
:103EB0004520524554524F55564545203220212128
:103EC00021212121200A0D000A0A0A0D2042414C1D
:103ED000495345204D45524520494E4348414E47A0
:103EE000454520212121212121200A0D000A0A0A0D
:103EF0000D2042414C495345204D455245205045E7
:103F00005244554520212121212121200A0D004123
:103F10006E6369656E6E6520706F736974696F6E2C
:103F200020636F6E6E7565203A200A0D000A0D54ED
:103F3000656E6174697665206465206261736520D1
:103F40003A20200A0D000A0D20524F544154494F87
:103F50004E204120474155434845200A0D000A0D97
:103F600020524F544154494F4E20412044524F4912
:103F70005445200A0D002042616C6973657320640A
:103F80006574656374656573200A0A0A0D00426FE3
:103F90006E6A6F7572206C657320616D6973202184
:103FA0002121203D29002064616E73206C65206210
:103FB0007566666572200A0A0D000A0D2054656E4A
:103FC00061746976652032203A20200A0D000A0DBE
:103FD00054656E61746976652031203A20200A0D9F
:103FE00000506F736974696F6E203A2058203A2030
:103FF00000494C2079206120002059203A200000FF
:020000040020DA
:08000000FFFFFFFFFFFFFFFF00
:020000040030CA
:0E000000FF060D3E1C9D80FF0FC00FE00F405D
:00000001FF
