:0400000054EF00F0C9
:10000800FACF18F0FBCF19F0E9CF1AF029EF18F062
:10001800D8CF04F0E8CF05F0E0CF06F0FACF07F02C
:10002800FBCF08F0E9CF09F0EACF0AF0E1CF0BF0F7
:10003800E2CF0CF0D9CF0DF0DACF0EF0F3CF0FF0FE
:10004800F4CF10F0F6CF11F0F7CF12F0F8CF13F08D
:10005800F5CF14F0000EFBEC16F014C0F5FF13C03A
:10006800F8FF12C0F7FF11C0F6FF10C0F4FF0FC071
:10007800F3FF0EC0DAFF0DC0D9FF0CC0E2FF0BC0C2
:10008800E1FF0AC0EAFF09C0E9FF08C0FBFF07C09B
:10009800FAFF06C0E0FF05C0E8FF04C0D8FF100063
:0400A80086EF19F0D6
:1003000000F44A489595C7C1DC45DC6DC3B3334062
:100310003401489DB04500DA4200803F0A0A50721D
:100320006F626C656D6520646520646574656374D7
:10033000696F6E2064652062616C69736573202E3D
:100340002E2E2E203A20002042616C6973657320A6
:10035000646574656374656573200A0A0A0D00425A
:100360006F6E6A6F7572206C657320616D697320A2
:10037000212121203D29002064616E73206C6520BD
:10038000627566666572200A0A0D00494C20792064
:100390006120002D20004F2000582000207C0058B4
:1003A000007E000094C177F095C178F096C179F095
:1003B00063EC1AF077C07AF078C07BF079C07CF0FB
:1003C00097C17DF098C17EF099C17FF0E7EC0DF008
:1003D0007AC0A3F17BC0A4F17CC0A5F1A3C1E4F075
:1003E000A4C1E5F0A5C1E6F05FEC18F0E4C0BBF1F4
:1003F000E5C0BCF1E6C0BDF197C177F098C178F0D7
:1004000099C179F063EC1AF077C07AF078C07BF08C
:1004100079C07CF09AC17DF09BC17EF09CC17FF0D9
:10042000E7EC0DF07AC0A3F17BC0A4F17CC0A5F18C
:10043000A3C1E4F0A4C1E5F0A5C1E6F05FEC18F0BB
:10044000E4C0BEF1E5C0BFF1E6C0C0F1BBC183F0BE
:10045000BCC184F0BDC185F0BC0E0001866FBE0E2C
:100460000001876F4C0E0001886FE0EC15F083C02F
:10047000BBF184C0BCF185C0BDF1BEC183F0BFC17A
:1004800084F0C0C185F0BC0E0001866FBE0E000175
:10049000876F4C0E0001886FE0EC15F083C0BEF151
:1004A00084C0BFF185C0C0F1000E00017D6F800ED9
:1004B00000017E6F3F0E00017F6FBEC16BF0BFC1B8
:1004C0006CF0C0C16DF0BBC168F0BCC169F0BDC1CA
:1004D0006AF008EC10F068C077F069C078F06AC084
:1004E00079F063EC1AF077C07AF078C07BF079C0CD
:1004F0007CF0E7EC0DF07AC092F07BC093F07CC00A
:1005000094F0BEC17DF0BFC17EF0C0C17FF0BBC121
:100510007AF0BCC17BF0BDC17CF0E7EC0DF07AC095
:1005200095F07BC096F07CC097F0B6EC10F092C0CE
:10053000C1F193C0C2F194C0C3F1C1C183F0C2C183
:1005400084F0C3C185F0BC0E0001866FBE0E0001B1
:10055000876F4C0E0001886FE0EC15F083C0C1F18D
:1005600084C0C2F185C0C3F1000E00016B6F000EA4
:1005700000016C6F000E00016D6FBBC168F0BCC163
:1005800069F0BDC16AF008EC10F068C07AF069C08B
:100590007BF06AC07CF0C00E00017D6F040E00018C
:1005A0007E6F450E00017F6FE7EC0DF07AC0A9F178
:1005B0007BC0AAF17CC0ABF1600E00017D6F3F0EE5
:1005C00000017E6F450E00017F6FC00E00016B6F52
:1005D000040E00016C6F450E00016D6FBBC168F029
:1005E000BCC169F0BDC16AF008EC10F068C07AF0D7
:1005F00069C07BF06AC07CF0E7EC0DF07AC077F060
:100600007BC078F07CC079F063EC1AF077C0A6F17B
:1006100078C0A7F179C0A8F1A6C17AF0A7C17BF094
:10062000A8C17CF0600E00017D6F3F0E00017E6F5F
:10063000450E00017F6FE7EC0DF07AC0ACF17BC096
:10064000ADF17CC0AEF1400E00016B6F430E0001B6
:100650006C6FC50E00016D6FBEC168F0BFC169F05F
:10066000C0C16AF008EC10F068C077F069C078F09B
:100670006AC079F063EC1AF077C07AF078C07BF04A
:1006800079C07CF0C00E00017D6F840E00017E6F8A
:10069000440E00017F6FE7EC0DF07AC0AFF17BC034
:1006A000B0F17CC0B1F1C00E00016B6F840E00018F
:1006B0006C6F440E00016D6FBEC168F0BFC169F080
:1006C000C0C16AF008EC10F068C07AF069C07BF035
:1006D0006AC07CF0400E00017D6F430E00017E6F0A
:1006E000C50E00017F6FE7EC0DF07AC0B2F17BC060
:1006F000B3F17CC0B4F1400E00016B6F430E0001FA
:100700006C6FC50E00016D6FC1C168F0C2C169F0A8
:10071000C3C16AF008EC10F068C07AF069C07BF0E1
:100720006AC07CF0200E00017D6F470E00017E6FD5
:10073000450E00017F6FE7EC0DF07AC0B5F17BC08C
:10074000B6F17CC0B7F1C00E00016B6F840E0001E2
:100750006C6FC40E00016D6FC1C168F0C2C169F059
:10076000C3C16AF008EC10F068C077F069C078F097
:100770006AC079F063EC1AF077C07AF078C07BF049
:1007800079C07CF0400E00017D6F430E00017E6F4A
:10079000C50E00017F6FE7EC0DF07AC0B8F17BC0A9
:1007A000B9F17CC0BAF17F0E00016B6FCA0E000177
:1007B0006C6FCA0E00016D6FC1C168F0C2C169F0F3
:1007C000C3C16AF008EC10F068C07AF069C07BF031
:1007D0006AC07CF0AD0E00017D6F090E00017E6FD6
:1007E0004A0E00017F6FE7EC0DF07AC0C7F17BC0C5
:1007F000C8F17CC0C9F1ACC17DF0ADC17EF0AEC125
:100800007FF0B2C177F0B3C178F0B4C179F063EC96
:100810001AF077C07AF078C07BF079C07CF0E7EC12
:100820000DF07AC06BF07BC06CF07CC06DF0AFC196
:100830007DF0B0C17EF0B1C17FF0B5C177F0B6C137
:1008400078F0B7C179F063EC1AF077C07AF078C02D
:100850007BF079C07CF0E7EC0DF07AC068F07BC0EB
:1008600069F07CC06AF008EC10F068C09DF169C0C6
:100870009EF16AC09FF1B2C17DF0B3C17EF0B4C1F8
:100880007FF0B8C177F0B9C178F0BAC179F063EC04
:100890001AF077C07AF078C07BF079C07CF0E7EC92
:1008A0000DF07AC06BF07BC06CF07CC06DF0A9C11C
:1008B0007DF0AAC17EF0ABC17FF0AFC177F0B0C1CF
:1008C00078F0B1C179F063EC1AF077C07AF078C0B3
:1008D0007BF079C07CF0E7EC0DF07AC068F07BC06B
:1008E00069F07CC06AF008EC10F068C0A0F169C043
:1008F000A1F16AC0A2F1A0C17AF0A1C17BF0A2C1AE
:100900007CF09DC177F09EC178F09FC179F063ECD7
:100910001AF077C07DF078C07EF079C07FF0E7EC08
:100920000DF07AC0C4F17BC0C5F17CC0C6F1C7C16F
:1009300092F0C8C193F0C9C194F0C4C195F0C5C18B
:1009400096F0C6C197F0B6EC10F092C0C7F193C014
:10095000C8F194C0C9F1C7C16BF0C8C16CF0C9C17E
:100960006DF0ACC17DF0ADC17EF0AEC17FF0B2C123
:1009700077F0B3C178F0B4C179F063EC1AF077C0C6
:100980007AF078C07BF079C07CF0E7EC0DF07AC0AB
:1009900068F07BC069F07CC06AF008EC10F068C0B9
:1009A000A6F169C0A7F16AC0A8F1A6C17AF0A7C1F3
:1009B0007BF0A8C17CF0000E00017D6F780E000175
:1009C0007E6FC20E00017F6FE7EC0DF092C1D9FF80
:1009D00093C1DAFF7AC0DEFF7BC0DEFF7CC0DEFFA2
:1009E000C7C16BF0C8C16CF0C9C16DF0AFC17DF07B
:1009F000B0C17EF0B1C17FF0A9C177F0AAC178F093
:100A0000ABC179F063EC1AF077C07AF078C07BF074
:100A100079C07CF0E7EC0DF07AC068F07BC069F03B
:100A20007CC06AF008EC10F068C0A6F169C0A7F1BC
:100A30006AC0A8F1A6C17AF0A7C17BF0A8C17CF07A
:100A4000600E00017D6F3F0E00017E6F450E0001BC
:100A50007F6FE7EC0DF0010120EE03F09251D926F3
:100A60009351DA227AC0DEFF7BC0DEFF7CC0DEFF5E
:100A7000120091EC1AF0000E0101CB6F000ECA6F4C
:100A800083828B8481805F0E00017E6F030E0001E4
:100A90007F6F000EF2EC17F000D082A8FED7819095
:100AA0008188000E0001B06F700E0001B16F420E20
:100AB0000001B26FF3EC13F0820E0001EF6FDE0E57
:100AC000E82EFED7EF2FFCD7820E0001EF6FDE0E6F
:100AD000E82EFED7EF2FFCD7820E0001EF6FDE0E5F
:100AE000E82EFED7EF2FFCD7820E0001EF6FDE0E4F
:100AF000E82EFED7EF2FFCD7820E0001EF6FDE0E3F
:100B0000E82EFED7EF2FFCD7820E0001EF6FDE0E2E
:100B1000E82EFED7EF2FFCD7820E0001EF6FDE0E1E
:100B2000E82EFED7EF2FFCD7820E0001EF6FDE0E0E
:100B3000E82EFED7EF2FFCD7820E0001EF6FDE0EFE
:100B4000E82EFED7EF2FFCD7820E0001EF6FDE0EEE
:100B5000E82EFED7EF2FFCD7820E0001EF6FDE0EDE
:100B6000E82EFED7EF2FFCD7820E0001EF6FDE0ECE
:100B7000E82EFED7EF2FFCD7820E0001EF6FDE0EBE
:100B8000E82EFED7EF2FFCD7820E0001EF6FDE0EAE
:100B9000E82EFED7EF2FFCD7820E0001EF6FDE0E9E
:100BA000E82EFED7EF2FFCD7820E0001EF6FDE0E8E
:100BB000E82EFED7EF2FFCD7820E0001EF6FDE0E7E
:100BC000E82EFED7EF2FFCD7820E0001EF6FDE0E6E
:100BD000E82EFED7EF2FFCD7820E0001EF6FDE0E5E
:100BE000E82EFED7EF2FFCD7820E0001EF6FDE0E4E
:100BF000E82EFED7EF2FFCD7820E0001EF6FDE0E3E
:100C0000E82EFED7EF2FFCD7820E0001EF6FDE0E2D
:100C1000E82EFED7EF2FFCD7820E0001EF6FDE0E1D
:100C2000E82EFED7EF2FFCD700D00001FD510001C8
:100C3000D8A402D0010E01D0000E0001FD6F00010A
:100C4000FDB102D0819001D08180000E0101796F49
:100C5000010E0101686F00D001016805D8A402D01F
:100C6000FBD700D001016705D8B4FCD7030E010102
:100C70007919D8B41AD01C0E00017E6F030E000142
:100C80007F6F000EF2EC17F079C1B0F00001B16B8C
:100C9000000EC8EC1AF0470E00017E6F030E000133
:100CA0007F6F000EF2EC17F0C0D7000E0101CB6F82
:100CB000000ECA6F0101CBBF0AD00101CB5136E152
:100CC000030E0101CA5DD8B031D001D02FD0CAC106
:100CD00060F0CBC161F0000E0001636F030E626F24
:100CE00047EC1AF06A0E00016025D96E010E000172
:100CF0006121DA6ED8900101CA35E16E0101CB3570
:100D0000E26E730EE126010EE222E6CFA1F0E5CFFE
:100D1000A2F07FEC17F0A1C0DEFFA2C0DEFFA3C0EF
:100D2000DEFF0101CA4BCB2BC5D700D00001FE0569
:100D3000D8A42AD0800E0101926F010E0101936F99
:100D40006AC194F16BC195F16CC196F16DC197F1D7
:100D50006EC198F16FC199F170C19AF171C19BF1A7
:100D600072C19CF1D2EC01F080C17AF181C17BF1BA
:100D700082C17CF183C17DF184C17EF185C17FF1A7
:100D8000000E0001FE6F0AD1800E0101926F010E6C
:100D90000101936F6AC194F16BC195F16CC196F139
:100DA0006DC197F16EC198F16FC199F170C19AF15F
:100DB00071C19BF172C19CF1D2EC01F0860E010170
:100DC000926F010E0101936F6DC194F16EC195F1A7
:100DD0006FC196F170C197F171C198F172C199F12B
:100DE0006AC19AF16BC19BF16CC19CF1D2EC01F02C
:100DF0008C0E0101926F010E0101936F70C194F18D
:100E000071C195F172C196F16AC197F16BC198F108
:100E10006CC199F16DC19AF16EC19BF16FC19CF1EA
:100E2000D2EC01F0000E0101CB6F000ECA6F010180
:100E3000CBBF0AD00101CB514AE1030E0101CA5DCB
:100E4000D8B045D001D043D0CAC160F0CBC161F069
:100E5000000E0001636F030E626F47EC1AF0F00E94
:100E600000016025D96E000E00016121DA6E11EEDD
:100E70007AF000EEDBF0050EE3CFEBFFE806FCE2D4
:100E8000CAC160F0CBC161F0000E0001636F060EB5
:100E9000626F47EC1AF0800E00016025E16E010ED2
:100EA00000016121E26E00EEE1F0050EE3CFEBFF01
:100EB000E806FCE2FEEC12F0DBC0DEFFDCC0DEFF89
:100EC000DDC0DEFF0101CA4BCB2BB1D700D0F0C093
:100ED0007AF0F1C07BF0F2C07CF0F3C07DF0F4C09A
:100EE0007EF0F5C07FF0CCEC14F00001D8B02BD030
:100EF000F0C07AF0F1C07BF0F2C07CF0F6C07DF07B
:100F0000F7C07EF0F8C07FF0CCEC14F00001D8B050
:100F10000DD080C17AF181C17BF182C17CF183C1A6
:100F20007DF184C17EF185C17FF138D08CC17AF129
:100F30008DC17BF18EC17CF18FC17DF190C17EF1BD
:100F400091C17FF12BD0F3C07AF0F4C07BF0F5C0F3
:100F50007CF0F6C07DF0F7C07EF0F8C07FF0CCECFE
:100F600014F00001D8B00DD086C17AF187C17BF1B1
:100F700088C17CF189C17DF18AC17EF18BC17FF18D
:100F80000DD08CC17AF18DC17BF18EC17CF18FC106
:100F90007DF190C17EF191C17FF100D037EC0BF073
:100FA00044D6FFD754EF00F00001756F0001755172
:100FB0000001D8B402D007D000D09EA8FED76EC0E2
:100FC000ADFFB0D100D03304D8B4FDD7000E346EDD
:100FD000010E326E010E316E6EC066F00001676B5D
:100FE000000E0001696F800E686F64EC14F0000160
:100FF0006651306E3050800DF31EF41EF34AF42A11
:1010000000016E51F3240001666F000EF420000110
:10101000676F000E0001696F400E686F64EC14F09A
:10102000000166512F6E3050800DF31EF41EF34AFE
:10103000F42A00016E5100016F6F706BF3500001D4
:101040006F27F450000170232F50400DF31EF41E43
:10105000F34AF42AF35000016F250001666FF45043
:10106000000170210001676F000E0001696F200E02
:10107000686F64EC14F0000166512E6E3050800DE4
:10108000F31EF41EF34AF42A00016E5100016F6F43
:10109000706BF35000016F27F450000170232F5044
:1010A000400DF31EF41EF34AF42AF35000016F279B
:1010B000F450000170232E50200DF31EF41EF34A4D
:1010C000F42AF35000016F250001666FF45000010F
:1010D00070210001676F000E0001696F100E686FCC
:1010E00064EC14F0000166512D6E3050800DF31E3B
:1010F000F41EF34AF42A00016E5100016F6F706B09
:10110000F35000016F27F450000170232F50400D61
:10111000F31EF41EF34AF42AF35000016F27F45033
:10112000000170232E50200DF31EF41EF34AF42A02
:10113000F35000016F27F450000170232D50100D63
:10114000F31EF41EF34AF42AF35000016F25000148
:10115000666FF450000170210001676F000E0001FE
:10116000696F080E686F64EC14F0000166512C6E14
:101170003050800DF31EF41EF34AF42A00016E5124
:1011800000016F6F706BF35000016F27F450000186
:1011900070232F50400DF31EF41EF34AF42AF3502F
:1011A00000016F27F450000170232E50200DF31E14
:1011B000F41EF34AF42AF35000016F27F4500001A3
:1011C00070232D50100DF31EF41EF34AF42AF35031
:1011D00000016F27F450000170232C50080DF31EFE
:1011E000F41EF34AF42AF35000016F250001666FE4
:1011F000F450000170210001676F000E0001696F5B
:10120000040E686F64EC14F0000166512B6E3050D0
:10121000800DF31EF41EF34AF42A00016E51000102
:101220006F6F706BF35000016F27F4500001702353
:101230002F50400DF31EF41EF34AF42AF350000120
:101240006F27F450000170232E50200DF31EF41E62
:10125000F34AF42AF35000016F27F4500001702381
:101260002D50100DF31EF41EF34AF42AF350000122
:101270006F27F450000170232C50080DF31EF41E4C
:10128000F34AF42AF35000016F27F4500001702351
:101290002B50040DF31EF41EF34AF42AF350000100
:1012A0006F250001666FF450000170210001676F27
:1012B000000E0001696F020E686F64EC14F000010B
:1012C00066512A6E2A50020DF3CF6FF02B50040D99
:1012D000F3CF70F02C50080DF3CF71F02D50100D9E
:1012E000F3CF72F02E50200DF3CF73F02F50400D3E
:1012F000F3CF74F03050800DF350000174250001DD
:10130000732500017225000171250001702500017F
:101310006F25000800016E25296E000E286E010E53
:10132000336E00D01200000E00017D6F000E7C6F46
:1013300000016FAF1CD06EC060F06FC061F0FF0E97
:101340000001636F626947EC1AF060C06EF061C023
:101350006FF0350E00017C25D96E000E00017D2155
:10136000DA6E2D0EDF6E00017C4B7D2B00D06EC03F
:1013700066F06FC067F0270E0001696F100E686F8E
:1013800064EC14F066C072F067C073F072C060F075
:1013900073C061F0270E0001636F100E626F47EC9F
:1013A0001AF00001601F0001611F0001604B612BFA
:1013B00000016E51000160250001666F00016F5150
:1013C000000161210001676F030E0001696FE80EE3
:1013D000686F64EC14F066C074F067C075F072C09A
:1013E00060F073C061F0270E0001636F100E626F32
:1013F00047EC1AF060C070F061C071F074C060F02A
:1014000075C061F0030E0001636FE80E626F47EC78
:101410001AF00001605100017027000161510001C4
:1014200071230001701F711F704B712B00016E51F1
:10143000000170250001666F00016F5100017121EC
:101440000001676F000E0001696F640E686F64EC45
:1014500014F066C076F067C077F072C060F073C0B9
:1014600061F0270E0001636F100E626F47EC1AF0F7
:1014700060C070F061C071F074C060F075C061F060
:10148000030E0001636FE80E626F47EC1AF0000173
:10149000605100017027000161510001712376C085
:1014A00060F077C061F0000E0001636F640E626F40
:1014B00047EC1AF0000160510001702700016151F2
:1014C000000171230001701F711F704B712B00010F
:1014D0006E51000170250001666F00016F5100011F
:1014E00071210001676F000E0001696F0A0E686FBD
:1014F00064EC14F066C078F067C079F072C060F0F8
:1015000073C061F0270E0001636F100E626F47EC2D
:101510001AF060C070F061C071F074C060F075C006
:1015200061F0030E0001636FE80E626F47EC1AF082
:101530000001605100017027000161510001712319
:1015400076C060F077C061F0000E0001636F640E3A
:10155000626F47EC1AF00001605100017027000132
:1015600061510001712378C060F079C061F0000E14
:101570000001636F0A0E626F47EC1AF000016051C0
:101580000001702700016151000171230001701FEB
:10159000711F704B712B00016E510001702500010D
:1015A0007A6F00016F510001712100017B6F350ED0
:1015B00000017C25D96E000E00017D21DA6E00014C
:1015C0007251300FDF6E00017C4B7D2B350E000118
:1015D0007C25D96E000E00017D21DA6E0001745168
:1015E000300FDF6E00017C4B7D2B350E00017C251A
:1015F000D96E000E00017D21DA6E00017651300FA8
:10160000DF6E00017C4B7D2B350E00017C25D96EF1
:10161000000E00017D21DA6E00017851300FDF6E7F
:1016200000017C4B7D2B350E00017C25D96E000E10
:1016300000017D21DA6E00017A51300FDF6E00016A
:101640007C4B7D2B350E00017C25D96E000E0001F0
:101650007D21DA6E000EDF6E00017C4B7D2B350E96
:1016600000016E6F000E00016F6F00D01200020EBD
:101670000001FB190001FC11D8A457D1000E000194
:10168000956FC80E0001966F420E0001976F7AC1E8
:1016900092F07BC193F07CC194F0B6EC10F092C054
:1016A000A1F093C0A2F094C0A3F057EC11F0A1C038
:1016B000B3F0A2C0B4F0000E0001956FC80E000197
:1016C000966F420E0001976F7DC192F07EC193F03C
:1016D0007FC194F0B6EC10F092C0A1F093C0A2F0DC
:1016E00094C0A3F057EC11F0A1C0B5F0A2C0B6F0C1
:1016F000990E00017E6F030E00017F6F000EF2EC69
:1017000017F0000E0001BA6F000EB96F0001BABFEA
:101710000AD00001BA5115E13C0E0001B95DD8B004
:1017200010D001D00ED0A10E00017E6F030E00017B
:101730007F6F000EF2EC17F00001B94BBA2BE6D721
:1017400000D05C0E00017E6F030E00017F6F000E63
:10175000F2EC17F0000E0001BA6F000EB96F000135
:10176000BABF0AD00001BA5178E1140E0001B95D88
:10177000D8B073D001D071D09C0E00017E6F030EE3
:1017800000017F6F000EF2EC17F0000E0001B86F41
:10179000000EB76F0001B8BF0AD00001B85136E1A2
:1017A0001E0E0001B75DD8B031D001D02FD000019E
:1017B000B9510001B3191BE10001BA510001B4197C
:1017C000D8A415D00001B7510001B51910E10001EE
:1017D000B8510001B619D8A40AD0960E00017E6F48
:1017E000030E00017F6F000EF2EC17F00AD0930E8B
:1017F00000017E6F030E00017F6F000EF2EC17F008
:1018000000D00001B74BB82BC5D700D09D0E00010A
:101810007E6F030E00017F6F000EF2EC17F00A0ED0
:101820000001B9190001BA11D8A409D09F0E000116
:101830007E6F030E00017F6F000EF2EC17F05C0E5E
:1018400000017E6F030E00017F6F000EF2EC17F0B7
:101850000001B94BBA2B83D700D0990E00017E6FDF
:10186000030E00017F6F000EF2EC17F0000E000176
:10187000BA6F000EB96F0001BABF0AD00001BA51A9
:1018800015E13C0E0001B95DD8B010D001D00ED0EA
:10189000A10E00017E6F030E00017F6F000EF2ECBF
:1018A00017F00001B94BBA2BE6D700D05C0E00014F
:1018B0007E6F030E00017F6F000EF2EC17F07AC10D
:1018C000A1F07BC1A2F07CC1A3F057EC11F0A1C044
:1018D000B0F0A2C0B1F0000EC8EC1AF05C0E00012E
:1018E0007E6F030E00017F6F000EF2EC17F07DC1DA
:1018F000A1F07EC1A2F07FC1A3F057EC11F0A1C00E
:10190000B0F0A2C0B1F0000EC8EC1AF05C0E0001FD
:101910007E6F030E00017F6F000EF2EC17F0000ED9
:101920000001FC6F000EFB6F00D00001FB4BFC2B95
:101930001200000E0001D46F0001CAAF12D0C8C05F
:1019400077F0C9C078F0CAC079F063EC1AF077C0BC
:10195000C8F078C0C9F079C0CAF0010E0001D46F98
:1019600000D0C8C068F0C9C069F0CAC06AF0FA0EF9
:1019700000016B6F220E00016C6F3E0E00016D6F57
:1019800008EC10F068C0C8F069C0C9F06AC0CAF0BD
:10199000C8C0C2F0C9C0C3F0CAC0C4F0C8C0BAF061
:1019A000C9C0BBF0CAC0BCF080EC12F0BAC0C5F030
:1019B000BBC0C6F0BCC0C7F0F0EC18F0C2C0C8F0A5
:1019C000C3C0C9F0C4C0CAF0C8C068F0C9C069F0DB
:1019D000CAC06AF0000E00016B6F800E00016C6FD0
:1019E000400E00016D6F08EC10F068C0C8F069C0CF
:1019F000C9F06AC0CAF0000E00017A6F000E000143
:101A00007B6F400E00017C6FC8C07DF0C9C07EF0C6
:101A1000CAC07FF0CCEC14F00001D8B022D0C8C00E
:101A2000C2F0C9C0C3F0CAC0C4F0000E0001C56F47
:101A3000000E0001C66F400E0001C76FF0EC18F0F9
:101A4000C2C0C8F0C3C0C9F0C4C0CAF00001D451BC
:101A50000001D8A402D0010E01D0000E0001D46F05
:101A600000D0000E00017A6F800E00017B6F3F0EE8
:101A700000017C6FC8C07DF0C9C07EF0CAC07FF095
:101A8000CCEC14F00001D8B01FD0C8C077F0C9C0AA
:101A900078F0CAC079F063EC1AF077C07AF078C0B9
:101AA0007BF079C07CF0000E00017D6F000E00011C
:101AB0007E6F400E00017F6FE7EC0DF07AC0C8F03A
:101AC0007BC0C9F07CC0CAF0C8C068F0C9C069F06A
:101AD000CAC06AF0C8C06BF0C9C06CF0CAC06DF073
:101AE00008EC10F068C0D1F069C0D2F06AC0D3F041
:101AF000D1C086F0D2C087F0D3C088F0100E0001AC
:101B0000896F030E00018A6F000E00018C6F030EB7
:101B10008B6F7CEC13F086C0CBF087C0CCF088C014
:101B2000CDF0CBC095F0CCC096F0CDC097F0000EB4
:101B300000018C6F040E8B6F010E0001896F030E84
:101B400000018A6FD1C086F0D2C087F0D3C088F080
:101B50007CEC13F086C092F087C093F088C094F0BC
:101B6000B6EC10F092C0CEF093C0CFF094C0D0F09D
:101B7000C8C068F0C9C069F0CAC06AF0CEC06BF0D6
:101B8000CFC06CF0D0C06DF008EC10F068C0C8F0A9
:101B900069C0C9F06AC0CAF00001D4510001D8B4CC
:101BA0000FD0C8C077F0C9C078F0CAC079F063EC34
:101BB0001AF077C0C8F078C0C9F079C0CAF006D072
:101BC000C8C0C8F0C9C0C9F0CAC0CAF012007CC001
:101BD00080F00001816B826B00017B350001803752
:101BE00001E38181000180510001856F7FC080F099
:101BF0000001816B826B00017E350001803701E3BB
:101C00008181000180510001846F00018551000134
:101C1000D8B411D0000184510001855DD8B012D034
:101C2000000185510008000184250001806F180E15
:101C30000001806507D07DC07AF07EC07BF07FC058
:101C40007CF003D1000184510001D8B411D000010F
:101C500085510001845DD8B012D000018451000884
:101C6000000185250001806F180E0001806507D0F6
:101C70007AC07AF07BC07BF07CC07CF0E6D0060EA8
:101C80000001836F00017CAF03D00001838F00D07F
:101C900000017FAF02D00001838D00017B8FFF0E1A
:101CA00000017A17FF0E00017B17000E00017C1760
:101CB00000017E8FFF0E00017D17FF0E00017E17D1
:101CC000000E00017F17000184510001855DD8B02E
:101CD00028D00001D8907D377E377F3700018407F8
:101CE0000001855100018419D8B413D00001830785
:101CF00083C080F0070E00018017D8B40AD0E9D75E
:101D000008D00001D8907C337B337A330001852BD7
:101D100000D00001845100018519D8B430D0F1D72A
:101D20002ED0000185510001845DD8B028D000017B
:101D3000D8907A377B377C370001850700018551C1
:101D400000018419D8B413D00001830783C080F048
:101D5000070E00018017D8B40AD0E9D708D00001D7
:101D6000D8907F337E337D330001842B00D0000177
:101D7000845100018519D8B402D0F1D700D00001F8
:101D800083AF12D0FF0E00017A1BFF0E00017B1BF8
:101D9000FF0E00017C1B010E00017A27000E0001DE
:101DA0007B23000E00017C23000183AD13D0FF0EC6
:101DB00000017D1BFF0E00017E1BFF0E00017F1B3B
:101DC000010E00017D27000E00017E23000E0001A0
:101DD0007F2300D0000E0001836F00017A510001C3
:101DE0007D2700017B5100017E2300017C51000111
:101DF0007F2300017FAF16D0FF0E00017D1BFF0E79
:101E000000017E1BFF0E00017F1B010E00017D27DC
:101E1000000E00017E23000E00017F23010E000151
:101E2000836F00D07DC060F07EC061F07FC062F043
:101E300085C063F083C064F0F0EC11F060C07AF00C
:101E400061C07BF062C07CF000D01200000E000187
:101E50007A6F000E00017B6F000E00017C6FC8C01E
:101E60007DF0C9C07EF0CAC07FF0CCEC14F0000158
:101E7000D8A012D00001CAAF05D0000E0001FA6F41
:101E8000210EF96F000E0001C86F000E0001C96F2E
:101E9000000E0001CA6FBBD0C8C0D1F0C9C0D2F0DB
:101EA000CAC0D3F0C8C0CBF0C9C0CCF0CAC0CDF016
:101EB0000001CB1FCC1FCD1FCB2B000ECC23CD237D
:101EC000C80E0001CB250001D86F6E0E0001CC2199
:101ED0000001D96FBE0E0001CD210001DA6F0001B3
:101EE000D890DA33D933D833000E0001D15F800E99
:101EF0000001D25B000E0001D35B040E0001D46F21
:101F000000D0D8C0CEF0D9C0CFF0DAC0D0F0D8C061
:101F100068F0D9C069F0DAC06AF0D1C06BF0D2C005
:101F20006CF0D3C06DF008EC10F068C0D5F069C05B
:101F3000D6F06AC0D7F0D5C068F0D6C069F0D7C077
:101F40006AF0D8C06BF0D9C06CF0DAC06DF008EC64
:101F500010F068C0D5F069C0D6F06AC0D7F0D5C01F
:101F600068F0D6C069F0D7C06AF0D8C06BF0D9C0AD
:101F70006CF0DAC06DF008EC10F068C0D5F069C004
:101F8000D6F06AC0D7F0D8C068F0D9C069F0DAC01E
:101F90006AF0000E00016B6FC00E00016C6F3F0E07
:101FA00000016D6F08EC10F068C0D8F069C0D9F07E
:101FB0006AC0DAF0D8C0C2F0D9C0C3F0DAC0C4F049
:101FC000D5C0C5F0D6C0C6F0D7C0C7F0F0EC18F049
:101FD000C2C0D8F0C3C0D9F0C4C0DAF00001D42F19
:101FE00090D700D0D8C068F0D9C069F0DAC06AF0E4
:101FF000C8C06BF0C9C06CF0CAC06DF008EC10F03E
:1020000068C0C8F069C0C9F06AC0CAF000D0120048
:102010006AC06EF000016F6B706B000169350001E2
:102020006E3701E36F8100016E510001716F000195
:102030007151D8A402D014D098D06DC06EF00001B8
:102040006F6B706B00016C3500016E3701E36F81BF
:1020500000016E510001766F00017651D8A40AD0BC
:10206000000E0001686F000E0001696F000E000194
:102070006A6F7BD0000176517B0F000171276AC027
:1020800076F000016D510001761B800E000176177D
:102090000001698F00016C8FFF0E00016B17FF0EAE
:1020A00000016C17000E00016D17000E0001726F29
:1020B000000E0001736F000E0001746F070E000127
:1020C000756F00D0000168A10DD000016B510001B7
:1020D000722700016C510001732300016D51000152
:1020E000742300D00001D8906A336933683300014B
:1020F000D8906B376C376D370001752FE3D700D060
:10210000090E0001756F00D0000168A10DD000011B
:102110006B510001722700016C5100017323000113
:102120006D510001742300D00001D8906A336933E7
:1021300068330001D8907433733372330001752F04
:10214000E3D700D072C060F073C061F074C062F079
:1021500071C063F076C064F0F0EC11F060C068F01C
:1021600061C069F062C06AF000D0120094C098F0BB
:102170000001996B9A6B000193350001983701E3D8
:1021800099810001985100019F6F00019F51D8A4CF
:1021900002D014D08BD097C098F00001996B9A6B45
:1021A000000196350001983701E3998100019851AB
:1021B0000001A06F0001A051D8A40AD0000E0001B8
:1021C000926F000E0001936F000E0001946F6ED0AD
:1021D000000E00019C6F000E00019D6F000E0001BB
:1021E0009E6F0001A051890F00019F5F94C0A0F075
:1021F000000197510001A01B800E0001A0170001F3
:10220000938FFF0E00019217FF0E00019317000E2F
:10221000000194170001968FFF0E00019517FF0E25
:1022200000019617000E00019717180E00019B6F12
:1022300000D00001D8909C379D379E370001955102
:102240000001925D000196510001935900019751E0
:1022500000019459D8A00ED0000195510001925F61
:10226000000196510001935B000197510001945BBE
:1022700000019C810001D890923793379437000178
:102280009B2FD7D700D09CC060F09DC061F09EC04E
:1022900062F09FC063F0A0C064F0F0EC11F060C089
:1022A00092F061C093F062C094F000D01200A3C01D
:1022B000A5F00001A66BA76B0001A2350001A537B0
:1022C00001E3A6810001A5510001AF6F0001AF51EC
:1022D000D8A402D051D083D0170E0001A56FA1C0A1
:1022E000A6F0A2C0A7F0A3C0A8F00001A529000194
:1022F000A96F05D00001D890A833A733A6330001F9
:10230000A92FF8D70001A6510001AA6F0001A28FE2
:10231000FF0E0001A117FF0E0001A217000E000121
:10232000A3170001A1510001AB6F0001A2510001F0
:10233000AC6F0001A3510001AD6F0001AE6B8E0EBA
:102340000001AF5F0001AFAF13D00001AF51800AB1
:102350008F0FD8B003D010D042D000D00001D89059
:10236000AE33AD33AC33AB330001AF3FF7D71FD043
:10237000170E0001AF6514D0000E0001A16F000E12
:10238000A26F000EA36F000EA46F29D009D0000128
:10239000D890AB37AC37AD37AE370001AF0700D0C0
:1023A0000001AF510001D8B402D0F1D700D0000134
:1023B000AA510001D8B40AD00001AE1FAD1FAC1F56
:1023C000AB6D000EAC23AD23AE2300D0ABC0A1F0AB
:1023D000ACC0A2F0ADC0A3F0AEC0A4F000D012001B
:1023E000000163510001D8B408D000016051000120
:1023F000611100016211D8A413D0000E0001606FBA
:10240000000E0001616F000E0001626F78D008D0ED
:102410000001632B0001D89062336133603300D038
:10242000000E000160150001656F000E00016115CE
:102430000001666FFE0E000162150001676F00016A
:1024400065510001661100016711D8B413D0E0D7BF
:1024500011D00001632B010E00016027000E000166
:102460006123000E000162230001D89062336133C2
:10247000603300D0000E000160150001656F000E92
:10248000000161150001666FFF0E00016215000179
:10249000676F000165510001661100016711D8B432
:1024A0000AD0D7D708D0000163070001D890603761
:1024B0006137623700D0000161BF05D0020E000114
:1024C0006361F1D700D0000163B103D00001619FC7
:1024D00000D00001D8906333000163510001621302
:1024E000000164510001D8B403D00001628F00D014
:1024F00060C060F061C061F062C062F000D01200A4
:10250000BAC060F0BBC061F0BCC062F0C00E000198
:10251000636F000E0001646F28EC16F00001C1AF7C
:1025200016D00001BCAF09D0000E0001BA6F800EBA
:102530000001BB6FBF0E08D060D0000E0001BA6F63
:10254000000E0001BB6F000E0001BC6F56D00001F1
:10255000C15105E1150E0001C05DD8A007D0BAC079
:10256000BAF0BBC0BBF0BCC0BCF047D0BAC0A1F051
:10257000BBC0A2F0BCC0A3F057EC11F0A1C0B0F0FA
:10258000A2C0B1F0A3C0B2F0A4C0B3F08FEC15F0BC
:10259000B0C0BDF0B1C0BEF0B2C0BFF0BAC07AF0FA
:1025A000BBC07BF0BCC07CF0BDC07DF0BEC07EF087
:1025B000BFC07FF0CCEC14F00001D8B018D0BDC083
:1025C0007AF0BEC07BF0BFC07CF0000E00017D6FD2
:1025D000800E00017E6FBF0E00017F6FE7EC0DF0F3
:1025E0007AC0BAF07BC0BBF07CC0BCF006D0BDC0E6
:1025F000BAF0BEC0BBF0BFC0BCF01200E1C077F0C3
:10260000E2C078F0E3C079F063EC1AF077C07AF0BA
:1026100078C07BF079C07CF0DBC07DF0DCC07EF060
:10262000DDC07FF0E7EC0DF07AC098F17BC099F146
:102630007CC09AF1E4C077F0E5C078F0E6C079F0AC
:1026400063EC1AF077C07AF078C07BF079C07CF048
:10265000DEC07DF0DFC07EF0E0C07FF0E7EC0DF083
:102660007AC09BF17BC09CF17CC09DF198C16BF05E
:1026700099C16CF09AC16DF098C168F099C169F088
:102680009AC16AF008EC10F068C07AF069C07BF07B
:102690006AC07CF09BC16BF09CC16CF09DC16DF079
:1026A0009BC168F09CC169F09DC16AF008EC10F014
:1026B00068C07DF069C07EF06AC07FF0E7EC0DF085
:1026C0007AC095F17BC096F17CC097F195C1C8F0B6
:1026D00096C1C9F097C1CAF026EC0FF0C8C092F1BC
:1026E000C9C093F1CAC094F192C1DBF093C1DCF090
:1026F00094C1DDF000D012008BC060F08CC061F09E
:10270000000E0001636F030E626F47EC1AF089C080
:102710008DF08AC08EF00001605100018D2700010C
:10272000615100018E238DC0F6FF8EC0F7FF0900B6
:10273000F5CF8FF00900F5CF90F00A00F5CF91F0BA
:1027400045D08FC06BF090C06CF091C06DF086C02A
:1027500068F087C069F088C06AF008EC10F068C0C3
:102760007AF069C07BF06AC07CF0000E0001636FF4
:10277000030E626F00018B07D8A08C078BC060F03E
:102780008CC061F047EC1AF089C08DF08AC08EF0E1
:102790000001605100018D270001615100018E236D
:1027A0008DC0F6FF8EC0F7FF0900F5CF7DF0090060
:1027B000F5CF7EF00A00F5CF7FF0E7EC0DF07AC0A0
:1027C0008FF07BC090F07CC091F000D000018B5165
:1027D00000018C11D8A4B5D78FC086F090C087F0C7
:1027E00091C088F012000001B2AF0FD0B0C077F0F6
:1027F000B1C078F0B2C079F063EC1AF077C0B3F0F2
:1028000078C0B4F079C0B5F007D0B0C0B3F0B1C0B3
:10281000B4F0B2C0B5F000D0B3C068F0B4C069F095
:10282000B5C06AF0140E00016B6FD60E00016C6F1C
:10283000400E00016D6F08EC10F068C0B3F069C085
:10284000B4F06AC0B5F0400E00017A6F270E0001A7
:102850007B6F440E00017C6FB3C07DF0B4C07EF08E
:10286000B5C07FF0CCEC14F00001D8B00AD0400E17
:102870000001B36F270E0001B46F440E0001B56F65
:1028800000D00001B2AF02D0838802D0839800D07C
:10289000B3C0A1F0B4C0A2F0B5C0A3F057EC11F0E2
:1028A0000001A151796EB3C0A1F0B4C0A2F0B5C0CF
:1028B000A3F057EC11F00001A2C0A1F00001A26B3F
:1028C0000001A151786E1200000E00016B6F000133
:1028D00069AF09D00001686D691FD8B0692B010E7E
:1028E00000016B6F00D0000167AF09D00001666D79
:1028F000671FD8B0672B010E00016B1B00D0000EC4
:1029000000016D6F000E6C6F0001685100016911CC
:10291000D8B431D0010E00016A6F07D00001D89001
:102920006837693700016A2B00D0000169BF02D007
:10293000F5D700D00001D8906C376D370001685191
:102940000001665D0001695100016759D8A00BD0F4
:10295000000168510001665F000169510001675B79
:1029600000016C8100D00001D89069336833000108
:102970006A2FE0D700D000016B510001D8B406D017
:1029800000016C6D6D1FD8B06D2B00D06CC066F06F
:102990006DC067F000D0120000017CAF1ED07AC07D
:1029A00080F07BC081F07CC082F00001801F811F1D
:1029B000821F802B000E81238223000E00018025C0
:1029C00000017A6F000E0001812100017B6F800EF3
:1029D0000001822100017C6F00D000017FAF1ED07A
:1029E0007DC080F07EC081F07FC082F00001801F3A
:1029F000811F821F802B000E81238223000E000185
:102A0000802500017D6F000E0001812100017E6F95
:102A1000800E0001822100017F6F00D0000E0001B6
:102A20007A1B000E00017B1B800E00017C1B000E38
:102A300000017D1B000E00017E1B800E00017F1B2C
:102A400000017D5100017A5D00017E5100017B593A
:102A500000017F5100017C59D8B002D0D89002D03B
:102A6000D88000D01200100E00017A6F490E0001CC
:102A70007B6F400E00017C6FD5C07DF0D6C07EF02C
:102A8000D7C07FF0CCEC14F00001D8B021D0D5C075
:102A90007AF0D6C07BF0D7C07CF0CC0E00017D6F01
:102AA000960E00017E6FC00E00017F6FE7EC0DF007
:102AB0007AC0D8F07BC0D9F07CC0DAF0D8C0C8F0BA
:102AC000D9C0C9F0DAC0CAF099EC0CF020D026D0F9
:102AD000D5C07AF0D6C07BF0D7C07CF0100E0001D4
:102AE0007D6FC90E00017E6F3F0E00017F6FE7EC26
:102AF0000DF07AC0D8F07BC0D9F07CC0DAF0D8C035
:102B0000C8F0D9C0C9F0DAC0CAF099EC0CF0C8C05E
:102B1000D5F0C9C0D6F0CAC0D7F000D01200000E60
:102B20000001B96F8E0E0001B86F0001B3AF16D06F
:102B30000001B31FB21FB11FB06D000EB123B2234D
:102B4000B323010E0001B96F09D00001D890B3334F
:102B5000B233B133B0330001B82B00D0000E000106
:102B6000B0150001B46F000E0001B1150001B56F82
:102B7000000E0001B2150001B66FFF0E0001B31583
:102B80000001B76F0001B4510001B5110001B61189
:102B90000001B711D8A4D9D7B0C060F0B1C061F0BE
:102BA000B2C062F0B8C063F0B9C064F0F0EC11F0EC
:102BB00060C0B0F061C0B1F062C0B2F000D01200ED
:102BC00086C07AF087C07BF088C07CF083C07DF03F
:102BD00084C07EF085C07FF0CCEC14F00001D8B04A
:102BE00007D086C083F087C084F088C085F028D0E5
:102BF00083C07AF084C07BF085C07CF086C077F01B
:102C000087C078F088C079F063EC1AF077C07DF067
:102C100078C07EF079C07FF0CCEC14F00001D8B021
:102C20000FD086C077F087C078F088C079F063EC69
:102C30001AF077C083F078C084F079C085F000D0B6
:102C400083C083F084C084F085C085F000D012007A
:102C5000000160510001611100016211D8A409D086
:102C600063C0D9FF64C0DAFF000EDE6E000EDD6EB9
:102C700036D0000162517F0B0001656F666BD89002
:102C800000016537663763C0D9FF64C0DAFF65C0ED
:102C9000DEFF66C0DDFF000161AF04D00001656B9F
:102CA000652B02D00001656B0001655163C0D9FF3F
:102CB00064C0DAFFDE12000EDD1263C0D9FF64C00B
:102CC000DAFF820EDE26FF0EDD22628162836285DC
:102CD00062876289628B629D0001619F00D0120051
:102CE00092909292929492869288929A928C928EDC
:102CF00093909392939493969398939A939C939E84
:102D000094909492949494869498949A948C948E9B
:102D100095909592958495969598959A959C959E63
:102D2000969096929694899089928994899689989A
:102D3000899A899C899E8A908A928A948A968A988E
:102D40008A9A8A9C8A9E8B908B928B948B968B9876
:102D50008B9A8B9C8B9E8C908C928C948C968C985E
:102D60008C9A8C9C8C9E8D908D928D941200F28EFC
:102D7000F28CF28AF288F296F294F292F290F18C4E
:102D8000F18AF188F194F09EF09CF098F09EF09218
:102D9000F0909E9C9E9A9E989E969E949E929E9047
:102DA000A19EA198A194A190A498A496A494A49261
:102DB000A490D08E9F9C9F8A9F989F969F949F924D
:102DC0009F80A29EA288A294A290A598A586A58481
:102DD000A592A5909D9C9D8A9D989D969D949D925F
:102DE0009D80A09EA088A094A090A398A396A38461
:102DF000A392A3901200036EA4A406D00304D8A447
:102E000003D0A4EC1AF038D0A45006D00304D8A400
:102E100003D01DEC1BF030D0F2A406D00350D8A490
:102E200003D011EC1BF028D09EA006D00304D8A438
:102E300003D0A9EC19F020D09E5006D00350D8A49E
:102E400003D01FEC1BF018D0F2A206D00304D8A4C4
:102E500003D018EC19F010D09EAA06D00304D8A411
:102E600003D0EFEC19F008D09E5006D00350D8A440
:102E700003D021EC1BF000D01200176EA4A406D0E2
:102E80001704D8A403D0B6EC1AF038D0A45006D05A
:102E90001704D8A403D023EC1BF030D0F2A406D042
:102EA0001750D8A403D017EC1BF028D09EA006D052
:102EB0001704D8A403D0CCEC19F020D09E5006D033
:102EC0001750D8A403D025EC1BF018D0F2A206D0DE
:102ED0001704D8A403D03DEC19F010D09EAA06D058
:102EE0001704D8A403D00DEC1AF008D09E5006D0D9
:102EF0001750D8A403D027EC1BF000D01200A1C0BB
:102F000068F0A2C069F07BEC1AF068C092F069C06A
:102F100093F06AC094F0F80E0001956FF90E00016D
:102F2000966F450E0001976FB6EC10F092C0A4F0BA
:102F300093C0A5F094C0A6F0A4C068F0A5C069F045
:102F4000A6C06AF0000E00016B6FB40E00016C6F3A
:102F5000430E00016D6F08EC10F068C0A4F069C06A
:102F6000A5F06AC0A6F0A4C0A1F0A5C0A2F0A6C0BA
:102F7000A3F000D01200000E01016A6F000E0101E3
:102F80006B6F000E01016C6F000E01016D6F000E82
:102F900001016E6F000E01016F6F000E0101706F75
:102FA000000E0101716F000E0101726F000E010130
:102FB000696F000E0101796F000E0101746F000E40
:102FC000736F000E0101766F000E756F000E010128
:102FD000786F000E776F000E0101686F000E01011F
:102FE000676F12000001826F7EC0F6FF7FC0F7FF9F
:102FF000F86A020EF76403D00800F55005D0F6CF4A
:10300000E9FFF7CFEAFFEF5000016E6F0001825138
:10301000D4EC07F000017E510001806F00017F5168
:103020000001816F00017E4B7F2B80C0F6FF81C0C5
:10303000F7FFF86A020EF76403D00800F55005D0D8
:10304000F6CFE9FFF7CFEAFFEF500009D8A4CCD7BD
:103050001200EACF1BF0E1CF1CF0E2CF1DF0D9CF78
:103060001EF0DACF1FF0F3CF20F0F4CF21F0F6CF2F
:1030700022F0F7CF23F0F8CF24F0F5CF25F0010EA2
:103080003DEC17F025C0F5FF24C0F8FF23C0F7FF83
:1030900022C0F6FF21C0F4FF20C0F3FF1FC0DAFFFB
:1030A0001EC0D9FF1DC0E2FF1CC0E1FF1BC0EAFF2C
:1030B0001AC0E9FF19C0FBFF18C0FAFF1100E4C0F5
:1030C000A1F0E5C0A2F0E6C0A3F0C6EC18F0A1C0E4
:1030D000E4F0A2C0E5F0A3C0E6F0E4C0DBF0E5C098
:1030E000DCF0E6C0DDF094EC18F0DBC0E7F0DCC00B
:1030F000E8F0DDC0E9F0000E0001926F800E0001E3
:10310000936F3F0E0001946FE7C095F0E8C096F012
:10311000E9C097F0B6EC10F092C0E4F093C0E5F08F
:1031200094C0E6F000D01200DBC0C8F0DCC0C9F0EB
:10313000DDC0CAF099EC0CF0C8C0DEF0C9C0DFF009
:10314000CAC0E0F0DBC0D5F0DCC0D6F0DDC0D7F0FF
:1031500033EC15F0D5C0E1F0D6C0E2F0D7C0E3F013
:10316000DEC092F0DFC093F0E0C094F0E1C095F0D3
:10317000E2C096F0E3C097F0B6EC10F092C0DBF03E
:1031800093C0DCF094C0DDF000D01200000E00010E
:10319000956F340E0001966F430E0001976FA1C02A
:1031A00092F0A2C093F0A3C094F0B6EC10F092C0DD
:1031B00068F093C069F094C06AF0100E00016B6F64
:1031C000490E00016C6F400E00016D6F08EC10F0AD
:1031D00068C0A1F069C0A2F06AC0A3F000D01200DC
:1031E0000001C5510001C6110001C711D8B40AD0B1
:1031F000000E0001C51B000E0001C61B800E000161
:10320000C71B00D0C2C07AF0C3C07BF0C4C07CF042
:10321000C5C07DF0C6C07EF0C7C07FF0E7EC0DF002
:103220007AC0C2F07BC0C3F07CC0C4F000D01200F2
:1032300001016705D8A41FD0030E0101796118D0E0
:10324000665067CF01F0026A01C002F0016A0126F0
:10325000000E022201017951020D730EF324D96E82
:10326000010EF420DA6E01C0DEFF02C0DDFF00D0E7
:103270000101792B00D0F292120001016705D8A458
:103280001FD0030E0101796118D0665067CF15F089
:10329000166A15C016F0156A1526000E16220101D1
:1032A0007951020D730EF324D96E010EF420DA6EFB
:1032B00015C0DEFF16C0DDFF00D00101792B00D064
:1032C000F29212007F987F9A7F9C7F9EF30E7F166A
:1032D000FC0E7F167E8E6F806F508F0B10096F6E05
:1032E0006E92A60E7B6E000E7A6E000E796E000E48
:1032F000786E000E776E000E766E000E756E000E04
:10330000746E000E736E000E726E120001EE00F00D
:10331000920EEE6AE806FDE100EEF0F00D0EEE6AA8
:10332000E806FDE100EE26F0170EEE6AE806FDE184
:10333000520EF66E360EF76E000EF86E0900F5CFDF
:10334000FDF00900F5CFFEF0000EF86E000139EF38
:1033500005F09E90FC0ECF6ED50ECE6E3304D8A431
:1033600018D03450010D280EF324D96E000EF4202D
:10337000DA6EDF50016E013A014682500118DF0B10
:103380000118826E342A0A0E346405D0000E336EA2
:1033900002D0828A00D012009E90FC0ECF6ED50E15
:1033A000CE6E3304D8A418D03450010D280EF32467
:1033B000D96E000EF420DA6EDF50156E153A154600
:1033C00082501518DF0B1518826E342A0A0E3464E9
:1033D00005D0000E336E02D0828A00D012009E9A71
:1033E0008180640E0101646111D001016451010DFD
:1033F000000EF324D96E010EF420DA6EAECFDFFF9B
:10340000000E0101666F0101642B06D0010E01015F
:10341000656FAECF01F000D012009E9A8180640EDD
:103420000101646111D001016451010D000EF3240A
:10343000D96E010EF420DA6EAECFDFFF000E01016F
:10344000666F0101642B06D0010E0101656FAECFDE
:1034500015F000D01200638C000EB86EB68EB69CCC
:10346000B650E30B1809B66EB650FC0B0109B66EE8
:10347000608A60886050F80B0209606E000E676E0B
:10348000000E666E1F0E656E3F0E646E1200000128
:10349000605100016203F3CF64F0F4CF65F00001E6
:1034A000605100016303F350000165270001615181
:1034B00000016203F3500001652764C060F065C03D
:1034C00061F000D012000001775100017811000175
:1034D0007911D8B409D0000E0001771B000E00014D
:1034E000781B800E0001791B77C077F078C078F0E8
:1034F00079C079F0120068C060F069C061F0000125
:10350000626B8E0E0001636F000E0001646FF0ECC1
:1035100011F060C068F061C069F062C06AF000D06C
:10352000120070EC16F0B7EC16F0E7EC1AF00AECAB
:103530001BF000EC1BF0D9EC1AF062EC19F02BEC4C
:103540001AF0BBEC17F01200A494B69C01016805B8
:10355000D8A407D0010E0101676F000E0101686F4A
:1035600004D0000E0101676F00D01200A494B69C35
:1035700001016805D8A407D0010E0101676F000E94
:103580000101686F04D0000E0101676F00D01200C6
:103590000001B26FB0C06EF0B1C06FF093EC09F0F3
:1035A0006EC07EF06FC07FF00001B251F2EC17F0F8
:1035B0001200AC8AAC9CAC98AC96AC84AC9CAA864D
:1035C000AA90560EAF6EAB8EAB9CAB881200D58C1A
:1035D000D550F80B0409D56ED59AD5967F0ED76EC7
:1035E000EE0ED66ED58E1200CD8ECD9CCD92CD86B0
:1035F000CD98CD9AFF0ECF6EEF0ECE6ECD8012001D
:10360000000E0101656F010E0101666F000E0101E0
:10361000646F1200000E336E000E346EF4EC1AF07C
:103620001200F2947F0ED76EEE0ED66E1200F29458
:103630007F0ED76EEE0ED66E1200A49612009E92EA
:1036400012009E981200A49612009E9212009E985C
:043650001200010162
:020000040020DA
:08000000FFFFFFFFFFFFFFFF00
:020000040030CA
:0E000000FF060D3E1C9D80FF0FC00FE00F405D
:00000001FF
