:0400000054EF00F0C9
:10000800FACF18F0FBCF19F0E9CF1AF08FEF0AF00A
:10001800D8CF04F0E8CF05F0E0CF06F0FACF07F02C
:10002800FBCF08F0E9CF09F0EACF0AF0E1CF0BF0F7
:10003800E2CF0CF0D9CF0DF0DACF0EF0F3CF0FF0FE
:10004800F4CF10F0F6CF11F0F7CF12F0F8CF13F08D
:10005800F5CF14F0000E99EC09F014C0F5FF13C0A9
:10006800F8FF12C0F7FF11C0F6FF10C0F4FF0FC071
:10007800F3FF0EC0DAFF0DC0D9FF0CC0E2FF0BC0C2
:10008800E1FF0AC0EAFF09C0E9FF08C0FBFF07C09B
:10009800FAFF06C0E0FF05C0E8FF04C0D8FF100063
:0400A800EAEF0BF080
:1003000000426F6E6A6F7572206C657320616D6953
:100310007320212121203D29002064616E73206C0F
:100320006520627566666572200A0A0D00494C20D8
:100330007920612000000001756F000175510001F6
:10034000D8B402D007D000D09EA8FED76EC0ADFFB3
:10035000B0D100D04404D8B4FDD7000E456E010ED4
:10036000436E010E426E6EC066F00001676B000EB8
:100370000001696F800E686FE7EC07F000016651BD
:10038000416E4150800DF31EF41EF34AF42A000121
:100390006E51F3240001666F000EF4200001676FB8
:1003A000000E0001696F400E686FE7EC07F0000176
:1003B0006651406E4150800DF31EF41EF34AF42A3C
:1003C00000016E5100016F6F706BF35000016F27D9
:1003D000F450000170234050400DF31EF41EF34A08
:1003E000F42AF35000016F250001666FF4500001FC
:1003F00070210001676F000E0001696F200E686FA9
:10040000E7EC07F0000166513F6E4150800DF31E8E
:10041000F41EF34AF42A00016E5100016F6F706BF5
:10042000F35000016F27F450000170234050400D3D
:10043000F31EF41EF34AF42AF35000016F27F45020
:10044000000170233F50200DF31EF41EF34AF42ADE
:10045000F35000016F250001666FF4500001702118
:100460000001676F000E0001696F100E686FE7EC06
:1004700007F0000166513E6E4150800DF31EF41EE0
:10048000F34AF42A00016E5100016F6F706BF35054
:1004900000016F27F450000170234050400DF31EFF
:1004A000F41EF34AF42AF35000016F27F4500001C0
:1004B00070233F50200DF31EF41EF34AF42AF3502C
:1004C00000016F27F450000170233E50100DF31E01
:1004D000F41EF34AF42AF35000016F250001666F01
:1004E000F450000170210001676F000E0001696F78
:1004F000080E686FE7EC07F0000166513D6E415051
:10050000800DF31EF41EF34AF42A00016E5100011F
:100510006F6F706BF35000016F27F4500001702370
:100520004050400DF31EF41EF34AF42AF35000012C
:100530006F27F450000170233F50200DF31EF41E6E
:10054000F34AF42AF35000016F27F450000170239E
:100550003E50100DF31EF41EF34AF42AF35000012E
:100560006F27F450000170233D50080DF31EF41E58
:10057000F34AF42AF35000016F250001666FF4502E
:10058000000170210001676F000E0001696F040E09
:10059000686FE7EC07F0000166513C6E4150800D3A
:1005A000F31EF41EF34AF42A00016E5100016F6F2E
:1005B000706BF35000016F27F4500001702340501E
:1005C000400DF31EF41EF34AF42AF35000016F2786
:1005D000F450000170233F50200DF31EF41EF34A27
:1005E000F42AF35000016F27F450000170233E50AD
:1005F000100DF31EF41EF34AF42AF35000016F2786
:10060000F450000170233D50080DF31EF41EF34A10
:10061000F42AF35000016F27F450000170233C507E
:10062000040DF31EF41EF34AF42AF35000016F2563
:100630000001666FF450000170210001676F000E29
:100640000001696F020E686FE7EC07F00001665168
:100650003B6E3B50020DF3CF6FF03C50040DF3CFD7
:1006600070F03D50080DF3CF71F03E50100DF3CFF8
:1006700072F03F50200DF3CF73F04050400DF3CF98
:1006800074F04150800DF350000174250001732572
:1006900000017225000171250001702500016F2500
:1006A000000800016E253A6E000E396E010E446E90
:1006B00000D01200000E00017D6F000E7C6F000163
:1006C0006FAF1CD06EC060F06FC061F0FF0E000114
:1006D000636F6269B6EC0BF060C06EF061C06FF0E2
:1006E000A80E00017C25D96E000E00017D21DA6E76
:1006F0002D0EDF6E00017C4B7D2B00D06EC066F0AE
:100700006FC067F0270E0001696F100E686FE7EC8D
:1007100007F066C072F067C073F072C060F073C01B
:1007200061F0270E0001636F100E626FB6EC0BF0E4
:100730000001601F0001611F0001604B612B00017F
:100740006E51000160250001666F00016F510001CC
:1007500061210001676F030E0001696FE80E686F89
:10076000E7EC07F066C074F067C075F072C060F027
:1007700073C061F0270E0001636F100E626FB6EC5C
:100780000BF060C070F061C071F074C060F075C0B3
:1007900061F0030E0001636FE80E626FB6EC0BF0C0
:1007A00000016051000170270001615100017123B7
:1007B0000001701F711F704B712B00016E51000101
:1007C00070250001666F00016F5100017121000169
:1007D000676F000E0001696F640E686FE7EC07F049
:1007E00066C076F067C077F072C060F073C061F0E9
:1007F000270E0001636F100E626FB6EC0BF060C045
:1008000070F061C071F074C060F075C061F0030EEB
:100810000001636FE80E626FB6EC0BF000016051EF
:1008200000017027000161510001712376C060F062
:1008300077C061F0000E0001636F640E626FB6EC6A
:100840000BF00001605100017027000161510001AF
:1008500071230001701F711F704B712B00016E51CD
:10086000000170250001666F00016F5100017121C8
:100870000001676F000E0001696F0A0E686FE7ECF8
:1008800007F066C078F067C079F072C060F073C09E
:1008900061F0270E0001636F100E626FB6EC0BF073
:1008A00060C070F061C071F074C060F075C061F03C
:1008B000030E0001636FE80E626FB6EC0BF00001EF
:1008C000605100017027000161510001712376C061
:1008D00060F077C061F0000E0001636F640E626F1C
:1008E000B6EC0BF00001605100017027000161516E
:1008F0000001712378C060F079C061F0000E000142
:10090000636F0A0E626FB6EC0BF0000160510001DC
:10091000702700016151000171230001701F711FD8
:10092000704B712B00016E510001702500017A6F30
:1009300000016F510001712100017B6FA80E0001C1
:100940007C25D96E000E00017D21DA6E0001725106
:10095000300FDF6E00017C4B7D2BA80E00017C2543
:10096000D96E000E00017D21DA6E00017451300F46
:10097000DF6E00017C4B7D2BA80E00017C25D96E1B
:10098000000E00017D21DA6E00017651300FDF6E1E
:1009900000017C4B7D2BA80E00017C25D96E000E3A
:1009A00000017D21DA6E00017851300FDF6E000109
:1009B0007C4B7D2BA80E00017C25D96E000E00011A
:1009C0007D21DA6E00017A51300FDF6E00017C4B21
:1009D0007D2BA80E00017C25D96E000E00017D2123
:1009E000DA6E000EDF6E00017C4B7D2BA80E00013D
:1009F0006E6F000E00016F6F00D012006AC06EF0C3
:100A000000016F6B706B0001693500016E3701E307
:100A10006F8100016E510001716F00017151D8A406
:100A200002D014D098D06DC06EF000016F6B706B67
:100A300000016C3500016E3701E36F8100016E51DA
:100A40000001766F00017651D8A40AD0000E000193
:100A5000686F000E0001696F000E00016A6F7BD0A5
:100A6000000176517B0F000171276AC076F000010A
:100A70006D510001761B800E000176170001698F11
:100A800000016C8FFF0E00016B17FF0E00016C1749
:100A9000000E00016D17000E0001726F000E0001C4
:100AA000736F000E0001746F070E0001756F00D0A8
:100AB000000168A10DD000016B51000172270001F7
:100AC0006C510001732300016D510001742300D0AB
:100AD0000001D8906A33693368330001D8906B37CE
:100AE0006C376D370001752FE3D700D0090E000178
:100AF000756F00D0000168A10DD000016B5100019D
:100B0000722700016C510001732300016D51000137
:100B1000742300D00001D8906A3369336833000130
:100B2000D8907433733372330001752FE3D700D03C
:100B300072C060F073C061F074C062F071C063F0A5
:100B400076C064F0E6EC06F060C068F061C069F061
:100B500062C06AF000D012006DC071F00001726BCB
:100B6000736B00016C350001713701E37281000184
:100B700071510001786F00017851D8A402D014D0CF
:100B80008BD070C071F00001726B736B00016F3518
:100B90000001713701E37281000171510001796F29
:100BA00000017951D8A40AD0000E00016B6F000E2D
:100BB00000016C6F000E00016D6F6ED0000E000121
:100BC000756F000E0001766F000E0001776F000157
:100BD0007951890F0001785F6DC079F00001705183
:100BE0000001791B800E0001791700016C8FFF0E48
:100BF00000016B17FF0E00016C17000E00016D174E
:100C000000016F8FFF0E00016E17FF0E00016F17BE
:100C1000000E00017017180E0001746F00D0000163
:100C2000D89075377637773700016E5100016B5DCC
:100C300000016F5100016C590001705100016D59A4
:100C4000D8A00ED000016E5100016B5F00016F5102
:100C500000016C5B0001705100016D5B000175814A
:100C60000001D8906B376C376D370001742FD7D7E0
:100C700000D075C060F076C061F077C062F078C0D7
:100C800063F079C064F0E6EC06F060C06BF061C020
:100C90006CF062C06DF000D0120062C064F0000120
:100CA000656B666B000161350001643701E36581A6
:100CB0000001645100016E6F00016E51D8A402D092
:100CC00051D083D0170E0001646F60C065F061C021
:100CD00066F062C067F0000164290001686F05D00A
:100CE0000001D8906733663365330001682FF8D769
:100CF000000165510001696F0001618FFF0E000165
:100D00006017FF0E00016117000E0001621700015D
:100D1000605100016A6F0001615100016B6F0001B9
:100D2000625100016C6F00016D6B8E0E00016E5FF1
:100D300000016EAF13D000016E51800A8F0FD8B042
:100D400003D010D042D000D00001D8906D336C3366
:100D50006B336A3300016E3FF7D71FD0170E0001C7
:100D60006E6514D0000E0001606F000E616F000E02
:100D7000626F000E636F29D009D00001D8906A37E6
:100D80006B376C376D3700016E0700D000016E5174
:100D90000001D8B402D0F1D700D0000169510001A0
:100DA000D8B40AD000016D1F6C1F6B1F6A6D000E56
:100DB0006B236C236D2300D06AC060F06BC061F0C0
:100DC0006CC062F06DC063F000D01200000163518E
:100DD0000001D8B408D00001605100016111000188
:100DE0006211D8A413D0000E0001606F000E000144
:100DF000616F000E0001626F78D008D00001632B94
:100E00000001D89062336133603300D0000E0001DE
:100E100060150001656F000E000161150001666F2D
:100E2000FE0E000162150001676F000165510001AF
:100E3000661100016711D8B413D0E0D711D00001BA
:100E4000632B010E00016027000E00016123000EDC
:100E5000000162230001D89062336133603300D017
:100E6000000E000160150001656F000E00016115A4
:100E70000001666FFF0E000162150001676F00013F
:100E800065510001661100016711D8B40AD0D7D7A7
:100E900008D0000163070001D890603761376237DE
:100EA00000D0000161BF05D0020E00016361F1D7DF
:100EB00000D0000163B103D00001619F00D00001A8
:100EC000D890633300016351000162130001645143
:100ED0000001D8B403D00001628F00D060C060F080
:100EE00061C061F062C062F000D01200000179AF11
:100EF0000FD077C060F078C061F079C062F0D2ECBA
:100F00000BF060C07AF061C07BF062C07CF007D06B
:100F100077C07AF078C07BF079C07CF000D07AC0DE
:100F200068F07BC069F07CC06AF0140E00016B6F42
:100F3000D60E00016C6F400E00016D6FFEEC04F0E8
:100F400068C07AF069C07BF06AC07CF0400E000196
:100F5000606F270E0001616F440E0001626F7AC05E
:100F600063F07BC064F07CC065F04FEC08F00001DA
:100F7000D8B00AD0400E00017A6F270E00017B6FB7
:100F8000440E00017C6F00D0000179AF02D083884D
:100F900002D0839800D07AC060F07BC061F07CC042
:100FA00062F04DEC06F000016051796E7AC060F09D
:100FB0007BC061F07CC062F04DEC06F0000161C0C6
:100FC00060F00001616B00016051786E1200000E4C
:100FD00000016B6F000169AF09D00001686D691FE6
:100FE000D8B0692B010E00016B6F00D0000167AF14
:100FF00009D00001666D671FD8B0672B010E000194
:101000006B1B00D0000E00016D6F000E6C6F0001B5
:10101000685100016911D8B431D0010E00016A6F26
:1010200007D00001D8906837693700016A2B00D0DB
:10103000000169BF02D0F5D700D00001D8906C370D
:101040006D37000168510001665D000169510001C2
:101050006759D8A00BD0000168510001665F0001FC
:1010600069510001675B00016C8100D00001D890DC
:101070006933683300016A2FE0D700D000016B515B
:101080000001D8B406D000016C6D6D1FD8B06D2B77
:1010900000D06CC066F06DC067F000D01200000197
:1010A00062AF1ED060C066F061C067F062C068F0D9
:1010B0000001661F671F681F662B000E67236823E9
:1010C000000E000166250001606F000E000167211F
:1010D0000001616F800E000168210001626F00D085
:1010E000000165AF1ED063C066F064C067F065C0E4
:1010F00068F00001661F671F681F662B000E6723DC
:101100006823000E000166250001636F000E0001D8
:1011100067210001646F800E000168210001656F86
:1011200000D0000E0001601B000E0001611B800E4C
:101130000001621B000E0001631B000E0001641B16
:10114000800E0001651B000163510001605D00011C
:101150006451000161590001655100016259D8B024
:1011600002D0D89002D0D88000D0120001EC0CF050
:10117000000E00018C6F000E8B6F83828B84818048
:10118000010E00017E6F030E00017F6F000E58EC10
:101190000AF000D082A8FED781908188000E00015D
:1011A000776F480E0001786F420E0001796F76EC80
:1011B00007F0000E0001A76F00D00001A705D8A41A
:1011C000FCD71DEC0AF0000E0001A76F97C060F07D
:1011D00098C061F099C062F04DEC06F060C08DF0EF
:1011E00061C08EF097C060F098C061F099C062F065
:1011F0004DEC06F060C083F061C084F0000E57EC47
:101200000CF02A0E00017E6F030E00017F6F000EAE
:1012100058EC0AF0D2D7FFD754EF00F09290929298
:10122000929492869288929A928C928E93909392B4
:10123000939493969398939A939C939E949094925C
:10124000949494869498949A948C948E9590959274
:10125000958495969598959A959C959E969096923C
:10126000969489908992899489968998899A899C7B
:10127000899E8A908A928A948A968A988A9A8A9C67
:101280008A9E8B908B928B948B968B988B9A8B9C4F
:101290008B9E8C908C928C948C968C988C9A8C9C37
:1012A0008C9E8D908D928D941200F28EF28CF29A1B
:1012B000F288F296F294F292F290F18CF18AF1882F
:1012C000F184F09EF09CF098F09EF092F0909E9C3D
:1012D0009E9A9E989E969E949E929E90A19EA19864
:1012E000A194A190A498A496A494A492A490D08E22
:1012F0009F9C9F8A9F989F969F949F929F80A29E5B
:10130000A288A294A290A598A586A584A592A5904E
:101310009D9C9D8A9D989D969D949D929D80A09E4A
:10132000A088A094A090A398A396A394A392A3901E
:101330001200036EA45006D00304D8A403D097EC87
:101340000CF038D0A45006D00304D8A403D0B8ECD5
:101350000CF030D0F25006D00304D8A403D0B0EC87
:101360000CF028D09EA006D00304D8A403D018EC1B
:101370000BF020D09E5006D00350D8A403D0BAEC76
:101380000CF018D0F2A206D00304D8A403D02DECA0
:101390000CF010D09EAA06D00304D8A403D05EECB3
:1013A0000BF008D09E5006D00350D8A403D0BCEC5C
:1013B0000CF000D01200176EA45006D01704D8A469
:1013C00003D0A0EC0CF038D0A45006D01704D8A459
:1013D00003D0BEEC0CF030D0F25006D01704D8A4E5
:1013E00003D0B4EC0CF028D09EA006D01704D8A4EB
:1013F00003D03BEC0BF020D09E5006D01750D8A461
:1014000003D0C0EC0CF018D0F2A206D01704D8A478
:1014100003D042EC0CF010D09EAA06D01704D8A43A
:1014200003D07CEC0BF008D09E5006D01750D8A407
:1014300003D0C2EC0CF000D0120091C068F092C052
:1014400069F017EC0CF068C06BF069C06CF06AC012
:101450006DF0000E00016E6FFA0E00016F6F450E09
:101460000001706FACEC05F06BC07AF06CC07BF0E3
:101470006DC07CF07AC068F07BC069F07CC06AF017
:10148000000E00016B6FB40E00016C6F430E000183
:101490006D6FFEEC04F068C07AF069C07BF06AC042
:1014A0007CF07AC097F07BC098F07CC099F0120075
:1014B0000001826F7EC0F6FF7FC0F7FFF86A020E60
:1014C000F76403D00800F55005D0F6CFE9FFF7CF59
:1014D000EAFFEF5000016E6F000182519BEC01F0BA
:1014E00000017E510001806F00017F510001816F7A
:1014F00000017E4B7F2B80C0F6FF81C0F7FFF86AAA
:10150000020EF76403D00800F55005D0F6CFE9FFCE
:10151000F7CFEAFFEF500009D8A4CCD71200EACFEA
:101520001BF0E1CF1CF0E2CF1DF0D9CF1EF0DACFD7
:101530001FF0F3CF20F0F4CF21F0F6CF22F0F7CF59
:1015400023F0F8CF24F0F5CF25F0010EDBEC09F005
:1015500025C0F5FF24C0F8FF23C0F7FF22C0F6FF27
:1015600021C0F4FF20C0F3FF1FC0DAFF1EC0D9FF67
:101570001DC0E2FF1CC0E1FF1BC0EAFF1AC0E9FF6B
:1015800019C0FBFF18C0FAFF1100638C000EB86E83
:10159000B68EB69CB650E30B1809B66EB650FC0B6F
:1015A0000109B66E608A60886050F80B0209606EAF
:1015B000000E676E000E666E1F0E656E400E646E46
:1015C000000E0001906F000E8F6F000E0001936FF0
:1015D000000E946F000E956F000E966F000E0001C6
:1015E000926F000E916F12007F987F9A7F9C7F9E72
:1015F000F30E7F16FC0E7F167E8E6F806F508F0B62
:1016000010096F6E6E92A60E7B6E000E7A6E000E43
:10161000796E000E786E000E776E000E766E000EFC
:10162000756E000E746E000E736E000E726E1200F8
:101630009E90FC0ECF6ED50ECE6E4404D8A418D06A
:101640004550010D390EF324D96E000EF420DA6EE8
:10165000DF50016E013A014682500118DF0B01187C
:10166000826E452A0A0E456405D0000E446E02D0F3
:10167000828A00D012009E90FC0ECF6ED50ECE6EE8
:101680004404D8A418D04550010D390EF324D96E66
:10169000000EF420DA6EDF50156E153A15468250B2
:1016A0001518DF0B1518826E452A0A0E456405D001
:1016B000000E446E02D0828A00D012009E9A818071
:1016C000640E0101646111D001016451010D000E2D
:1016D000F324D96E010EF420DA6EAECFDFFF000ED8
:1016E0000101666F0101642B06D0010E0101656FD7
:1016F000AECF01F000D012009E9A8180640E0101ED
:10170000646111D001016451010D000EF324D96E02
:10171000010EF420DA6EAECFDFFF000E0101666F1E
:101720000101642B06D0010E0101656FAECF15F0EB
:1017300000D01200000E00019A6F000E00019B6F96
:10174000000E00019C6F000E00019D6F200E000135
:101750009E6F410E00019F6F000E0001A06F000EF2
:101760000001A16F000E0001A26F12000001605184
:1017700000016203F3CF64F0F4CF65F00001605123
:1017800000016303F350000165270001615100016E
:101790006203F3500001652764C060F065C061F02A
:1017A00000D01200000160510001611100016211BE
:1017B000D8B409D0000E0001601B000E0001611BAF
:1017C000800E0001621B60C060F061C061F062C009
:1017D00062F0120001EE00F0670EEE6AE806FDE12D
:1017E00000EE8FF0210EEE6AE806FDE100EE26F035
:1017F000230EEE6AE806FDE1000EF86E0001B6EF7A
:1018000008F00EEC09F055EC09F082EC0CF0A9ECB4
:101810000CF08DEC0CF068EC0CF0F4EC0AF0C5EC7C
:101820000AF09AEC0BF0000E0001A76F120068C0DE
:1018300060F069C061F00001626B8E0E0001636FA1
:10184000000E0001646FE6EC06F060C068F061C055
:1018500069F062C06AF000D012000001A751D8A45C
:101860000FD0010E0001A76F6750026E016A66502B
:1018700001240001916F000E02200001926F00D040
:10188000F29212000001A751D8A40FD0010E00015E
:10189000A76F6750166E156A665015240001916F88
:1018A000000E16200001926F00D0F292120000018B
:1018B000856F83C06EF084C06FF05AEC03F06EC089
:1018C0007EF06FC07FF00001855158EC0AF01200E5
:1018D000AC8AAC9CAC98AC96AC84AC9CAA86AA9022
:1018E000230EAF6EAB8EAB9CAB881200CD8ECD9C21
:1018F000CD92CD86CD98CD9AFF0ECF6EEF0ECE6EE7
:10190000CD801200D58CD550F80B0409D56ED59A30
:10191000D596830ED66ED58E1200000E0101656F2E
:10192000010E0101666F000E0101646F1200A494A4
:10193000B69CB6AA02D0382A02D0380600D01200CF
:10194000A494B69CB6AA02D0382A02D0380600D099
:101950001200000E446E000E456E76EC0CF0120084
:10196000F294830ED66E1200F294830ED66E12009D
:10197000A49612009E9212009E981200A496120045
:081980009E9212009E981200D5
:020000040020DA
:08000000FFFFFFFFFFFFFFFF00
:020000040030CA
:0E000000FF060D3E1C9D80FF0FC00FE00F405D
:00000001FF
