:0400000057EF00F0C6
:0C000800FACF18F0FBCF19F0E4EF00F085
:10001800D8CF04F0E8CF05F0E0CF06F0FACF07F02C
:10002800FBCF08F0E9CF09F0EACF0AF0E1CF0BF0F7
:10003800E2CF0CF0D9CF0DF0DACF0EF0F3CF0FF0FE
:10004800F4CF10F0F6CF11F0F7CF12F0F8CF13F08D
:10005800F5CF14F0036E000E026E03501FEC01F092
:1000680014C0F5FF13C0F8FF12C0F7FF11C0F6FF68
:1000780010C0F4FF0FC0F3FF0EC0DAFF0DC0D9FFA8
:100088000CC0E2FF0BC0E1FF0AC0EAFF09C0E9FFAC
:1000980008C0FBFF07C0FAFF06C0E0FF05C0E8FF85
:1000A80004C0D8FF1000A5EF01F0929092929294AC
:1000B80092869288929A928C928E9390939293942D
:1000C80093969398939A939C939E949094929494D5
:1000D80094869498949A948C948E959095929584FD
:1000E80095969598959A959C959E969096929694A5
:1000F80089908992899489968998899A899C899EF8
:100108008A908A928A948A968A988A9A8A9C8A9EDF
:100118008B908B928B948B968B988B9A8B9C8B9EC7
:100128008C908C928C948C968C988C9A8C9C8C9EAF
:100138008D908D928D941200F28EF28CF28AF28854
:10014800F296F294F292F290F19CF19AF198F1847D
:10015800F09EF09CF098F09EF092F0909E9C9E9AF3
:100168009E989E969E949E929E90A19EA198A194E0
:10017800A190A498A496A494A492A490D08E9F9C95
:100188009F9A9F989F969F949F929F90A29EA288C5
:10019800A294A290A598A586A584A592A5909D9CB9
:1001A8009D9A9D989D969D949D929D90A09EA088B5
:1001B800A094A090A398A386A384A392A3901200CE
:1001C800E9CF1AF0EACF1BF0E1CF1CF0E2CF1DF027
:1001D800D9CF1EF0DACF1FF0F3CF20F0F4CF21F003
:1001E800F6CF22F0F7CF23F0F8CF24F0F5CF25F0A3
:1001F800176E010E166E175043EC01F025C0F5FF7F
:1002080024C0F8FF23C0F7FF22C0F6FF21C0F4FF87
:1002180020C0F3FF1FC0DAFF1EC0D9FF1DC0E2FFD8
:100228001CC0E1FF1BC0EAFF1AC0E9FF19C0FBFFB1
:1002380018C0FAFF1100A4A406D00204D8A403D061
:10024800D1EC01F01BD0A4A606D00204D8A403D098
:10025800CFEC01F013D0F2A406D00204D8A403D046
:1002680067EC01F00BD09E509E50F2A205D00266BA
:1002780003D0C9EC01F002D09E509E501200A4A4F5
:1002880006D01604D8A403D0D9EC01F01BD0A4A63C
:1002980006D01604D8A403D0D7EC01F013D0F2A4EA
:1002A80006D01604D8A403D086EC01F00BD09E50DB
:1002B8009E50F2A205D0166603D0DBEC01F002D006
:1002C8009E509E501200F294830ED66E2B4A2C2A12
:1002D800E90E2B5C030E2C58D8A013D02D04D8A4FB
:1002E80003D0016E000E02D0016E010E2D6E01507A
:1002F8002DB002D0819001D08180000E2C6E000EAE
:100308002B6E1200F294830ED66E2B4A2C2AE90E1D
:100318002B5C030E2C58D8A013D02D04D8A403D0DE
:10032800156E000E02D0156E010E2D6E15502DB0F3
:1003380002D0819001D08180000E2C6E000E2B6EB1
:10034800120000EE2BF01A0EEE6AE806FDE1000E30
:10035800F86E0001C2EF01F0D58CD550F80B0409F6
:10036800D56ED59AD596830ED66ED58E120059ECD9
:1003780000F0A0EC00F0B0EC01F01200BBEC01F0D2
:10038800FFD79E9812009E9A1200F29212009E9237
:1003980012009E901200A4961200A49412009E9837
:1003A80012009E9A1200A4961200A4941200F292CF
:0A03B80012009E9212009E901200A7
:020000040020DA
:08000000FFFFFFFFFFFFFFFF00
:020000040030CA
:0E000000FF060D3E1C9D80FF0FC00FE00F405D
:00000001FF
