:0400000054EF00F0C9
:10000800FACF8DF0FBCF8EF0E9CF8FF058EF0BF0E1
:10001800D8CF2EF0E8CF2FF0E0CF30F0FACF31F084
:10002800FBCF32F0E9CF33F0EACF34F0E1CF35F04F
:10003800E2CF36F0D9CF37F0DACF38F0F3CF39F056
:10004800F4CF3AF0F6CF3BF0F7CF3CF0F8CF3DF0E5
:10005800F5CF3EF0000ED8EC0AF03EC0F5FF3DC0EB
:10006800F8FF3CC0F7FF3BC0F6FF3AC0F4FF39C0C9
:10007800F3FF38C0DAFF37C0D9FF36C0E2FF35C01A
:10008800E1FF34C0EAFF33C0E9FF32C0FBFF31C0F3
:10009800FAFF30C0E0FF2FC0E8FF2EC0D8FF1000E5
:0400A8003AEF0DF02E
:10030000002064616E73206C65206275666665729C
:10031000200A0A0D00494C2079206120000079C094
:100320007DF000017E6B7F6B0001783500017D3729
:1003300001E37E8100017D510001826F7CC07DF070
:1003400000017E6B7F6B00017B3500017D3701E38F
:100350007E8100017D510001816F00018251000109
:10036000D8B411D0000181510001825DD8B012D003
:100370000001825100080001812500017D6F180EE7
:1003800000017D6507D07AC077F07BC078F07CC033
:1003900079F003D1000181510001D8B411D00001DE
:1003A00082510001815DD8B012D000018151000856
:1003B0000001822500017D6F180E00017D6507D0C8
:1003C00077C077F078C078F079C079F0E6D0060E83
:1003D0000001806F000179AF03D00001808F00D051
:1003E00000017CAF02D00001808D0001788FFF0EEC
:1003F00000017717FF0E00017817000E0001791732
:1004000000017B8FFF0E00017A17FF0E00017B17A2
:10041000000E00017C17000181510001825DD8B0FF
:1004200028D00001D8907A377B377C3700018107CC
:100430000001825100018119D8B413D00001800756
:1004400080C07DF0070E00017D17D8B40AD0E9D72F
:1004500008D00001D8907933783377330001822BAC
:1004600000D00001815100018219D8B430D0F1D7F9
:100470002ED0000182510001815DD8B028D000014A
:10048000D890773778377937000182070001825199
:1004900000018119D8B413D00001800780C07DF01D
:1004A000070E00017D17D8B40AD0E9D708D00001A3
:1004B000D8907C337B337A330001812B00D000014C
:1004C000815100018219D8B402D0F1D700D00001C7
:1004D00080AF12D0FF0E0001771BFF0E0001781BCA
:1004E000FF0E0001791B010E00017727000E0001AD
:1004F0007823000E00017923000180AD13D0FF0E98
:1005000000017A1BFF0E00017B1BFF0E00017C1B0C
:10051000010E00017A27000E00017B23000E00016E
:100520007C2300D0000E0001806F00017751000194
:100530007A270001785100017B23000179510001E5
:100540007C2300017CAF16D0FF0E00017A1BFF0E4A
:1005500000017B1BFF0E00017C1B010E00017A27AE
:10056000000E00017B23000E00017C23010E000120
:10057000806F00D07AC060F07BC061F07CC062F018
:1005800082C063F080C064F053EC06F060C077F086
:1005900061C078F062C079F000D012001AC01EF07D
:1005A0001F6A206A19341E3601E31F801E50236E15
:1005B0001DC01EF01F6A206A1C341E3601E31F8016
:1005C0001E50226E2350D8B40BD02250235CD8B0DA
:1005D0000ED02350000822241E6E180E1E6407D071
:1005E0001BC018F01CC019F01DC01AF0B8D0225062
:1005F000D8B40BD02350225CD8B00ED022500008C3
:1006000023241E6E180E1E6407D018C018F019C0DF
:1006100019F01AC01AF0A3D0060E216E1AAE02D03D
:10062000218E00D01DBE218C198EFF0E1816FF0ED4
:100630001916000E1A161C8EFF0E1B16FF0E1C1626
:10064000000E1D162250235CD8B01ED0D8901B3649
:100650001C361D36220623502218D8B40FD021068E
:1006600021C01EF0070E1E16D8B408D0EFD706D052
:10067000D8901A3219321832232A00D02250231867
:10068000D8B424D0F5D722D02350225CD8B01ED0C5
:10069000D890183619361A36230623502218D8B4A3
:1006A0000FD0210621C01EF0070E1E16D8B408D0A8
:1006B000EFD706D0D8901D321C321B32222A00D030
:1006C00022502318D8B402D0F5D700D021AE0CD0D8
:1006D000FF0E181AFF0E191AFF0E1A1A010E18260D
:1006E000000E1922000E1A2221AC0DD0FF0E1B1A8B
:1006F000FF0E1C1AFF0E1D1A010E1B26000E1C22D7
:10070000000E1D2200D0000E216E18501B2619501D
:100710001C221A501D221DAE0FD0FF0E1B1AFF0EF9
:100720001C1AFF0E1D1A010E1B26000E1C22000EA5
:100730001D22010E216E00D01BC001F01CC002F072
:100740001DC003F023C004F021C005F0AAEC08F09E
:1007500001C018F002C019F003C01AF000D0120056
:100760004BC001F04CC002F04DC003F064EC0DF042
:1007700001C018F002C019F003C01AF048C01BF005
:1007800049C01CF04AC01DF0CEEC02F018C03FF08A
:1007900019C040F01AC041F042C018F043C019F02F
:1007A00044C01AF03FC01BF040C01CF041C01DF017
:1007B000CEEC02F018C042F019C043F01AC044F069
:1007C000F3EC0BF0B0C00CF0B1C00DF0B2C00EF005
:1007D00042C009F043C00AF044C00BF0E3EC06F05D
:1007E00009C01BF00AC01CF00BC01DF0ADC00CF01E
:1007F000AEC00DF0AFC00EF03FC009F040C00AF02F
:1008000041C00BF0E3EC06F009C018F00AC019F083
:100810000BC01AF0CEEC02F018C027F019C028F077
:100820001AC029F0B3C00CF0B4C00DF0B5C00EF082
:100830003FC01BF040C01CF041C01DF045C001F09E
:1008400046C002F047C003F064EC0DF001C018F0A0
:1008500002C019F003C01AF0CEEC02F018C009F083
:1008600019C00AF01AC00BF0E3EC06F009C02AF038
:100870000AC02BF00BC02CF027C018F028C019F0CC
:1008800029C01AF02AC01BF02BC01CF02CC01DF090
:10089000CEEC02F018C0BAF019C0BBF01AC0BCF020
:1008A0003FC045F040C046F041C047F0BAC024F018
:1008B000BBC025F0BCC026F000D012004BC060F0D9
:1008C0004CC061F04DC062F022EC0DF060C077F0DA
:1008D00061C078F062C079F048C07AF049C07BF01E
:1008E0004AC07CF08FEC01F077C03FF078C040F058
:1008F00079C041F042C077F043C078F044C079F04D
:100900003FC07AF040C07BF041C07CF08FEC01F03A
:1009100077C042F078C043F079C044F08EEC0BF021
:10092000B0C06BF0B1C06CF0B2C06DF042C068F006
:1009300043C069F044C06AF00CEC05F068C07AF07E
:1009400069C07BF06AC07CF0ADC06BF0AEC06CF0EB
:10095000AFC06DF03FC068F040C069F041C06AF0C0
:100960000CEC05F068C077F069C078F06AC079F0E7
:100970008FEC01F077C086F078C087F079C088F0FE
:10098000B3C06BF0B4C06CF0B5C06DF03FC07AF08E
:1009900040C07BF041C07CF045C060F046C061F0D3
:1009A00047C062F022EC0DF060C077F061C078F0D3
:1009B00062C079F08FEC01F077C068F078C069F020
:1009C00079C06AF00CEC05F068C089F069C08AF063
:1009D0006AC08BF086C077F087C078F088C079F065
:1009E00089C07AF08AC07BF08BC07CF08FEC01F07C
:1009F00077C0BAF078C0BBF079C0BCF03FC045F01A
:100A000040C046F041C047F0BAC083F0BBC084F09C
:100A1000BCC085F000D012006AC06EF000016F6BA0
:100A2000706B0001693500016E3701E36F810001D1
:100A30006E510001716F00017151D8A402D014D021
:100A400098D06DC06EF000016F6B706B00016C355B
:100A500000016E3701E36F8100016E510001766F76
:100A600000017651D8A40AD0000E0001686F000E74
:100A70000001696F000E00016A6F7BD000017651A2
:100A80007B0F000171276AC076F000016D510001F3
:100A9000761B800E000176170001698F00016C8FB4
:100AA000FF0E00016B17FF0E00016C17000E000116
:100AB0006D17000E0001726F000E0001736F000EC3
:100AC0000001746F070E0001756F00D0000168A16E
:100AD0000DD000016B510001722700016C51000123
:100AE000732300016D510001742300D00001D890E0
:100AF0006A33693368330001D8906B376C376D37D0
:100B00000001752FE3D700D0090E0001756F00D0EA
:100B1000000168A10DD000016B5100017227000196
:100B20006C510001732300016D510001742300D04A
:100B30000001D8906A33693368330001D890743368
:100B4000733372330001752FE3D700D072C060F0A9
:100B500073C061F074C062F071C063F076C064F07D
:100B600053EC06F060C068F061C069F062C06AF0E2
:100B700000D0120062C064F00001656B666B00017A
:100B800061350001643701E36581000164510001B2
:100B90006E6F00016E51D8A402D051D083D0170ED1
:100BA0000001646F60C065F061C066F062C067F00C
:100BB000000164290001686F05D00001D8906733F7
:100BC000663365330001682FF8D7000165510001D5
:100BD000696F0001618FFF0E00016017FF0E0001B9
:100BE0006117000E000162170001605100016A6F79
:100BF0000001615100016B6F0001625100016C6FD7
:100C000000016D6B8E0E00016E5F00016EAF13D0A0
:100C100000016E51800A8F0FD8B003D010D042D09F
:100C200000D00001D8906D336C336B336A33000110
:100C30006E3FF7D71FD0170E00016E6514D0000E5F
:100C40000001606F000E616F000E626F000E636F37
:100C500029D009D00001D8906A376B376C376D37CF
:100C600000016E0700D000016E510001D8B402D01F
:100C7000F1D700D0000169510001D8B40AD00001B9
:100C80006D1F6C1F6B1F6A6D000E6B236C236D2331
:100C900000D06AC060F06BC061F06CC062F06DC0E3
:100CA00063F000D01200000163510001D8B408D0F5
:100CB000000160510001611100016211D8A413D03C
:100CC000000E0001606F000E0001616F000E000158
:100CD000626F78D008D00001632B0001D890623396
:100CE0006133603300D0000E000160150001656FB4
:100CF000000E000161150001666FFE0E0001621515
:100D00000001676F00016551000166110001671164
:100D1000D8B413D0E0D711D00001632B010E00012D
:100D20006027000E00016123000E00016223000114
:100D3000D89062336133603300D0000E000160153B
:100D40000001656F000E000161150001666FFF0E66
:100D5000000162150001676F000165510001661115
:100D600000016711D8B40AD0D7D708D000016307B3
:100D70000001D89060376137623700D0000161BF51
:100D800005D0020E00016361F1D700D0000163B10C
:100D900003D00001619F00D00001D89063330001AF
:100DA000635100016213000164510001D8B403D003
:100DB0000001628F00D060C060F061C061F062C06D
:100DC00062F000D012000BC00FF0106A116A0A34F2
:100DD0000F3601E310800F50126E1250D8A402D0CB
:100DE0000ED06CD00EC00FF0106A116A0D340F36A1
:100DF00001E310800F50176E1750D8A407D0000ED3
:100E0000096E000E0A6E000E0B6E58D017507B0F45
:100E100012260BC017F00E50171A800E17160A8EE6
:100E20000D8EFF0E0C16FF0E0D16000E0E16000E88
:100E3000136E000E146E000E156E070E166E00D0A7
:100E400009A007D00C5013260D5014220E50152265
:100E500000D0D8900B320A320932D8900C360D36B9
:100E60000E36162EEDD700D0090E166E00D009A052
:100E700007D00C5013260D5014220E50152200D00E
:100E8000D8900B320A320932D8901532143213320C
:100E9000162EEDD700D013C001F014C002F015C01B
:100EA00003F012C004F017C005F0AAEC08F001C06E
:100EB00009F002C00AF003C00BF000D0120003C01A
:100EC00005F0066A076A0234053601E3068005501C
:100ED0000F6E0F50D8A402D039D063D0170E056E14
:100EE00001C006F002C007F003C008F00528096E33
:100EF00004D0D890083207320632092EFAD70650AD
:100F00000A6E028EFF0E0116FF0E0216000E031669
:100F100001500B6E02500C6E03500D6E0E6A8E0E59
:100F20000F5E0FAE10D00F50800A8F0FD8B003D0D5
:100F30000DD037D000D0D8900E320D320C320B329B
:100F40000F3EF9D719D0170E0F6411D0000E016EA5
:100F5000000E026E000E036E000E046E22D007D04B
:100F6000D8900B360C360D360E360F0600D00F50CB
:100F7000D8B402D0F5D700D00A50D8B409D00E1E8C
:100F80000D1E0C1E0B6C000E0C220D220E2200D02A
:100F90000BC001F00CC002F00DC003F00EC004F055
:100FA00000D01200000179AF0FD077C060F078C098
:100FB00061F079C062F022EC0DF060C07AF061C09F
:100FC0007BF062C07CF007D077C07AF078C07BF00D
:100FD00079C07CF000D07AC068F07BC069F07CC03A
:100FE0006AF0140E00016B6FD60E00016C6F400E9C
:100FF00000016D6F0CEC05F068C07AF069C07BF001
:101000006AC07CF0400E0001606F270E0001616F26
:10101000440E0001626F7AC063F07BC064F07CC054
:1010200065F043EC08F00001D8B00AD0400E000192
:101030007A6F270E00017B6F440E00017C6F00D099
:10104000000179AF02D0838802D0839800D07AC0A3
:1010500060F07BC061F07CC062F0BAEC05F000018A
:101060006051796E7AC060F07BC061F07CC062F044
:10107000BAEC05F0000161C060F00001616B000195
:101080006051786E1200000162AF1ED060C066F041
:1010900061C067F062C068F00001661F671F681FCB
:1010A000662B000E67236823000E000166250001F1
:1010B000606F000E000167210001616F800E00016A
:1010C00068210001626F00D0000165AF1ED063C0CF
:1010D00066F064C067F065C068F00001661F671FB6
:1010E000681F662B000E67236823000E000166252B
:1010F0000001636F000E000167210001646F800E24
:10110000000168210001656F00D0000E0001601B26
:10111000000E0001611B800E0001621B000E000129
:10112000631B000E0001641B800E0001651B0001A3
:1011300063510001605D00016451000161590001CB
:10114000655100016259D8B002D0D89002D0D88041
:1011500000D012000450D8B405D001500210031082
:10116000D8A40ED0000E016E000E026E000E036EAB
:1011700053D006D0042AD89003320232013200D074
:10118000000E0114066E000E0214076EFE0E03140C
:10119000086E065007100810D8B40ED0EBD70CD04C
:1011A000042A010E0126000E0222000E0322D8900E
:1011B00003320232013200D0000E0114066E000E1E
:1011C0000214076EFF0E0314086E06500710081075
:1011D000D8B408D0E5D706D00406D8900136023638
:1011E000033600D002BE04D0020E0460F5D700D052
:1011F00004B002D0029E00D0D890043204500312F2
:101200000550D8B402D0038E00D001C001F002C056
:1012100002F003C003F000D012001AAE0FD018C0C5
:1012200001F019C002F01AC003F064EC0DF001C027
:101230001BF002C01CF003C01DF007D018C01BF04B
:1012400019C01CF01AC01DF000D01BC009F01CC052
:101250000AF01DC00BF0140E0C6ED60E0D6E400E73
:101260000E6EE3EC06F009C01BF00AC01CF00BC0C8
:101270001DF0400E016E270E026E440E036E1BC061
:1012800004F01CC005F01DC006F0BCEC09F0D8B09D
:1012900007D0400E1B6E270E1C6E440E1D6E00D034
:1012A0001AAE02D0838802D0839800D01BC001F010
:1012B0001CC002F01DC003F05FEC07F00150796E16
:1012C0001BC001F01CC002F01DC003F05FEC07F072
:1012D00002C001F0026A0150786E120000018C6FAA
:1012E000A4A407D000018C05D8A403D0BBEC0DF05A
:1012F00042D0A45007D000018C05D8A403D0DFEC65
:101300000DF039D0F2A407D000018C05D8A403D089
:10131000D1EC0DF030D09EA007D000018C05D8A4F0
:1013200003D021EC0CF027D09E5008D000018C5146
:101330000001D8A403D0E1EC0DF01DD0F2A208D03A
:1013400000018C510001D8A403D0E3EC0DF013D0C0
:101350009EAA07D000018C05D8A403D0CBEC0CF0DA
:101360000AD09E5008D000018C510001D8A403D0AF
:10137000E5EC0DF000D0120003AE17D001C007F06D
:1013800002C008F003C009F0071E081E091E072A44
:10139000000E08220922000E0724016E000E08200C
:1013A000026E800E0920036E00D006AE17D004C076
:1013B00007F005C008F006C009F0071E081E091E48
:1013C000072A000E08220922000E0724046E000ED0
:1013D0000820056E800E0920066E00D0000E011A4E
:1013E000000E021A800E031A000E041A000E051ACF
:1013F000800E061A0450015C05500258065003582E
:10140000D8B002D0D89002D0D88000D012009290EC
:101410009292929492869288929A928C928E9390C3
:101420009392939493969398939A939C939E94906B
:101430009492949494869498949A948C948E959083
:101440009592958495969598959A959C959E96904B
:101450009692969489908992899489968998899A86
:10146000899C899E8A908A928A948A968A988A9A76
:101470008A9C8A9E8B908B928B948B968B988B9A5E
:101480008B9C8B9E8C908C928C948C968C988C9A46
:101490008C9C8C9E8D908D928D941200000E00017C
:1014A000606FC80E0001616F420E0001626F69C07B
:1014B000D9FF6AC0DAFFDECF63F0DECF64F0DDCFA4
:1014C00065F043EC08F00001D8B00AD069C0D9FF3C
:1014D0006AC0DAFF000EDE6EC80EDE6E420E21D04C
:1014E00069C0D9FF6AC0DAFFDECF60F0DECF61F0FD
:1014F000DDCF62F0000E0001636FC80E0001646F63
:10150000C20E0001656F43EC08F00001D8B00BD0AB
:1015100069C0D9FF6AC0DAFF000EDE6EC80EDE6E4B
:10152000C20EDE6E00D01200F28EF28CF28AF288C9
:10153000F296F294F292F290F19CF19AF198F18481
:10154000F09EF09CF098F09EF092F0909E9C9E9AF7
:101550009E989E969E949E929E90A19EA198A194E4
:10156000A190A498A496A494A492A490D08E9F9C99
:101570009F8A9F989F969F949F929F80A29EA288E9
:10158000A294A290A598A586A584A592A5909D9CBD
:101590009D8A9D989D969D949D929D80A09EA088D9
:1015A000A094A090A398A396A384A392A3901200C2
:1015B0002D6EA4A406D02D04D8A403D0B2EC0DF057
:1015C00038D0A45006D02D04D8A403D0D7EC0DF009
:1015D00030D0F2A406D02D04D8A403D0CBEC0DF06B
:1015E00028D09EA006D02D04D8A403D06BEC0CF01C
:1015F00020D09E5006D02D50D8A403D0D9EC0DF0A9
:1016000018D0F2A206D02D50D8A403D0DBEC0DF0F8
:1016100010D09EAA06D02D04D8A403D0ADEC0CF0B7
:1016200008D09E5006D02D50D8A403D0DDEC0DF08C
:1016300000D01200000E016EC80E026E420E036E44
:101640000AC0D9FF0BC0DAFFDECF04F0DECF05F011
:10165000DDCF06F0BCEC09F0D8B00AD00AC0D9FF43
:101660000BC0DAFF000EDE6EC80EDE6E420E1DD01D
:101670000AC0D9FF0BC0DAFFDECF01F0DECF02F0E7
:10168000DDCF03F0000E046EC80E056EC20E066EAE
:10169000BCEC09F0D8B00BD00AC0D9FF0BC0DAFF00
:1016A000000EDE6EC80EDE6EC20EDE6E00D01200C0
:1016B000EACF90F0E1CF91F0E2CF92F0D9CF93F062
:1016C000DACF94F0F3CF95F0F4CF96F0F6CF97F011
:1016D000F7CF98F0F8CF99F0F5CF9AF0010E6EECB5
:1016E00009F09AC0F5FF99C0F8FF98C0F7FF97C0BE
:1016F000F6FF96C0F4FF95C0F3FF94C0DAFF93C0E5
:10170000D9FF92C0E2FF91C0E1FF90C0EAFF8FC015
:10171000E9FF8EC0FBFF8DC0FAFF1100000E000133
:10172000606F7A0E0001616F440E0001626F42C06B
:1017300063F043C064F044C065F043EC08F000017E
:10174000D8B006D0000E426E7A0E436E440E19D009
:1017500042C060F043C061F044C062F0000E00017E
:10176000636F7A0E0001646FC40E0001656F43EC75
:1017700008F00001D8B007D0000E426E7A0E436E1A
:10178000C40E446E00D01200638C000EB86EB68E8C
:10179000B69CB650E30B1809B66EB650FC0B0109A7
:1017A000B66E608A60886050F80B0209606E000EA9
:1017B000676E000E666E1F0E656E400E646E000E44
:1017C0000001A36F000EA26F000E0001A66F000EB5
:1017D000A76F000EA86F000EA96F000E0001A56F85
:1017E000000EA46F1200000E016E7A0E026E440EFF
:1017F000036E42C004F043C005F044C006F0BCECE8
:1018000009F0D8B006D0000E426E7A0E436E440E38
:1018100015D042C001F043C002F044C003F0000EF6
:10182000046E7A0E056EC40E066EBCEC09F0D8B0DC
:1018300007D0000E426E7A0E436EC40E446E00D086
:1018400012009E90FC0ECF6ED50ECE6E5A04D8A418
:101850001BD05B50010D4F0EF324D96E000EF42007
:10186000DA6EDF500001606F0001603B604782501C
:1018700000016019DF0B6019826E5B2A0A0E5B643F
:1018800005D0000E5A6E02D0828A00D012007F98D6
:101890007F9A7F9C7F9EF30E7F16FC0E7F167E8EB6
:1018A0006F806F508F0B10096F6E6E92A60E7B6E5D
:1018B000000E7A6E000E796E000E786E000E776E56
:1018C000000E766E000E756E000E746E000E736E56
:1018D000000E726E12009E90FC0ECF6ED50ECE6E74
:1018E0005A04D8A418D05B50010D4F0EF324D96EC2
:1018F000000EF420DA6EDF50016E013A014682508C
:101900000118DF0B0118826E5B2A0A0E5B6405D09A
:10191000000E5A6E02D0828A00D01200B70E486EB6
:10192000510E496E380E4A6E5EEC04F083C05CF0D6
:1019300084C05DF085C05EF05C0E0001696F000E32
:1019400000016A6F4EEC0AF05CC077F05DC078F081
:101950005EC079F0D2EC07F012009E9A8180640E8E
:101960000101646111D001016451010D000EF324E5
:10197000D96E010EF420DA6EAECFDFFF000E01014A
:10198000666F0101642B06D0010E0101656FAECFB9
:1019900001F000D012009E9A8180640E0101646102
:1019A00011D001016451010D000EF324D96E010E16
:1019B000F420DA6EAECFDFFF000E0101666F010189
:1019C000642B06D0010E0101656FAECF60F000D030
:1019D0001200B70E486E510E496E380E4A6EB0ECCA
:1019E00003F024C05CF025C05DF026C05EF05C0E04
:1019F0000A6E000E0B6E1AEC0BF05CC018F05DC0A6
:101A000019F05EC01AF00DEC09F01200000E000192
:101A1000AD6F000E0001AE6F000E0001AF6F000E43
:101A20000001B06F200E0001B16F410E0001B26FD6
:101A3000000E0001B36F000E0001B46F000E000134
:101A4000B56F1200000160510001611100016211C7
:101A5000D8B409D0000E0001601B000E0001611B0C
:101A6000800E0001621B60C060F061C061F062C066
:101A700062F0120001EE00F0670EEE6AE806FDE18A
:101A800000EEA2F0230EEE6AE806FDE100EE3FF064
:101A9000200EEE6AE806FDE1000EF86E000184EF0C
:101AA0000DF007EC0AF094EC0AF09DEC0DF0C4EC9C
:101AB0000DF0A8EC0DF076EC0DF047EC0CF0C4EC5A
:101AC0000BF006EC0DF01200015002100310D8B418
:101AD00006D0000E011A000E021A800E031A01C071
:101AE00001F002C002F003C003F01200AC8AAC9C0B
:101AF000AC98AC96AC84AC9CAA86AA90230EAF6E30
:101B0000AB8EAB9CAB88120051EC0DF0000E0001C7
:101B1000A16F000EA06F83828180FFD7FFD754EFA3
:101B200000F0CD8ECD9CCD92CD86CD98CD9AFF0E76
:101B3000CF6EEF0ECE6ECD801200D58CD550F80B47
:101B40000409D56ED59AD596830ED66ED58E120021
:101B5000000E0101656F010E0101666F000E0101AB
:101B6000646F1200A494B69CB6AA02D04E2A02D08A
:101B70004E0600D01200A494B69CB6AA02D04E2AFB
:101B800002D04E0600D01200000E5A6E000E5B6EA0
:101B900091EC0DF01200F294830ED66EE9EC0CF08D
:101BA0001200F294830ED66E8EEC0CF01200A49606
:101BB00012009E921200F29212009E981200A496B9
:0E1BC00012009E921200F29212009E981200E5
:020000040020DA
:08000000FFFFFFFFFFFFFFFF00
:020000040030CA
:0E000000FF060D3E1C9D80FF0FC00FE00F405D
:00000001FF
