:0400000057EF00F0C6
:0C000800FACF1AF0FBCF1BF0E4EF00F081
:10001800D8CF05F0E8CF06F0E0CF07F0FACF08F028
:10002800FBCF09F0E9CF0AF0EACF0BF0E1CF0CF0F3
:10003800E2CF0DF0D9CF0EF0DACF0FF0F3CF10F0FA
:10004800F4CF11F0F6CF12F0F7CF13F0F8CF14F089
:10005800F5CF15F0046E000E036E04501FEC01F08E
:1000680015C0F5FF14C0F8FF13C0F7FF12C0F6FF64
:1000780011C0F4FF10C0F3FF0FC0DAFF0EC0D9FFA4
:100088000DC0E2FF0CC0E1FF0BC0EAFF0AC0E9FFA8
:1000980009C0FBFF08C0FAFF07C0E0FF06C0E8FF81
:1000A80005C0D8FF1000B5EF01F09290929292949B
:1000B80092869288929A928C928E9390939293942D
:1000C80093969398939A939C939E949094929494D5
:1000D80094869498949A948C948E959095929584FD
:1000E80095969598959A959C959E969096929694A5
:1000F80089908992899489968998899A899C899EF8
:100108008A908A928A948A968A988A9A8A9C8A9EDF
:100118008B908B928B948B968B988B9A8B9C8B9EC7
:100128008C908C928C948C968C988C9A8C9C8C9EAF
:100138008D908D928D941200F28EF28CF28AF28854
:10014800F296F294F292F290F19CF19AF198F1847D
:10015800F09EF09CF098F09EF092F0909E9C9E9AF3
:100168009E989E969E949E929E90A19EA198A194E0
:10017800A190A498A496A494A492A490D08E9F9C95
:100188009F9A9F989F969F949F929F90A29EA288C5
:10019800A294A290A598A586A584A592A5909D9CB9
:1001A8009D8A9D989D969D949D929D90A09EA088C5
:1001B800A094A090A398A386A384A392A3901200CE
:1001C800E9CF1CF0EACF1DF0E1CF1EF0E2CF1FF01F
:1001D800D9CF20F0DACF21F0F3CF22F0F4CF23F0FB
:1001E800F6CF24F0F7CF25F0F8CF26F0F5CF27F09B
:1001F800196E010E186E195049EC01F027C0F5FF71
:1002080026C0F8FF25C0F7FF24C0F6FF23C0F4FF7F
:1002180022C0F3FF21C0DAFF20C0D9FF1FC0E2FFD0
:100228001EC0E1FF1DC0EAFF1CC0E9FF1BC0FBFFA9
:100238001AC0FAFF1100A4A406D00304D8A403D05E
:1002480005EC02F021D0A4A606D00304D8A403D05C
:1002580003EC02F019D0F2A406D00304D8A403D00A
:1002680073EC01F011D09E509E50F2A205D00366A7
:1002780003D0FDEC01F008D09EAA05D0036603D098
:10028800CBEC01F001D09E501200A4A406D01804B3
:10029800D8A403D00BEC02F021D0A4A606D01804F1
:1002A800D8A403D009EC02F019D0F2A406D018049F
:1002B800D8A403D08DEC01F011D09E509E50F2A22C
:1002C80005D0186603D00DEC02F008D09EAA05D020
:1002D800186603D0D6EC01F001D09E501200F294BB
:1002E800830ED66E2F4A302AE90E2F5C030E305843
:1002F800D8A00ED03104D8A403D0016E000E02D0CD
:10030800016E010E316E0150000E306E000E2F6E20
:100318001200F294830ED66E2F4A302AE90E2F5C13
:10032800030E3058D8A00ED03104D8A403D0166ECE
:10033800000E02D0166E010E316E1650000E306E91
:10034800000E2F6E1200AC8AAC9CAC98AC96AC84B4
:10035800AC9CAA86AA90230EAF6EAB8EAB9CAB88E2
:10036800120000EE2FF01A0EEE6AE806FDE1000E0C
:10037800F86E0001E1EF01F0D58CD550F80B0409B7
:10038800D56ED59AD596830ED66ED58E12009E9AC6
:10039800AB98AECF02F002C001F0F1EC01F0818021
:1003A800AB8812009E9AAB98AECF17F017C016F024
:1003B800F6EC01F08180AB881200EAEC01F0C20E85
:1003C800296E000E286EA7EC01F0FFD759EC00F05B
:1003D800A0EC00F0C0EC01F012009EA8FED701C00E
:1003E800ADFF12009EA8FED716C0ADFF12009E9862
:1003F8001200F29212009E9212009E901200A49691
:100408001200A49412009E981200A4961200A494BC
:0E0418001200F29212009E9212009E901200AC
:020000040020DA
:08000000FFFFFFFFFFFFFFFF00
:020000040030CA
:0E000000FF060D3E1C9D80FF0FC00FE00F405D
:00000001FF
