:020000040000fa
:080000000002040000000000f2
:020000040000fa
:100008009a0200009a0200009a0200009a02000078
:100018009a0200009a0200009a0200009a02000068
:100028009a0200009a0200009a0200009a02000058
:100038009a0200009a0200009a0200009a02000048
:020000040000fa
:020000040000fa
:100400000f8020000e7f24000e01880000000000f5
:10041000000020000000e000020032000001200087
:10042000200288000c00070000832000010020004b
:1004300011000700000020000000e0000200320070
:100440000000020000000000200802000000000080
:100450000040da000000fe004440a9000000200037
:100460000000e0000300320000002000a00188002e
:100470004440a80000000600910188008000780038
:100480000000eb0015003700e280400032a0b4000d
:100490009101ba00e280400032a0b4009102ba009b
:1004a000e280400032a0b4000002eb00472bde00e7
:1004b000f507b200602ce10004003a000059eb009f
:1004c0008301e900fdff3e00040037006128e100e0
:1004d000010032000082eb00040007001101ba00a5
:1004e0000200e000e8ff3a00000006003159ba00bf
:1004f0008301e9000c0032002159ba008301e900b0
:10050000080032000400e00003003a00e2804000ee
:1005100032a0b400f5ff370011d9ba008301e90019
:10052000faff3a008100e800e180400032a0b40008
:0c053000000006000040da000000fe00a1
:020000040000fa
:10053c000000fa00440007000080fa0000000600ea
:10054c000000fa0005e1a9000421a90004c1a900da
:10055c00200880000040a0000050a0002008880067
:10056c000021ef00e0302000100888008460a90012
:10057c009460a8000080fa00000006000000fa0059
:10058c001fe1a9001e21a9001e61a9001ec1a9001e
:10059c00f00880000040a0000050a000f008880087
:1005ac001421ef00b0612000d00888008760a900fa
:1005bc009760a8000080fa00000006000000fa0016
:1005cc0021e1a9002021a90020c1a9000009800077
:1005dc000040a0000050a000000988001421ef008a
:1005ec0080a12700d00888008780a9009780a800e8
:1005fc000080fa00000006000000fa0013e1a900d8
:10060c0011e1a9001061a8001021a90010c1a900d6
:10061c00800880000040a0000050a00080088800e6
:10062c000a21ef000621ef0020002000700888004e
:10063c00c0272600600888008500a9009500a80046
:10064c000080fa00000006000000fa00413a800029
:10065c0000fc2f0000806000403a8800103a8000b7
:10066c000080a1000090a10000a0a100103a880019
:10067c004207a80000000000103a800061006000f2
:10068c000000e000fcff3a0060092000303a8800ce
:10069c00203a80000060a1000070a100203a880080
:1006ac00213a800000fe2f00008060005000b30053
:1006bc00203a8800203a800000c0a10000d0a100a0
:1006cc0000e0a100203a8800103a80000080a000d1
:1006dc000090a10000a0a100103a88004207a800d9
:1006ec0000000000103a8000610060000000e00093
:1006fc00fcff3a0000000000113a800000022000cc
:10070c00008060000000e000fbff32000080fa0077
:10071c00000006000000fa002135800000fe2f00ca
:10072c0000806000e000b300203588007136800046
:10073c00f00f2e008080600000302000010070005f
:10074c00703688003135800000fe2f00008060007c
:10075c005000b300303588003136800000fe2f0089
:10076c00008060005000b30030368800e134800017
:10077c00f00f2e00808060000090210001007000be
:10078c00e0348800e134800000fe2f00008060001f
:10079c008001b300e034880001358000f00f2e009a
:1007ac00808060000070210001007000003588001e
:1007bc000135800000fe2f00008060006001b30056
:1007cc000035880000482800e10120000b020700da
:1007dc000080fa00000006000000fa0021e3a900e6
:1007ec002c03a8002c23a8002c43a8002c63a800e1
:1007fc002c83a8002ca3a8002cc3a8002ce3a800d1
:10080c002d03a800c801a900c881a900c821a9000e
:10081c00c8a1a900c841a900c8c1a900c002a8006c
:10082c006040a9006840a900c022a8006060a9002f
:10083c006860a900c042a800c062a80063a0a9001b
:10084c006ba0a900c082a8006000a9006800a900e4
:10085c00c0e2a900c102a800c122a800c142a9009f
:10086c00c802a9006080a9006880a900c822a9005c
:10087c0060a0a90068a0a900c842a90060c0a90096
:10088c0068c0a900c862a90060e0a90068e0a900de
:10089c00c882a8006020a9006820a900c8a2a800ee
:1008ac006360a9006b60a900c8c2a9006300a9001d
:1008bc006b00a900c8e2a90062e0a9006ae0a900e7
:1008cc00c902a90062c0a9006ac0a900c922a90076
:1008dc0062a0a9006aa0a900c942a9006200a900ef
:1008ec006a00a900c962a90061e0a90069e0a90039
:1008fc00c982a90061c0a90069c0a900c9a2a90048
:10090c0061a0a90069a0a900c9c2a8006180a900c2
:10091c006980a900c9e2a9006160a9006960a90009
:10092c00d002a8006100a9006900a900d022a8008b
:10093c006120a9006920a900d042a8006140a9004b
:10094c006940a900d062a8006380a9006b80a9004f
:10095c00d082a8006320a9006b20a900d0a2a90016
:10096c006340a9006b40a900d0c2a8006240a90056
:10097c006a40a900d0e2a8006220a9006a20a90060
:10098c00d102a8006280a9006a80a900d122a80027
:10099c006260a9006a60a900c402a900c422a9006f
:1009ac00c462a900c482a900c4e2a900c502a900be
:1009bc00c522a900c542a900cc02a900cc22a900dd
:1009cc00cc42a900cc62a900cc82a900cca2a9007f
:1009dc00ccc2a900cce2a900cd02a900cd22a9006d
:1009ec00cd42a900cd62a900cd82a900cda2a9005b
:1009fc00cdc2a900cde2a900d402a900d422a9003d
:100a0c00d442a900d462a900d482a900d4a2a9001e
:100a1c00d4c2a900d4e2a900d502a900d522a9000c
:100a2c000080fa00000006000000fa0083e0a90034
:100a3c008200a90085c0a90085a0a9008580a90015
:100a4c008560a9008540a9008520a9008500a90022
:100a5c0084e0a90084c0a90084a0a9008480a90016
:100a6c008460a9008440a9008420a9008400a90006
:100a7c0087e0a90087c0a90087a0a9008780a900ea
:100a8c008760a9008740a9008720a9008700a900da
:100a9c0086e0a90086c0a9008680a9008660a9000e
:100aac008640a9008620a9008600a90089c0a9005b
:100abc0089a0a9008880a9008860a9008840a900a5
:100acc008820a9008800a9008be0a9008bc0a90090
:100adc008ba0a9008b40a9008b20a9008de0a90058
:100aec008dc0a9008d60a9008d40a9008d20a900a2
:100afc008cc0a9008ca0a9008c80a9008c60a900d6
:100b0c008c40a9008c20a9002005800000c0a0000a
:100b1c0000d0a10000e0a000200588002005800086
:100b2c000080a1000090a10000a0a1002005880079
:100b3c00200580000040a1000050a1000060a10031
:100b4c0020058800200580000000a1000010a100f5
:100b5c000020a100200588003005800000c0a10005
:100b6c0000d0a10000e0a100300588003005800015
:100b7c000080a1000090a10000a0a1003005880019
:100b8c00300580000040a1000050a1000060a100d1
:100b9c0030058800300580000000a1000010a10085
:100bac000020a100300588004005800000c0a00096
:100bbc0000d0a10000e0a1004005880040058000a5
:100bcc000080a1000090a10000a0a10040058800b9
:100bdc00400580000040a1000050a1000060a10071
:100bec0040058800400580000000a1000010a00016
:100bfc000020a00040058800500580000080a10066
:100c0c000090a10000a0a1005005880050058000b4
:100c1c000040a1000050a1000060a1005005880018
:100c2c00500580000000a1000010a1000020a100d0
:100c3c00500588006005800000c0a10000d0a10014
:100c4c0000e0a10060058800600580000040a00065
:100c5c000050a1000060a0006005880060058000c5
:100c6c000000a1000010a1000020a0006005880079
:100c7c007005800000c0a10000d0a10000e0a10020
:100c8c0070058800700580000080a1000090a10014
:100c9c0000a0a10070058800700580000000a10074
:100cac000010a1000020a1007005880080058000c4
:100cbc0000c0a10000d0a00000e0a10080058800c9
:100ccc00800580000080a1000090a10000a0a10080
:100cdc0080058800800580000040a1000050a10024
:100cec000060a10080058800800580000000a10044
:100cfc000010a1000020a100800588009005800054
:100d0c0000c0a00000d0a00000e0a1009005880069
:100d1c00900580000080a0000090a00000a0a10021
:100d2c0090058800900580000040a1000050a100b3
:100d3c000060a10090058800900580000000a000d4
:100d4c000010a1000020a10090058800a0058000e3
:100d5c0000c0a10000d0a10000e0a100a005880007
:100d6c00a00580000080a1000090a10000a0a100bf
:100d7c00a0058800a00580000040a1000050a10043
:100d8c000060a100a0058800a00580000000a10063
:100d9c000010a1000020a100a0058800b005800073
:100dac000000a1000010a1000020a100b0058800e7
:100dbc00d00580000080a1000090a10000a0a1003f
:100dcc00d0058800d00580000040a1000050a10093
:100ddc000060a100d0058800000680000080a00003
:100dec000090a00000a0a000000688000006800073
:100dfc000040a1000050a1000060a1000006880086
:100e0c001006800000c0a10000d0a10000e0a100ed
:100e1c0010068800100680000080a1000090a10040
:100e2c0000a0a10010068800100680000040a10060
:100e3c000050a1000060a100100688002006800070
:100e4c000080a1000090a10000a0a1002006880055
:100e5c00200680000040a1000050a1000060a1000d
:100e6c00200688002006800000c0a10000d0a10050
:100e7c0000e0a10020068800300680000080a10060
:100e8c000090a10000a0a100300688003006800070
:100e9c000040a1000050a1000060a10030068800b5
:100eac00300680000000a1000010a1000020a1006d
:100ebc00300688004006800000c0a00000d0a000d2
:100ecc0000e0a00040068800400680000080a100e1
:100edc000090a10000a0a100400688004006800000
:100eec000040a1000050a1000060a1004006880055
:100efc005006800000c0a10000d0a10000e0a100bd
:100f0c0050068800500680000080a1000090a100cf
:100f1c0000a0a1005006880095c0a90095a0a900ca
:100f2c009580a9009560a9009540a9009520a9007d
:100f3c009500a80094e0a90094c0a90094a0a90071
:100f4c009480a9009460a8009440a9009420a90062
:100f5c009400a90097e0a80097c0a80097a0a9004a
:100f6c009780a8009760a8009740a9009720a90037
:100f7c009700a90096e0a90096c0a9009680a90048
:100f8c009660a9009620a9009600a90099c0a90016
:100f9c0099a0a9009880a9009860a9009840a90080
:100fac009820a9009800a9009be0a9009bc0a9006b
:100fbc009ba0a9009b40a8009b20a9009de0a90034
:100fcc009dc0a9009d60a8009d40a9009d20a9007e
:100fdc009cc0a9009ca0a9009c80a9009c60a900b1
:100fec009c40a9009c20a9000080fa00000006008b
:0c0ffc000000fa000080fa00000006006f
:020000040000fa
:10100800f03fb1000180b10006003500ee03090091
:1010180000000000403fb1000180b100fbff3d002f
:101028001000b000203fb000020035000080090029
:081038000000000000000600aa
:020000040000fa
:101040000400fa00000f7800110798003bfd07002c
:1010500000d0220011132000ebff0700ffff370034
:020000040000fa
:04106000000000008c
:00000001FF
