:020000040000fa
:080000000002040000000000f2
:020000040000fa
:10000800200300002003000020030000200300005c
:10001800200300002003000020030000200300004c
:100028002003000020030000200300009a020000c3
:10003800200300002003000020030000200300002c
:10004800a40200002003000020030000ea020000d0
:10005800200300002003000020030000200300000c
:1000680020030000200300002003000020030000fc
:1000780020030000200300002003000020030000ec
:10008800200300002003000020030000ac02000051
:10009800ba020000200300000c030000180300004f
:1000a80020030000200300002003000020030000bc
:1000b80020030000200300002003000020030000ac
:1000c800200300002003000020030000200300009c
:1000d800200300002003000020030000200300008c
:1000e800200300002003000020030000200300007c
:1000f800200300002003000020030000200300006c
:100108002003000020030000c602000020030000b6
:10011800200300002003000020030000200300004b
:10012800200300002003000020030000200300003b
:10013800200300002003000020030000200300002b
:10014800200300002003000020030000200300001b
:10015800200300002003000020030000200300000b
:1001680020030000200300002003000020030000fb
:1001780020030000200300002003000020030000eb
:1001880020030000200300002003000020030000db
:1001980020030000200300002003000020030000cb
:1001a80020030000200300002003000020030000bb
:1001b80020030000200300002003000020030000ab
:1001c800200300002003000020030000200300009b
:1001d800200300002003000020030000200300008b
:1001e800200300002003000020030000200300007b
:0801f8002003000020030000b9
:020000040000fa
:10020800200300002003000020030000200300005a
:10021800200300002003000020030000200300004a
:100228002003000020030000200300009a020000c1
:10023800200300002003000020030000200300002a
:10024800a40200002003000020030000ea020000ce
:10025800200300002003000020030000200300000a
:1002680020030000200300002003000020030000fa
:1002780020030000200300002003000020030000ea
:10028800200300002003000020030000ac0200004f
:10029800ba020000200300000c030000180300004d
:1002a80020030000200300002003000020030000ba
:1002b80020030000200300002003000020030000aa
:1002c800200300002003000020030000200300009a
:1002d800200300002003000020030000200300008a
:1002e800200300002003000020030000200300007a
:1002f800200300002003000020030000200300006a
:100308002003000020030000c602000020030000b4
:100318002003000020030000200300002003000049
:100328002003000020030000200300002003000039
:100338002003000020030000200300002003000029
:100348002003000020030000200300002003000019
:100358002003000020030000200300002003000009
:1003680020030000200300002003000020030000f9
:1003780020030000200300002003000020030000e9
:1003880020030000200300002003000020030000d9
:1003980020030000200300002003000020030000c9
:1003a80020030000200300002003000020030000b9
:1003b80020030000200300002003000020030000a9
:1003c8002003000020030000200300002003000099
:1003d8002003000020030000200300002003000089
:1003e8002003000020030000200300002003000079
:0803f8002003000020030000b7
:020000040000fa
:10040000af8520000e7f24000e0188000000000050
:10041000000020000000e000020032000001200087
:10042000200288000c00070040ac210001002000e1
:1004300011000700000020000000e0000200320070
:100440000000020000000000821a0200000000000c
:100450000040da000000fe004440a9000000200037
:100460000000e0000300320000002000a00188002e
:100470004440a80000000600910188008000780038
:100480000000eb0015003700e280400032a0b4000d
:100490009101ba00e280400032a0b4009102ba009b
:1004a000e280400032a0b4000002eb00472bde00e7
:1004b000f507b200602ce10004003a000059eb009f
:1004c0008301e900fdff3e00040037006128e100e0
:1004d000010032000082eb00040007001101ba00a5
:1004e0000200e000e8ff3a00000006003159ba00bf
:1004f0008301e9000c0032002159ba008301e900b0
:10050000080032000400e00003003a00e2804000ee
:1005100032a0b400f5ff370011d9ba008301e90019
:10052000faff3a008100e800e180400032a0b40008
:10053000000006000000fa008460a900000000002e
:100540000080fa00004006000000fa008500a900c3
:100550000080fa00004006000000fa001fe1a90038
:100560001421ef008760a9001fe1a8000080fa00b5
:10057000004006000000fa0021e1a9008780a900e0
:1005800021e1a8000080fa0000400600809fbe0024
:100590000000fa008b40a900010f800000802000bd
:1005a000008060000000e0000400320000c8bf00ce
:1005b0000040e80000e8b7000300370000c8bf00b3
:1005c0000040e90000e8b7000080fa004f00be00dc
:1005d00000400600801f78000200fa009560a90024
:1005e0008560a90030118000004f780014c8bf005a
:1005f0000004e00003003a0010c0b30014e8b700a4
:10060000010037001468ef009560a8000080fa0030
:100610004f007800004006000000fa0097c0a900d3
:1006200087c0a90097c0a8000080fa00004006001b
:100630000000fa0087e0a9000080fa0000400600f0
:100640000040da000000fe0003f0a200889fbe0018
:100650008a9fbe008c1f7800c2000700c9003300cb
:100660006450e1004f0032006420e100520032008b
:1006700003826c0007003b000905d0000306d00090
:10068000820f54000c065d000200390002003200a7
:1006900089017800030678008582550004003d003a
:1006a0000003fd008103fd008502ea008b85420006
:1006b000840f720002003b0060001000e080180010
:1006c0006011b8000005eb007a28e1000a0039004b
:1006d00006007800c75ddd00f707b200878075006f
:1006e0002d003700828171000a01780061056000e9
:1006f0008180d1000080d3008502e900f9ff3b0032
:10070000060440008784480002003b006004140097
:10071000e0841c000988a300070032008a81710070
:1007200082817100610164008904d1000884d300d2
:100730008b05e800170037000978a30013003a0082
:100740000b00e000130034008b05e90008044400ae
:1007500089844c000a4474000978a3000d003a0013
:100760000b00e000070034008b05e900080444009a
:1007700089844c0001003a000b0020000978a30096
:10078000f7ff32000001eb000200370082817100a8
:100790000a017800380007000cf0a70001f0a00063
:1007a000810037006420e10002003a00838f6c0072
:1007b000810033000801be000200be007a0037004d
:1007c000839f68000100e00002003d00600010000f
:1007d000e08018000300e00002003d00600111000d
:1007e000e0811900ab0007004f00e00002003b0071
:1007f00060001000e08018000000060014002000d7
:10080000b6013700f4ff2f00b40137000001be002d
:100810003f0007000470a70003f0a10003f8a30045
:1008200013003a006509b1001000320009003500dc
:100830006928e100020035000100280000000500e1
:1008400000004000818048008502e900fcff3a007a
:1008500000000600f88f4200050035008100d1003d
:100860000080d3008502e800fcff3a00000006008b
:100870008000eb0000000500810020006180550031
:100880000b003d000b00200061fe2f000100e10085
:100890001d00340082817100610164008904d1006f
:1008a0000884d3000000e800faff3a00710020003d
:1008b0006100640003007000020060000900320063
:1008c00061044400e0844c000988a5000500320062
:1008d0008b05e8006808e10002003a008904d100b5
:1008e0000884d300f20f20000258e10005003d000b
:1008f000c75ddd00f907b200898075000800780047
:10090000000006000bf827008b00780000000500af
:10091000c70ade00f107b200f50fb200080032008e
:10092000e1cf4200020032000170a0002400050067
:10093000810f70000100320004080500440005002a
:10094000810f700002003a00140005008502e900e2
:100950000000400081c04800fcff3b000170a00087
:10096000240005000004be00e9ff07000003be00ec
:100970000405be000200be00e5ff0700844f7500bd
:10098000000006000200be006450e10005003600d1
:100990006420e100020036000968a30001003a006b
:1009a0000800be000160a0004f0678004f05be00a1
:1009b0004f04be0000000600f0ff2f00f1ff2700eb
:1009c000f9ff3700889fbe008a9fbe008c1f780009
:1009d000e4ff0700ebff330003866c006450e10086
:1009e000240032006420e100270032006150e10061
:1009f000220032006120e100210032008b8542009c
:100a0000eb07b1000134b800003ab8000804420016
:100a100089844a00013ab8000030b800888040005c
:100a200009014a00040033000000400081804800b2
:100a3000020149008b05e900c909dd00830170004e
:100a40000100320013002000c814de004814dd004d
:100a50004709de001200b200c808de0008847000fa
:100a600085ff070001f0a1000cf0a70001f0a00035
:100a7000cdff37006120e100cfff32000801be004a
:100a80000200be00f7ff37006150e100fcff3a00b2
:100a9000c9ff37006022b800060220000000d00025
:100aa0008180d2000482d2008582d2000000a000a2
:100ab0000202520083825a00030031000202420007
:100ac00083824a000000a1000603e900f3ff3a0018
:100ad00000000600889fbe008a9fbe0030044200ce
:100ae000b0844a0030054b0090854b006000b10097
:100af0000898be000a90be000440e10005c8e1006d
:100b000006d0e10007d8e100020031006800400093
:100b10001008e8004f05be004f04be0000000600ac
:100b2000889fbe008a9fbe003004be002005be0024
:100b30000418540005985c0006185d0007985d00d5
:100b4000110020000440e10005c8e10006d0e100ea
:100b500007d8e100010039008000eb001088100088
:100b60004f05be004f04be00000006001200fa0050
:100b7000889fbe008a9fbe008c9fbe00e0b79f008a
:100b8000f1b79f0082bf9f0093bf9f000605be0084
:100b90000404be000000eb00d0b79f00c0b79f0068
:100ba000b0b79f00a0b79f0090b79f000006eb0072
:100bb0005fb19700cfb09700820141003fb097002e
:100bc0000200e00004003d00370007007e8057006f
:100bd000c0ff070003003700330007007e80570086
:100be000cfff0700dfb697000d00e0000c003500d6
:100bf0006fb29700ffb297000fbb97009fbb9700a3
:100c000010002000010020006011b80000027200f6
:100c10008182720002037300838373001b0007004c
:100c20000c06e80001042000810f5600e0ff3a00a6
:100c30000d00e00004003d000802be000a03be00f3
:100c40007e805700a3ff07005fa897000000e00028
:100c500005003a001fb29700afb297003fb397006c
:100c6000cfb39700090007006fb09700ffb097005f
:100c70000fb997009fb997004f06be004f05be0001
:100c80004f04be000080fa000000060001000700cb
:100c900000000600a4b79f00b5b79f00c6b79f002d
:100ca000d7b79f00000006004f09de008281710067
:100cb000b3b79f004f01de0081804000828070004a
:100cc000a1b79f008fb097004f09de0000004000e1
:100cd0000200700090b79f007fa897004f01de00d0
:100ce000818040008280700081b79f000d00070066
:100cf0004f3ade000000400004007000f0af9f009b
:100d0000080007000402420085824a0006034b00e7
:100d100087834b00dfff07000802be000a03be0006
:100d2000000006002fb29700bfb297004fb39700a4
:100d3000dfb3970000000600881f7800180020002d
:100d4000881f780089ff07008f87e9004f0478002b
:100d500000000600801feb0084ff07008f87e9007a
:100d600000000600889fbe008a9fbe00e00f500072
:100d7000e08f5800e00f5900e08f59000c003d0053
:100d80006044b8006055b8000000540081805c00e9
:100d900002015d0083815d0018002000150007003e
:100da00008003d00180007000004eb0005003700b4
:100db0000004eb000f00070002003d0012000700d6
:100dc00018002000dcff07000800e00006003200e9
:100dd0006022b8006033b8000000520081805a00e1
:100de00002015b0083815b004f05be004f04be0023
:100df00000000600e00f5200e08f5a00e00f5b0099
:100e0000e08f5b00000006006044b8006055b80049
:100e10000402540085825c0006035d0087835d0048
:100e200000000600889fbe008a9fbe008c1f7800cd
:100e3000e00f5000e08f5800e00f5900e08f59009c
:100e40000d003d006044b8006055b800000054003b
:100e500081805c0002015d0083815d001c00200038
:100e60000820e10009a8e1000ab0e1000bb8e100a8
:100e70000d003d00080037000006eb00e00f5200b7
:100e8000e08f5a00e00f5b00e08f5b0006003d0042
:100e90006044b8006055b8000402540085825c00cc
:100ea00006035d0087835d00aaff07000c00e000d9
:100eb000060032006022b8006033b8000000520023
:100ec00081805a0002015b0083815b004f0678003d
:100ed0004f05be004f04be0000000600889fbe0004
:100ee0008a9fbe00841f78009efe07004f00780096
:100ef00011003300f0ff2f00838f6c0006003b00d1
:100f0000040565000a00a7000800370009f0a600e4
:100f10001000200008003700820f5400838f5c000f
:100f2000030039001000200001003e0000002000f6
:100f300009f0a7000000ea004f05be004f04be0004
:080f40000000e00000000600c3
:020000040000fa
:100f48000600fa00004f780012079800230798005f
:100f58001e407800e14f500024003a001e00900027
:100f6800ae0090004a0007004011880021e2a90065
:100f780022a2a900101180000060a1000070a10049
:100f8800101188002362a90023c2a90023a2a90086
:100f980023e2a90022c2a90022e2a9002002a90096
:100fa800001180000010a1000020a100001188009d
:100fb8002062a8002082a90020a2a90020c2a900be
:100fc80020e2a900001180000080a1000090a1008b
:100fd800001188002162a9002182a90021a2a9008c
:100fe80021e2a8002342a800270037001e4078000d
:100ff800e24f500024003a001e009000ae0090001e
:1010080023000700c011880031e2a90032a2a9001c
:10101800901180000060a1000070a100901188006c
:101028003362a90033c2a90033a2a80033e2a900a1
:1010380032c2a90032e2a9003002a9008011800062
:101048000010a1000020a100801188003062a800d3
:101058003082a90030a2a90030c2a90030e2a9005c
:10106800801180000080a1000090a10080118800fc
:101078003162a9003182a90031a2a90031e2a80099
:101088003342a800d2c2a8000080fa00000006007f
:101098000400fa00008fbe001e00be0002d420002b
:1010a80033002000820f5000838f58004200320026
:1010b80002d4200033002000820f5000838f580094
:1010c8001b003e0002b0240003002000820f5000e5
:1010d800838f58003e00320002b024000300200035
:1010e800820f5000838f580006003e0002582200ed
:1010f80003002000820f5000838f58003600320012
:101108003700370002102e0003002000820f500025
:10111800838f58002c00320002202c00130020007e
:10112800820f5000838f5800250032002c003700b2
:1011380002a8210063002000820f5000838f58000e
:101148001900320002a8210063002000820f50001d
:10115800838f580006003e0002092d00330020004e
:10116800820f5000838f5800110032001c00370096
:1011780002122a0073002000820f5000838f58004b
:101188000700320002242400f3002000820f5000e0
:10119800838f580012003a00900020001a00370090
:1011a80030012000180037008001200016003700a9
:1011b80070022000140037001003200012003700ce
:1011c8006005200010003700d00a20000e0037000c
:1011d800802020000c003700104120000a00370052
:1011e8001e00be006011b8000203be000002be006f
:1011f80000682900810920006011b800d7fe0700a7
:10120800000078000000e9000080fa0000000600f5
:101218000600fa00004f780012079800230798008c
:101228001e407800e14f500007003a0021e2a90073
:101238001e009000ae00900095ff07004011880046
:1012480021e2a8000600370031e2a9001e00900044
:10125800ae0090008eff0700c011880031e2a800a0
:101268000080fa00000006000400fa0020479800f9
:101278002e409000e14f50000b003a00020037006a
:1012880030118000004f780010118000610060006c
:101298000000e000faff3a0008003700b0118000b3
:1012a800004f780001003700000000009011800016
:1012b800610060000000e000f8ff3a000080fa00da
:1012c800000006000200fa00004f7800114798005d
:1012d8001e407800e14f50000a003a00000000006c
:1012e8001111800000202000008060000000e00054
:1012f800fbff3a001e4090000080fb002011880090
:101308000c0037001e407800e24f500009003a00f8
:101318000000000091118000002020000080600083
:101328000000e000fbff3a001e4090000080fb0038
:10133800a01188000080fa00000006000400fa00ee
:10134800004f7800110798001e00900010407800a8
:10135800804078001e407800daff07001e009000e9
:10136800104078000080fb000000ea004f00de001b
:10137800004078009e0090008100e8001107980066
:101388000004e000f0ff3a000080fa0000000600c8
:101398000800fa00204798002107980032079800b3
:1013a8000000eb00000f7800080037001e007800ee
:1013b800ae00900000804000104078008040780027
:1013c8002e409000bfff07001e0fe8009e00780027
:1013d8003e009000808f5000f4ff39000080fa0032
:1013e800000006000e00fa00600798000000eb00fd
:1013f800000f78006e0090000000e00008003d003b
:101408006e0090000000ea00600798001085200038
:101418001e004000d1c2b300014878001e0fe8004a
:10142800ee00900000712200000178001100090010
:101438008200d800100798009e009000008f2d00b1
:101448000088b900800078006e009000808040001d
:10145800803e200000017800110009008200d800b9
:10146800200798009e009000008f2d000088b9008a
:1014780000017800ae00900080c12f000088b900fc
:1014880000007800800041006e00900080804000dd
:101498004006200000017800110009008200d800f1
:1014a800300798009e009000008f2d000088b9003a
:1014b80000017800ae00900080c12f000088b900bc
:1014c80000007800800041006e009000008140001c
:1014d800be009000c0f92f000088b9000000780015
:1014e80080004100a00020000001780011000900e0
:1014f8008200d800400798009e009000008f2d00c1
:101508000088b90000017800ae00900080c12f006b
:101518000088b90000007800800041006e0090004b
:1015280000814000ce00900060ff2f000088b900c5
:1015380080017800be009000c0f92f000088b90033
:10154800000078000080410000004100500798002a
:101558001e009000004078000043b00080407800f2
:10156800108520001e004000014878001e0fe8008a
:101578002e009000004078000043b00080407800c2
:10158800108520001e004000014878001e0fe8006a
:101598003e009000004078000043b0008040780092
:1015a800108520001e004000014878001e0fe8004a
:1015b8004e009000004078000043b0008040780062
:1015c800108520001e004000014878001e0fe8002a
:1015d8005e009000004078000043b0008040780032
:1015e800108520001e004000014878001e0fe8000a
:1015f800108520001e0040008040eb000148780064
:101608001e0fe800108520000080fa000000060088
:101618002e00fa00889fbe005017980061179800a6
:101628000000eb00000f78005e109000ee109000b4
:10163800e00f5000e08f58000b003d005e10900056
:10164800ee10900060001000e0801800501798001d
:1016580061179800208420001e004000d1c2b3000a
:10166800014878001e0fe8005e109000ee10900010
:1016780002a02c00a3b923004ffc07001007980014
:10168800210798001e009000ae0090000260230021
:101698000289b9000201780053462c000382b90080
:1016a8008401780003014100036023000300b800af
:1016b80001014100820078005e119000ee11900057
:1016c800000041008180490002102e00535f200075
:1016d80039fc070030079800410798001e00900069
:1016e800ae009000026023000289b900020278006f
:1016f80052462c000281b900020178000202420021
:10170800026023000201b80003024200840178004d
:101718003e009000ce00900004f02100048ab90039
:1017280004027800a5a02f000583b900860278007e
:101738000502420005f021000500b8000102420040
:101748008400780002014000838148005e10900008
:10175800ee109000020040008380480002682900d3
:101768008309200014fc07005007980061079800bf
:101778001e009000ae009000026023000289b900ac
:101788000202780052462c000281b900020178005a
:1017980002024200026023000201b8000302420074
:1017a800840178003e009000ce00900004f02100f3
:1017b800048ab90004027800a5a02f000583b900a7
:1017c800860278000502420005f021000500b800f5
:1017d8000102420084007800020140008381480031
:1017e8005e109000ee1090000202400083824800d4
:1017f8005e009000ee009000029826000289b90071
:101808000201780073f62f000383b900860178007f
:1018180003014100039826000300b80001014100bc
:1018280082007800040040008580480002242400db
:10183800f3002000e0fb070070079800010f9800f4
:101848001e009000ae009000026023000289b900db
:101858000202780052462c000281b9000201780089
:1018680002024200026023000201b80003024200a3
:10187800840178003e009000ce00900004f0210022
:10188800048ab90004027800a5a02f000583b900d6
:10189800860278000502420005f021000500b80024
:1018a8000102420084007800020140008381480060
:1018b8005e109000ee109000020340008383480001
:1018c8007e0090008e08900002dc2b000289b9008f
:1018d8000202780002ff2f000281b900020178009d
:1018e8000202420002dc2b000201b800030242009f
:1018f800840178005e009000ee00900004982600b5
:10190800048ab9000402780075f62f000584b9002e
:101918008802780005024200059826000500b800f4
:1019280001024200840078000200400083804800e1
:101938000600400087804800026a28001300200043
:101948009dfb0700100f9800210f98001e009000c3
:10195800ae009000026023000289b90002027800fc
:1019680052462c000281b9000201780002024200ae
:10197800026023000201b8000302420084017800db
:101988003e009000ce00900004f02100048ab900c7
:1019980004027800a5a02f000583b900860278000c
:1019a8000502420005f021000500b80001024200ce
:1019b8008400780002014000838148005e10900096
:1019c800ee10900002034000838348007e009000e0
:1019d8008e08900002dc2b000289b9000202780010
:1019e80002ff2f000281b9000201780002024200c2
:1019f80002dc2b000201b8000302420084017800d7
:101a08005e009000ee00900004982600048ab90059
:101a18000402780075f62f000584b9008802780062
:101a280005024200059826000500b80001024200a0
:101a380084007800020040008380480006024000cd
:101a4800878248001e089000ae0890000296270082
:101a58000289b90002017800e3ff2f000383b9006f
:101a68008601780003014100039627000300b800af
:101a78000101410082007800040040008580480090
:101a880002712200030020004bfb0700300f980072
:101a9800410f98001e009000ae00900002602300e5
:101aa8000289b9000202780052462c000281b9006e
:101ab8000201780002024200026023000201b8001d
:101ac80003024200840178003e009000ce0090009e
:101ad80004f02100048ab90004027800a5a02f00b0
:101ae8000583b900860278000502420005f021004e
:101af8000500b8000102420084007800020140009d
:101b0800838148005e109000ee10900002034000b0
:101b1800838348007e0090008e08900002dc2b0032
:101b28000289b9000202780002ff2f000281b90081
:101b3800020178000202420002dc2b000201b80018
:101b480003024200840178005e009000ee009000dd
:101b580004982600048ab9000402780075f62f005c
:101b68000584b9008802780005024200059826001d
:101b78000500b8000102420084007800020040001d
:101b88008380480006034000878348003e08900091
:101b9800ce089000028f2d000289b9000202780059
:101ba8000081eb000281b9000201780002024200c4
:101bb800028f2d000201b800030242008401780060
:101bc8001e089000ae08900004962700048ab90009
:101bd80004027800e5ff2f000584b9008802780028
:101be80005024200059627000500b80001024200e0
:101bf800840078000200400083804800060040000e
:101c080087804800823e200003002000eafa07008f
:101c1800500f9800610f98001e009000ae009000d1
:101c2800026023000289b9000202780052462c00a3
:101c38000281b9000201780002024200026023001a
:101c48000201b80003024200840178003e009000bf
:101c5800ce00900004f02100048ab9000402780044
:101c6800a5a02f000583b90086027800050242006e
:101c780005f021000500b800010242008400780048
:101c880002014000838148005e109000ee10900031
:101c980002034000838348007e0090008e08900075
:101ca80002dc2b000289b9000202780002ff2f0033
:101cb8000281b900020178000202420002dc2b0016
:101cc8000201b80003024200840178005e0090001f
:101cd800ee00900004982600048ab90004027800f7
:101ce80075f62f000584b9008802780005024200c5
:101cf800059826000500b80001024200840078001b
:101d080002004000838048000603400087834800a3
:101d18003e089000ce089000028f2d000289b9007d
:101d2800020278000081eb000281b900020178000c
:101d380002024200028f2d000201b8000302420095
:101d4800840178001e089000ae08900004962700d1
:101d5800048ab90004027800e5ff2f000584b90061
:101d68008802780005024200059627000500b800a1
:101d7800010242008400780002004000838048008d
:101d880006024000878248005e089000ee08900036
:101d980082c12f000289b900020178008081eb001e
:101da8000383b900860178000301410083c12f0035
:101db8000300b800010141008200780004004000df
:101dc8008580480042062000030020007afa0700b8
:101dd800700f9800011798001e009000ae00900048
:101de800026023000289b9000202780052462c00e2
:101df8000281b90002017800020242000260230059
:101e08000201b80003024200840178003e009000fd
:101e1800ce00900004f02100048ab9000402780082
:101e2800a5a02f000583b9008602780005024200ac
:101e380005f021000500b800010242008400780086
:101e480002014000838148005e109000ee1090006f
:101e580002034000838348007e0090008e089000b3
:101e680002dc2b000289b9000202780002ff2f0071
:101e78000281b900020178000202420002dc2b0054
:101e88000201b80003024200840178005e0090005d
:101e9800ee00900004982600048ab9000402780035
:101ea80075f62f000584b900880278000502420003
:101eb800059826000500b800010242008400780059
:101ec80002004000838048000603400087834800e2
:101ed8003e089000ce089000028f2d000289b900bc
:101ee800020278000081eb000281b900020178004b
:101ef80002024200028f2d000201b80003024200d4
:101f0800840178001e089000ae089000049627000f
:101f1800048ab90004027800e5ff2f000584b9009f
:101f28008802780005024200059627000500b800df
:101f380001024200840078000200400083804800cb
:101f480006034000878348007e0890008e109000aa
:101f5800c2f92f000289b900020278000081eb0063
:101f68000281b9000201780002024200c2f92f0082
:101f78000201b80003024200840178005e08900064
:101f8800ee08900084c12f00048ab900040278008a
:101f98008082eb000584b9008802780005024200bf
:101fa80085c12f000500b8000102420084007800b6
:101fb80002004000838048000600400087804800f7
:101fc800a200200003002000fbf90700101798006a
:101fd800211798001e009000ae00900002602300b8
:101fe8000289b9000202780052462c000281b90029
:101ff8000201780002024200026023000201b800d8
:1020080003024200840178003e009000ce00900058
:1020180004f02100048ab90004027800a5a02f006a
:102028000583b900860278000502420005f0210008
:102038000500b80001024200840078000201400057
:10204800838148005e109000ee109000020340006b
:10205800838348007e0090008e08900002dc2b00ed
:102068000289b9000202780002ff2f000281b9003c
:10207800020178000202420002dc2b000201b800d3
:1020880003024200840178005e009000ee00900098
:1020980004982600048ab9000402780075f62f0017
:1020a8000584b900880278000502420005982600d8
:1020b8000500b800010242008400780002004000d8
:1020c8008380480006034000878348003e0890004c
:1020d800ce089000028f2d000289b9000202780014
:1020e8000081eb000281b90002017800020242007f
:1020f800028f2d000201b80003024200840178001b
:102108001e089000ae08900004962700048ab900c3
:1021180004027800e5ff2f000584b90088027800e2
:1021280005024200059627000500b800010242009a
:1021380084007800020040008380480006034000c5
:10214800878348007e0890008e109000c2f92f0007
:102158000289b900020278000081eb000281b9000f
:102168000201780002024200c2f92f000201b80001
:1021780003024200840178005e089000ee08900097
:1021880084c12f00048ab900040278008082eb0021
:102198000584b900880278000502420085c12f0035
:1021a8000500b800010242008400780002004000e7
:1021b8008380480006024000878248001e10900075
:1021c800ae10900062ff2f000289b900020178006a
:1021d8008081eb000383b900860178000301410088
:1021e80063ff2f000300b80001014100820078005e
:1021f8000400400085804800301798004117980077
:102208001e009000ae009000004078000043b0002f
:1022180080407800208420001e004000014878009b
:102228001e0fe8003e009000ce00900000407800ad
:102238000043b00080407800208420001e00400049
:10224800014878001e0fe8005e009000ee00900044
:10225800004078000043b0008040780020842000cf
:102268001e004000014878001e0fe8007e00900024
:102278008e089000004078000043b000804078004d
:10228800208420001e004000014878001e0fe8004e
:102298001e089000ae089000004078000043b0008f
:1022a80080407800208420001e004000014878000b
:1022b8001e0fe8003e089000ce089000004078000d
:1022c8000043b00080407800208420001e004000b9
:1022d800014878001e0fe8005e089000ee089000a4
:1022e800004078000043b00080407800208420003f
:1022f8001e004000014878001e0fe8007e0890008c
:102308008e109000004078000043b00080407800b4
:10231800208420001e004000014878001e0fe800bd
:102328001e109000ae109000004078000043b000ee
:1023380080407800208420001e004000014878007a
:102348001e0fe8003e109000ce109000004078006c
:102358000043b00080407800208420001e00400028
:10236800014878001e0fe800208420001e0040006d
:102378008040eb00014878001e0fe8002084200010
:102388004f04be000080fa00000006000400fa00b6
:10239800004f7800110798001e00900011fc0700fc
:1023a800800078001e407800e4fb07000080fa00f7
:1023b800000006000600fa00004f78001207980097
:1023c800230798001e009000ae00900090fc0700c4
:1023d800800078001e407800d8fb07000080fa00d3
:1023e800000006000000fa0048000700740007001b
:1023f800990007002c0107006b0307000080fa0012
:10240800000006000000fa0005e1a9000421a90067
:1024180004c1a900200880000040a0000050a000ce
:10242800200888000021ef00e03020001008880014
:102438008460a9009460a8000080fa0000000600eb
:102448000000fa001fe1a9001e21a9001e61a900d1
:102458001ec1a900f00880000040a0000050a000a4
:10246800f00888001421ef00b0612000d00888002f
:102478008760a9009760a8000080fa0000000600a5
:102488000000fa0021e1a9002021a90020c1a9002b
:10249800000980000040a0000050a000000988004a
:1024a8001421ef0080a12700d00888008780a900a8
:1024b8009780a8000080fa00000006000000fa00db
:1024c80013e1a90011e1a9001061a8001021a900d9
:1024d80010c1a900800880000040a0000050a000a2
:1024e800800888000a21ef000621ef002000200064
:1024f80070088800c0272600600888008500a900a9
:102508009500a8000080fa00000006000000fa000c
:10251800413a800000fc2f0000806000403a8800ab
:10252800103a80000080a1000090a00000a0a10047
:10253800103a88004207a80000000000103a800006
:10254800610060000000e000fcff3a00e0012000ac
:10255800303a8800203a80000060a1000070a10095
:10256800203a8800213a800000fe2f000080600099
:10257800203a8800103a80000080a0000090a00057
:1025880000a0a100103a88004207a800000000003f
:10259800103a8000610060000000e000fcff3a0093
:1025a80000000000113a8000000220000080600056
:1025b8000000e000fbff32000080fa000000060087
:1025c8000000fa002135800000fe2f000080600026
:1025d800e000b3002035880061368000f00f2e003f
:1025e80080806000003020000100700060368800a4
:1025f8003135800000fe2f00008060009000b3009d
:10260800303588004136800000fe2f0000806000d1
:102618005000b30040368800e134800000fe2f00ef
:10262800008060004001b300e0348800e13480009d
:10263800f00f2e0080806000005021000100700023
:10264800e034880000482800e1012000dc0307008e
:102658000080fa00000006000000fa0021e3a9004b
:102668002c03a8002c23a8002c43a8002c63a80046
:102678002c83a8002ca3a8002cc3a8002ce3a80036
:102688002d03a800c801a900c881a900c821a90074
:10269800c8a1a900c841a900c8c1a900c002a900d1
:1026a8006040a9006840a900c022a9006060a90094
:1026b8006860a900c042a800c062a90063a0a90080
:1026c8006ba0a900c082a9006000a9006800a90049
:1026d800c0e2a900c102a900c122a900c142a90003
:1026e800c802a9006080a9006880a900c822a900c2
:1026f80060a0a90068a0a900c842a90060c0a900fc
:1027080068c0a900c862a90060e0a90068e0a90043
:10271800c882a9006020a9006820a900c8a2a90051
:102728006360a9006b60a900c8c2a8006300a90083
:102738006b00a900c8e2a80062e0a9006ae0a9004d
:10274800c902a90062c0a9006ac0a900c922a800dc
:1027580062a0a9006aa0a900c942a9006200a90054
:102768006a00a900c962a90061e0a90069e0a9009e
:10277800c982a90061c0a90069c0a900c9a2a900ad
:1027880061a0a90069a0a900c9c2a8006180a90028
:102798006980a900c9e2a9006160a9006960a9006f
:1027a800d002a9006100a9006900a900d022a800f0
:1027b8006120a9006920a900d042a9006140a900b0
:1027c8006940a900d062a9006380a9006b80a900b4
:1027d800d082a8006320a9006b20a900d0a2a8007d
:1027e8006340a9006b40a900d0c2a9006240a900bb
:1027f8006a40a900d0e2a8006220a9006a20a900c6
:10280800d102a8006280a9006a80a900d122a8008c
:102818006260a9006a60a900c402a900c422a900d4
:10282800c462a900c482a900c4e2a900c502a90023
:10283800c522a900c542a900cc02a900cc22a90042
:10284800cc42a900cc62a900cc82a900cca2a900e4
:10285800ccc2a900cce2a900cd02a900cd22a900d2
:10286800cd42a900cd62a900cd82a900cda2a900c0
:10287800cdc2a900cde2a900d402a900d422a900a2
:10288800d442a900d462a900d482a900d4a2a90084
:10289800d4c2a900d4e2a900d502a900d522a90072
:1028a8000080fa00000006000000fa0083e0a9009a
:1028b8008200a9008220a9008240a90085c0a90041
:1028c80085a0a9008580a9008560a9008540a90088
:1028d8008520a9008500a90084e0a90084c0a9007a
:1028e80084a0a9008480a9008460a9008440a9006c
:1028f8008420a9008400a90087e0a90087c0a90056
:1029080087a0a9008780a9008760a9008740a9003f
:102918008720a9008700a90086e0a90086c0a90031
:102928008680a9008660a9008640a9008620a900a3
:102938008600a90089c0a90089a0a9008880a900eb
:102948008860a9008840a9008820a9008800a900fb
:102958008be0a9008bc0a9008ba0a9008b40a9001f
:102968008b20a9008de0a9008dc0a9008d60a90069
:102978008d40a9008d20a9008cc0a9008ca0a900b9
:102988008c80a9008c60a9008c40a9008c20a9002b
:102998002005800000c0a10000d0a10000e0a10037
:1029a80020058800200580000080a1000090a1007b
:1029b80000a0a10020058800200580000040a1009b
:1029c8000050a1000060a1002005880020058000bb
:1029d8000000a1000010a1000020a100200588002f
:1029e8003005800000c0a10000d0a10000e0a100d7
:1029f80030058800300580000080a1000090a1000b
:102a080000a0a10030058800300580000040a1002a
:102a18000050a1000060a10030058800300580004a
:102a28000000a1000010a1000020a10030058800ce
:102a38004005800000c0a10000d0a10000e0a10076
:102a480040058800400580000080a1000090a1009a
:102a580000a0a10040058800400580000040a100ba
:102a68000050a1000060a1004005880040058000da
:102a78000000a1000010a1000020a100400588006e
:102a8800500580000080a1000090a10000a0a100d6
:102a980050058800500580000040a1000050a100aa
:102aa8000060a10050058800500580000000a100ca
:102ab8000010a1000020a1005005880060058000da
:102ac80000c0a10000d0a10000e0a10060058800be
:102ad800600580000040a1000050a1000060a10036
:102ae80060058800600580000000a1000010a100ba
:102af8000020a100600588007005800000c0a100ca
:102b080000d0a10000e0a1007005880070058000d9
:102b18000080a1000090a10000a0a100700588001d
:102b2800700580000000a1000010a1000020a10095
:102b3800700588008005800000c0a10000d0a100b9
:102b480000e0a10080058800800580000080a100c9
:102b58000090a10000a0a1008005880080058000e9
:102b68000040a1000050a1000060a100800588007d
:102b7800800580000000a1000010a1000020a10035
:102b8800800588009005800000c0a10000d0a10049
:102b980000e0a10090058800900580000080a10059
:102ba8000090a10000a0a100900588009005800079
:102bb8000040a1000050a1000060a100900588001d
:102bc800900580000000a1000010a1000020a100d5
:102bd80090058800a005800000c0a10000d0a100d9
:102be80000e0a100a0058800a00580000080a100e9
:102bf8000090a10000a0a100a0058800a005800009
:102c08000040a1000050a1000060a100a0058800bc
:102c1800a00580000000a1000010a1000020a10074
:102c2800a0058800b00580000000a1000010a100e8
:102c38000020a100b0058800d00580000080a10018
:102c48000090a10000a0a100d0058800d005800058
:102c58000040a1000050a1000060a100d00588003c
:102c6800000680000080a1000090a10000a0a10043
:102c780000068800000680000040a1000050a10066
:102c88000060a100000688001006800000c0a100b6
:102c980000d0a10000e0a100100688001006800006
:102ca8000080a1000090a10000a0a10010068800eb
:102cb800100680000040a1000050a1000060a100a3
:102cc80010068800200680000080a1000090a10066
:102cd80000a0a10020068800200680000040a10076
:102ce8000050a1000060a100200688002006800096
:102cf80000c0a10000d0a10000e0a10020068800cb
:102d0800300680000080a1000090a10000a0a10072
:102d180030068800300680000040a1000050a10065
:102d28000060a10030068800300680000000a10085
:102d38000010a1000020a100300688004006800095
:102d480000c0a10000d0a10000e0a100400688005a
:102d5800400680000080a1000090a10000a0a10012
:102d680040068800400680000040a1000050a100f5
:102d78000060a100400688005006800000c0a10045
:102d880000d0a10000e0a100500688005006800095
:102d98000080a1000090a10000a0a10050068800ba
:102da80095c0a90095a0a9009580a9009560a900e3
:102db8009540a9009520a9009500a90094e0a900d4
:102dc80094c0a90094a0a9009480a9009460a900c7
:102dd8009440a9009420a9009400a90097e0a900b4
:102de80097c0a90097a0a9009780a9009760a9009b
:102df8009740a9009720a9009700a90096e0a9008c
:102e080096c0a9009680a9009660a9009620a900fe
:102e18009600a90099c0a90099a0a9009880a900c6
:102e28009860a9009840a9009820a9009800a900d6
:102e38009be0a9009bc0a9009ba0a9009b40a900fa
:102e48009b20a9009de0a9009dc0a9009d60a90044
:102e58009d40a9009d20a9009cc0a9009ca0a90094
:102e68009c80a9009c60a9009c40a9009c20a90006
:102e78000080fa00000006000000fa000080fa0056
:102e8800000006000000fa000900070075000700ae
:102e98000080fa00000006000000fa006000b80098
:102ea80080408800914088000080fa0000000600f9
:102eb8000000fa006000b800704188008141880075
:102ec8006000b80090418800a14188006000b80007
:102ed800d0418800e14188006000b8005041880076
:102ee800614188006000b8001041880021418800d5
:102ef8006000b80030418800414188000080fa0035
:102f0800000006000000fa006000b8000080fa0027
:102f1800000006000000fa00881f7800804080004a
:102f28009140800018c0b30002002000832c2400c8
:102f380032f607000000e00001003c000044eb000e
:102f48000804e0000500320000002000812c240065
:102f580080408800914088000f0037008040800042
:102f68009140800018c0b30002002000832c2c0080
:102f780020f607000000e000010035000044eb00e7
:102f88000804e0000400320000002000812c2c001e
:102f980080408800914088004f0478000080fa0043
:102fa800000006000000fa00881f780090418000a9
:102fb800a141800018c0b30002002000a3472400ec
:102fc8000ef607000000e00001003c000044eb00a2
:102fd8000804e0000500320000002000a14724009a
:102fe80090418800a14188000f003700904180007f
:102ff800a141800018c0b30002002000a3472c00a4
:10300800fcf507000000e000010035000044eb007b
:103018000804e0000400320000002000a1472c0052
:1030280090418800a14188004f0478000080fa0090
:10303800000006000400fa00008fbe000080fa00bd
:10304800000006000000fa006000b8001041880087
:10305800214188006000b800760007000080fa006f
:10306800000006000000fa00d0cc2c00c1dc2300d0
:10307800b0408800c1408800d0cc2c00c1dc2300bf
:10308800d0408800e1408800d0cc2c00c1dc23006f
:10309800f0408800014188000080fa000000060026
:1030a8000000fa00889fbe0014418000254180007e
:1030b80050418000614180000001be000400be0054
:1030c8005ff50700704188008141880094418000c5
:1030d800a541800070418000814180000001be0050
:1030e8000400be0057f5070090418800a141880000
:1030f800acff07007441800085418000b04080002b
:10310800c14080000001be000400be002bf607008d
:103118000004be0094418000a5418000d04080009a
:10312800e14080000001be000400be0023f6070055
:103138000001be000800be0042f507000004be0002
:103148007441800085418000d0418000e1418000c9
:103158000001be000400be0039f507000002be00f1
:10316800f0408000014180000001be000400be0064
:1031780012f607000001be000800be0031f5070086
:103188008040880091408800704180008141800023
:10319800d0418800e14188006000b8004f04be00bb
:1031a8000080fa00000006000000fa00c1e1a80053
:1031b800c1e5a900c1a1a800000e80000040a1003f
:1031c8000050a1000060a1000070a100000e88005e
:1031d800000e80000020a1000030a100000e880031
:1031e800000e80000000a1000010a100000e880061
:1031f800703e2000200e8800c901a800c921a8003f
:10320800c941a800c801a800c881a900c8a1a80090
:10321800c821a900c8c1a900c841a900c885a9003a
:10322800c805a900d621ef00d821ef000080fa00d8
:10323800000006000800fa00881f780020079800a0
:103248003107980018c0b3006011b8002e00900034
:10325800be00900067f507000000e000010035009f
:103268000044eb000804e000050032002e00900046
:10327800be00900001f0a200008fbe0003003700de
:103288002e019000be019000028fbe0002002000b7
:10329800031224001e00be00c8f50700008fbe0000
:1032a80018c0b30002002c00f34724001e00be0023
:1032b80052f507000000e00001003c000044eb006c
:1032c8000804e0000300320000002c00f14724004d
:1032d800008fbe0018c0b3006011b8002e00900027
:1032e800be00900043f507000000e0000100350033
:1032f8000044eb000804e00002003200d202a800fb
:1033080001003700d202a9001e00be003df50700eb
:1033180000007800b00e88004f0478000080fa00a2
:10332800000006000400fa00881f7800008fbe0025
:1033380018c0b30002002000832c24001e00be0029
:103348002ef507000000e00001003c000044eb00ff
:103358000804e0000300320000002000812c240053
:10336800008fbe001e00be0026f507008000780012
:10337800e07f20000088b900800078004006200027
:1033880000017800110009008280d800c00e880072
:103398004f0478000080fa00000006000000fa00e0
:1033a800e1e1a900e1a1a900000f80000080a000d0
:1033b8000090a00000a0a000000f8800e0e1a90094
:1033c800e0c1a800e341a900e321a900e301a900a5
:1033d800e2e1a800100f80000040a1000050a0000a
:1033e8000060a100100f8800f0832300300f8800d0
:1033f8000080fa00000006000200fa0001802000a8
:1034080091407800014f78000068ef00210f80009c
:103418002080200011009800f0832300504088008d
:1034280010c0b300104798002080200010009000c2
:103438006101b80020802000100078008000eb00b7
:103448000000510081805900604088007140880068
:103458001e4078000004e000120032001e01fb004c
:10346800cf91de00504080008000eb00009ab90048
:1034780004027800028bb900860278000502420037
:103488000010b80001024200840078006240800009
:10349800734080000000410081804900604088003e
:1034a800714088001e4090000001fb00cf91de00b3
:1034b8006040800071408000009ab90004027800e2
:1034c800028bb90086027800050242000010b8009d
:1034d8000102420084007800228020002001980028
:1034e800310198002080200090009000208020006a
:1034f800010878000080fa00000006000a00fa00bf
:1035080030079800410798006000b800100798003d
:1035180021079800b3fb07000000eb00000f7800bc
:10352800060037001e007800c00e880000d4200076
:1035380031002000220007001e0fe800007d200057
:103548009e007800808f5000f6ff3400007d200038
:10355800000f7800060037001e007800c00e8800b3
:1035680000d4200031002000150007001e0fe900dc
:103578001e0078000000e000f7ff3d00e6ff37007e
:020000040000fa
:1035880042080000180000000000000016080000b3
:103598002c000000000000001008000004000000db
:1035a80000000000000800001000000000000000fb
:1035b80014080000020000000000000000000000e5
:020000040000fa
:1035c800f03fb1000180b10006003500ee030900ac
:1035d80000000000403fb1000180b100fbff3d004a
:1035e8001000b000203fb000020035000080090044
:0835f8000000000000000600c5
:020000040000fa
:0200000401f009
:04000000cf0000002d
:020000040000fa
:0200000401f009
:04000400cf00000029
:020000040000fa
:0200000401f009
:0400080007000000ed
:020000040000fa
:0200000401f009
:04000c0001000000ef
:020000040000fa
:0200000401f009
:0400100043000000a9
:020000040000fa
:0200000401f009
:040014005f00000089
:020000040000fa
:0200000401f009
:04001800e7000000fd
:020000040000fa
:0200000401f009
:04001c00deff000003
:00000001FF
