:020000040000fa
:080000000002040000000000f2
:020000040000fa
:040008002e040000c2
:020000040000fa
:04000c002e040000be
:020000040000fa
:040010002e040000ba
:020000040000fa
:040014002e040000b6
:020000040000fa
:040018002e040000b2
:020000040000fa
:04001c002e040000ae
:020000040000fa
:040020002e040000aa
:020000040000fa
:040024002e040000a6
:020000040000fa
:040028002e040000a2
:020000040000fa
:04002c002e0400009e
:020000040000fa
:040030002e0400009a
:020000040000fa
:04003400b402000012
:020000040000fa
:040038002e04000092
:020000040000fa
:04003c002e0400008e
:020000040000fa
:040040002e0400008a
:020000040000fa
:040044002e04000086
:020000040000fa
:04004800d4020000de
:020000040000fa
:04004c002e0400007e
:020000040000fa
:040050002e0400007a
:020000040000fa
:04005400f8030000ad
:020000040000fa
:040058002e04000072
:020000040000fa
:04005c002e0400006e
:020000040000fa
:040060002e0400006a
:020000040000fa
:040064002e04000066
:020000040000fa
:040068002e04000062
:020000040000fa
:04006c002e0400005e
:020000040000fa
:040070002e0400005a
:020000040000fa
:040074002e04000056
:020000040000fa
:04007800b4030000cd
:020000040000fa
:04007c002e0400004e
:020000040000fa
:040080002e0400004a
:020000040000fa
:040084002e04000046
:020000040000fa
:040088002e04000042
:020000040000fa
:04008c002e0400003e
:020000040000fa
:040090002e0400003a
:020000040000fa
:04009400dc0200008a
:020000040000fa
:04009800ea02000078
:020000040000fa
:04009c002e0400002e
:020000040000fa
:0400a0001a0400003e
:020000040000fa
:0400a400260400002e
:020000040000fa
:0400a8002e04000022
:020000040000fa
:0400ac002e0400001e
:020000040000fa
:0400b0002e0400001a
:020000040000fa
:0400b4002e04000016
:020000040000fa
:0400b8002e04000012
:020000040000fa
:0400bc002e0400000e
:020000040000fa
:0400c0002e0400000a
:020000040000fa
:0400c4002e04000006
:020000040000fa
:0400c8002e04000002
:020000040000fa
:0400cc002e040000fe
:020000040000fa
:0400d0002e040000fa
:020000040000fa
:0400d4002e040000f6
:020000040000fa
:0400d8002e040000f2
:020000040000fa
:0400dc002e040000ee
:020000040000fa
:0400e0002e040000ea
:020000040000fa
:0400e4002e040000e6
:020000040000fa
:0400e8002e040000e2
:020000040000fa
:0400ec002e040000de
:020000040000fa
:0400f0002e040000da
:020000040000fa
:0400f4002e040000d6
:020000040000fa
:0400f8002e040000d2
:020000040000fa
:0400fc002e040000ce
:020000040000fa
:040100002e040000c9
:020000040000fa
:040104002e040000c5
:020000040000fa
:040108002e040000c1
:020000040000fa
:04010c002e040000bd
:020000040000fa
:040110007403000074
:020000040000fa
:040114002e040000b5
:020000040000fa
:040118002e040000b1
:020000040000fa
:04011c002e040000ad
:020000040000fa
:040120002e040000a9
:020000040000fa
:040124002e040000a5
:020000040000fa
:040128002e040000a1
:020000040000fa
:04012c002e0400009d
:020000040000fa
:040130002e04000099
:020000040000fa
:040134002e04000095
:020000040000fa
:040138002e04000091
:020000040000fa
:04013c002e0400008d
:020000040000fa
:040140002e04000089
:020000040000fa
:040144002e04000085
:020000040000fa
:040148002e04000081
:020000040000fa
:04014c002e0400007d
:020000040000fa
:040150002e04000079
:020000040000fa
:040154002e04000075
:020000040000fa
:040158002e04000071
:020000040000fa
:04015c002e0400006d
:020000040000fa
:040160002e04000069
:020000040000fa
:040164002e04000065
:020000040000fa
:040208002e040000c0
:020000040000fa
:04020c002e040000bc
:020000040000fa
:040210002e040000b8
:020000040000fa
:040214002e040000b4
:020000040000fa
:040218002e040000b0
:020000040000fa
:04021c002e040000ac
:020000040000fa
:040220002e040000a8
:020000040000fa
:040224002e040000a4
:020000040000fa
:040228002e040000a0
:020000040000fa
:04022c002e0400009c
:020000040000fa
:040230002e04000098
:020000040000fa
:040234002e04000094
:020000040000fa
:040238002e04000090
:020000040000fa
:04023c002e0400008c
:020000040000fa
:040240002e04000088
:020000040000fa
:040244002e04000084
:020000040000fa
:040248002e04000080
:020000040000fa
:04024c002e0400007c
:020000040000fa
:040250002e04000078
:020000040000fa
:040254002e04000074
:020000040000fa
:040258002e04000070
:020000040000fa
:04025c002e0400006c
:020000040000fa
:040260002e04000068
:020000040000fa
:040264002e04000064
:020000040000fa
:040268002e04000060
:020000040000fa
:04026c002e0400005c
:020000040000fa
:040270002e04000058
:020000040000fa
:040274002e04000054
:020000040000fa
:040278002e04000050
:020000040000fa
:04027c002e0400004c
:020000040000fa
:040280002e04000048
:020000040000fa
:040284002e04000044
:020000040000fa
:040288002e04000040
:020000040000fa
:04028c002e0400003c
:020000040000fa
:040290002e04000038
:020000040000fa
:040294002e04000034
:020000040000fa
:040298002e04000030
:020000040000fa
:04029c002e0400002c
:020000040000fa
:0402a0002e04000028
:020000040000fa
:0402a4002e04000024
:020000040000fa
:0402a8002e04000020
:020000040000fa
:0402ac002e0400001c
:020000040000fa
:0402b0002e04000018
:020000040000fa
:0402b4002e04000014
:020000040000fa
:0402b8002e04000010
:020000040000fa
:0402bc002e0400000c
:020000040000fa
:0402c0002e04000008
:020000040000fa
:0402c4002e04000004
:020000040000fa
:0402c8002e04000000
:020000040000fa
:0402cc002e040000fc
:020000040000fa
:0402d0002e040000f8
:020000040000fa
:0402d4002e040000f4
:020000040000fa
:0402d8002e040000f0
:020000040000fa
:0402dc002e040000ec
:020000040000fa
:0402e0002e040000e8
:020000040000fa
:0402e4002e040000e4
:020000040000fa
:0402e8002e040000e0
:020000040000fa
:0402ec002e040000dc
:020000040000fa
:0402f0002e040000d8
:020000040000fa
:0402f4002e040000d4
:020000040000fa
:0402f8002e040000d0
:020000040000fa
:0402fc002e040000cc
:020000040000fa
:040300002e040000c7
:020000040000fa
:040304002e040000c3
:020000040000fa
:040308002e040000bf
:020000040000fa
:04030c002e040000bb
:020000040000fa
:040310002e040000b7
:020000040000fa
:040314002e040000b3
:020000040000fa
:040318002e040000af
:020000040000fa
:04031c002e040000ab
:020000040000fa
:040320002e040000a7
:020000040000fa
:040324002e040000a3
:020000040000fa
:040328002e0400009f
:020000040000fa
:04032c002e0400009b
:020000040000fa
:040330002e04000097
:020000040000fa
:040334002e04000093
:020000040000fa
:040338002e0400008f
:020000040000fa
:04033c002e0400008b
:020000040000fa
:040340002e04000087
:020000040000fa
:040344002e04000083
:020000040000fa
:040348002e0400007f
:020000040000fa
:04034c002e0400007b
:020000040000fa
:040350002e04000077
:020000040000fa
:040354002e04000073
:020000040000fa
:040358002e0400006f
:020000040000fa
:04035c002e0400006b
:020000040000fa
:040360002e04000067
:020000040000fa
:040364002e04000063
:020000040000fa
:100400008f9720000e7f24000e018800000000005e
:10041000000020000000e000020032000001200087
:10042000200288000c000700c03d230001002000ce
:1004300011000700000020000000e0000200320070
:1004400000000200000000008432020000000000f2
:100450000040da000000fe004440a900801b20009c
:100460000000e0000300320000002000a00188002e
:100470004440a80000000600910188008000780038
:100480000000eb0015003700e280400032a0b4000d
:100490009101ba00e280400032a0b4009102ba009b
:1004a000e280400032a0b4000002eb00472bde00e7
:1004b000f507b200602ce10004003a000059eb009f
:1004c0008301e900fdff3e00040037006128e100e0
:1004d000010032000082eb000b00070011c3ba00dc
:1004e0001101ba000604e00003003a000200e00037
:1004f000e5ff3a0000000600f607b200960188000a
:1005000082007800f5ff37003159ba008301e90015
:100510000c0032002159ba008301e90008003200c2
:100520000400e00003003a00e280400032a0b40082
:10053000f5ff370011d9ba008301e900faff3a004c
:100540008100e800e180400032a0b4000000060015
:10055000880c0400000000001816040000000000d1
:1005600000000400000000003600f800809fbe007c
:10057000829fbe00849fbe00869fbe000000fa00de
:100580008460a900ca170700701707000080fa00ee
:100590004f03be004f02be004f01be004f00be0021
:1005a0003600f900004006000000fa008500a900ae
:1005b0000080fa00004006000000fa001fe1a900d8
:1005c0001421ef008760a9001fe1a8000080fa0055
:1005d000004006003600f800809fbe00829fbe00eb
:1005e000849fbe00869fbe000000fa0021e1a900a2
:1005f000a0458000b1458000ae01070000007800f2
:100600008000780010c0b3007610070091c0b300de
:1006100010c0b300410c0700e0458000f1458000a8
:10062000a4010700000078008000780010c0b3002b
:100630006c10070091c0b30010c0b300370c070066
:1006400000468000114680009a01070000007800f3
:100650008000780010c0b3006210070091c0b300a2
:1006600010c0b3002d0c07002046800031468000ea
:1006700090010700000078008000780010c0b300ef
:100680005810070091c0b30010c0b300230c07003e
:1006900080408000914080008601070000007800c3
:1006a0008000780010c0b3004e100700a1c0b30056
:1006b00010c0b300190c0700d1c0b30010c0b300c4
:1006c000160c07008780a90021e1a8000080fa002d
:1006d0004f03be004f02be004f01be004f00be00e0
:1006e0003600f90000400600809fbe000000fa00be
:1006f0008b40a900010f8000008020000080600076
:100700000000e0000400320000c8bf000040e80024
:1007100000e8b7000300370000c8bf000040e90050
:1007200000e8b700b0912000104078000004e0001d
:1007300007003200a091200011c0b30001487800ea
:10074000b09120008040eb000148780003003700a2
:10075000a09120008040eb00014878000080fa0062
:100760004f00be0000400600809fbe00829fbe007a
:100770000000fa00a0912000104078000004e00082
:10078000160032000093200010407800e24f500025
:100790000d003e0000932000104078008080fb0098
:1007a000220f8000e880400081814000a19120005c
:1007b00081804100820878008040e800009320009a
:1007c00001487800050037000093200010407800b1
:1007d0008040e80000932000014878008680a9004e
:1007e0000080fa004f01be004f00be00004006002e
:1007f000801f78000200fa009560a9008560a900ba
:1008000030118000004f78001ac8bf000004e000db
:1008100003003a0010c0b3001ae8b7000100370027
:100820001a68ef009560a8000080fa004f00780079
:10083000004006000000fa0097c0a90087c0a90088
:1008400097c0a8000080fa00004006000000fa00ef
:1008500087e0a9000080fa00004006000040da00ae
:100860000000fe000a00fa0011002000b1bf9f0046
:10087000c0bf9f006a805700dc0907004fb897008f
:100880000080fa00000006000a00fa00e20f5000a3
:1008900020003e00a04b8000e10f50000600320017
:1008a0008023200045232000232320000423200050
:1008b0000000e00004003a008022200045222000d1
:1008c00023222000042220000600280014036300d5
:1008d00003003a000608780000002800140a70009f
:1008e00013a8a30001003a0013a0a00002007800a2
:1008f000050037001388a300feff32003102fb0021
:10090000840a78000000e9000000e000f9ff3a00e6
:100910000800370033002000b3bf9f00c0bf9f0016
:10092000d1bf9f00e2bf9f006a805700b109070056
:100930006fb99700020078000080fa0000000600fe
:100940000a00fa0051002000b1bf9f00c0bf9f0005
:100950006a805700a90907005fb897000080fa0075
:1009600000000600889fbe0080047800b04b800025
:100970000000e00004003a000e0007000084eb00d5
:100980000000e00008003500b84b80000900e000de
:100990000500320009004400060007000000e000e6
:1009a00001003d000084eb00080078004f04be0009
:1009b00000000600800078000100e00003003a001b
:1009c00000002000b04b8800000005000080eb0014
:1009d00002002000828f500002003e00b14b8800d0
:1009e0000000eb000000060003f0a200889fbe009c
:1009f0008a9fbe008c1f78002a0107003101330056
:100a00006450e1004f0032006420e10052003200e7
:100a100003826c0007003b000905d0000306d000ec
:100a2000820f54000c065d00020039000200320003
:100a300089017800030678008582550004003d0096
:100a40000003fd008103fd008502ea008b85420062
:100a5000840f720002003b0060001000e08018006c
:100a60006011b8000005eb007a28e1000a003900a7
:100a700006007800c75ddd00f707b20087807500cb
:100a80002d003700828171000a0178006105600045
:100a90008180d1000080d3008502e900f9ff3b008e
:100aa000060440008784480002003b0060041400f4
:100ab000e0841c000988a300070032008a817100cd
:100ac00082817100610164008904d1000884d3002f
:100ad0008b05e800170037000978a30013003a00df
:100ae0000b00e000130034008b05e900080444000b
:100af00089844c000a4474000978a3000d003a0070
:100b00000b00e000070034008b05e90008044400f6
:100b100089844c0001003a000b0020000978a300f2
:100b2000f7ff32000001eb00020037008281710004
:100b30000a017800a00007000cf0a70001f0a00057
:100b4000e90037006420e10002003a00838f6c0066
:100b5000e90033000801be000200be00e2003700d9
:100b6000889fbe008a9fbe008c1f7800cd000700c2
:100b7000d400330003866c006450e1002e00320084
:100b80006420e100330032006150e1002f003200a8
:100b90006120e1003100320085855500eb07b0008f
:100ba0000900200008042000050037000804440064
:100bb00089844c000a0031000603430087834b0000
:100bc0000001530081815b00f8ff33000203be0087
:100bd0000800a0000804440089844c00f6ff390096
:100be000c639dd00830173000100320013002000cc
:100bf0008904d1000884d3000998a30005003200bd
:100c00000800a7000300a0008904d1000884d300d5
:100c10008b05e8008904d1000884d3000001eb00b3
:100c20000281d2006400070001f0a1000cf0a700cf
:100c300001f0a000ac0037006420e100ae003200fb
:100c40000801be000200be00f7ff37006120e1008e
:100c5000a90032006000b800f3ff37000000200058
:100c600001f82700f0ff3700839f68000100e000d3
:100c700002003d0060001000e08018000300e0006a
:100c800002003d0060011100e081190063010700ce
:100c90004f00e00002003b0060001000e080180000
:100ca00000000600140020006e023700f4ff2f0041
:100cb0006c0237000001be00650007000470a70049
:100cc00003f0a1006509b100160032000d003500e7
:100cd0006828e10006003500f0ff2f00f1ff270033
:100ce0000300e00013003b000100280000000500a5
:100cf00000004000818048008502e900fcff3a00c6
:100d000008003700f88f420002003c008000eb0032
:100d1000000005008100d1000080d3008502e800ba
:100d2000fcff3a000300e00002003b0060001000fe
:100d3000e0801800000006000001be00440007002b
:100d40000470a70003f0a10003f8a30013003a0009
:100d50006509b10010003200090035006928e10082
:100d600002003500010028000000050000004000de
:100d7000818048008502e900fcff3a00000006007f
:100d8000f88f4200050035008100d1000080d300bb
:100d90008502e800fcff3a00000006008000eb003e
:100da000000005004f89de0082017800480237000c
:100db0006011b800560237008100200061805500a4
:100dc0000b003d000b00200061fe2f000100e10040
:100dd0001d00340082817100610164008904d1002a
:100de0000884d3000000e800faff3a0071002000f8
:100df000610064000300700002006000090032001e
:100e000061044400e0844c000988a500050032001c
:100e10008b05e8006808e10002003a008904d1006f
:100e20000884d300f20f20000258e10005003d00c5
:100e3000c75ddd00f907b200898075000800780001
:100e4000000006000bf827008b007800000005006a
:100e5000c70ade00f107b200f50fb2000800320049
:100e6000e1cf4200020032000170a0002400050022
:100e7000810f7000010032000408050044000500e5
:100e8000810f700002003a00140005008502e9009d
:100e90000000400081c04800fcff3b000170a00042
:100ea000240005000004be00e9ff07000003be00a7
:100eb0000405be000200be00e5ff0700844f750078
:100ec000000006000200be006450e100050036008c
:100ed0006420e100020036000968a30001003a0026
:100ee0000800be000160a0004f0678004f05be005c
:100ef0004f04be0000000600f0ff2f00f1ff2700a6
:100f0000f9ff3700889fbe008a9fbe008c1f7800c3
:100f1000e4ff0700ebff330003866c006450e10040
:100f2000240032006420e100270032006150e1001b
:100f3000220032006120e100210032008b85420056
:100f4000eb07b1000134b800003ab80008044200d1
:100f500089844a00013ab8000030b8008880400017
:100f600009014a000400330000004000818048006d
:100f7000020149008b05e900c909dd008301700009
:100f80000100320013002000c814de004814dd0008
:100f90004709de001200b200c808de0008847000b5
:100fa00085ff070001f0a1000cf0a70001f0a000f0
:100fb000cdff37006120e100cfff32000801be0005
:100fc0000200be00f7ff37006150e100fcff3a006d
:100fd000c9ff3700889fbe008a9fbe008c1f780023
:100fe0000004be009aff07000478a30026003a0020
:100ff0006120e1002500320009f8a30025003a0035
:101000006420e10021003200f507b1000508a300cb
:101010000200320000004000818048006044b800b7
:1010200003102000020020000000400081804800e2
:101030000805440089854c000a0541008b8549005c
:101040000a0550008b855800030033000a00be00db
:1010500002047400838474008301d1000281d300f0
:10106000830f7100f0ff3a008904d1000884d30097
:101070006001490082017800c1adde00fb07b000cd
:101080004dff070098ff37000960a0000800be0070
:1010900095ff370012022000f2408800f0ff2f0079
:1010a000f1ff270090ff3700889fbe008a9fbe0097
:1010b0000004be0066ff07000800be006420e100d7
:1010c0000700390002003a00f1ff2700f0ff2f006f
:1010d0000160a00012022000f24088004c0037009e
:1010e00001f0a10002802000935c2400edfe0700c7
:1010f0000800be0004003500b2fd20009304240067
:10110000b20107000004be0032982f0023f2230032
:101110007cff07000200200003f0230001f0a7007d
:1011200003f0a00031fe0700e2fe0700801f7800f8
:101130001cff070001f0a2000005be000200200015
:1011400093fc23006fff07000801be0027fe070085
:10115000809fbe000a00be0022a22a00d39f230067
:1011600068ff07004f01be0020fe07000004be001c
:1011700001f0a1000200200003982300cbfe07002d
:1011800003003d000000200001f823001800370094
:101190000800be000001be005aff07000005be00a7
:1011a000823b230043dc2b0056ff07000801be00f2
:1011b00054ff07000801be000cfe07000004be003b
:1011c0000a00be0052372300f3c123004dff070081
:1011d000f27a2b00b3ed2b0004fe07000a01be00db
:1011e00048ff07000200200003f82300fffd07006e
:1011f0004f00a600030037000801be0003f0a20064
:10120000020037000001be000800be0054fe0700c7
:101210004f05be004f04be00000006006022b8006b
:10122000060220000000d0008180d2000482d2009b
:101230008582d2000000a0000202520083825a0080
:10124000030031000202420083824a000000a10034
:101250000603e900f3ff3a0000000600889fbe0085
:101260008a9fbe0030044200b0844a0030054b0023
:1012700090854b006000b1000898be000a90be0047
:101280000440e10005c8e10006d0e10007d8e10014
:1012900002003100680040001008e8004f05be0061
:1012a0004f04be0000000600889fbe008a9fbe005b
:1012b0003004be002005be000418540005985c00f0
:1012c00006185d0007985d00110020000440e10051
:1012d00005c8e10006d0e10007d8e10001003900af
:1012e0008000eb00108810004f05be004f04be00c8
:1012f000000006001200fa00889fbe008a9fbe0010
:101300008c9fbe00e0b79f00f1b79f0082bf9f0097
:1013100093bf9f000605be000404be000000eb0062
:10132000d0b79f00c0b79f00b0b79f00a0b79f0085
:1013300090b79f000006eb005fb19700cfb0970019
:10134000820141003fb097000200e00004003d0030
:10135000370007007e805700c0ff070003003700fa
:10136000330007007e805700cfff0700dfb69700ed
:101370000d00e0000c0035006fb29700ffb297003f
:101380000fbb97009fbb97001000200001002000ba
:101390006011b800000272008182720002037300c3
:1013a000838373001b0007000c06e8000104200083
:1013b000810f5600e0ff3a000d00e00004003d0000
:1013c0000802be000a03be007e805700a3ff07008c
:1013d0005fa897000000e00005003a001fb29700e8
:1013e000afb297003fb39700cfb397000900070053
:1013f0006fb09700ffb097000fb997009fb99700a3
:101400004f06be004f05be004f04be000080fa002c
:10141000000006000100070000000600a4b79f00be
:10142000b5b79f00c6b79f00d7b79f000000060062
:101430004f09de0082817100b3b79f004f01de00cb
:101440008180400082807000a1b79f008fb097001c
:101450004f09de00000040000200700090b79f00be
:101460007fa897004f01de008180400082807000dd
:1014700081b79f000d0007004f3ade0000004000da
:1014800004007000f0af9f00080007000402420053
:1014900085824a0006034b0087834b00dfff07006d
:1014a0000802be000a03be00000006002fb297002b
:1014b000bfb297004fb39700dfb39700000006005c
:1014c000881f780018002000881f780089ff070017
:1014d0008f87e9004f04780000000600801feb00b2
:1014e00084ff07008f87e90000000600889fbe0088
:1014f0008a9fbe00e00f5000e08f5800e00f5900b7
:10150000e08f59000c003d006044b8006055b80001
:101510000000540081805c0002015d0083815d0059
:10152000180020001500070008003d001800070003
:101530000004eb00050037000004eb000f0007007b
:1015400002003d001200070018002000dcff070029
:101550000800e000060032006022b8006033b800e6
:101560000000520081805a0002015b0083815b0011
:101570004f05be004f04be0000000600e00f520001
:10158000e08f5a00e00f5b00e08f5b000000060078
:101590006044b8006055b8000402540085825c00c5
:1015a00006035d0087835d0000000600889fbe0083
:1015b0008a9fbe008c1f7800e00f5000e08f58001b
:1015c000e00f5900e08f59000d003d006044b80065
:1015d0006055b8000000540081805c0002015d008d
:1015e00083815d001c0020000820e10009a8e100c3
:1015f0000ab0e1000bb8e1000d003d000800370023
:101600000006eb00e00f5200e08f5a00e00f5b0095
:10161000e08f5b0006003d006044b8006055b800f4
:101620000402540085825c0006035d0087835d0030
:10163000aaff07000c00e000060032006022b8009c
:101640006033b8000000520081805a0002015b0044
:1016500083815b004f0678004f05be004f04be003b
:1016600000000600889fbe008a9fbe00841f78008d
:101670000cfe07004f00780011003300f0ff2f0030
:10168000838f6c0006003b00040565000a00a7007c
:101690000800370009f0a6001000200008003700fd
:1016a000820f5400838f5c0003003900100020007b
:1016b00001003e000000200009f0a7000000ea0041
:1016c0004f05be004f04be000000e0000000060011
:1016d000881f7800030478000300e00007003d0045
:1016e00060001000e080180060011900e08119001e
:1016f00002003b0001f02d0003003700040007004a
:1017000008f0a70001f0a0004f04780000000600d8
:10171000889fbe008a9fbe00008270000402710094
:1017200004827100260032000004be000200be00e8
:101730006011b8006b092000950220000182cf00e3
:101740000a0039000541b1000082cf0007003900ce
:101750000541b1000982cf00040039000541b10004
:101760000882cf00010039000541b1000542520056
:10177000120032000a003b008281710061016400a6
:101780008100d1000080d3008984d3000884d30075
:101790008b05e8000442e800f7ff3a000700370035
:1017a0000804440089844c000000480081804800ff
:1017b0008b05e9000442e900f9ff3a007efd0700cd
:1017c0004f05be004f04be000000060004002000cc
:1017d00000003700889fbe008a9fbe008c1f7800e3
:1017e0004f26dd00affd0700b6fd33006120e100ac
:1017f000430032006250e10041003e003e003900eb
:101800006420e1003c003200058255000f003b00df
:101810000402e80038003a00800f5300818f5b001b
:10182000350034000800be0003f0a10001f0a6005e
:1018300003f0a0000cf0a7006cfc0700aafd370025
:101840000603430087834b000c4646000005530007
:1018500081855b00020033000a03be000c00a0007b
:101860000402e900f6ff3b0085057800060243000c
:1018700087824b0004003a006000b80009f0a7001e
:1018800001f0a00098fd37000002520081825a004a
:101890000704e000040033000603430087834b0085
:1018a0008b05e900faff3700090578000604be0041
:1018b0000203be006011b8003ffd0700e00f5200b8
:1018c000e08f5a000700350002003c000c08a3001e
:1018d000040032000601be0003f0a0000cf0a700d7
:1018e00042fc07000a85680001f0a1000af0a70089
:1018f00001f0a0007cfd37000800be007afd370033
:10190000100220000cf0a600f04088007afd37009d
:10191000889fbe00000478000100780082047800ef
:10192000880178000901780011002000c801070033
:10193000890f5000010032000004eb00080078001d
:101940004f04be00000006000000fa00e8815700c6
:101950004fb997008184200080c820000200070052
:101960000080fa00000006006200fa00889fbe00b6
:101970008a1f78000005780081047800020478004e
:101980008300780080f92f000f0040005304070007
:101990009a979f00a9979f000000eb00b09f9f00bf
:1019a0001885fb008a04fb000a05ea004f55de009b
:1019b00050022000808f54000d003200e10f5500ce
:1019c0000b003a000a017800880078002f909700f9
:1019d0009f91970003000100a0979f000000e00086
:1019e0008e0032003f9897000000e800b09f9f00f3
:1019f0000a04440050022000808f5400040032008a
:101a00000900e000e6ff3a003f98970084003700a5
:101a10000000eb00909f9f00809f9f00f0979f0029
:101a2000e0979f00d0979f00c0979f000700370066
:101a3000e1942000010050000000400021942000ab
:101a400061007800df98970001007000d09f9f0030
:101a50008804780009047800384578008a00fb0083
:101a6000e0942000df0107000000e000f0ff3a00f2
:101a7000a1c2b300814f55000e003a00cf889700f5
:101a80000180e900c08f9f0010007800c09f9f0078
:101a90000000e00005003d000000ea00c09f9f003c
:101aa0005f9897000020a000d09f9f000904e800e5
:101ab0000f003700c09f9f000000eb0005003700bb
:101ac000f2ff2700820f5000020032006a01b900c5
:101ad000028040000904780088047800b900fb0007
:101ae0000103b100e98f5000f5ff3600c09f9f0051
:101af000e0c2b300984f1000020032000080eb00fb
:101b000019003700a0c2b300d84f100007003a00f8
:101b1000cf8897000180e900c08f9f0010007800f7
:101b2000a09f9f000804e800100037000000eb00b1
:101b3000a09f9f008800780005003700f3ff270072
:101b4000830f5000020032006a02b9000400410015
:101b500001047800880078003101fb000203b10025
:101b6000e90f5100f5ff3600a09f9f0098447800d0
:101b70008900fb00a09320009a0107000000e0000c
:101b8000020032000804e800010037008044eb0046
:101b9000c97f9f0080c6b30080cf540004003a0084
:101ba00098cf14000a003a00664050000600370043
:101bb000c0c6b30080cf540005003a0098cf14008f
:101bc00003003a0065404000c07f9f000804e80021
:101bd0001801fb00e3fb2f008f81410081f92f00ea
:101be0008f804000a0f92f000f0040001000070078
:101bf0000000e00009003a00e1fb2f008f80400068
:101c0000a0f92f000f004000f80207000000e000dc
:101c1000020035000804e80061ff37000080eb0097
:101c20004f0578004f04be000080fa000000060057
:101c3000881f7800e4c6b300844f5100b60032001c
:101c400010003c006b425200844f510018003200db
:101c500005003c0054c2b300844f5100ee00320036
:101c600084c5b3000f00370044c6b300844f510051
:101c70001400320065424200844f5100e9003a00ee
:101c80001000370004c7b300844f5100d500320064
:101c90005300350065424200844f5100500032002d
:101ca00063424200844f5100de003a004c0037008e
:101cb0001181e90082087800f0009000124178005c
:101cc000d600370020629000c5c6b300854f520091
:101cd00007003a009102780064825200840878007c
:101ce0001402be004fabde008603780011003700ff
:101cf00015c7b300854f520003003200a5c6b300dc
:101d0000854f520006003a00910278006882520026
:101d1000840878005403be004402be00050037006a
:101d20001182e9008408780014027800cfa2de0056
:101d3000612bb9000498be000690be00a060900020
:101d400088c6b30088cf50000d00320028c6b3000b
:101d500088cf500004003a000402fb00cfa2de004e
:101d6000612bb9000800370048c7b30088cf500086
:101d7000030032006644440088cf500004003a005b
:101d8000cfa2de00612bb9000498be000690be0011
:101d90003002be002003be00f0009000e00f5200b1
:101da000e08f5a00e00f5b00e08f5b0002003d0017
:101db000d4c2b30008003700001290000418a3003a
:101dc00002003200b4c2b300030037000408a300cd
:101dd0004c00320004c2b30084f1780047003700a1
:101de00020629000c5c6b300854f520006003a003d
:101df0009102780064825200840878001402be00c8
:101e00006033b8001100370015c7b300854f52008a
:101e100003003200a5c6b300854f520006003a0009
:101e20009102780068825200840878005403be0052
:101e30004402be00050037001182e90084087800e2
:101e4000140278008002eb006033b8000498be00f2
:101e50000690be00a060900088c6b30088cf5000f6
:101e60000d00320028c6b30088cf500004003a00ad
:101e70000482fb008002eb006033b80008003700ea
:101e800048c7b30088cf50000300320066444400c6
:101e900088cf500004003a008002eb006033b800a5
:101ea0000498be000690be00801090000138a30088
:101eb000140032003002be002003be00e00f5200ca
:101ec000e08f5a00e00f5b00e08f5b000d003200f6
:101ed00081c7b300814f51000300320081c5b300b8
:101ee000814f510007003a00f000900004c3b30096
:101ef00084f178008100e80082f178008100e80038
:101f000071009800f000900081814100630098000a
:101f1000824078003e003700a0619000c4c6b30044
:101f20001181e90084cf5100220032000a003c00f8
:101f30006442520084cf51002500320004c2e80000
:101f400084cf5100130032006842520084cf510008
:101f50001e003a000a00370044c7b30084cf510086
:101f60001b0032006642420084cf5100180032004c
:101f70006942520084cf510014003a000500370036
:101f800082087800920078004058900080487800dd
:101f90002c0037008208780092007800600a9000d8
:101fa000cfa2de00612bb9008498be008690be00ef
:101fb00024003700820878009200780060099000c1
:101fc000cf91de008288be001e0037001181e9003b
:101fd00082087800920078006008900080087800fd
:101fe000180037001181e900820878001202780099
:101ff000cfa2de00612bb9000498be000690be009f
:10200000f0009000818141006300980081c7b30017
:10201000c70007000b003700f000900082f1780045
:1020200006003700f0009000818141000204e000ca
:1020300001003a0052c2b300824978008100e800f2
:10204000710098000000eb004f04780000000600cb
:10205000889fbe008a9fbe008c9fbe008e1f7800a6
:1020600000067800010478000200780083047800fc
:102070000881b900020778000200e0004200320047
:102080000800e0004100320082057800c90090009d
:1020900069009000808f500004003900090078002a
:1020a0005c0007000000e00029003500004020002f
:1020b000190060000a0032000b017800a100200026
:1020c0000c00780036000700800678000d00e00064
:1020d00006003200610516000a854600040037003c
:1020e0000b0578008006eb00010037000b05780037
:1020f00049009000e9009000808050008a8f5000d5
:1021000002003100010578008006eb000a0178002a
:102110008c0078002c0007008a855500490090004b
:102120000a004000c00498000d00e00004003200e6
:1021300009007800ce0207000000e00004003a0029
:102140000b00e000020032000a064600cfff370015
:1021500000802000190060000200320009007800b1
:10216000c302070000c02000190060000200320016
:1021700049009000e00498008b0557001100090009
:102180008885d800010037000000eb004f07780079
:102190004f06be004f05be004f04be000000060003
:1021a00003003700b0cf1000050032000201e90043
:1021b000800178000200e000faff3a00000005000c
:1021c000030078000000060080017800020037005c
:1021d000b15978000201e9000200e000fcff3a007a
:1021e00000000600020037000304e0000600320091
:1021f0000001780002007800b041780081cf5100e2
:10220000f9ff3a00010037000001eb0002007800fe
:1022100000000600889fbe008a1f78000004780036
:10222000c8009000680190000000eb00828f500011
:102230003c003900180078002200290002016000eb
:10224000e20f510007003200012024000000e000ee
:1022500001003d0001202000008c70000080eb0098
:10226000300037000200260002006000820f50009c
:1022700009003a0038009000808f500006003900b5
:10228000080078007a020700800078000080eb00e8
:102290000100e00023003a001805780000c020008b
:1022a0000000650018003a00a804900060022000b9
:1022b00008004000808f540013003a0000202000e6
:1022c00016030700200498000000e00005003a0013
:1022d00029049800490498008904e800390498000a
:1022e000080037000a60a0000a0c7800400498003b
:1022f000012020008080400031049800400c9800ac
:10230000500c9800f9010700280090005004980034
:10231000380090006004980000002600180c70003f
:102320000000eb004f0578004f04be0000000600df
:10233000fc874700889fbe008a9fbe008c9fbe001e
:102340008e1f78000006780080c5b30080cf500053
:102350000a0032007740400080cf50000a0032006f
:102360006940400080cf50000b0032009090200068
:1023700080bf9f00ae0020000a003700828f20003f
:1023800082bf9f00060037009390200083bf9f000c
:102390008e002000030037009490200084bf9f002f
:1023a0000e0120003c02be002c03be000605be004c
:1023b0000404be0040c6b30080cf500003003200ca
:1023c0006540400080cf50000b003a00e00f520003
:1023d000e08f5a00e00f5b00e08f5b0006003d00dd
:1023e0006000b8006011b8000404500085845800f3
:1023f0000605590087855900e80f57000400320090
:1024000040002000f00f570038003a00010037006c
:1024100030002000e00f5400e08f5c00e00f5d0012
:10242000e08f5d0004003a00dc0890008d01200080
:102430000100e000060032008e00e90088806000a4
:102440008fba9700e5c07800f1ef9f007d01200072
:10245000800078008100e900050033008b05d10081
:102460000a85d3008984d3000884d300f9ff37009c
:10247000089ebe000a96be00120037008d06e900d5
:102480008e00e900848060000fb99700e2c17800f7
:1024900082fd2f000f01410003f17e0080007800d3
:1024a0008100e900050033008783d1000683d30053
:1024b0008582d3000482d300f9ff3700049ebe005a
:1024c0000696be003c02be002c03be00e00f520088
:1024d000e08f5a00e00f5b00e08f5b008b00340060
:1024e0000d00e000e5ff3c00880037002c60900004
:1024f00081c6b300814f50000b00320006003c0043
:102500000004e00008003200e6c05000814f500097
:102510004e003a0004003700c1c6b300814f50009e
:102520004a003a00210037000800e00004003a00a9
:102530005c0890008d0120000000e00006003200e1
:10254000110009000e84d8000fb99700e2c078008e
:10255000f1ef9f007d012000110009000e84d800da
:102560000a003700110009000e04d8008d06e900aa
:102570000e81b900020454008fb8970061417c00bd
:1025800081fd2f008f80400082f07e0000047800e3
:102590000800e000020032000d00e000f1ff3c0006
:1025a000cfc4de00614db90025003700e00f5400b4
:1025b000e08f5c0004003a005c0890008d01200070
:1025c0000000e000070032006171b9000800be00a1
:1025d0008c0207008fb99700e3417800f3ef9f006a
:1025e0007d0120006171b9000800be000bfb0700ef
:1025f0000b0037006171b9000800be009af90700ae
:102600008d06e90000f1b900020454000fba9700ea
:10261000e4427c0084fd2f000f02420005f27e00a0
:102620000004be00e00f5000e08f580002003200ae
:102630000d00e000efff3c004fcdde008a05780082
:10264000089ebe000a96be0030003700e00f54001e
:10265000e08f5c00e00f5d00e08f5d0004003a0059
:102660005c0890008d0120000000e00009003200ad
:102670006172b900612bb9000800be000a01be00fa
:1026800096fb07000fba970064427800f4ef9f00b2
:102690007d0120006172b900612bb9000800be0005
:1026a0000a01be0086fb07000d0037006172b90009
:1026b000612bb9000800be000a01be008bfb0700b9
:1026c0008d06e90000f2b900040454008fba9700a7
:1026d00065427c0085fd2f008f82420084f27e00df
:1026e000009ebe000296be003c04be002c05be004b
:1026f000e00f5400e08f5c00e00f5d00e08f5d00b4
:10270000020034000d00e000e8ff3c00e80f570035
:1027100010003a000c1090000038a3000d003200a9
:10272000f78f560006003e0085fd2f008f82420085
:10273000e5c07e0000c3b30080cf5000050032002a
:102740008d06e90002c3b30081fd2f008f80400099
:1027500082f07e0078811600120e98006c009000c6
:1027600083fd2f008f8141008d80410096fe070080
:102770001c089000dc089000810f500006003d000e
:1027800000805000000e98000c1090000040a10046
:10279000001698000f0037000100e0000d003d001a
:1027a0008c109000f4806000f08f500009003a0017
:1027b0007c099000fc009000810051000c09900001
:1027c00082805000008050004240a9000100340087
:1027d000000e98004f0778004f06be004f05be0060
:1027e0004f04be00cf01b100000006000400fa0053
:1027f000889fbe008a9fbe008c1f7800000478006e
:1028000001067800f80d9000780090008085550052
:1028100008089000808555001808900080855500b4
:102820002808900080855500380890008085550064
:1028300048089000808555000002220090bf9f004c
:1028400000032300a0bf9f00081090000028a300f1
:1028500015003a000b00e000130034000b0578006f
:102860008a047800e20f550001003600290020009c
:10287000c801900009017800ee80570058009000d0
:1028800003000100500498000000e0008c003200ba
:102890006808900009004000600c98000905550088
:1028a0004240a900eeff3c00780190000200e000e9
:1028b0000c003400c80190008c0078005800900093
:1028c00003000100500498008080eb000000e0004d
:1028d0007c003200e8089000780090000080400002
:1028e000600c9800880c90000900e0001100340092
:1028f00009057800e28f5400010036002a0020000c
:10290000c80190000a017800ec8057005800900040
:1029100003000100500498000000e000680032004d
:10292000680890000a004000600c98008a845400f7
:10293000edff3700180990000200e0000c003400a1
:10294000c8019000e80090005800900003000100ca
:10295000500498008080eb000000e0005900320035
:10296000e80890001808900000804000600c980073
:10297000a80c90000900e00011003400090578005f
:10298000e28f5400010036002a002000c8019000a8
:102990000a017800ec805700580090000300010005
:1029a000500498000000e0004500320068089000e4
:1029b0000a004000600c98008a845400edff370044
:1029c000380990000200e0000e003400e80090009a
:1029d0001808900080804000c801900058009000c6
:1029e00003000100500498008080eb000000e0002c
:1029f00034003200e8089000380890000080400061
:102a0000600c9800c80c90000900e0001100340030
:102a100009057800e28f5400010036002a002000ea
:102a2000c80190000a017800ec805700580090001f
:102a300003000100500498000000e0002000320074
:102a4000680890000a004000600c98008a845400d6
:102a5000edff3700081090008000eb000028a30075
:102a6000180032000b00e000160034008b047800e0
:102a700009057800e28f5400010036002a0020008a
:102a8000c80190000a017800ee80570058009000bd
:102a900003000100500498000000e000080032002c
:102aa000680890000a004000600c98008a84540076
:102ab0004240a900eeff3c008000eb00010037001f
:102ac0008080eb00010078004f0678004f05be00c3
:102ad0004f04be000080fa000000060001087800e4
:102ae00000000600806121009b003700881f7800ed
:102af000089720001804e00003003a00f9ff0700df
:102b000020c0b300004c78004f047800000006009d
:102b1000889fbe0000047800080078005400070079
:102b200080047800000420001800600002003200d9
:102b300028009000940007000000eb00200498009b
:102b4000384090000004e000050035000000fb0064
:102b500044f707000000e000010032008084eb0031
:102b6000181090000000e0000800320074f7070021
:102b70000000e000010032008084eb00181090009b
:102b8000810007000000eb001014980000082000ee
:102b900018006000150032000001eb006000b80072
:102ba000838920000202d00063027a00880f52005d
:102bb00005003a000000400081804800008041008c
:102bc0000008eb000600370061004000e08048008c
:102bd0000201e800e80f5000e08f5800f0ff3a00d3
:102be00008007800680007000e003700000c78002d
:102bf00000c0eb0030449800600220000800400054
:102c0000200498004004980050049800400c98005c
:102c100060049800500c98007004980076004400fe
:102c2000000c9800090078004f04be000000060068
:102c3000881f78000004eb006140b800e2ff2f001d
:102c4000f3ff2f00f2000700628a20006200780084
:102c50000000e00001003200adff07000804e800ba
:102c6000e80f5400f4ff3a004f047800000006001b
:102c7000889fbe00000478000800e0000e003a00c3
:102c80008004eb008800d00080892000610078007b
:102c90000000e00004003200f5ff07000000e00043
:102ca00001003d008084eb000804e800e80f5400b8
:102cb000f4ff3a00250037000000220018006000f1
:102cc0008004eb0021003200a80490000f003700c0
:102cd00009015100384090000000fb008900780095
:102ce000e9f607000000e00007003c002800900023
:102cf0004004980060049800500c98001890a000c0
:102d00008084eb001100370080844400480190006b
:102d1000828f5400eeff3900280090004004980094
:102d20009800780002c020000281600001003a0093
:102d30003800900001e8a30002003200600498000f
:102d400001003700500c98008004eb000900780067
:102d50004f04be0000000600010020000100e0005a
:102d600008003200010080000100e0000500320090
:102d70008100e900010088008100d000020080008d
:102d800000b17800000006000000e0002f003200d3
:102d9000c0017800e38f51002c0036000308a30027
:102da0002a003a00714b80000100e000020032006e
:102db000810f50000400310011009800704b880012
:102dc0001600370082007800110190000200e00038
:102dd00002003200800f5100faff39001102780022
:102de00084824000850f500018003900808f520007
:102df00003003a0083084200010078000700370012
:102e00000200e0000300320083014000830f510004
:102e10000e00390012009800900098009000900079
:102e20000100e0000900320010014000828f5000d4
:102e300006003a00c29620000009eb00100178005d
:102e40001108410091009000110098000000060058
:102e5000889fbe0000047800614b80000100e00004
:102e600002003200010078000d003700714b800035
:102e7000e096200004003700910f54002500360032
:102e80000180e800910090000100e000faff3a00a4
:102e900010003700920f54001e0036000280e80038
:102ea000100178000200e000faff3a0011017800fa
:102eb000714b8000e096200004003700910f540011
:102ec000140036000180e80091009000828f5000cd
:102ed000faff3a00994b8000888f540001003100be
:102ee0008804780009007800360007000000e00040
:102ef00004003a00888f5400050032008904d10094
:102f0000f5ff3700091878009fff0700d2ff370050
:102f10000000eb004f04be0000000600881f780090
:102f2000630440000800a1008000eb00800f540003
:102f300021003600e30f540001003e00480020004d
:102f400008007800c2ff07008000eb000000e000ee
:102f500019003200900078009101780064815100de
:102f6000880f510003003100110190000208780021
:102f700007003700088140000208780091019000a6
:102f800013019800100178001109140088087800d6
:102f9000100178000000eb000200e00004003200a5
:102fa000920190000300e000010032000280e8007e
:102fb000604b88008180e800010078004f047800b1
:102fc00000000600800078000000eb000100e00037
:102fd000050034000100780062f60700e10f4000b0
:102fe00001003a000000eb000000060000c0da001b
:102ff0000000060000c0da000000060000c0da0091
:103000000000060085f807000400be00000006006e
:10301000020ab900001bb9000200b800810042009a
:083020008100430000000600de
:020000040000fa
:103028000a0a00000d5400006573000074200000b7
:10303800646500007320000062690000742d0000c0
:1030480066690000656c000064730000206400007d
:10305800616e0000732000006465000073200000aa
:10306800656e0000756d00000a0d00000056000036
:1030780052410000492000003a2000002564000069
:103088002c2000004641000055580000203a00005e
:1030980020250000640a00000d0000004e420000d8
:1030a8005f310000203a000020250000642c000059
:1030b800204e0000425f0000322000003a2000004d
:1030c800256400002c2000004e4200005f33000001
:1030d800203a000020250000642c0000204e00004b
:1030e800425f0000342000003a2000002564000000
:1030f8002c2000004e4200005f350000203a0000fe
:1031080020250000640a00000d0000004e42000067
:103118005f360000203a000020250000642c0000e3
:10312800204e0000425f0000372000003a200000d7
:10313800256400002c2000004e4200005f3800008b
:10314800203a000020250000642c0000204e0000da
:10315800425f0000392000003a200000256400008a
:103168000a0d000000620000312000003a20000033
:10317800256400002c20000062320000203a000084
:1031880020250000642c000020620000332000008d
:103198003a200000256400002c2000006e31000059
:1031a800203a000020250000642c0000206e00005a
:1031b800322000003a200000256400000a0d0000bb
:1031c80000740000616900006c6c0000652000005c
:1031d80064650000206c000061200000737400002a
:1031e80072750000637400007572000065200000ad
:1031f8003a20000025640000206f0000637400007e
:1032080065740000730a00000d000000696e00007c
:103218006469000063650000206e000065670000b7
:103228006174000069660000203a00002025000053
:10323800640a00000d000000696e00006469000067
:1032480063650000207000006f730000697400005f
:1032580069660000203a000020250000640a00008a
:103268000d000000537400007275000063740000c4
:1032780075720000652000003a20000025780000e3
:103288000a0a00000d000000546500007374000075
:10329800203a0000204200006f6e00006a6f0000b4
:1032a800757200000a0d00000054000065730000ec
:1032b80074200000322000003a20000055740000fd
:1032c800696c00006973000061740000696f000098
:1032d8006e20000064650000206c00006120000082
:1032e800666f00006e630000746900006f6e000076
:1032f8002073000070720000696e000074660000a0
:103308000000000020530000544100005254000007
:103318002031000000200000566100006c650000ac
:10332800757200002061000063710000756900007b
:1033380073650000000d00000a0000000a49000043
:1033480032430000205300006574000075700000cf
:10335800204300006f6d0000706c00006574000071
:103368006500000058200000007e0000000a0000f0
:103378000d000000207c0000004f0000200000002d
:103388002d200000007c0000005800000000000014
:020000040000fa
:103398000600fa00004f78001207980023079800eb
:1033a8001e407800e14f500024003a001e009000b3
:1033b800ae0090004a0007004011880021e2a900f1
:1033c80022a2a900101180000060a1000070a100d5
:1033d800101188002362a90023c2a90023a2a90012
:1033e80023e2a90022c2a90022e2a9002002a90022
:1033f800001180000010a1000020a1000011880029
:103408002062a8002082a90020a2a90020c2a90049
:1034180020e2a900001180000080a1000090a10016
:10342800001188002162a9002182a90021a2a90017
:1034380021e2a8002342a800270037001e40780098
:10344800e14f500024003a001e009000ae009000aa
:1034580023000700c011880031e2a90032a2a900a8
:10346800901180000060a1000070a10090118800f8
:103478003362a90033c2a90033a2a80033e2a9002d
:1034880032c2a90032e2a9003002a90080118000ee
:103498000010a1000020a100801188003062a8005f
:1034a8003082a90030a2a90030c2a90030e2a900e8
:1034b800801180000080a1000090a1008011880088
:1034c8003162a9003182a90031a2a90031e2a80025
:1034d8003342a800d2c2a8000080fa00000006000b
:1034e8000400fa00008fbe001e00be0002d42000b7
:1034f80033002000820f5000838f580042003200b2
:1035080002d4200033002000820f5000838f58001f
:103518001b003e0002b0240003002000820f500070
:10352800838f58003e00320002b0240003002000c0
:10353800820f5000838f580006003e000258220078
:1035480003002000820f5000838f5800360032009d
:103558003700370002102e0003002000820f5000b1
:10356800838f58002c00320002202c00130020000a
:10357800820f5000838f5800250032002c0037003e
:1035880002a8210063002000820f5000838f58009a
:103598001900320002a8210063002000820f5000a9
:1035a800838f580006003e0002092d0033002000da
:1035b800820f5000838f5800110032001c00370022
:1035c80002122a0073002000820f5000838f5800d7
:1035d8000700320002242400f3002000820f50006c
:1035e800838f580012003a00900020001a0037001c
:1035f8003001200018003700800120001600370035
:103608007002200014003700100320001200370059
:103618006005200010003700d00a20000e00370097
:10362800802020000c003700104120000a003700dd
:103638001e00be006011b8000203be000002be00fa
:1036480000682900810920006011b800a5f707006b
:10365800000078000000e9000080fa000000060081
:103668000600fa00004f7800120798002307980018
:103678001e407800e14f500007003a0021e2a900ff
:103688001e009000ae00900095ff070040118800d2
:1036980021e2a8000600370031e2a9001e009000d0
:1036a800ae0090008eff0700c011880031e2a8002c
:1036b8000080fa00000006000400fa002047980085
:1036c8002e409000e14f50000b003a0002003700f6
:1036d80030118000004f78001011800061006000f8
:1036e8000000e000faff3a0008003700b01180003f
:1036f800004f7800010037000000000090118000a2
:10370800610060000000e000f8ff3a000080fa0065
:10371800000006000200fa00004f780011479800e8
:103728001e407800e14f50000a003a0000000000f7
:103738001111800000202000008060000000e000df
:10374800fbff3a001e4090000080fb00201188001b
:103758000c0037001e407800e14f500009003a0085
:10376800000000009111800000202000008060000f
:103778000000e000fbff3a001e4090000080fb00c4
:10378800a01188000080fa00000006000400fa007a
:10379800004f7800110798001e0090001040780034
:1037a800804078001e407800daff07001e00900075
:1037b800104078000080fb000000ea004f00de00a7
:1037c800004078009e0090008100e80011079800f2
:1037d8000004e000f0ff3a000080fa000000060054
:1037e8000800fa002047980021079800320798003f
:1037f8000000eb00000f7800080037001e0078007a
:10380800ae009000008040001040780080407800b2
:103818002e409000bfff07001e0fe8009e007800b2
:103828003e009000808f5000f4ff39000080fa00bd
:10383800000006000e00fa00600798000000eb0088
:10384800000f78006e0090000000e00008003d00c6
:103858006e0090000000ea00600798003096200093
:103868001e004000d1c2b300014878001e0fe800d6
:10387800ee0090000071220000017800110009009c
:103888008200d800100798009e009000008f2d003d
:103898000088b900800078006e00900080804000a9
:1038a800803e200000017800110009008200d80045
:1038b800200798009e009000008f2d000088b90016
:1038c80000017800ae00900080c12f000088b90088
:1038d80000007800800041006e0090008080400069
:1038e8004006200000017800110009008200d8007d
:1038f800300798009e009000008f2d000088b900c6
:1039080000017800ae00900080c12f000088b90047
:1039180000007800800041006e00900000814000a7
:10392800be009000c0f92f000088b90000007800a0
:1039380080004100a000200000017800110009006b
:103948008200d800400798009e009000008f2d004c
:103958000088b90000017800ae00900080c12f00f7
:103968000088b90000007800800041006e009000d7
:1039780000814000ce00900060ff2f000088b90051
:1039880080017800be009000c0f92f000088b900bf
:1039980000007800008041000000410050079800b6
:1039a8001e009000004078000043b000804078007e
:1039b800309620001e004000014878001e0fe800e5
:1039c8002e009000004078000043b000804078004e
:1039d800309620001e004000014878001e0fe800c5
:1039e8003e009000004078000043b000804078001e
:1039f800309620001e004000014878001e0fe800a5
:103a08004e009000004078000043b00080407800ed
:103a1800309620001e004000014878001e0fe80084
:103a28005e009000004078000043b00080407800bd
:103a3800309620001e004000014878001e0fe80064
:103a4800309620001e0040008040eb0001487800be
:103a58001e0fe800309620000080fa0000000600e3
:103a68002e00fa00889fbe00501798006117980032
:103a78000000eb00000f78005e109000ee10900040
:103a8800e00f5000e08f58000b003d005e109000e2
:103a9800ee10900060001000e080180050179800a9
:103aa80061179800409520001e004000d1c2b30065
:103ab800014878001e0fe8005e109000ee1090009c
:103ac80002a02c00a3b9230065f407001007980092
:103ad800210798001e009000ae00900002602300ad
:103ae8000289b9000201780053462c000382b9000c
:103af8008401780003014100036023000300b8003b
:103b080001014100820078005e119000ee119000e2
:103b1800000041008180490002102e00535f200000
:103b28004ff4070030079800410798001e009000e6
:103b3800ae009000026023000289b90002027800fa
:103b480052462c000281b9000201780002024200ac
:103b5800026023000201b8000302420084017800d9
:103b68003e009000ce00900004f02100048ab900c5
:103b780004027800a5a02f000583b900860278000a
:103b88000502420005f021000500b80001024200cc
:103b98008400780002014000838148005e10900094
:103ba800ee1090000200400083804800026829005f
:103bb800830920002af4070050079800610798003d
:103bc8001e009000ae009000026023000289b90038
:103bd8000202780052462c000281b90002017800e6
:103be80002024200026023000201b8000302420000
:103bf800840178003e009000ce00900004f021007f
:103c0800048ab90004027800a5a02f000583b90032
:103c1800860278000502420005f021000500b80080
:103c280001024200840078000201400083814800bc
:103c38005e109000ee10900002024000838248005f
:103c48005e009000ee009000029826000289b900fc
:103c58000201780073f62f000383b900860178000b
:103c680003014100039826000300b8000101410048
:103c78008200780004004000858048000224240067
:103c8800f3002000f6f3070070079800010f980072
:103c98001e009000ae009000026023000289b90067
:103ca8000202780052462c000281b9000201780015
:103cb80002024200026023000201b800030242002f
:103cc800840178003e009000ce00900004f02100ae
:103cd800048ab90004027800a5a02f000583b90062
:103ce800860278000502420005f021000500b800b0
:103cf80001024200840078000201400083814800ec
:103d08005e109000ee10900002034000838348008c
:103d18007e0090008e08900002dc2b000289b9001a
:103d28000202780002ff2f000281b9000201780028
:103d38000202420002dc2b000201b800030242002a
:103d4800840178005e009000ee0090000498260040
:103d5800048ab9000402780075f62f000584b900ba
:103d68008802780005024200059826000500b80080
:103d7800010242008400780002004000838048006d
:103d88000600400087804800026a280013002000cf
:103d9800b3f30700100f9800210f98001e00900041
:103da800ae009000026023000289b9000202780088
:103db80052462c000281b90002017800020242003a
:103dc800026023000201b800030242008401780067
:103dd8003e009000ce00900004f02100048ab90053
:103de80004027800a5a02f000583b9008602780098
:103df8000502420005f021000500b800010242005a
:103e08008400780002014000838148005e10900021
:103e1800ee10900002034000838348007e0090006b
:103e28008e08900002dc2b000289b900020278009b
:103e380002ff2f000281b90002017800020242004d
:103e480002dc2b000201b800030242008401780062
:103e58005e009000ee00900004982600048ab900e5
:103e68000402780075f62f000584b90088027800ee
:103e780005024200059826000500b800010242002c
:103e88008400780002004000838048000602400059
:103e9800878248001e089000ae089000029627000e
:103ea8000289b90002017800e3ff2f000383b900fb
:103eb8008601780003014100039627000300b8003b
:103ec800010141008200780004004000858048001c
:103ed800027122000300200061f30700300f9800f0
:103ee800410f98001e009000ae0090000260230071
:103ef8000289b9000202780052462c000281b900fa
:103f08000201780002024200026023000201b800a8
:103f180003024200840178003e009000ce00900029
:103f280004f02100048ab90004027800a5a02f003b
:103f38000583b900860278000502420005f02100d9
:103f48000500b80001024200840078000201400028
:103f5800838148005e109000ee109000020340003c
:103f6800838348007e0090008e08900002dc2b00be
:103f78000289b9000202780002ff2f000281b9000d
:103f8800020178000202420002dc2b000201b800a4
:103f980003024200840178005e009000ee00900069
:103fa80004982600048ab9000402780075f62f00e8
:103fb8000584b900880278000502420005982600a9
:103fc8000500b800010242008400780002004000a9
:103fd8008380480006034000878348003e0890001d
:103fe800ce089000028f2d000289b90002027800e5
:103ff8000081eb000281b900020178000202420050
:10400800028f2d000201b8000302420084017800eb
:104018001e089000ae08900004962700048ab90094
:1040280004027800e5ff2f000584b90088027800b3
:1040380005024200059627000500b800010242006b
:104048008400780002004000838048000600400099
:1040580087804800823e20000300200000f307000c
:10406800500f9800610f98001e009000ae0090005d
:10407800026023000289b9000202780052462c002f
:104088000281b900020178000202420002602300a6
:104098000201b80003024200840178003e0090004b
:1040a800ce00900004f02100048ab90004027800d0
:1040b800a5a02f000583b9008602780005024200fa
:1040c80005f021000500b8000102420084007800d4
:1040d80002014000838148005e109000ee109000bd
:1040e80002034000838348007e0090008e08900001
:1040f80002dc2b000289b9000202780002ff2f00bf
:104108000281b900020178000202420002dc2b00a1
:104118000201b80003024200840178005e009000aa
:10412800ee00900004982600048ab9000402780082
:1041380075f62f000584b900880278000502420050
:10414800059826000500b8000102420084007800a6
:10415800020040008380480006034000878348002f
:104168003e089000ce089000028f2d000289b90009
:10417800020278000081eb000281b9000201780098
:1041880002024200028f2d000201b8000302420021
:10419800840178001e089000ae089000049627005d
:1041a800048ab90004027800e5ff2f000584b900ed
:1041b8008802780005024200059627000500b8002d
:1041c8000102420084007800020040008380480019
:1041d80006024000878248005e089000ee089000c2
:1041e80082c12f000289b900020178008081eb00aa
:1041f8000383b900860178000301410083c12f00c1
:104208000300b8000101410082007800040040006a
:1042180085804800420620000300200090f2070035
:10422800700f9800011798001e009000ae009000d3
:10423800026023000289b9000202780052462c006d
:104248000281b900020178000202420002602300e4
:104258000201b80003024200840178003e00900089
:10426800ce00900004f02100048ab900040278000e
:10427800a5a02f000583b900860278000502420038
:1042880005f021000500b800010242008400780012
:1042980002014000838148005e109000ee109000fb
:1042a80002034000838348007e0090008e0890003f
:1042b80002dc2b000289b9000202780002ff2f00fd
:1042c8000281b900020178000202420002dc2b00e0
:1042d8000201b80003024200840178005e009000e9
:1042e800ee00900004982600048ab90004027800c1
:1042f80075f62f000584b90088027800050242008f
:10430800059826000500b8000102420084007800e4
:10431800020040008380480006034000878348006d
:104328003e089000ce089000028f2d000289b90047
:10433800020278000081eb000281b90002017800d6
:1043480002024200028f2d000201b800030242005f
:10435800840178001e089000ae089000049627009b
:10436800048ab90004027800e5ff2f000584b9002b
:104378008802780005024200059627000500b8006b
:104388000102420084007800020040008380480057
:1043980006034000878348007e0890008e10900036
:1043a800c2f92f000289b900020278000081eb00ef
:1043b8000281b9000201780002024200c2f92f000e
:1043c8000201b80003024200840178005e089000f0
:1043d800ee08900084c12f00048ab9000402780016
:1043e8008082eb000584b90088027800050242004b
:1043f80085c12f000500b800010242008400780042
:104408000200400083804800060040008780480082
:10441800a20020000300200011f2070010179800e6
:10442800211798001e009000ae0090000260230043
:104438000289b9000202780052462c000281b900b4
:104448000201780002024200026023000201b80063
:1044580003024200840178003e009000ce009000e4
:1044680004f02100048ab90004027800a5a02f00f6
:104478000583b900860278000502420005f0210094
:104488000500b800010242008400780002014000e3
:10449800838148005e109000ee10900002034000f7
:1044a800838348007e0090008e08900002dc2b0079
:1044b8000289b9000202780002ff2f000281b900c8
:1044c800020178000202420002dc2b000201b8005f
:1044d80003024200840178005e009000ee00900024
:1044e80004982600048ab9000402780075f62f00a3
:1044f8000584b90088027800050242000598260064
:104508000500b80001024200840078000200400063
:104518008380480006034000878348003e089000d7
:10452800ce089000028f2d000289b900020278009f
:104538000081eb000281b90002017800020242000a
:10454800028f2d000201b8000302420084017800a6
:104558001e089000ae08900004962700048ab9004f
:1045680004027800e5ff2f000584b900880278006e
:1045780005024200059627000500b8000102420026
:104588008400780002004000838048000603400051
:10459800878348007e0890008e109000c2f92f0093
:1045a8000289b900020278000081eb000281b9009b
:1045b8000201780002024200c2f92f000201b8008d
:1045c80003024200840178005e089000ee08900023
:1045d80084c12f00048ab900040278008082eb00ad
:1045e8000584b900880278000502420085c12f00c1
:1045f8000500b80001024200840078000200400073
:104608008380480006024000878248001e10900000
:10461800ae10900062ff2f000289b90002017800f5
:104628008081eb000383b900860178000301410013
:1046380063ff2f000300b8000101410082007800e9
:104648000400400085804800301798004117980002
:104658001e009000ae009000004078000043b000bb
:1046680080407800409520001e00400001487800f6
:104678001e0fe8003e009000ce0090000040780039
:104688000043b00080407800409520001e004000a4
:10469800014878001e0fe8005e009000ee009000d0
:1046a800004078000043b00080407800409520002a
:1046b8001e004000014878001e0fe8007e009000b0
:1046c8008e089000004078000043b00080407800d9
:1046d800409520001e004000014878001e0fe800a9
:1046e8001e089000ae089000004078000043b0001b
:1046f80080407800409520001e0040000148780066
:104708001e0fe8003e089000ce0890000040780098
:104718000043b00080407800409520001e00400013
:10472800014878001e0fe8005e089000ee0890002f
:10473800004078000043b000804078004095200099
:104748001e004000014878001e0fe8007e08900017
:104758008e109000004078000043b0008040780040
:10476800409520001e004000014878001e0fe80018
:104778001e109000ae109000004078000043b0007a
:1047880080407800409520001e00400001487800d5
:104798001e0fe8003e109000ce10900000407800f8
:1047a8000043b00080407800409520001e00400083
:1047b800014878001e0fe800409520001e004000c8
:1047c8008040eb00014878001e0fe800409520006b
:1047d8004f04be000080fa00000006000400fa0042
:1047e800004f7800110798001e00900011fc070088
:1047f800800078001e407800e4fb07000080fa0083
:10480800000006000600fa00004f78001207980022
:10481800230798001e009000ae00900090fc07004f
:10482800800078001e407800d8fb07000080fa005e
:10483800000006000000fa00550007008700070086
:10484800b2000700450107005608070002202c00a7
:104858001300200010c0b300cdfa0700ca080700f3
:10486800090007002700070000a8210061002000b8
:10487800650507003e060700320607008a040700a0
:104888000080fa00000006000000fa0005e1a90017
:104898000421a90004c1a900200880000040a0004c
:1048a8000050a000200888000021ef00e030200020
:1048b800100888008460a9009460a8000080fa00ad
:1048c800000006000000fa001fe1a9001e21a9004f
:1048d8001e61a9001ec1a900f00880000040a000c8
:1048e8000050a000f00888001421ef00b0612000fb
:1048f800d00888008760a9009760a8000080fa00a7
:10490800000006000000fa0021e1a9002021a9000a
:1049180020c1a900000980000040a0000050a000ac
:10492800000988001421ef0080a12700d008880022
:104938008780a9009780a8000080fa000000060080
:104948000000fa0013e1a90011e1a9001061a80014
:104958001021a90010c1a900800880000040a00013
:104968000050a000800888000a21ef000621ef000f
:104978002000200070088800c027260060088800f2
:104988008500a9009500a8000080fa000000060034
:104998000000fa00413a800000fc2f00008060000f
:1049a800403a8800103a80000080a1000090a100e1
:1049b80000a0a100103a88004207a80000000000eb
:1049c800103a8000610060000000e000fcff3a003f
:1049d80060092000303a8800203a80000060a10079
:1049e8000070a100203a8800213a800000fe2f00c4
:1049f800008060005000b300203a8800203a800010
:104a080000c0a10000d0a10000e0a100203a880069
:104a1800103a80000080a0000090a10000a0a10032
:104a2800103a88004207a80000000000103a8000f1
:104a3800610060000000e000fcff3a000000000098
:104a4800113a800000022000008060000000e000b1
:104a5800fbff32000080fa00000006000000fa00a8
:104a68002135800000fe2f0000806000e000b300c8
:104a78002035880061368000f00f2e0080806000ad
:104a88000030200001007000603688003135800059
:104a980000fe2f00008060009000b30030358800d1
:104aa8004136800000fe2f00008060005000b300f7
:104ab80040368800e134800000fe2f00008060004e
:104ac8004001b300e0348800e1348000f00f2e008c
:104ad800808060000050210001007000e0348800f0
:104ae80001348000f00f2e0080806000001021004b
:104af800010070000034880000482800e10120000f
:104b0800790807000080fa00000006000000fa009b
:104b180021e3a9002c03a8002c23a8002c43a800fb
:104b28002c63a8002c83a8002ca3a8002cc3a800e1
:104b38002ce3a8002d03a800c801a900c881a9007a
:104b4800c821a900c8a1a900c841a900c8c1a900d5
:104b5800c002a9006040a9006840a900c022a900bd
:104b68006060a9006860a900c042a800c062a900ee
:104b780063a0a9006ba0a900c082a9006000a900d9
:104b88006800a900c0e2a900c102a900c122a900c9
:104b9800c142a900c802a9006080a9006880a900d4
:104ba800c822a90060a0a90068a0a900c842a9005d
:104bb80060c0a90068c0a900c862a90060e0a90097
:104bc80068e0a900c882a9006020a9006820a9009f
:104bd800c8a2a9006360a9006b60a900c8c2a800a8
:104be8006300a9006b00a900c8e2a80062e0a90060
:104bf8006ae0a900c902a90062c0a9006ac0a900a8
:104c0800c922a80062a0a9006aa0a900c942a900f7
:104c18006200a9006a00a900c962a90061e0a900b0
:104c280069e0a900c982a90061c0a90069c0a900fa
:104c3800c9a2a90061a0a90069a0a900c9c2a800c9
:104c48006180a9006980a900c9e2a9006160a90082
:104c58006960a900d002a9006100a9006900a90043
:104c6800d022a8006120a9006920a900d042a9008b
:104c78006140a9006940a900d062a9006380a90029
:104c88006b80a900d082a8006320a9006b20a9002e
:104c9800d0a2a8006340a9006b40a900d0c2a90017
:104ca8006240a9006a40a900d0e2a8006220a900d9
:104cb8006a20a900d102a8006280a9006a80a90020
:104cc800d122a8006260a9006a60a900c402a900f4
:104cd800c422a900c462a900c482a900c4e2a90030
:104ce800c502a900c522a900c542a900cc02a90095
:104cf800cc22a900cc42a900cc62a900cc82a90090
:104d0800cca2a900ccc2a900cce2a900cd02a9007e
:104d1800cd22a900cd42a900cd62a900cd82a9006b
:104d2800cda2a900cdc2a900cde2a900d402a90054
:104d3800d422a900d442a900d462a900d482a9002f
:104d4800d4a2a900d4c2a900d4e2a900d502a9001e
:104d5800d522a9000080fa00000006000000fa0031
:104d680083e0a9008200a9008220a9008240a9004e
:104d780085c0a90085a0a9008580a9008560a90033
:104d88008540a9008520a9008500a90084e0a90024
:104d980084c0a90084a0a9008480a9008460a90017
:104da8008440a9008420a9008400a90087e0a90004
:104db80087c0a90087a0a9008780a9008760a900eb
:104dc8008740a9008720a9008700a90086e0a900dc
:104dd80086c0a9008680a9008660a9008640a9002f
:104de8008620a9008600a90089c0a90089a0a90079
:104df8008880a9008860a9008840a9008820a900a7
:104e08008800a9008be0a9008bc0a9008ba0a9008d
:104e18008b40a9008b20a9008de0a9008dc0a900b6
:104e28008d60a9008d40a9008d20a9008cc0a90023
:104e38008ca0a9008c80a9008c60a9008c40a900d6
:104e48008c20a9002005800000c0a00000d0a1008f
:104e580000e0a00020058800200580000080a10057
:104e68000090a10000a0a100200588002005800076
:104e78000040a1000050a1000060a10020058800aa
:104e8800200580000000a1000010a1000020a10062
:104e9800200588003005800000c0a10000d0a100d6
:104ea80000e0a10030058800300580000080a100e6
:104eb8000090a10000a0a100300588003005800006
:104ec8000040a1000050a1000060a100300588004a
:104ed800300580000000a1000010a1000020a10002
:104ee800300588004005800000c0a10000d0a10066
:104ef80000e0a10040058800400580000080a10076
:104f08000090a10000a0a100400588004005800095
:104f18000040a1000050a1000060a10040058800e9
:104f2800400580000000a1000010a1000020a100a1
:104f380040058800500580000080a1000090a10075
:104f480000a0a10050058800500580000040a10085
:104f58000050a1000060a1005005880050058000a5
:104f68000000a1000010a1000020a1005005880049
:104f78006005800000c0a10000d0a10000e0a100f1
:104f880060058800600580000040a1000050a10075
:104f98000060a10060058800600580000000a10095
:104fa8000010a1000020a1006005880070058000a5
:104fb80000c0a10000d0a10000e0a1007005880099
:104fc800700580000080a1000090a10000a0a10051
:104fd80070058800700580000000a1000010a00086
:104fe8000020a000700588008005800000c0a10096
:104ff80000d0a10000e0a1008005880080058000a5
:105008000080a1000090a10000a0a10080058800f8
:10501800800580000040a1000050a1000060a100b0
:1050280080058800800580000000a1000010a10014
:105038000020a100800588009005800000c0a10024
:1050480000d0a10000e0a100900588009005800034
:105058000080a1000090a10000a0a1009005880098
:10506800900580000040a1000050a1000060a10050
:1050780090058800900580000000a0000010a100a5
:105088000020a10090058800a005800000c0a100b4
:1050980000d0a10000e0a100a0058800a0058000c4
:1050a8000080a1000090a10000a0a100a005880038
:1050b800a00580000040a1000050a1000060a100f0
:1050c800a0058800a00580000000a1000010a10034
:1050d8000020a100a0058800b00580000000a10004
:1050e8000010a1000020a100b0058800d0058000b4
:1050f8000080a1000090a10000a0a100d0058800b8
:10510800d00580000040a1000050a1000060a1006f
:10511800d0058800000680000080a0000090a00054
:1051280000a0a00000068800000680000040a10042
:105138000050a1000060a100000688001006800051
:1051480000c0a10000d0a10000e0a1001006880066
:10515800100680000080a1000090a10000a0a1001e
:1051680010068800100680000040a1000050a10031
:105178000060a10010068800200680000080a100c1
:105188000090a10000a0a100200688002006800051
:105198000040a1000050a1000060a1002006880086
:1051a8002006800000c0a10000d0a10000e0a100fe
:1051b80020068800300680000080a1000090a10031
:1051c80000a0a10030068800300680000040a10041
:1051d8000050a1000060a100300688003006800061
:1051e8000000a1000010a1000020a10030068800e6
:1051f8004006800000c0a10000d0a10000e0a1008e
:1052080040068800400680000080a1000090a100b0
:1052180000a0a10040068800400680000040a100d0
:105228000050a1000060a1004006880050068000e0
:1052380000c0a10000d0a10000e0a1005006880035
:10524800500680000080a1000090a10000a0a100ed
:105258005006880095c0a90095a0a9009580a900ce
:105268009560a9009540a9009520a9009500a9007e
:1052780094e0a90094c0a90094a0a9009480a90072
:105288009460a8009440a9009420a9009400a90063
:1052980097e0a90097c0a90097a0a9009780a80047
:1052a8009760a9009740a9009720a9009700a90036
:1052b80096e0a90096c0a9009680a8009660a9006b
:1052c8009620a9009600a90099c0a90099a0a90054
:1052d8009880a9009860a9009840a9009820a90082
:1052e8009800a9009be0a9009bc0a9009ba0a90069
:1052f8009b40a8009b20a9009de0a9009dc0a90093
:105308009d60a9009d40a9009d20a9009cc0a900fe
:105318009ca0a9009c80a9009c60a9009c40a900b1
:105328009c20a9000080fa00000006000000fa0096
:105338000080fa00000006003a00fa00889fbe00cc
:105348008a9fbe006017980072179800031f980084
:10535800141f9800251f9800361f9800471f9800b3
:105368007e1190008e1990001e189000ae189000c3
:105378009bed0700d3000700400f9800510f9800dd
:105388001e199000ae1990003e189000ce1890009b
:1053980093ed0700cb000700600f9800710f98008d
:1053a8004e089000de08900002c22b00e3cb2400d8
:1053b800d1000700400f9800510f98006e08900028
:1053c800fe08900002c22b00e3cb2400ca000700ad
:1053d800600f9800710f98004e0a9000de0a900046
:1053e8006e089000fe0890000001be000400be0098
:1053f800c2ee07000001be000000200001f82300f3
:1054080077ed07000004be004e0a9000de0a900007
:105418006e089000fe0890000001be000400be0067
:1054280070ed07000001be000800be00caed0700cd
:1054380000179800111798000e1090009e10900009
:1054480002c22b00e3cb2400ab0007000017980032
:10545800111798004e089000de0890006011b800ff
:10546800a6ee070002002c00435024005ded070063
:10547800008fbe004e089000de08900002002c004d
:10548800435024009dee07000001be006000b800f4
:1054980053ed070020079800310798006e08900028
:1054a800fe089000020024003354240093ee070005
:1054b80002002c00434824004aed070040079800ea
:1054c800510798006e089000fe08900002002c001a
:1054d8004348240089ee07000200240033542400c6
:1054e8003fed070060079800710798000e109000c4
:1054f8009e1090000200240033542c007fee070019
:10550800020022007354240036ed0700000f9800b3
:10551800110f98000e1090009e10900002002c00b1
:105528004348240075ee0700020024003354240089
:105538002bed0700200f9800310f98000e109000f7
:105548009e10900002ee2700a3ac2c006bee070023
:1055580002d22a0093a0240022ed070040179800e9
:10556800511798001e02be004e009000de00900009
:105578000001be000400be0019ed07000004be00d3
:105588006e029000fe0290002e089000be08900067
:105598000001be000400be0011ed07000001be00be
:1055a8000800be0055ee07000004be004e02900041
