:020000040000fa
:080000000002040000000000f2
:020000040000fa
:040008009e04000052
:020000040000fa
:04000c009e0400004e
:020000040000fa
:040010009e0400004a
:020000040000fa
:040014009e04000046
:020000040000fa
:040018009e04000042
:020000040000fa
:04001c009e0400003e
:020000040000fa
:040020009e0400003a
:020000040000fa
:040024009e04000036
:020000040000fa
:040028009e04000032
:020000040000fa
:04002c009e0400002e
:020000040000fa
:040030009e0400002a
:020000040000fa
:04003400d4020000f2
:020000040000fa
:040038009e04000022
:020000040000fa
:04003c009e0400001e
:020000040000fa
:040040009e0400001a
:020000040000fa
:040044009e04000016
:020000040000fa
:04004800f4020000be
:020000040000fa
:04004c009e0400000e
:020000040000fa
:040050009e0400000a
:020000040000fa
:040054004a0400005a
:020000040000fa
:040058009e04000002
:020000040000fa
:04005c009e040000fe
:020000040000fa
:040060009e040000fa
:020000040000fa
:040064009e040000f6
:020000040000fa
:040068009e040000f2
:020000040000fa
:04006c00800400000c
:020000040000fa
:040070009e040000ea
:020000040000fa
:040074009e040000e6
:020000040000fa
:04007800060400007a
:020000040000fa
:04007c009e040000de
:020000040000fa
:040080009e040000da
:020000040000fa
:040084009e040000d6
:020000040000fa
:040088009e040000d2
:020000040000fa
:04008c009e040000ce
:020000040000fa
:040090009e040000ca
:020000040000fa
:04009400fc0200006a
:020000040000fa
:040098003c03000025
:020000040000fa
:04009c009e040000be
:020000040000fa
:0400a0006c040000ec
:020000040000fa
:0400a40078040000dc
:020000040000fa
:0400a8009e040000b2
:020000040000fa
:0400ac009e040000ae
:020000040000fa
:0400b0009e040000aa
:020000040000fa
:0400b4009e040000a6
:020000040000fa
:0400b8009e040000a2
:020000040000fa
:0400bc009e0400009e
:020000040000fa
:0400c0009e0400009a
:020000040000fa
:0400c4009e04000096
:020000040000fa
:0400c8009e04000092
:020000040000fa
:0400cc009e0400008e
:020000040000fa
:0400d0009e0400008a
:020000040000fa
:0400d4009e04000086
:020000040000fa
:0400d8009e04000082
:020000040000fa
:0400dc009e0400007e
:020000040000fa
:0400e0009e0400007a
:020000040000fa
:0400e4009e04000076
:020000040000fa
:0400e8009e04000072
:020000040000fa
:0400ec009e0400006e
:020000040000fa
:0400f0009e0400006a
:020000040000fa
:0400f4009e04000066
:020000040000fa
:0400f8009e04000062
:020000040000fa
:0400fc009e0400005e
:020000040000fa
:040100009e04000059
:020000040000fa
:040104009e04000055
:020000040000fa
:040108009e04000051
:020000040000fa
:04010c009e0400004d
:020000040000fa
:04011000c603000022
:020000040000fa
:040114009e04000045
:020000040000fa
:040118009e04000041
:020000040000fa
:04011c009e0400003d
:020000040000fa
:040120009e04000039
:020000040000fa
:040124009e04000035
:020000040000fa
:040128009e04000031
:020000040000fa
:04012c009e0400002d
:020000040000fa
:040130009e04000029
:020000040000fa
:040134009e04000025
:020000040000fa
:040138009e04000021
:020000040000fa
:04013c009e0400001d
:020000040000fa
:040140009e04000019
:020000040000fa
:040144009e04000015
:020000040000fa
:040148009e04000011
:020000040000fa
:04014c009e0400000d
:020000040000fa
:040150009e04000009
:020000040000fa
:040154009e04000005
:020000040000fa
:040158009e04000001
:020000040000fa
:04015c009e040000fd
:020000040000fa
:040160009e040000f9
:020000040000fa
:040164009e040000f5
:020000040000fa
:040208009e04000050
:020000040000fa
:04020c009e0400004c
:020000040000fa
:040210009e04000048
:020000040000fa
:040214009e04000044
:020000040000fa
:040218009e04000040
:020000040000fa
:04021c009e0400003c
:020000040000fa
:040220009e04000038
:020000040000fa
:040224009e04000034
:020000040000fa
:040228009e04000030
:020000040000fa
:04022c009e0400002c
:020000040000fa
:040230009e04000028
:020000040000fa
:040234009e04000024
:020000040000fa
:040238009e04000020
:020000040000fa
:04023c009e0400001c
:020000040000fa
:040240009e04000018
:020000040000fa
:040244009e04000014
:020000040000fa
:040248009e04000010
:020000040000fa
:04024c009e0400000c
:020000040000fa
:040250009e04000008
:020000040000fa
:040254009e04000004
:020000040000fa
:040258009e04000000
:020000040000fa
:04025c009e040000fc
:020000040000fa
:040260009e040000f8
:020000040000fa
:040264009e040000f4
:020000040000fa
:040268009e040000f0
:020000040000fa
:04026c009e040000ec
:020000040000fa
:040270009e040000e8
:020000040000fa
:040274009e040000e4
:020000040000fa
:040278009e040000e0
:020000040000fa
:04027c009e040000dc
:020000040000fa
:040280009e040000d8
:020000040000fa
:040284009e040000d4
:020000040000fa
:040288009e040000d0
:020000040000fa
:04028c009e040000cc
:020000040000fa
:040290009e040000c8
:020000040000fa
:040294009e040000c4
:020000040000fa
:040298009e040000c0
:020000040000fa
:04029c009e040000bc
:020000040000fa
:0402a0009e040000b8
:020000040000fa
:0402a4009e040000b4
:020000040000fa
:0402a8009e040000b0
:020000040000fa
:0402ac009e040000ac
:020000040000fa
:0402b0009e040000a8
:020000040000fa
:0402b4009e040000a4
:020000040000fa
:0402b8009e040000a0
:020000040000fa
:0402bc009e0400009c
:020000040000fa
:0402c0009e04000098
:020000040000fa
:0402c4009e04000094
:020000040000fa
:0402c8009e04000090
:020000040000fa
:0402cc009e0400008c
:020000040000fa
:0402d0009e04000088
:020000040000fa
:0402d4009e04000084
:020000040000fa
:0402d8009e04000080
:020000040000fa
:0402dc009e0400007c
:020000040000fa
:0402e0009e04000078
:020000040000fa
:0402e4009e04000074
:020000040000fa
:0402e8009e04000070
:020000040000fa
:0402ec009e0400006c
:020000040000fa
:0402f0009e04000068
:020000040000fa
:0402f4009e04000064
:020000040000fa
:0402f8009e04000060
:020000040000fa
:0402fc009e0400005c
:020000040000fa
:040300009e04000057
:020000040000fa
:040304009e04000053
:020000040000fa
:040308009e0400004f
:020000040000fa
:04030c009e0400004b
:020000040000fa
:040310009e04000047
:020000040000fa
:040314009e04000043
:020000040000fa
:040318009e0400003f
:020000040000fa
:04031c009e0400003b
:020000040000fa
:040320009e04000037
:020000040000fa
:040324009e04000033
:020000040000fa
:040328009e0400002f
:020000040000fa
:04032c009e0400002b
:020000040000fa
:040330009e04000027
:020000040000fa
:040334009e04000023
:020000040000fa
:040338009e0400001f
:020000040000fa
:04033c009e0400001b
:020000040000fa
:040340009e04000017
:020000040000fa
:040344009e04000013
:020000040000fa
:040348009e0400000f
:020000040000fa
:04034c009e0400000b
:020000040000fa
:040350009e04000007
:020000040000fa
:040354009e04000003
:020000040000fa
:040358009e040000ff
:020000040000fa
:04035c009e040000fb
:020000040000fa
:040360009e040000f7
:020000040000fa
:040364009e040000f3
:020000040000fa
:100400000f9820000e7f24000e01880000000000dd
:10041000000020000000e000020032000001200087
:100420002002880014000700a60107000000e00079
:1004300003003a00002c24000100200002003700d5
:100440000000200001002000810f70000100320038
:1004500014000700000020000000e000020032004d
:1004600000000200000000005c45020000000000e7
:100470000040da000000fe004440a90060a7200010
:100480000000e0000300320000002000a00188000e
:100490004440a800000006008a1f78008b1f7800e7
:1004a0000000060091018800800478000000eb0045
:1004b0001a003700e284440032a0b4009905ba0063
:1004c000e284440032a0b4009906ba00e2844400f9
:1004d00032a0b4000006eb00476fde00fd07b2005b
:1004e000636ce10003003a00ebff07000000eb0043
:1004f0000a003700606ce10004003a00005deb0088
:100500008b05e900fdff3e00040037006168e10053
:10051000010032000086eb000b00070019c7ba008b
:100520001905ba000e04e00003003a000a00e000da
:10053000e0ff3a0000000600fe07b2009e018800be
:100540008a047800f5ff3700395dba008b05e900b1
:100550000c003200295dba008b05e900080032006a
:100560000c00e00003003a00e284440032a0b40032
:10057000f5ff370019ddba008b05e900faff3a00f4
:100580008904e800e184440032a0b40000000600c1
:10059000f80c0400000000008816040000000000b1
:1005a00000000400000000003600f800809fbe003c
:1005b000829fbe00849fbe00869fbe000000fa009e
:1005c0008460a900d81f07007e1f07000080fa0082
:1005d0004f03be004f02be004f01be004f00be00e1
:1005e0003600f900004006000000fa008500a9006e
:1005f0000080fa0000400600809fbe000000fa0064
:100600008760a90080812000604090000004e00025
:100610001600320080812000704090006a40500037
:100620008040780080812000714098008081200007
:10063000704090000004e0000c003c00808120002d
:100640008040eb0061409800808120008040eb00fa
:100650007140980080812000a000900000002900d7
:100660008100700080812000210098000080fa0045
:100670004f00be00004006003600f800809fbe001c
:10068000829fbe00849fbe00869fbe000000fa00cd
:1006900021e1a900e0458000f1458000bd0107008f
:1006a000000078008000780010c0b300201a070016
:1006b00091c0b30010c0b300eb15070020468000c6
:1006c00031468000b3010700000078008000780008
:1006d00010c0b300161a070091c0b30010c0b300d9
:1006e000e11507004046800051468000a90107003f
:1006f000000078008000780010c0b3000c1a0700da
:1007000091c0b30010c0b300d71507006046800049
:10071000714680009f01070000007800800078008b
:1007200010c0b300021a070091c0b30010c0b3009c
:10073000cd150700804080009140800095010700a2
:10074000000078008000780010c0b300f81907009e
:10075000a1c0b30010c0b300c3150700d1c0b300df
:1007600010c0b300c01507008780a90021e1a800d0
:100770000080fa004f03be004f02be004f01be00d2
:100780004f00be003600f90000400600809fbe000a
:100790000000fa008b40a900010f800000802000bb
:1007a000008060000000e0000400320000c8bf00cc
:1007b0000040e80000e8b7000300370000c8bf00b1
:1007c0000040e90000e8b7003092200010407800b7
:1007d0000004e000070032002092200011c0b300a6
:1007e00001487800309220008040eb0001487800fa
:1007f00003003700209220008040eb000148780081
:100800000080fa004f00be0000400600809fbe003e
:10081000829fbe000000fa00209220001040780065
:100820000004e000160032008093200010407800a1
:10083000e24f50000d003e008093200010407800f1
:100840008080fb00220f8000e88040008181400012
:100850002192200081804100820878008040e800d9
:100860008093200001487800050037008093200025
:10087000104078008040e800809320000148780014
:100880008680a9000080fa004f01be004f00be0024
:1008900000400600801f78000200fa009560a90061
:1008a0008560a90030118000004f780022c8bf0089
:1008b0000004e00003003a0010c0b30022e8b700d3
:1008c000010037002268ef009560a8000080fa0060
:1008d0004f007800004006000000fa0097c0a90011
:1008e00087c0a90097c0a8000080fa000040060059
:1008f0000000fa0087e0a9000080fa00004006002e
:100900003600f800809fbe00829fbe00849fbe001c
:10091000869fbe000000fa00360f07008620a9005f
:100920000080fa004f03be004f02be004f01be0020
:100930004f00be003600f900004006000040da001b
:100940000000fe000a00fa0011002000b1bf9f0065
:10095000c0bf9f006a805700dc0907004fb89700ae
:100960000080fa00000006000a00fa00e20f5000c2
:100970001f003e00e04b8000e10f500006003200f7
:10098000802320004523200023232000042320006f
:100990000000e00004003a008022200045222000f0
:1009a0002322200004222000060028009403630074
:1009b00002003a0007087800140a730013a8a30085
:1009c00001003a0013a0a0000200780005003700e3
:1009d0001388a300feff32003102fb00840a780076
:1009e0000000e9000000e000f9ff3a0008003700cd
:1009f00033002000b3bf9f00c0bf9f00d1bf9f0046
:100a0000e2bf9f006a805700b20907006fb99700e4
:100a1000020078000080fa00000006000a00fa00d8
:100a200051002000b1bf9f00c0bf9f006a805700e7
:100a3000aa0907005fb897000080fa0000000600ce
:100a4000889fbe0080047800f04b80000000e0002a
:100a500004003a000e0007000084eb000000e000f4
:100a600008003500f84b80000900e0000500320066
:100a700009004400060007000000e00001003d00fe
:100a80000084eb00080078004f04be000000060060
:100a9000800078000100e00003003a000000200020
:100aa000f04b8800000005000080eb0002002000f1
:100ab000828f500002003e00f14b88000000eb00e6
:100ac000000006000000050003f0a200889fbe00a1
:100ad0008a9fbe008c1f78002a0107003101330075
:100ae0006450e1004f0032006420e1005200320007
:100af00003826c0007003b000905d0000306d0000c
:100b0000820f54000c065d00020039000200320022
:100b100089017800030678008582550004003d00b5
:100b20000003fd008103fd008502ea008b85420081
:100b3000840f720002003b0060001000e08018008b
:100b40006011b8000005eb007a28e1000a003900c6
:100b500006007800c75ddd00f707b20087807500ea
:100b60002d003700828171000a0178006105600064
:100b70008180d1000080d3008502e900f9ff3b00ad
:100b8000060440008784480002003b006004140013
:100b9000e0841c000988a300070032008a817100ec
:100ba00082817100610164008904d1000884d3004e
:100bb0008b05e800170037000978a30013003a00fe
:100bc0000b00e000130034008b05e900080444002a
:100bd00089844c000a4474000978a3000d003a008f
:100be0000b00e000070034008b05e9000804440016
:100bf00089844c0001003a000b0020000978a30012
:100c0000f7ff32000001eb00020037008281710023
:100c10000a017800a00007000cf0a70001f0a00076
:100c2000e90037006420e10002003a00838f6c0085
:100c3000e90033000801be000200be00e2003700f8
:100c4000889fbe008a9fbe008c1f7800cd000700e1
:100c5000d400330003866c006450e1002e003200a3
:100c60006420e100330032006150e1002f003200c7
:100c70006120e1003100320085855500eb07b000ae
:100c80000900200008042000050037000804440083
:100c900089844c000a0031000603430087834b001f
:100ca0000001530081815b00f8ff33000203be00a6
:100cb0000800a0000804440089844c00f6ff3900b5
:100cc000c639dd00830173000100320013002000eb
:100cd0008904d1000884d3000998a30005003200dc
:100ce0000800a7000300a0008904d1000884d300f5
:100cf0008b05e8008904d1000884d3000001eb00d3
:100d00000281d2006400070001f0a1000cf0a700ee
:100d100001f0a000ac0037006420e100ae0032001a
:100d20000801be000200be00f7ff37006120e100ad
:100d3000a90032006000b800f3ff37000000200077
:100d400001f82700f0ff3700839f68000100e000f2
:100d500002003d0060001000e08018000300e00089
:100d600002003d0060011100e081190063010700ed
:100d70004f00e00002003b0060001000e08018001f
:100d800000000600140020006e023700f4ff2f0060
:100d90006c0237000001be00650007000470a70068
:100da00003f0a1006509b100160032000d00350006
:100db0006828e10006003500f0ff2f00f1ff270052
:100dc0000300e00013003b000100280000000500c4
:100dd00000004000818048008502e900fcff3a00e5
:100de00008003700f88f420002003c008000eb0052
:100df000000005008100d1000080d3008502e800da
:100e0000fcff3a000300e00002003b00600010001d
:100e1000e0801800000006000001be00440007004a
:100e20000470a70003f0a10003f8a30013003a0028
:100e30006509b10010003200090035006928e100a1
:100e400002003500010028000000050000004000fd
:100e5000818048008502e900fcff3a00000006009e
:100e6000f88f4200050035008100d1000080d300da
:100e70008502e800fcff3a00000006008000eb005d
:100e8000000005004f89de0082017800480237002b
:100e90006011b800560237008100200061805500c3
:100ea0000b003d000b00200061fe2f000100e1005f
:100eb0001d00340082817100610164008904d10049
:100ec0000884d3000000e800faff3a007100200017
:100ed000610064000300700002006000090032003d
:100ee00061044400e0844c000988a500050032003c
:100ef0008b05e8006808e10002003a008904d1008f
:100f00000884d300f20f20000258e10005003d00e4
:100f1000c75ddd00f907b200898075000800780020
:100f2000000006000bf827008b0078000000050089
:100f3000c70ade00f107b200f50fb2000800320068
:100f4000e1cf4200020032000170a0002400050041
:100f5000810f700001003200040805004400050004
:100f6000810f700002003a00140005008502e900bc
:100f70000000400081c04800fcff3b000170a00061
:100f8000240005000004be00e9ff07000003be00c6
:100f90000405be000200be00e5ff0700844f750097
:100fa000000006000200be006450e10005003600ab
:100fb0006420e100020036000968a30001003a0045
:100fc0000800be000160a0004f0678004f05be007b
:100fd0004f04be0000000600f0ff2f00f1ff2700c5
:100fe000f9ff3700889fbe008a9fbe008c1f7800e3
:100ff000e4ff0700ebff330003866c006450e10060
:10100000240032006420e100270032006150e1003a
:10101000220032006120e100210032008b85420075
:10102000eb07b1000134b800003ab80008044200f0
:1010300089844a00013ab8000030b8008880400036
:1010400009014a000400330000004000818048008c
:10105000020149008b05e900c909dd008301700028
:101060000100320013002000c814de004814dd0027
:101070004709de001200b200c808de0008847000d4
:1010800085ff070001f0a1000cf0a70001f0a0000f
:10109000cdff37006120e100cfff32000801be0024
:1010a0000200be00f7ff37006150e100fcff3a008c
:1010b000c9ff3700889fbe008a9fbe008c1f780042
:1010c0000004be009aff07000478a30026003a003f
:1010d0006120e1002500320009f8a30025003a0054
:1010e0006420e10021003200f507b1000508a300eb
:1010f0000200320000004000818048006044b800d7
:101100000310200002002000000040008180480001
:101110000805440089854c000a0541008b8549007b
:101120000a0550008b855800030033000a00be00fa
:1011300002047400838474008301d1000281d3000f
:10114000830f7100f0ff3a008904d1000884d300b6
:101150006001490082017800c1adde00fb07b000ec
:101160004dff070098ff37000960a0000800be008f
:1011700095ff37001202200032418800f0ff2f0057
:10118000f1ff270090ff3700889fbe008a9fbe00b6
:101190000004be0066ff07000800be006420e100f6
:1011a0000700390002003a00f1ff2700f0ff2f008e
:1011b0000160a00012022000324188004c0037007c
:1011c00001f0a10002802000935c2400edfe0700e6
:1011d0000800be0004003500b2fd20009304240086
:1011e000b20107000004be0032982f0023f2230052
:1011f0007cff07000200200003f0230001f0a7009d
:1012000003f0a00031fe0700e2fe0700801f780017
:101210001cff070001f0a2000005be000200200034
:1012200093fc23006fff07000801be0027fe0700a4
:10123000809fbe000a00be0022a22a00d39f230086
:1012400068ff07004f01be0020fe07000004be003b
:1012500001f0a1000200200003982300cbfe07004c
:1012600003003d000000200001f8230018003700b3
:101270000800be000001be005aff07000005be00c6
:10128000823b230043dc2b0056ff07000801be0011
:1012900054ff07000801be000cfe07000004be005a
:1012a0000a00be0052372300f3c123004dff0700a0
:1012b000f27a2b00b3ed2b0004fe07000a01be00fa
:1012c00048ff07000200200003f82300fffd07008d
:1012d0004f00a600030037000801be0003f0a20083
:1012e000020037000001be000800be0054fe0700e7
:1012f0004f05be004f04be00000006006022b8008b
:10130000060220000000d0008180d2000482d200ba
:101310008582d2000000a0000202520083825a009f
:10132000030031000202420083824a000000a10053
:101330000603e900f3ff3a0000000600889fbe00a4
:101340008a9fbe0030044200b0844a0030054b0042
:1013500090854b006000b1000898be000a90be0066
:101360000440e10005c8e10006d0e10007d8e10033
:1013700002003100680040001008e8004f05be0080
:101380004f04be0000000600889fbe008a9fbe007a
:101390003004be002005be000418540005985c000f
:1013a00006185d0007985d00110020000440e10070
:1013b00005c8e10006d0e10007d8e10001003900ce
:1013c0008000eb00108810004f05be004f04be00e7
:1013d000000006001200fa00889fbe008a9fbe002f
:1013e0008c9fbe00e0b79f00f1b79f0082bf9f00b7
:1013f00093bf9f000605be000404be000000eb0082
:10140000d0b79f00c0b79f00b0b79f00a0b79f00a4
:1014100090b79f000006eb005fb19700cfb0970038
:10142000820141003fb097000200e00004003d004f
:10143000370007007e805700c0ff07000300370019
:10144000330007007e805700cfff0700dfb697000c
:101450000d00e0000c0035006fb29700ffb297005e
:101460000fbb97009fbb97001000200001002000d9
:101470006011b800000272008182720002037300e2
:10148000838373001b0007000c06e80001042000a2
:10149000810f5600e0ff3a000d00e00004003d001f
:1014a0000802be000a03be007e805700a3ff0700ab
:1014b0005fa897000000e00005003a001fb2970007
:1014c000afb297003fb39700cfb397000900070072
:1014d0006fb09700ffb097000fb997009fb99700c2
:1014e0004f06be004f05be004f04be000080fa004c
:1014f000000006000100070000000600a4b79f00de
:10150000b5b79f00c6b79f00d7b79f000000060081
:101510004f09de0082817100b3b79f004f01de00ea
:101520008180400082807000a1b79f008fb097003b
:101530004f09de00000040000200700090b79f00dd
:101540007fa897004f01de008180400082807000fc
:1015500081b79f000d0007004f3ade0000004000f9
:1015600004007000f0af9f00080007000402420072
:1015700085824a0006034b0087834b00dfff07008c
:101580000802be000a03be00000006002fb297004a
:10159000bfb297004fb39700dfb39700000006007b
:1015a000881f780018002000881f780089ff070036
:1015b0008f87e9004f04780000000600801feb00d1
:1015c00084ff07008f87e90000000600889fbe00a7
:1015d0008a9fbe00e00f5000e08f5800e00f5900d6
:1015e000e08f59000c003d006044b8006055b80021
:1015f0000000540081805c0002015d0083815d0079
:10160000180020001500070008003d001800070022
:101610000004eb00050037000004eb000f0007009a
:1016200002003d001200070018002000dcff070048
:101630000800e000060032006022b8006033b80005
:101640000000520081805a0002015b0083815b0030
:101650004f05be004f04be0000000600e00f520020
:10166000e08f5a00e00f5b00e08f5b000000060097
:101670006044b8006055b8000402540085825c00e4
:1016800006035d0087835d0000000600889fbe00a2
:101690008a9fbe008c1f7800e00f5000e08f58003a
:1016a000e00f5900e08f59000d003d006044b80084
:1016b0006055b8000000540081805c0002015d00ac
:1016c00083815d001c0020000820e10009a8e100e2
:1016d0000ab0e1000bb8e1000d003d000800370042
:1016e0000006eb00e00f5200e08f5a00e00f5b00b5
:1016f000e08f5b0006003d006044b8006055b80014
:101700000402540085825c0006035d0087835d004f
:10171000aaff07000c00e000060032006022b800bb
:101720006033b8000000520081805a0002015b0063
:1017300083815b004f0678004f05be004f04be005a
:1017400000000600889fbe008a9fbe00841f7800ac
:101750000cfe07004f00780011003300f0ff2f004f
:10176000838f6c0006003b00040565000a00a7009b
:101770000800370009f0a60010002000080037001c
:10178000820f5400838f5c0003003900100020009a
:1017900001003e000000200009f0a7000000ea0060
:1017a0004f05be004f04be000000e0000000060030
:1017b000881f7800030478000300e00007003d0064
:1017c00060001000e080180060011900e08119003d
:1017d00002003b0001f02d00030037000400070069
:1017e00008f0a70001f0a0004f04780000000600f8
:1017f000889fbe008a9fbe000082700004027100b4
:1018000004827100260032000004be000200be0007
:101810006011b8006b092000950220000182cf0002
:101820000a0039000541b1000082cf0007003900ed
:101830000541b1000982cf00040039000541b10023
:101840000882cf00010039000541b1000542520075
:10185000120032000a003b008281710061016400c5
:101860008100d1000080d3008984d3000884d30094
:101870008b05e8000442e800f7ff3a000700370054
:101880000804440089844c0000004800818048001e
:101890008b05e9000442e900f9ff3a007efd0700ec
:1018a0004f05be004f04be000000060004002000eb
:1018b00000003700889fbe008a9fbe008c1f780002
:1018c0004f26dd00affd0700b6fd33006120e100cb
:1018d000430032006250e10041003e003e0039000a
:1018e0006420e1003c003200058255000f003b00ff
:1018f0000402e80038003a00800f5300818f5b003b
:10190000350034000800be0003f0a10001f0a6007d
:1019100003f0a0000cf0a7006cfc0700aafd370044
:101920000603430087834b000c4646000005530026
:1019300081855b00020033000a03be000c00a0009a
:101940000402e900f6ff3b0085057800060243002b
:1019500087824b0004003a006000b80009f0a7003d
:1019600001f0a00098fd37000002520081825a0069
:101970000704e000040033000603430087834b00a4
:101980008b05e900faff3700090578000604be0060
:101990000203be006011b8003ffd0700e00f5200d7
:1019a000e08f5a000700350002003c000c08a3003d
:1019b000040032000601be0003f0a0000cf0a700f6
:1019c00042fc07000a85680001f0a1000af0a700a8
:1019d00001f0a0007cfd37000800be007afd370052
:1019e000100220000cf0a600304188007afd37007c
:1019f000889fbe000004780001007800820478000f
:101a0000880178000901780011002000c801070052
:101a1000890f5000010032000004eb00080078003c
:101a20004f04be00000006000000fa00e8815700e5
:101a30004fb997000185200080cf200002000700e9
:101a40000080fa00000006006200fa00889fbe00d5
:101a50008a1f78000005780081047800020478006d
:101a60008300780080f92f000f0040005304070026
:101a70009a979f00a9979f000000eb00b09f9f00de
:101a80001885fb008a04fb000a05ea004f55de00ba
:101a900050022000808f54000d003200e10f5500ed
:101aa0000b003a000a017800880078002f90970018
:101ab0009f91970003000100a0979f000000e000a5
:101ac0008e0032003f9897000000e800b09f9f0012
:101ad0000a04440050022000808f540004003200a9
:101ae0000900e000e6ff3a003f98970084003700c5
:101af0000000eb00909f9f00809f9f00f0979f0049
:101b0000e0979f00d0979f00c0979f000700370085
:101b1000619520000100500000004000a1942000c9
:101b200061007800df98970001007000d09f9f004f
:101b30008804780009047800384578008a00fb00a2
:101b400060952000df0107000000e000f0ff3a0090
:101b5000a1c2b300814f55000e003a00cf88970014
:101b60000180e900c08f9f0010007800c09f9f0097
:101b70000000e00005003d000000ea00c09f9f005b
:101b80005f9897000020a000d09f9f000904e80004
:101b90000f003700c09f9f000000eb0005003700da
:101ba000f2ff2700820f5000020032006a01b900e4
:101bb000028040000904780088047800b900fb0026
:101bc0000103b100e98f5000f5ff3600c09f9f0070
:101bd000e0c2b300984f1000020032000080eb001a
:101be00019003700a0c2b300d84f100007003a0018
:101bf000cf8897000180e900c08f9f001000780017
:101c0000a09f9f000804e800100037000000eb00d0
:101c1000a09f9f008800780005003700f3ff270091
:101c2000830f5000020032006a02b9000400410034
:101c300001047800880078003101fb000203b10044
:101c4000e90f5100f5ff3600a09f9f0098447800ef
:101c50008900fb00209420009a0107000000e000aa
:101c6000020032000804e800010037008044eb0065
:101c7000c97f9f0080c6b30080cf540004003a00a3
:101c800098cf14000a003a00664050000600370062
:101c9000c0c6b30080cf540005003a0098cf1400ae
:101ca00003003a0065404000c07f9f000804e80040
:101cb0001801fb00e3fb2f008f81410081f92f0009
:101cc0008f804000a0f92f000f0040001000070097
:101cd0000000e00009003a00e1fb2f008f80400087
:101ce000a0f92f000f004000f80207000000e000fc
:101cf000020035000804e80061ff37000080eb00b7
:101d00004f0578004f04be000080fa000000060076
:101d1000881f7800e4c6b300844f5100b60032003b
:101d200010003c006b425200844f510018003200fa
:101d300005003c0054c2b300844f5100ee00320055
:101d400084c5b3000f00370044c6b300844f510070
:101d50001400320065424200844f5100e9003a000d
:101d60001000370004c7b300844f5100d500320083
:101d70005300350065424200844f5100500032004c
:101d800063424200844f5100de003a004c003700ad
:101d90001181e90082087800f0009000124178007b
:101da000d600370020629000c5c6b300854f5200b0
:101db00007003a009102780064825200840878009b
:101dc0001402be004fabde0086037800110037001e
:101dd00015c7b300854f520003003200a5c6b300fb
:101de000854f520006003a00910278006882520046
:101df000840878005403be004402be00050037008a
:101e00001182e9008408780014027800cfa2de0075
:101e1000612bb9000498be000690be00a06090003f
:101e200088c6b30088cf50000d00320028c6b3002a
:101e300088cf500004003a000402fb00cfa2de006d
:101e4000612bb9000800370048c7b30088cf5000a5
:101e5000030032006644440088cf500004003a007a
:101e6000cfa2de00612bb9000498be000690be0030
:101e70003002be002003be00f0009000e00f5200d0
:101e8000e08f5a00e00f5b00e08f5b0002003d0036
:101e9000d4c2b30008003700001290000418a30059
:101ea00002003200b4c2b300030037000408a300ec
:101eb0004c00320004c2b30084f1780047003700c0
:101ec00020629000c5c6b300854f520006003a005c
:101ed0009102780064825200840878001402be00e7
:101ee0006033b8001100370015c7b300854f5200aa
:101ef00003003200a5c6b300854f520006003a0029
:101f00009102780068825200840878005403be0071
:101f10004402be00050037001182e9008408780001
:101f2000140278008002eb006033b8000498be0011
:101f30000690be00a060900088c6b30088cf500015
:101f40000d00320028c6b30088cf500004003a00cc
:101f50000482fb008002eb006033b8000800370009
:101f600048c7b30088cf50000300320066444400e5
:101f700088cf500004003a008002eb006033b800c4
:101f80000498be000690be00801090000138a300a7
:101f9000140032003002be002003be00e00f5200e9
:101fa000e08f5a00e00f5b00e08f5b000d00320015
:101fb00081c7b300814f51000300320081c5b300d7
:101fc000814f510007003a00f000900004c3b300b5
:101fd00084f178008100e80082f178008100e80057
:101fe00071009800f000900081814100630098002a
:101ff000824078003e003700a0619000c4c6b30064
:102000001181e90084cf5100220032000a003c0017
:102010006442520084cf51002500320004c2e8001f
:1020200084cf5100130032006842520084cf510027
:102030001e003a000a00370044c7b30084cf5100a5
:102040001b0032006642420084cf5100180032006b
:102050006942520084cf510014003a000500370055
:1020600082087800920078004058900080487800fc
:102070002c0037008208780092007800600a9000f7
:10208000cfa2de00612bb9008498be008690be000e
:1020900024003700820878009200780060099000e0
:1020a000cf91de008288be001e0037001181e9005a
:1020b000820878009200780060089000800878001c
:1020c000180037001181e9008208780012027800b8
:1020d000cfa2de00612bb9000498be000690be00be
:1020e000f0009000818141006300980081c7b30037
:1020f000c70007000b003700f000900082f1780065
:1021000006003700f0009000818141000204e000e9
:1021100001003a0052c2b300824978008100e80011
:10212000710098000000eb004f04780000000600ea
:10213000889fbe008a9fbe008c9fbe008e1f7800c5
:10214000000678000104780002007800830478001b
:102150000881b900020778000200e0004200320066
:102160000800e0004100320082057800c9009000bc
:1021700069009000808f5000040039000900780049
:102180005c0007000000e00029003500004020004e
:10219000190060000a0032000b017800a100200045
:1021a0000c00780036000700800678000d00e00083
:1021b00006003200610516000a854600040037005b
:1021c0000b0578008006eb00010037000b05780056
:1021d00049009000e9009000808050008a8f5000f4
:1021e00002003100010578008006eb000a0178004a
:1021f0008c0078002c0007008a855500490090006b
:102200000a004000c00498000d00e0000400320005
:1022100009007800ce0207000000e00004003a0048
:102220000b00e000020032000a064600cfff370034
:1022300000802000190060000200320009007800d0
:10224000c302070000c02000190060000200320035
:1022500049009000e00498008b0557001100090028
:102260008885d800010037000000eb004f07780098
:102270004f06be004f05be004f04be000000060022
:1022800003003700b0cf1000050032000201e90062
:10229000800178000200e000faff3a00000005002b
:1022a000030078000000060080017800020037007b
:1022b000b15978000201e9000200e000fcff3a0099
:1022c00000000600020037000304e00006003200b0
:1022d0000001780002007800b041780081cf510001
:1022e000f9ff3a00010037000001eb00020078001e
:1022f00000000600889fbe008a1f78000004780056
:10230000c8009000680190000000eb00828f500030
:102310003c0039001800780022002900020160000a
:10232000e20f510007003200012024000000e0000d
:1023300001003d0001202000008c70000080eb00b7
:10234000300037000200260002006000820f5000bb
:1023500009003a0038009000808f500006003900d4
:10236000080078007a020700800078000080eb0007
:102370000100e00023003a001805780000c02000aa
:102380000000650018003a00a804900060022000d8
:1023900008004000808f540013003a000020200005
:1023a00016030700200498000000e00005003a0032
:1023b00029049800490498008904e8003904980029
:1023c000080037000a60a0000a0c7800400498005a
:1023d000012020008080400031049800400c9800cb
:1023e000500c9800f9010700280090005004980054
:1023f000380090006004980000002600180c70005f
:102400000000eb004f0578004f04be0000000600fe
:10241000fc874700889fbe008a9fbe008c9fbe003d
:102420008e1f78000006780080c5b30080cf500072
:102430000a0032007740400080cf50000a0032008e
:102440006940400080cf50000b0032001091200006
:1024500080bf9f00ae0020000a00370002902000dd
:1024600082bf9f00060037001391200083bf9f00aa
:102470008e002000030037001491200084bf9f00cd
:102480000e0120003c02be002c03be000605be006b
:102490000404be0040c6b30080cf500003003200e9
:1024a0006540400080cf50000b003a00e00f520022
:1024b000e08f5a00e00f5b00e08f5b0006003d00fc
:1024c0006000b8006011b800040450008584580012
:1024d0000605590087855900e80f570004003200af
:1024e00040002000f00f570038003a00010037008c
:1024f00030002000e00f5400e08f5c00e00f5d0032
:10250000e08f5d0004003a00dc0890008d0120009f
:102510000100e000060032008e00e90088806000c3
:102520008fba9700e5c07800f1ef9f007d01200091
:10253000800078008100e900050033008b05d100a0
:102540000a85d3008984d3000884d300f9ff3700bb
:10255000089ebe000a96be00120037008d06e900f4
:102560008e00e900848060000fb99700e2c1780016
:1025700082fd2f000f01410003f17e0080007800f2
:102580008100e900050033008783d1000683d30072
:102590008582d3000482d300f9ff3700049ebe0079
:1025a0000696be003c02be002c03be00e00f5200a7
:1025b000e08f5a00e00f5b00e08f5b008b0034007f
:1025c0000d00e000e5ff3c00880037002c60900023
:1025d00081c6b300814f50000b00320006003c0062
:1025e0000004e00008003200e6c05000814f5000b7
:1025f0004e003a0004003700c1c6b300814f5000be
:102600004a003a00210037000800e00004003a00c8
:102610005c0890008d0120000000e0000600320000
:10262000110009000e84d8000fb99700e2c07800ad
:10263000f1ef9f007d012000110009000e84d800f9
:102640000a003700110009000e04d8008d06e900c9
:102650000e81b900020454008fb8970061417c00dc
:1026600081fd2f008f80400082f07e000004780002
:102670000800e000020032000d00e000f1ff3c0025
:10268000cfc4de00614db90025003700e00f5400d3
:10269000e08f5c0004003a005c0890008d0120008f
:1026a0000000e000070032006171b9000800be00c0
:1026b0008c0207008fb99700e3417800f3ef9f0089
:1026c0007d0120006171b9000800be000bfb07000e
:1026d0000b0037006171b9000800be009af90700cd
:1026e0008d06e90000f1b900020454000fba97000a
:1026f000e4427c0084fd2f000f02420005f27e00c0
:102700000004be00e00f5000e08f580002003200cd
:102710000d00e000efff3c004fcdde008a057800a1
:10272000089ebe000a96be0030003700e00f54003d
:10273000e08f5c00e00f5d00e08f5d0004003a0078
:102740005c0890008d0120000000e00009003200cc
:102750006172b900612bb9000800be000a01be0019
:1027600096fb07000fba970064427800f4ef9f00d1
:102770007d0120006172b900612bb9000800be0024
:102780000a01be0086fb07000d0037006172b90028
:10279000612bb9000800be000a01be008bfb0700d8
:1027a0008d06e90000f2b900040454008fba9700c6
:1027b00065427c0085fd2f008f82420084f27e00fe
:1027c000009ebe000296be003c04be002c05be006a
:1027d000e00f5400e08f5c00e00f5d00e08f5d00d3
:1027e000020034000d00e000e8ff3c00e80f570055
:1027f00010003a000c1090000038a3000d003200c9
:10280000f78f560006003e0085fd2f008f824200a4
:10281000e5c07e0000c3b30080cf50000500320049
:102820008d06e90002c3b30081fd2f008f804000b8
:1028300082f07e0078811600120e98006c009000e5
:1028400083fd2f008f8141008d80410096fe07009f
:102850001c089000dc089000810f500006003d002d
:1028600000805000000e98000c1090000040a10065
:10287000001698000f0037000100e0000d003d0039
:102880008c109000f4806000f08f500009003a0036
:102890007c099000fc009000810051000c09900020
:1028a00082805000008050004240a90001003400a6
:1028b000000e98004f0778004f06be004f05be007f
:1028c0004f04be00cf01b100000006000400fa0072
:1028d000889fbe008a9fbe008c1f7800000478008d
:1028e00001067800f80d9000780090008085550072
:1028f00008089000808555001808900080855500d4
:102900002808900080855500380890008085550083
:1029100048089000808555000002220090bf9f006b
:1029200000032300a0bf9f00081090000028a30010
:1029300015003a000b00e000130034000b0578008e
:102940008a047800e20f55000100360029002000bb
:10295000c801900009017800ee80570058009000ef
:1029600003000100500498000000e0008c003200d9
:102970006808900009004000600c980009055500a7
:102980004240a900eeff3c00780190000200e00008
:102990000c003400c80190008c00780058009000b2
:1029a00003000100500498008080eb000000e0006c
:1029b0007c003200e8089000780090000080400021
:1029c000600c9800880c90000900e00011003400b1
:1029d00009057800e28f5400010036002a0020002b
:1029e000c80190000a017800ec8057005800900060
:1029f00003000100500498000000e000680032006d
:102a0000680890000a004000600c98008a84540016
:102a1000edff3700180990000200e0000c003400c0
:102a2000c8019000e80090005800900003000100e9
:102a3000500498008080eb000000e0005900320054
:102a4000e80890001808900000804000600c980092
:102a5000a80c90000900e00011003400090578007e
:102a6000e28f5400010036002a002000c8019000c7
:102a70000a017800ec805700580090000300010024
:102a8000500498000000e000450032006808900003
:102a90000a004000600c98008a845400edff370063
:102aa000380990000200e0000e003400e8009000b9
:102ab0001808900080804000c801900058009000e5
:102ac00003000100500498008080eb000000e0004b
:102ad00034003200e8089000380890000080400080
:102ae000600c9800c80c90000900e0001100340050
:102af00009057800e28f5400010036002a0020000a
:102b0000c80190000a017800ec805700580090003e
:102b100003000100500498000000e0002000320093
:102b2000680890000a004000600c98008a845400f5
:102b3000edff3700081090008000eb000028a30094
:102b4000180032000b00e000160034008b047800ff
:102b500009057800e28f5400010036002a002000a9
:102b6000c80190000a017800ee80570058009000dc
:102b700003000100500498000000e000080032004b
:102b8000680890000a004000600c98008a84540095
:102b90004240a900eeff3c008000eb00010037003e
:102ba0008080eb00010078004f0678004f05be00e2
:102bb0004f04be000080fa00000006000108780003
:102bc00000000600806821009b003700881f780005
:102bd000889720001804e00003003a00f9ff07007e
:102be00020c0b300004c78004f04780000000600bd
:102bf000889fbe0000047800080078005400070099
:102c000080047800000420001800600002003200f8
:102c100028009000940007000000eb0020049800ba
:102c2000384090000004e000050035000000fb0083
:102c300044f707000000e000010032008084eb0050
:102c4000181090000000e0000800320073f7070041
:102c50000000e000010032008084eb0018109000ba
:102c6000810007000000eb0010149800000820000d
:102c700018006000150032000001eb006000b80091
:102c8000038a20000202d00063027a00880f5200fb
:102c900005003a00000040008180480000804100ab
:102ca0000008eb000600370061004000e0804800ab
:102cb0000201e800e80f5000e08f5800f0ff3a00f2
:102cc00008007800680007000e003700000c78004c
:102cd00000c0eb0030449800600220000800400073
:102ce000200498004004980050049800400c98007c
:102cf00060049800500c980070049800760044001e
:102d0000000c9800090078004f04be000000060087
:102d1000881f78000004eb006140b800e2ff2f003c
:102d2000f3ff2f00f2000700e28a20006200780023
:102d30000000e00001003200adff07000804e800d9
:102d4000e80f5400f4ff3a004f047800000006003a
:102d5000889fbe00000478000800e0000e003a00e2
:102d60008004eb008800d000008a20006100780019
:102d70000000e00004003200f5ff07000000e00062
:102d800001003d008084eb000804e800e80f5400d7
:102d9000f4ff3a0025003700000022001800600010
:102da0008004eb0021003200a80490000f003700df
:102db00009015100384090000000fb0089007800b4
:102dc000e9f607000000e00007003c002800900042
:102dd0004004980060049800500c98001890a000df
:102de0008084eb001100370080844400480190008b
:102df000828f5400eeff39002800900040049800b4
:102e00009800780002c020000281600001003a00b2
:102e10003800900001e8a30002003200600498002e
:102e200001003700500c98008004eb000900780086
:102e30004f04be0000000600010020000100e00079
:102e400008003200010080000100e00005003200af
:102e50008100e900010088008100d00002008000ac
:102e600000b17800000006000000e0002f003200f2
:102e7000c0017800e38f51002c0036000308a30046
:102e80002a003a00b14b80000100e000020032004d
:102e9000810f50000400310011009800b04b8800f1
:102ea0001600370082007800110190000200e00057
:102eb00002003200800f5100faff39001102780041
:102ec00084824000850f500018003900808f520026
:102ed00003003a0083084200010078000700370031
:102ee0000200e0000300320083014000830f510024
:102ef0000e00390012009800900098009000900099
:102f00000100e0000900320010014000828f5000f3
:102f100006003a00429720000009eb0010017800fb
:102f20001108410091009000110098000000060077
:102f3000889fbe0000047800a14b80000100e000e3
:102f400002003200010078000d003700b14b800014
:102f50006097200004003700910f540025003600d0
:102f60000180e800910090000100e000faff3a00c3
:102f700010003700920f54001e0036000280e80057
:102f8000100178000200e000faff3a001101780019
:102f9000b14b80006097200004003700910f54006f
:102fa000140036000180e80091009000828f5000ec
:102fb000faff3a00d94b8000888f5400010031009d
:102fc0008804780009007800360007000000e0005f
:102fd00004003a00888f5400050032008904d100b3
:102fe000f5ff3700091878009fff0700d2ff370070
:102ff0000000eb004f04be0000000600881f7800b0
:10300000630440000800a1008000eb00800f540022
:1030100021003600e30f540001003e00480020006c
:1030200008007800c2ff07008000eb000000e0000d
:1030300019003200900078009101780064815100fd
:10304000880f510003003100110190000208780040
:1030500007003700088140000208780091019000c5
:1030600013019800100178001109140088087800f5
:10307000100178000000eb000200e00004003200c4
:10308000920190000300e000010032000280e8009d
:10309000a04b88008180e800010078004f04780090
:1030a00000000600800078000000eb000100e00056
:1030b000050034000100780061f60700e10f4000d0
:1030c00001003a000000eb000000060000c0da003a
:1030d0000000060000c0da000000060000c0da00b0
:1030e0000000060085f807000400be00000006008e
:1030f000020ab900001bb9000200b80081004200ba
:083100008100430000000600fd
:020000040000fa
:103108000a0d000069320000635f0000696e00006c
:10311800746500007275000070740000203a0000a9
:1031280020410000434b000020720000656300004e
:103138006569000076650000640000000a0d000063
:1031480069320000635f0000696e0000746500006a
:103158007275000070740000203a0000204e0000d4
:10316800414300004b2000007265000063650000c9
:103178006976000065640000000a00000d6900001f
:10318800326300005f6900006e7400006572000021
:1031980075700000742000003a200000747200006e
:1031a800616e0000736d0000697400002069000002
:1031b8006e200000707200006f67000072650000ea
:1031c80073730000000a00000d69000032630000fc
:1031d8005f6900006e740000657200007570000081
:1031e800742000003a20000074720000616e000034
:1031f800736d00006974000020740000657200009f
:103208006d6900006e6100007465000064200000b4
:103218002b200000414300004b0000000a0d000075
:1032280069320000635f0000696e00007465000089
:103238007275000070740000206200007573000051
:10324800206300006f6c00006c6900007369000067
:103258006f6e0000000a00000d6900003263000074
:103268005f6900006e7400006572000075700000f0
:10327800742000006275000063200000636f000086
:103288006c6c000069730000696f00006e2000001c
:10329800636c000065610000726500006400000056
:1032a8000a0d000069320000635f0000696e0000cb
:1032b800746500007275000070740000203a000008
:1032c8002077000072690000746500002063000028
:1032d8006f6c000069730000696f00006e000000e9
:1032e8000a0d000069320000635f0000696e00008b
:1032f800746500007275000070740000203a0000c8
:1033080020770000726900007465000020630000e7
:103318006f6c000069730000696f00006e20000088
:10332800636c0000656100007265000064000000c5
:103338000a0d000069320000635f0000696e00003a
:10334800746500007275000070740000203a000077
:10335800206f000076650000726600006c6f000048
:1033680077200000696e000020720000656300008d
:10337800656900007665000020720000656700003e
:103388006973000074650000720000000a0d0000f7
:1033980069320000635f0000696e00007465000018
:1033a8007275000070740000203a0000206f000061
:1033b80076650000726600006c6f000077200000e0
:1033c800636c000065610000726500006400000025
:1033d8000a0d000069320000635f0000696e00009a
:1033e800746500007275000070740000203a0000d7
:1033f80020730000746f00007020000062690000f4
:1034080074200000646500007465000063740000a7
:1034180065640000000a00000d69000032630000c6
:103428005f6900006e74000065720000757000002e
:10343800742000003a2000006e650000772000002c
:103448006269000074200000726500006365000076
:10345800697600006564000020730000696e000052
:10346800636500002074000068650000206c00009f
:103478006173000074200000737400006f70000016
:10348800000a00000d690000326300005f69000057
:103498006e740000657200007570000074200000f2
:1034a8003a2000007374000061720000742000006c
:1034b8006269000074200000646500007465000003
:1034c8006374000065640000000a00000d690000d4
:1034d800326300005f6900006e74000065720000ce
:1034e80075700000742000003a2000003d6e000056
:1034f8006577000020620000697400002064000005
:1035080065740000656300007465000064200000b5
:10351800736900006e630000652000006c610000a4
:10352800737400002073000074610000727400005e
:10353800000a00000d690000326300005f690000a6
:103548006e74000065720000757000007420000041
:103558003a200000646100007461000020720000dd
:103568006561000064790000206900006e20000099
:103578007265000063650000697600006520000040
:10358800627500006666000065720000000a0000af
:103598000d690000326300005f6900006e7400006e
:1035a8006572000075700000742000003a20000069
:1035b8007761000069740000696e000067200000f0
:1035c800666f0000722000006461000074610000f2
:1035d800206900006e20000072650000636500002d
:1035e80069760000652000006275000066660000cc
:1035f80065720000000a00000d69000032630000d7
:103608005f6900006e74000065720000757000004c
:10361800742000003a20000074720000616e0000ff
:10362800736d000069740000206900006e200000be
:10363800707200006f67000072650000737300000d
:10364800207200006567000069730000746500005f
:10365800722000006973000020660000756c00008d
:103668006c0000000a0d000069320000635f000072
:10367800696e0000746500007275000070740000c7
:10368800203a000020740000726100006e73000090
:103698006d6900007420000074650000726d000000
:1036a800696e000061740000656400002028000055
:1036b800726500006769000073740000657200009d
:1036c800206500006d70000074790000000a000099
:1036d8000d690000326300005f6900006e7400002d
:1036e8006572000075700000742000003a20000028
:1036f800756e000065780000706500006374000056
:103708006564000020650000766500006e740000a6
:10371800204700004353000054410000542000009b
:103728003d20000025640000000a00000d6900002b
:10373800326300005f6900006e740000657200006b
:1037480075700000742000003a200000756e0000bb
:10375800657800007065000063740000656400000f
:1037680020650000766500006e74000020410000ae
:103778004444000031300000203d000020250000b6
:10378800640000000a0d000069320000635f000059
:10379800696e0000746500007275000070740000a6
:1037a800203a0000207500006e6500007870000067
:1037b8006563000074650000642000006576000001
:1037c800656e000074200000445f00004120000086
:1037d8003d20000025640000000a00000d6900007b
:1037e800326300005f6900006e74000065720000bb
:1037f80075700000742000003a200000756e00000b
:10380800657800007065000063740000656400005e
:1038180020650000766500006e74000020520000ec
:103828002f570000203d0000202500006400000004
:103838000a0d000069320000635f0000696e000035
:10384800746500007275000070740000203a000072
:1038580020650000766500006e740000207200008c
:10386800656300006569000076650000642000005b
:1038780069730000206d0000617300006b65000033
:103888006420000028730000616d000065200000be
:103898006173000020620000656600006f7200001e
:1038a80065290000000a00000d690000326300006d
:1038b8005f6900006e74000065720000757000009a
:1038c800742000003a200000737400006172000048
:1038d800742000006269000074200000706f00000e
:1038e800746500006e740000696100006c6c000073
:1038f80079200000646500007465000063740000ae
:1039080065640000000a00000d69000032630000d1
:103918005f6900006e740000657200007570000039
:10392800742000003a200000737400006f700000db
:103938002062000069740000207000006f740000ad
:10394800656e000074690000616c00006c7900000d
:103958002064000065740000656300007465000061
:10396800640000000a0d000069320000635f000077
:10397800696e0000746500007275000070740000c4
:10398800203a000020410000434b00002070000056
:103998006f740000656e000074690000616c0000bf
:1039a8006c79000020640000657400006563000005
:1039b80074650000640000000a0d00006932000010
:1039c800635f0000696e0000746500007275000096
:1039d80070740000203a0000204e000041430000af
:1039e8004b200000706f0000746500006e740000ca
:1039f800696100006c6c00007920000064650000bb
:103a0800746500006374000065640000000a00002b
:103a18000d690000326300005f6900006e740000e9
:103a28006572000075700000742000003a200000e4
:103a380062650000676900006e2000007472000073
:103a4800616e0000736d000069740000696f00000a
:103a58006e200000706f0000746500006e74000036
:103a6800696100006c6c000079200000646500004a
:103a7800746500006374000065640000000a0000bb
:103a88000d690000326300005f6900006e74000079
:103a98006572000075700000742000003a20000074
:103aa800656e00006420000074720000616e000002
:103ab800736d000069740000696f00006e200000db
:103ac800706f0000746500006e740000696100008a
:103ad8006c6c0000792000006465000074650000cb
:103ae8006374000065640000000a00000d690000ae
:103af800326300005f6900006e74000065720000a8
:103b080075700000742000003a2000006e6f0000fd
:103b180020650000766500006e74000020650000d6
:103b280078700000656300007465000064000000a0
:103b38000a0d000069320000635f0000696e000032
:103b4800746500007275000070740000457600000e
:103b5800656e0000742000003a20000072650000c5
:103b68006365000069760000656400002077000046
:103b7800686900006c650000207300006f66000033
:103b88007477000061720000652000006e6f00000d
:103b9800742000006c69000073740000656e0000fa
:103ba800696e000067200000666f00007220000048
:103bb80069740000000a00000d490000324300004b
:103bc8005f77000061690000744600006f720000b2
:103bd8005374000061720000742000003a20000055
:103be800656e000074650000720000000a0d000098
:103bf80049320000435f00007761000069740000eb
:103c0800466f000072530000746100007274000077
:103c1800203a0000206f0000746800006572000000
:103c280020650000766500006e74000020720000b8
:103c380065630000656900007665000064000000a7
:103c48000a0d000049320000435f00007761000060
:103c580069740000466f0000725300007461000030
:103c680072740000203a00002066000072610000b3
:103c78006d650000206100006c7200006561000045
:103c880064790000206300006f7200007275000004
:103c98007074000065640000000a00000d4900000f
:103ca800324300005f77000061690000744600003d
:103cb8006f720000537400006f700000203a00001b
:103cc800206500006e74000065720000000a0000a4
:103cd8000d490000324300005f7700006169000071
:103ce800744600006f720000537400006f7000008b
:103cf800203a0000206f0000746800006572000020
:103d080020650000766500006e74000020720000d7
:103d180065630000656900007665000064000000c6
:103d28000a0d000049320000435f0000776100007f
:103d380069740000466f000072530000746f000041
:103d4800702000003a20000066720000616d0000db
:103d580065200000616c000072650000616400006d
:103d680079200000636f0000727200007570000017
:103d780074650000640000000a0d0000493200006c
:103d8800435f00007761000069740000466f00001f
:103d980072410000636b0000203a000020650000bb
:103da8006e74000065720000000a00000d490000f2
:103db800324300005f77000061690000744600002c
:103dc8006f720000416300006b2000003a20000081
:103dd8006f740000686500007220000065760000be
:103de800656e0000742000007265000063650000c5
:103df8006976000065640000000a00000d490000b3
:103e0800324300005f7700006169000074460000db
:103e18006f720000416300006b2000003a20000030
:103e280066720000616d000065200000616c000092
:103e3800726500006164000079200000636f000073
:103e48007272000075700000746500006400000064
:103e58000a0d000049320000435f0000776100004e
:103e680069740000466f0000724e00006163000034
:103e78006b2000003a200000656e000074650000a9
:103e8800720000000a0d000049320000435f000084
:103e98007761000069740000466f0000724e0000f0
:103ea800616300006b2000003a2000006f7400007e
:103eb800686500007220000065760000656e0000ed
:103ec80074200000726500006365000069760000d8
:103ed80065640000000a00000d490000324300003c
:103ee8005f77000061690000744600006f7200008f
:103ef8004e610000636b0000203a0000206600005d
:103f0800726100006d650000206100006c720000a5
:103f18006561000064790000206300006f72000092
:103f2800727500007074000065640000000a0000eb
:103f38000d490000324300005f770000616900000e
:103f4800744600006f72000054720000616e000039
:103f5800736d000069730000696f00006e52000005
:103f68006561000064790000203a000020650000c7
:103f78006e74000065720000000a00000d49000020
:103f8800324300005f77000061690000744600005a
:103f98006f72000054720000616e0000736d0000c3
:103fa80069730000696f00006e52000065610000cf
:103fb80064790000203a0000206f00007468000057
:103fc8006572000020650000766500006e740000d0
:103fd80020720000656300006569000076650000d6
:103fe800640000000a0d000049320000435f000031
:103ff8007761000069740000466f00007254000089
:10400800726100006e7300006d6900007369000042
:104018006f6e0000526500006164000079200000a6
:104028003a20000066720000616d00006520000003
:10403800616c000072650000616400007920000076
:10404800636f0000727200007570000074650000f4
:10405800640000000a0d000049320000435f0000c0
:104068007761000069740000466f00007245000027
:104078006e64000054720000616e0000736d0000f1
:1040880069730000696f00006e2000003a2000008c
:10409800656e000074650000720000000a0d0000e3
:1040a80049320000435f0000776100006974000036
:1040b800466f0000724500006e64000054720000f4
:1040c800616e0000736d000069730000696f000085
:1040d8006e2000003a20000065720000726f000038
:1040e80072200000726500006365000069760000b8
:1040f80065640000000a00000d490000324300001a
:104108005f77000061690000744600006f7200006c
:10411800456e000064540000726100006e73000078
:104128006d690000736900006f6e0000203a00009e
:10413800206f0000746800006572000020650000b0
:10414800766500006e740000207200006563000050
:104158006569000076650000640000000a0d000033
:1041680049320000435f0000776100006974000075
:10417800466f0000724500006e6400005472000033
:10418800616e0000736d000069730000696f0000c4
:104198006e2000003a20000066720000616d000089
:1041a80065200000616c0000726500006164000019
:1041b80079200000636f00007272000075700000c3
:1041c80074650000640000000a0d00004932000018
:1041d800435f00007761000069740000466f0000cb
:1041e80072440000617400006152000065610000c3
:1041f80064790000203a0000206500006e74000019
:1042080065720000000a00000d49000032430000fa
:104218005f77000061690000744600006f7200005b
:104228004461000074610000526500006164000090
:10423800792000003a2000006f74000068650000d3
:104248007220000065760000656e00007420000092
:10425800726500006365000069760000656400000f
:10426800000a00000d490000324300005f7700009b
:1042780061690000744600006f720000446100002c
:10428800746100005265000061640000792000003c
:104298003a20000066720000616d00006520000091
:1042a800616c000072650000616400007920000004
:1042b800636f000072720000757000007465000082
:1042c800640000000a0d000049320000435f00004e
:1042d80070720000696e0000744500007272000080
:1042e8006f720000203a000020740000696d000021
:1042f8006572000020740000696d0000656f0000a1
:1043080075740000000a00000d49000032430000e7
:104318002053000065740000757000002043000001
:104328006f6d0000706c000065740000650000008f
:104338000a0a00000d4400004542000055540000e0
:1043480020540000524100004e5300004d49000027
:10435800534900004f4e000020490000324300003e
:1043680020280000726500006164000020610000e0
:104378006472000065730000732000002578000057
:10438800206f000066200000736c0000617600005a
:104398006520000025780000000a00000d65000077
:1043a8006e7600006f690000742000006e610000e6
:1043b800636b0000204f00004b0000000a0d000056
:1043c800656e0000766f00006974000020730000bd
:1043d800746f0000702000004f4b0000000a0000be
:1043e8000d4200007974000065520000656100000c
:1043f8006449000032430000203a000020720000a7
:1044080065610000642000006f70000065720000a4
:1044180061740000696f00006e2000007375000071
:104428006363000065650000642c00002044000000
:1044380061740000612000003d2000002564000038
:10444800000a00000d420000797400006552000067
:10445800656100006449000032430000203a000012
:104468002072000065610000642000006f70000089
:104478006572000061740000696f00006e20000022
:1044880066610000696c000065640000000a0000b5
:104498000a0a00000d420000797400006557000008
:1044a8007269000074650000493200004320000072
:1044b8003a200000736500006e640000206400006c
:1044c8006174000061200000307800002578000049
:1044d800206100007420000030780000257800007a
:1044e800206600006f720000207300006c610000fd
:1044f8007665000020300000782500007800000074
:104508000a0d00004279000074650000577200002f
:10451800697400006549000032430000203a000039
:10452800207700007269000074650000206f0000a9
:104538007065000072610000746900006f6e000011
:104548002073000075630000636500006564000067
:10455800000a00000d420000797400006557000051
:1045680072690000746500004932000043200000b1
:104578003a2000007772000069740000652000008e
:104588006f7000006572000061740000696f0000c0
:104598006e20000066610000696c00006564000020
:1045a8000000000058200000007e0000000a000003
:1045b8000d000000207c0000004f000020000000db
:1045c8002d200000007c00000058000000000000c2
:1045d8000a0a00000d4200006f6e00006a6f0000ba
:0c45e800757200000a0d000000000000c9
:020000040000fa
:1045f4000400fa0080812000604090000004e00084
:104604008b0232000040eb00004f78004110800024
:10461400110798001e0090004f00de0080407800d3
:1046240080812000100078004f00de0000407800f8
:1046340080cf50002a00320010c0b300004f780031
:104644009e00900000002800008060000000e00050
:1046540012003a0040882900801f7800f1f4070016
:104664008f87e9008081200020009000800078007e
:104674000100a0008081200021009800808120009a
:1046840010009000e30f500015003a0080812000d4
:104694008040eb006140980011003700208a290017
:1046a400801f7800dff407008f87e90080812000f5
:1046b40020009000800078000110a000808120007c
:1046c400210098008081200010009000e40f500029
:1046d40003003a00808120008040eb006140980094
:1046e4001e0090004e00de00e1406000808120004a
:1046f400100078004e00de006140600080cf500062
:104704002a00320010c0b300004f78009e009000d1
:1047140000002400008060000000e000050032007a
:10472400108c2900801f7800bef407008f87e900f1
:104734001e003700708e2900801f7800b9f407002e
:104744008f87e9008081200010009000e70f50005f
:1047540009003a0080812000200090008000780049
:104764000150a00080812000210098008081200059
:104774008040eb0061409800808120001000900090
:10478400e30f500009003a008081200020009000cf
:10479400800078000100a0008081200021009800a2
:1047a400808120008040eb00614098001e00900052
:1047b4004a00de00e14060008081200010007800a3
:1047c4004a00de006140600080cf500026003200c5
:1047d40010c0b300004f78009e00900000402000fd
:1047e400008060000000e0001b00320020912900de
:1047f400801f78008bf407008f87e90080812000f8
:10480400a00090000000280081007000808120003a
:104814002100980080812000200090008000780012
:104824000180a00080812000210098001e009000db
:1048340000a0a1001007980080812000900078005b
:1048440001a0a10001087800808120008040eb00d5
:104854006140980004003700f0922900801f78001e
:1048640070f407008f87e9001e0090004700de0007
:10487400e140600080812000100078004700de00e5
:104884006140600080cf50002600320010c0b300a9
:10489400004f78009e009000000820000080600017
:1048a4000000e0001b00320040952900801f7800c2
:1048b4005cf407008f87e90080812000a00090004d
:1048c40000002800810070008081200021009800f1
:1048d4008081200020009000800078000190a000da
:1048e40080812000210098001e0090000070a1002b
:1048f4001007980080812000900078000170a100ca
:1049040001087800808120008040eb00614098001d
:104914000400370040972900801f780041f4070005
:104924008f87e9001e0090004600de00e140600031
:1049340080812000100078004600de0061406000a5
:1049440080cf50002600320010c0b300004f780022
:104954009e00900000042000008060000000e00041
:104964001b003200c0992900801f78002df4070035
:104974008f87e90080812000a000900000002800bb
:104984008100700080812000210098008081200037
:10499400200090008000780001a0a0008081200009
:1049a400210098001e0090000060a10010079800ec
:1049b40080812000900078000160a1000108780047
:1049c400808120008040eb006140980004003700a3
:1049d400a09c2900801f780012f407008f87e9004b
:1049e4001e0090004400de00e14060008081200051
:1049f400100078004400de006140600080cf500069
:104a04001c00320010c0b300004f78001e0090005c
:104a1400700060000000e00012003200c09e290017
:104a2400801f7800fff307008f87e9008081200052
:104a340020009000800078000130a00080812000d8
:104a4400210098008081200010009000e20f5000a7
:104a540008003a00808120008040eb00614098000b
:104a640004003700f0a02900801f7800edf3070050
:104a74008f87e9001e0090004300de00e1406000e3
:104a840080812000100078004300de006140600057
:104a940080cf50001c00320010c0b300004f7800db
:104aa4001e009000680060000000e0001200320068
:104ab40050a42900801f7800daf307008f87e900eb
:104ac4008081200020009000800078000120a00058
:104ad4008081200021009800808120001000900037
:104ae400e10f500008003a00808120008040eb0074
:104af400614098000400370090a62900801f7800c8
:104b0400c8f307008f87e9001e0090000000d10061
:104b1400e140600080812000100078000000d10096
:104b24006140600080cf50001c00320010c0b30010
:104b3400004f78001e009000620060000000e0005a
:104b440012003200d0a92900801f7800b5f30700b5
:104b54008f87e90080812000200090008000780089
:104b64000160a00080812000210098008081200045
:104b740010009000e50f500008003a0080812000ea
:104b84008040eb006140980004003700b0ac29007d
:104b9400801f7800a3f307008f87e9001e009000b0
:104ba400e14060008081200010007800004078001f
:104bb4006140600080cf50001d00320010c0b3007f
:104bc400004f78001e009000610060000000e000cb
:104bd4000c003200f0af2900801f780091f3070029
:104be4008f87e9008081200010009000e60f5000bc
:104bf4000f003a00808120008040eb006140980063
:104c04000b00370060b32900801f780085f307008c
:104c14008f87e9008081200010009000e70f50008a
:104c240003003a00808120008040eb00614098003e
:104c34001e0090004900de00e140600080812000f9
:104c4400100078004900de006140600080cf500011
:104c54000b00320010c0b300004f78001e0090001b
:104c64004900de00614060000080fb00801f780086
:104c7400b0b62900801f78006af30700e487570064
:104c84001e0090004800de00e140600080812000aa
:104c9400100078004800de006140600080cf5000c2
:104ca4000b00320010c0b300004f78001e009000cb
:104cb4004800de00614060000080fb00801f780037
:104cc40090b92900801f780056f30700e487570045
:104cd4001e0090004500de00e1406000808120005d
:104ce400100078004500de006140600080cf500075
:104cf4000b00320010c0b300004f78001e0090007b
:104d04004500de00614060000080fb00801f7800e9
:104d140060bc2900801f780042f30700e487570035
:104d24001e0090004200de00e1406000808120000f
:104d3400100078004200de006140600080cf500027
:104d44000b00320010c0b300004f78001e0090002a
:104d54004200de00614060000080fb00801f78009c
:104d640010bf2900801f78002ef30700e487570046
:104d74001e4078000004a2000004e000b1003200ec
:104d8400c0c12900801f780026f307008f87e9003f
:104d94008081200010009000e40f50004700320092
:104da400e40f500007003e00e20f50001e003200e6
:104db400e20f50002e003e00e10f500008003200c8
:104dc40096003700e70f500066003200e80f5000ed
:104dd4007b003200e60f50004b0032008f0037009a
:104de4001e009000680060000000e00097003200a0
:104df40070c52900801f78000af307008f87e90037
:104e04008081200020009000800078000120a00014
:104e14008081200021009800808120008040eb00e8
:104e240061409800960037001e00900070006000fa
:104e34000000e0008700320070c82900801f78005d
:104e4400f8f207008f87e90080812000200090009d
:104e5400800078000130a0008081200021009800ab
:104e6400808120008040eb0061409800840037007e
:104e74009e00900000002800008060000000e00018
:104e840076003a0060cb2900801f7800e5f2070025
:104e94008f87e90080812000200090008000780046
:104ea4000100a00080812000210098008081200062
:104eb4008040eb0061409800710037009e00900034
:104ec40000002800008060000000e000650032005f
:104ed40000ce2900801f7800d2f207008f87e900f6
:104ee4008081200020009000800078000110a00044
:104ef4008081200021009800808120008040eb0008
:104f0400614098005e0037001e0090006100600060
:104f14000000e00005003a009e009000000024001c
:104f2400008060000000e00050003a00b0d029008a
:104f3400801f7800bbf207008f87e9008081200082
:104f440020009000800078000140a00080812000b3
:104f540021009800808120008040eb00614098008f
:104f6400470037001e009000610060000000e00070
:104f7400050032009e0090000000240000806000c4
:104f84000000e0003b00320030d42900801f78008c
:104f9400a4f207008f87e9008081200020009000a0
:104fa400800078000150a00080812000210098003a
:104fb400808120008040eb00614098003000370081
:104fc4001e009000610060000000e0000500320057
:104fd4009e00900000002400008060000000e000bb
:104fe4002600320030d42900801f78008df207009b
:104ff4008f87e900808120002000900080007800e5
:105004000150a000808120002100980080812000b0
:105014008040eb00614098001900370090d72900c8
:10502400801f78007ff207008f87e90014003700a3
:10503400c0d92900801f78007af207008f87e90021
:105044000f003700000000000d00370000000000d2
:105054000b003700000000000900370000000000ca
:1050640007003700000000000500370000000000c2
:1050740003003700000000000100370000000000ba
:105084000080fa00000006000400fa00204798009f
:105094000040eb00004f78001e4078000080fa00ca
:1050a400000006000400fa00204798000040eb00ce
:1050b400004f78002e4090000004e00030003200e1
:1050c400f0dd2900801f780056f207008f87e90081
:1050d4008081200041108000010878008081200038
:1050e4001100200011009800808120008000eb0056
:1050f400210098008081200021c3b30071409800f2
:105104008081200011c0b300614098000602a8000d
:105114000000000080812000604090000004e00056
:10512400fcff3a0080812000200090000000e00095
:1051340004003d00940107000040eb00004f78009c
:10514400130037008081200020009000640060007c
:105154000000e0000300320010c0b300004f7800ec
:105164000b0037000040eb00004f7800a0df29005f
:10517400801f78002bf207008f87e90004003700b6
:1051840040e22900801f780026f207008f87e9009b
:105194001e4078000080fa00000006000400fa00b7
:1051a400204798000040eb00004f78002e4090000c
:1051b4000004e0003000320010e52900801f780070
:1051c40018f207008f87e9008081200041108000d9
:1051d400010878008081200021002000110098003f
:1051e400808120008000eb00210098008081200055
:1051f40021c3b300714098008081200011c0b30026
:10520400614098000642a800000000008081200050
:10521400604090000004e000fcff3a008081200020
:10522400200090000000e00004003d00560107004b
:105234000040eb00004f780013003700808120000d
:1052440020009000680060000000e00003003200cd
:1052540010c0b300004f78000b0037000040eb0093
:10526400004f7800b0e62900801f7800edf10700b8
:105274008f87e9000400370040e92900801f780087
:10528400e8f107008f87e9001e4078000080fa00eb
:10529400000006000400fa00204798000040eb00dc
:1052a400004f78002e4090000004e00030003200ef
:1052b40000ec2900801f7800daf107008f87e900ed
:1052c4008081200041108000010878008081200046
:1052d4003100200011009800808120008000eb0044
:1052e400210098008081200021c3b3007140980000
:1052f4008081200011c0b3006140980000000000cc
:1053040080812000604090000004e000fcff3a002f
:1053140080812000200090000000e00004003d0097
:10532400190107000040eb00004f7800140037001b
:10533400808120002000900061006000004078001f
:105344000004e0000300320010c0b300004f7800f6
:105354000b0037000040eb00004f780090ed29006f
:10536400801f7800aff107008f87e9000400370041
:1053740010f02900801f7800aaf107008f87e90048
:105384001e4078000080fa00000006000400fa00c5
:10539400204798000040eb00004f78002e4090001a
:1053a4000004e0002f003200c0f22900801f7800c2
:1053b4009cf107008f87e900808120004110800064
:1053c400010878008081200041002000110098002d
:1053d400808120008000eb00210098008081200063
:1053e40021c3b300714098008081200011c0b30034
:1053f400614098000000000080812000604090001f
:105404000004e000fcff3a008081200020009000ae
:105414000000e00004003d00db0007000040eb005a
:10542400004f780013003700808120002000900096
:10543400620060000000e0000300320010c0b3000e
:10544400004f78000b0037000040eb00004f78005d
:1054540060f42900801f780072f107008f87e9004b
:1054640004003700f0f62900801f78006df1070072
:105474008f87e9001e4078000080fa0000000600d3
:105484000400fa00204798000040eb00004f780029
:105494002e4090000004e0002f003200b0f92900f3
:1054a400801f78005ff107008f87e900808120006a
:1054b40041108000010878008081200061002000f4
:1054c40011009800808120008000eb0021009800ea
:1054d4008081200021c3b3007140980080812000a6
:1054e40011c0b300614098000000000080812000da
:1054f400604090000004e000fcff3a00808120003e
:10550400200090000000e00004003d009e00070021
:105514000040eb00004f780013003700808120002a
:1055240020009000700060000000e00003003200e2
:1055340010c0b300004f78000b0037000040eb00b0
:10554400004f780010fc2900801f780035f1070017
:105554008f87e9000400370060ff2900801f78006e
:1055640030f107008f87e9001e4078000080fa00c0
:10557400000006000400fa00204798003147980014
:105584000040eb00004f78002e4090000004e00043
:1055940037003200e0022a00801f780021f1070062
:1055a4008f87e90080812000411080000108780085
:1055b400808120007100200011009800808120006b
